{
	"ValidatorView.sol": {
		"ValidatorHelper": {
			"abi": [
				{
					"anonymous": false,
					"inputs": [
						{
							"indexed": true,
							"internalType": "address",
							"name": "previousOwner",
							"type": "address"
						},
						{
							"indexed": true,
							"internalType": "address",
							"name": "newOwner",
							"type": "address"
						}
					],
					"name": "OwnershipTransferred",
					"type": "event"
				},
				{
					"anonymous": false,
					"inputs": [
						{
							"indexed": false,
							"internalType": "address",
							"name": "validator",
							"type": "address"
						},
						{
							"indexed": false,
							"internalType": "uint256",
							"name": "amount",
							"type": "uint256"
						},
						{
							"indexed": false,
							"internalType": "uint256",
							"name": "timestamp",
							"type": "uint256"
						}
					],
					"name": "Stake",
					"type": "event"
				},
				{
					"anonymous": false,
					"inputs": [
						{
							"indexed": false,
							"internalType": "address",
							"name": "validator",
							"type": "address"
						},
						{
							"indexed": false,
							"internalType": "uint256",
							"name": "timestamp",
							"type": "uint256"
						}
					],
					"name": "Unstake",
					"type": "event"
				},
				{
					"anonymous": false,
					"inputs": [
						{
							"indexed": false,
							"internalType": "address",
							"name": "validator",
							"type": "address"
						},
						{
							"indexed": false,
							"internalType": "uint256",
							"name": "amount",
							"type": "uint256"
						},
						{
							"indexed": false,
							"internalType": "uint256",
							"name": "timestamp",
							"type": "uint256"
						}
					],
					"name": "WithdrawProfit",
					"type": "event"
				},
				{
					"inputs": [
						{
							"internalType": "uint256",
							"name": "amount",
							"type": "uint256"
						}
					],
					"name": "changeMinimumValidatorStaking",
					"outputs": [],
					"stateMutability": "nonpayable",
					"type": "function"
				},
				{
					"inputs": [
						{
							"internalType": "address",
							"name": "user",
							"type": "address"
						}
					],
					"name": "checkValidator",
					"outputs": [
						{
							"internalType": "bool",
							"name": "",
							"type": "bool"
						}
					],
					"stateMutability": "view",
					"type": "function"
				},
				{
					"inputs": [
						{
							"internalType": "address payable",
							"name": "feeAddr",
							"type": "address"
						},
						{
							"internalType": "string",
							"name": "moniker",
							"type": "string"
						},
						{
							"internalType": "string",
							"name": "identity",
							"type": "string"
						},
						{
							"internalType": "string",
							"name": "website",
							"type": "string"
						},
						{
							"internalType": "string",
							"name": "email",
							"type": "string"
						},
						{
							"internalType": "string",
							"name": "details",
							"type": "string"
						}
					],
					"name": "createOrEditValidator",
					"outputs": [
						{
							"internalType": "bool",
							"name": "",
							"type": "bool"
						}
					],
					"stateMutability": "payable",
					"type": "function"
				},
				{
					"inputs": [],
					"name": "extraRewardsPerBlock",
					"outputs": [
						{
							"internalType": "uint256",
							"name": "",
							"type": "uint256"
						}
					],
					"stateMutability": "view",
					"type": "function"
				},
				{
					"inputs": [],
					"name": "getAllValidatorInfo",
					"outputs": [
						{
							"internalType": "uint256",
							"name": "totalValidatorCount",
							"type": "uint256"
						},
						{
							"internalType": "uint256",
							"name": "totalStakedCoins",
							"type": "uint256"
						},
						{
							"internalType": "address[]",
							"name": "",
							"type": "address[]"
						},
						{
							"internalType": "enum InterfaceValidator.Status[]",
							"name": "",
							"type": "uint8[]"
						},
						{
							"internalType": "uint256[]",
							"name": "",
							"type": "uint256[]"
						},
						{
							"internalType": "string[]",
							"name": "",
							"type": "string[]"
						},
						{
							"internalType": "string[]",
							"name": "",
							"type": "string[]"
						}
					],
					"stateMutability": "view",
					"type": "function"
				},
				{
					"inputs": [],
					"name": "lastRewardedBlock",
					"outputs": [
						{
							"internalType": "uint256",
							"name": "",
							"type": "uint256"
						}
					],
					"stateMutability": "view",
					"type": "function"
				},
				{
					"inputs": [],
					"name": "minimumStakingAmount",
					"outputs": [
						{
							"internalType": "uint256",
							"name": "",
							"type": "uint256"
						}
					],
					"stateMutability": "view",
					"type": "function"
				},
				{
					"inputs": [],
					"name": "minimumValidatorStaking",
					"outputs": [
						{
							"internalType": "uint256",
							"name": "",
							"type": "uint256"
						}
					],
					"stateMutability": "view",
					"type": "function"
				},
				{
					"inputs": [],
					"name": "owner",
					"outputs": [
						{
							"internalType": "address",
							"name": "",
							"type": "address"
						}
					],
					"stateMutability": "view",
					"type": "function"
				},
				{
					"inputs": [],
					"name": "renounceOwnership",
					"outputs": [],
					"stateMutability": "nonpayable",
					"type": "function"
				},
				{
					"inputs": [],
					"name": "rescueCoins",
					"outputs": [],
					"stateMutability": "nonpayable",
					"type": "function"
				},
				{
					"inputs": [
						{
							"internalType": "address",
							"name": "",
							"type": "address"
						}
					],
					"name": "rewardBalance",
					"outputs": [
						{
							"internalType": "uint256",
							"name": "",
							"type": "uint256"
						}
					],
					"stateMutability": "view",
					"type": "function"
				},
				{
					"inputs": [],
					"name": "rewardFund",
					"outputs": [
						{
							"internalType": "uint256",
							"name": "",
							"type": "uint256"
						}
					],
					"stateMutability": "view",
					"type": "function"
				},
				{
					"inputs": [
						{
							"internalType": "address",
							"name": "user",
							"type": "address"
						},
						{
							"internalType": "address",
							"name": "validatorAddress",
							"type": "address"
						}
					],
					"name": "stakingValidations",
					"outputs": [
						{
							"internalType": "uint256",
							"name": "minimumStakingAmt",
							"type": "uint256"
						},
						{
							"internalType": "uint256",
							"name": "stakingWaiting",
							"type": "uint256"
						}
					],
					"stateMutability": "view",
					"type": "function"
				},
				{
					"inputs": [
						{
							"internalType": "address",
							"name": "validator",
							"type": "address"
						}
					],
					"name": "totalProfitEarned",
					"outputs": [
						{
							"internalType": "uint256",
							"name": "",
							"type": "uint256"
						}
					],
					"stateMutability": "view",
					"type": "function"
				},
				{
					"inputs": [
						{
							"internalType": "address",
							"name": "",
							"type": "address"
						}
					],
					"name": "totalProfitWithdrawn",
					"outputs": [
						{
							"internalType": "uint256",
							"name": "",
							"type": "uint256"
						}
					],
					"stateMutability": "view",
					"type": "function"
				},
				{
					"inputs": [
						{
							"internalType": "address",
							"name": "newOwner",
							"type": "address"
						}
					],
					"name": "transferOwnership",
					"outputs": [],
					"stateMutability": "nonpayable",
					"type": "function"
				},
				{
					"inputs": [
						{
							"internalType": "address",
							"name": "validator",
							"type": "address"
						}
					],
					"name": "unstake",
					"outputs": [
						{
							"internalType": "bool",
							"name": "",
							"type": "bool"
						}
					],
					"stateMutability": "nonpayable",
					"type": "function"
				},
				{
					"inputs": [],
					"name": "valContract",
					"outputs": [
						{
							"internalType": "contract InterfaceValidator",
							"name": "",
							"type": "address"
						}
					],
					"stateMutability": "view",
					"type": "function"
				},
				{
					"inputs": [
						{
							"internalType": "address",
							"name": "validatorAddress",
							"type": "address"
						},
						{
							"internalType": "address",
							"name": "user",
							"type": "address"
						}
					],
					"name": "validatorSpecificInfo1",
					"outputs": [
						{
							"internalType": "string",
							"name": "identityName",
							"type": "string"
						},
						{
							"internalType": "string",
							"name": "website",
							"type": "string"
						},
						{
							"internalType": "string",
							"name": "otherDetails",
							"type": "string"
						},
						{
							"internalType": "uint256",
							"name": "withdrawableRewards",
							"type": "uint256"
						},
						{
							"internalType": "uint256",
							"name": "stakedCoins",
							"type": "uint256"
						},
						{
							"internalType": "uint256",
							"name": "waitingBlocksForUnstake",
							"type": "uint256"
						}
					],
					"stateMutability": "view",
					"type": "function"
				},
				{
					"inputs": [
						{
							"internalType": "address",
							"name": "validatorAddress",
							"type": "address"
						},
						{
							"internalType": "address",
							"name": "user",
							"type": "address"
						}
					],
					"name": "validatorSpecificInfo2",
					"outputs": [
						{
							"internalType": "uint256",
							"name": "totalStakedCoins",
							"type": "uint256"
						},
						{
							"internalType": "enum InterfaceValidator.Status",
							"name": "status",
							"type": "uint8"
						},
						{
							"internalType": "uint256",
							"name": "selfStakedCoins",
							"type": "uint256"
						},
						{
							"internalType": "uint256",
							"name": "masterVoters",
							"type": "uint256"
						},
						{
							"internalType": "uint256",
							"name": "stakers",
							"type": "uint256"
						},
						{
							"internalType": "address",
							"name": "",
							"type": "address"
						}
					],
					"stateMutability": "view",
					"type": "function"
				},
				{
					"inputs": [
						{
							"internalType": "address",
							"name": "validator",
							"type": "address"
						}
					],
					"name": "viewValidatorRewards",
					"outputs": [
						{
							"internalType": "uint256",
							"name": "rewardAmount",
							"type": "uint256"
						}
					],
					"stateMutability": "view",
					"type": "function"
				},
				{
					"inputs": [
						{
							"internalType": "address",
							"name": "user",
							"type": "address"
						},
						{
							"internalType": "address",
							"name": "validator",
							"type": "address"
						}
					],
					"name": "waitingUnstaking",
					"outputs": [
						{
							"internalType": "uint256",
							"name": "",
							"type": "uint256"
						}
					],
					"stateMutability": "view",
					"type": "function"
				},
				{
					"inputs": [
						{
							"internalType": "address",
							"name": "user",
							"type": "address"
						},
						{
							"internalType": "address",
							"name": "validatorAddress",
							"type": "address"
						}
					],
					"name": "waitingWithdrawProfit",
					"outputs": [
						{
							"internalType": "uint256",
							"name": "",
							"type": "uint256"
						}
					],
					"stateMutability": "view",
					"type": "function"
				},
				{
					"inputs": [
						{
							"internalType": "address",
							"name": "user",
							"type": "address"
						},
						{
							"internalType": "address",
							"name": "validatorAddress",
							"type": "address"
						}
					],
					"name": "waitingWithdrawStaking",
					"outputs": [
						{
							"internalType": "uint256",
							"name": "",
							"type": "uint256"
						}
					],
					"stateMutability": "view",
					"type": "function"
				},
				{
					"inputs": [
						{
							"internalType": "address",
							"name": "validator",
							"type": "address"
						}
					],
					"name": "withdrawStakingReward",
					"outputs": [],
					"stateMutability": "nonpayable",
					"type": "function"
				},
				{
					"stateMutability": "payable",
					"type": "receive"
				}
			],
			"devdoc": {
				"kind": "dev",
				"methods": {
					"owner()": {
						"details": "Returns the address of the current owner."
					},
					"renounceOwnership()": {
						"details": "Leaves the contract without owner. It will not be possible to call `onlyOwner` functions anymore. Can only be called by the current owner. NOTE: Renouncing ownership will leave the contract without an owner, thereby removing any functionality that is only available to the owner."
					},
					"transferOwnership(address)": {
						"details": "Transfers ownership of the contract to a new account (`newOwner`). Can only be called by the current owner."
					}
				},
				"version": 1
			},
			"evm": {
				"assembly": "    /* \"ValidatorView.sol\":5268:13966  contract ValidatorHelper is Ownable {... */\n  mstore(0x40, 0x80)\n    /* \"ValidatorView.sol\":5311:5413  InterfaceValidator public valContract = InterfaceValidator(0x000000000000000000000000000000000000f000) */\n  0x01\n  dup1\n  sload\n  not(sub(shl(0xa0, 0x01), 0x01))\n  and\n    /* \"ValidatorView.sol\":5370:5412  0x000000000000000000000000000000000000f000 */\n  0xf000\n    /* \"ValidatorView.sol\":5311:5413  InterfaceValidator public valContract = InterfaceValidator(0x000000000000000000000000000000000000f000) */\n  or\n  swap1\n  sstore\n    /* \"ValidatorView.sol\":5460:5474  1000000 * 1e18 */\n  0xd3c21bcecceda1000000\n    /* \"ValidatorView.sol\":5419:5474  uint256 public minimumValidatorStaking = 1000000 * 1e18 */\n  0x02\n  sstore\n    /* \"ValidatorView.sol\":5557:5565  1 * 1e18 */\n  0x0de0b6b3a7640000\n    /* \"ValidatorView.sol\":5519:5565  uint256 public extraRewardsPerBlock = 1 * 1e18 */\n  0x04\n  sstore\n    /* \"ValidatorView.sol\":5268:13966  contract ValidatorHelper is Ownable {... */\n  callvalue\n  dup1\n  iszero\n  tag_1\n  jumpi\n  0x00\n  dup1\n  revert\ntag_1:\n  pop\n    /* \"ValidatorView.sol\":3546:3578  _transferOwnership(_msgSender()) */\n  tag_4\n    /* \"ValidatorView.sol\":2621:2631  msg.sender */\n  caller\n    /* \"ValidatorView.sol\":3546:3564  _transferOwnership */\n  tag_7\n    /* \"ValidatorView.sol\":3546:3578  _transferOwnership(_msgSender()) */\n  jump\t// in\ntag_4:\n    /* \"ValidatorView.sol\":5268:13966  contract ValidatorHelper is Ownable {... */\n  jump(tag_8)\n    /* \"ValidatorView.sol\":5077:5264  function _transferOwnership(address newOwner) internal virtual {... */\ntag_7:\n    /* \"ValidatorView.sol\":5150:5166  address oldOwner */\n  0x00\n    /* \"ValidatorView.sol\":5169:5175  _owner */\n  dup1\n  sload\n  sub(shl(0xa0, 0x01), 0x01)\n    /* \"ValidatorView.sol\":5185:5202  _owner = newOwner */\n  dup4\n  dup2\n  and\n  not(sub(shl(0xa0, 0x01), 0x01))\n  dup4\n  and\n  dup2\n  or\n  dup5\n  sstore\n    /* \"ValidatorView.sol\":5217:5257  OwnershipTransferred(oldOwner, newOwner) */\n  mload(0x40)\n    /* \"ValidatorView.sol\":5169:5175  _owner */\n  swap2\n  swap1\n  swap3\n  and\n  swap3\n  dup4\n  swap2\n    /* \"ValidatorView.sol\":5217:5257  OwnershipTransferred(oldOwner, newOwner) */\n  0x8be0079c531659141344cd1fd0a4f28419497f9722a3daafe3b4186f6b6457e0\n  swap2\n    /* \"ValidatorView.sol\":5150:5166  address oldOwner */\n  swap1\n    /* \"ValidatorView.sol\":5217:5257  OwnershipTransferred(oldOwner, newOwner) */\n  log3\n    /* \"ValidatorView.sol\":5140:5264  {... */\n  pop\n    /* \"ValidatorView.sol\":5077:5264  function _transferOwnership(address newOwner) internal virtual {... */\n  pop\n  jump\t// out\n    /* \"ValidatorView.sol\":5268:13966  contract ValidatorHelper is Ownable {... */\ntag_8:\n  dataSize(sub_0)\n  dup1\n  dataOffset(sub_0)\n  0x00\n  codecopy\n  0x00\n  return\nstop\n\nsub_0: assembly {\n        /* \"ValidatorView.sol\":5268:13966  contract ValidatorHelper is Ownable {... */\n      mstore(0x40, 0x80)\n      jumpi(tag_1, lt(calldatasize, 0x04))\n      shr(0xe0, calldataload(0x00))\n      dup1\n      0x8ae53dbd\n      gt\n      tag_29\n      jumpi\n      dup1\n      0xb0d2d011\n      gt\n      tag_30\n      jumpi\n      dup1\n      0xefe22266\n      gt\n      tag_31\n      jumpi\n      dup1\n      0xefe22266\n      eq\n      tag_25\n      jumpi\n      dup1\n      0xf188df2b\n      eq\n      tag_26\n      jumpi\n      dup1\n      0xf2888dbb\n      eq\n      tag_27\n      jumpi\n      dup1\n      0xf2fde38b\n      eq\n      tag_28\n      jumpi\n      0x00\n      dup1\n      revert\n    tag_31:\n      dup1\n      0xb0d2d011\n      eq\n      tag_22\n      jumpi\n      dup1\n      0xd4aa673b\n      eq\n      tag_23\n      jumpi\n      dup1\n      0xe1b6d9d4\n      eq\n      tag_24\n      jumpi\n      0x00\n      dup1\n      revert\n    tag_30:\n      dup1\n      0x8ae53dbd\n      eq\n      tag_16\n      jumpi\n      dup1\n      0x8da5cb5b\n      eq\n      tag_17\n      jumpi\n      dup1\n      0x90efe56d\n      eq\n      tag_18\n      jumpi\n      dup1\n      0xa406fcb7\n      eq\n      tag_19\n      jumpi\n      dup1\n      0xafbbc803\n      eq\n      tag_20\n      jumpi\n      dup1\n      0xb0806108\n      eq\n      tag_21\n      jumpi\n      0x00\n      dup1\n      revert\n    tag_29:\n      dup1\n      0x58ae4e99\n      gt\n      tag_32\n      jumpi\n      dup1\n      0x715018a6\n      gt\n      tag_33\n      jumpi\n      dup1\n      0x715018a6\n      eq\n      tag_12\n      jumpi\n      dup1\n      0x72d30a70\n      eq\n      tag_13\n      jumpi\n      dup1\n      0x797327ae\n      eq\n      tag_14\n      jumpi\n      dup1\n      0x7fc5e1e5\n      eq\n      tag_15\n      jumpi\n      0x00\n      dup1\n      revert\n    tag_33:\n      dup1\n      0x58ae4e99\n      eq\n      tag_4\n      jumpi\n      dup1\n      0x64877981\n      eq\n      tag_10\n      jumpi\n      dup1\n      0x67b40cf7\n      eq\n      tag_11\n      jumpi\n      0x00\n      dup1\n      revert\n    tag_32:\n      dup1\n      0x0976c65d\n      eq\n      tag_3\n      jumpi\n      dup1\n      0x14306168\n      eq\n      tag_4\n      jumpi\n      dup1\n      0x1d06022c\n      eq\n      tag_5\n      jumpi\n      dup1\n      0x1e724caa\n      eq\n      tag_6\n      jumpi\n      dup1\n      0x3f8dc65a\n      eq\n      tag_7\n      jumpi\n      dup1\n      0x4cc67b5b\n      eq\n      tag_8\n      jumpi\n      0x00\n      dup1\n      revert\n    tag_1:\n      jumpi(tag_2, calldatasize)\n        /* \"ValidatorView.sol\":5987:5996  msg.value */\n      callvalue\n        /* \"ValidatorView.sol\":5973:5983  rewardFund */\n      0x05\n      0x00\n        /* \"ValidatorView.sol\":5973:5996  rewardFund += msg.value */\n      dup3\n      dup3\n      sload\n      tag_36\n      swap2\n      swap1\n      tag_37\n      jump\t// in\n    tag_36:\n      swap3\n      pop\n      pop\n      dup2\n      swap1\n      sstore\n      stop\n        /* \"ValidatorView.sol\":5268:13966  contract ValidatorHelper is Ownable {... */\n    tag_2:\n      0x00\n      dup1\n      revert\n        /* \"ValidatorView.sol\":5419:5474  uint256 public minimumValidatorStaking = 1000000 * 1e18 */\n    tag_3:\n      callvalue\n      dup1\n      iszero\n      tag_38\n      jumpi\n      0x00\n      dup1\n      revert\n    tag_38:\n      pop\n      tag_39\n      sload(0x02)\n      dup2\n      jump\n    tag_39:\n      mload(0x40)\n        /* \"#utility.yul\":422:447   */\n      swap1\n      dup2\n      mstore\n        /* \"#utility.yul\":410:412   */\n      0x20\n        /* \"#utility.yul\":395:413   */\n      add\n        /* \"ValidatorView.sol\":5419:5474  uint256 public minimumValidatorStaking = 1000000 * 1e18 */\n    tag_41:\n      mload(0x40)\n      dup1\n      swap2\n      sub\n      swap1\n      return\n        /* \"ValidatorView.sol\":12712:12928  function waitingUnstaking(address user, address validator) external view returns(uint256){... */\n    tag_4:\n      callvalue\n      dup1\n      iszero\n      tag_43\n      jumpi\n      0x00\n      dup1\n      revert\n    tag_43:\n      pop\n      tag_39\n      tag_45\n      calldatasize\n      0x04\n      tag_46\n      jump\t// in\n    tag_45:\n      tag_47\n      jump\t// in\n        /* \"ValidatorView.sol\":9357:9479  function changeMinimumValidatorStaking(uint256 amount) external onlyOwner{... */\n    tag_5:\n      callvalue\n      dup1\n      iszero\n      tag_49\n      jumpi\n      0x00\n      dup1\n      revert\n    tag_49:\n      pop\n      tag_50\n      tag_51\n      calldatasize\n      0x04\n      tag_52\n      jump\t// in\n    tag_51:\n      tag_53\n      jump\t// in\n    tag_50:\n      stop\n        /* \"ValidatorView.sol\":7458:8751  function viewValidatorRewards(address validator) public view returns(uint256 rewardAmount){... */\n    tag_6:\n      callvalue\n      dup1\n      iszero\n      tag_54\n      jumpi\n      0x00\n      dup1\n      revert\n    tag_54:\n      pop\n      tag_39\n      tag_56\n      calldatasize\n      0x04\n      tag_57\n      jump\t// in\n    tag_56:\n      tag_58\n      jump\t// in\n        /* \"ValidatorView.sol\":9524:10935  function getAllValidatorInfo() external view returns (uint256 totalValidatorCount,uint256 totalStakedCoins,address[] memory,InterfaceValidator.Status[] memory,uint256[] memory,string[] memory,string[] memory)... */\n    tag_7:\n      callvalue\n      dup1\n      iszero\n      tag_60\n      jumpi\n      0x00\n      dup1\n      revert\n    tag_60:\n      pop\n      tag_61\n      tag_62\n      jump\t// in\n    tag_61:\n      mload(0x40)\n      tag_41\n      swap8\n      swap7\n      swap6\n      swap5\n      swap4\n      swap3\n      swap2\n      swap1\n      tag_64\n      jump\t// in\n        /* \"ValidatorView.sol\":5480:5512  uint256 public lastRewardedBlock */\n    tag_8:\n      callvalue\n      dup1\n      iszero\n      tag_65\n      jumpi\n      0x00\n      dup1\n      revert\n    tag_65:\n      pop\n      tag_39\n      sload(0x03)\n      dup2\n      jump\n        /* \"ValidatorView.sol\":11742:12307  function validatorSpecificInfo2(address validatorAddress, address user) external view returns(uint256 totalStakedCoins, InterfaceValidator.Status status, uint256 selfStakedCoins, uint256 masterVoters, uint256 stakers, address){... */\n    tag_10:\n      callvalue\n      dup1\n      iszero\n      tag_74\n      jumpi\n      0x00\n      dup1\n      revert\n    tag_74:\n      pop\n      tag_75\n      tag_76\n      calldatasize\n      0x04\n      tag_46\n      jump\t// in\n    tag_76:\n      tag_77\n      jump\t// in\n    tag_75:\n      mload(0x40)\n      tag_41\n      swap7\n      swap6\n      swap5\n      swap4\n      swap3\n      swap2\n      swap1\n      tag_79\n      jump\t// in\n        /* \"ValidatorView.sol\":5602:5648  mapping(address=>uint256) public rewardBalance */\n    tag_11:\n      callvalue\n      dup1\n      iszero\n      tag_80\n      jumpi\n      0x00\n      dup1\n      revert\n    tag_80:\n      pop\n      tag_39\n      tag_82\n      calldatasize\n      0x04\n      tag_57\n      jump\t// in\n    tag_82:\n      mstore(0x20, 0x06)\n      0x00\n      swap1\n      dup2\n      mstore\n      0x40\n      swap1\n      keccak256\n      sload\n      dup2\n      jump\n        /* \"ValidatorView.sol\":4441:4542  function renounceOwnership() public virtual onlyOwner {... */\n    tag_12:\n      callvalue\n      dup1\n      iszero\n      tag_85\n      jumpi\n      0x00\n      dup1\n      revert\n    tag_85:\n      pop\n      tag_50\n      tag_87\n      jump\t// in\n        /* \"ValidatorView.sol\":6856:7452  function withdrawStakingReward(address validator) external {... */\n    tag_13:\n      callvalue\n      dup1\n      iszero\n      tag_88\n      jumpi\n      0x00\n      dup1\n      revert\n    tag_88:\n      pop\n      tag_50\n      tag_90\n      calldatasize\n      0x04\n      tag_57\n      jump\t// in\n    tag_90:\n      tag_91\n      jump\t// in\n        /* \"ValidatorView.sol\":13823:13964  function checkValidator(address user) external view returns(bool){... */\n    tag_14:\n      callvalue\n      dup1\n      iszero\n      tag_92\n      jumpi\n      0x00\n      dup1\n      revert\n    tag_92:\n      pop\n      tag_93\n      tag_94\n      calldatasize\n      0x04\n      tag_57\n      jump\t// in\n    tag_94:\n      pop\n        /* \"ValidatorView.sol\":13953:13957  true */\n      0x01\n      swap1\n        /* \"ValidatorView.sol\":13823:13964  function checkValidator(address user) external view returns(bool){... */\n      jump\n    tag_93:\n      mload(0x40)\n        /* \"#utility.yul\":6243:6257   */\n      swap1\n      iszero\n        /* \"#utility.yul\":6236:6258   */\n      iszero\n        /* \"#utility.yul\":6218:6259   */\n      dup2\n      mstore\n        /* \"#utility.yul\":6206:6208   */\n      0x20\n        /* \"#utility.yul\":6191:6209   */\n      add\n        /* \"ValidatorView.sol\":13823:13964  function checkValidator(address user) external view returns(bool){... */\n      tag_41\n        /* \"#utility.yul\":6078:6265   */\n      jump\n        /* \"ValidatorView.sol\":12315:12478  function totalProfitEarned(address validator) public view returns(uint256){... */\n    tag_15:\n      callvalue\n      dup1\n      iszero\n      tag_98\n      jumpi\n      0x00\n      dup1\n      revert\n    tag_98:\n      pop\n      tag_39\n      tag_100\n      calldatasize\n      0x04\n      tag_57\n      jump\t// in\n    tag_100:\n      tag_101\n      jump\t// in\n        /* \"ValidatorView.sol\":5519:5565  uint256 public extraRewardsPerBlock = 1 * 1e18 */\n    tag_16:\n      callvalue\n      dup1\n      iszero\n      tag_103\n      jumpi\n      0x00\n      dup1\n      revert\n    tag_103:\n      pop\n      tag_39\n      sload(0x04)\n      dup2\n      jump\n        /* \"ValidatorView.sol\":3811:3896  function owner() public view virtual returns (address) {... */\n    tag_17:\n      callvalue\n      dup1\n      iszero\n      tag_107\n      jumpi\n      0x00\n      dup1\n      revert\n    tag_107:\n      pop\n        /* \"ValidatorView.sol\":3857:3864  address */\n      0x00\n        /* \"ValidatorView.sol\":3883:3889  _owner */\n      sload\n      sub(shl(0xa0, 0x01), 0x01)\n      and\n        /* \"ValidatorView.sol\":3811:3896  function owner() public view virtual returns (address) {... */\n    tag_108:\n      mload(0x40)\n      sub(shl(0xa0, 0x01), 0x01)\n        /* \"#utility.yul\":6434:6466   */\n      swap1\n      swap2\n      and\n        /* \"#utility.yul\":6416:6467   */\n      dup2\n      mstore\n        /* \"#utility.yul\":6404:6406   */\n      0x20\n        /* \"#utility.yul\":6389:6407   */\n      add\n        /* \"ValidatorView.sol\":3811:3896  function owner() public view virtual returns (address) {... */\n      tag_41\n        /* \"#utility.yul\":6270:6473   */\n      jump\n        /* \"ValidatorView.sol\":10942:11735  function validatorSpecificInfo1(address validatorAddress, address user) external view returns(string memory identityName, string memory website, string memory otherDetails, uint256 withdrawableRewards, uint256 stakedCoins, uint256 waitingBlocksForUnstake ){... */\n    tag_18:\n      callvalue\n      dup1\n      iszero\n      tag_112\n      jumpi\n      0x00\n      dup1\n      revert\n    tag_112:\n      pop\n      tag_113\n      tag_114\n      calldatasize\n      0x04\n      tag_46\n      jump\t// in\n    tag_114:\n      tag_115\n      jump\t// in\n    tag_113:\n      mload(0x40)\n      tag_41\n      swap7\n      swap6\n      swap5\n      swap4\n      swap3\n      swap2\n      swap1\n      tag_117\n      jump\t// in\n        /* \"ValidatorView.sol\":6010:6612  function createOrEditValidator(... */\n    tag_19:\n      tag_93\n      tag_119\n      calldatasize\n      0x04\n      tag_120\n      jump\t// in\n    tag_119:\n      tag_121\n      jump\t// in\n        /* \"ValidatorView.sol\":5311:5413  InterfaceValidator public valContract = InterfaceValidator(0x000000000000000000000000000000000000f000) */\n    tag_20:\n      callvalue\n      dup1\n      iszero\n      tag_123\n      jumpi\n      0x00\n      dup1\n      revert\n    tag_123:\n      pop\n      sload(0x01)\n      tag_108\n      swap1\n      sub(shl(0xa0, 0x01), 0x01)\n      and\n      dup2\n      jump\n        /* \"ValidatorView.sol\":9198:9352  function rescueCoins() external onlyOwner{... */\n    tag_21:\n      callvalue\n      dup1\n      iszero\n      tag_128\n      jumpi\n      0x00\n      dup1\n      revert\n    tag_128:\n      pop\n      tag_50\n      tag_130\n      jump\t// in\n        /* \"ValidatorView.sol\":13447:13565  function minimumStakingAmount() external view returns(uint256){... */\n    tag_22:\n      callvalue\n      dup1\n      iszero\n      tag_131\n      jumpi\n      0x00\n      dup1\n      revert\n    tag_131:\n      pop\n      tag_39\n      tag_133\n      jump\t// in\n        /* \"ValidatorView.sol\":12934:13441  function waitingWithdrawStaking(address user, address validatorAddress) public view returns(uint256){... */\n    tag_23:\n      callvalue\n      dup1\n      iszero\n      tag_135\n      jumpi\n      0x00\n      dup1\n      revert\n    tag_135:\n      pop\n      tag_39\n      tag_137\n      calldatasize\n      0x04\n      tag_46\n      jump\t// in\n    tag_137:\n      tag_138\n      jump\t// in\n        /* \"ValidatorView.sol\":13571:13817  function stakingValidations(address user, address validatorAddress) external view returns(uint256 minimumStakingAmt, uint256 stakingWaiting){... */\n    tag_24:\n      callvalue\n      dup1\n      iszero\n      tag_140\n      jumpi\n      0x00\n      dup1\n      revert\n    tag_140:\n      pop\n      tag_141\n      tag_142\n      calldatasize\n      0x04\n      tag_46\n      jump\t// in\n    tag_142:\n      tag_143\n      jump\t// in\n    tag_141:\n      0x40\n      dup1\n      mload\n        /* \"#utility.yul\":9807:9832   */\n      swap3\n      dup4\n      mstore\n        /* \"#utility.yul\":9863:9865   */\n      0x20\n        /* \"#utility.yul\":9848:9866   */\n      dup4\n      add\n        /* \"#utility.yul\":9841:9875   */\n      swap2\n      swap1\n      swap2\n      mstore\n        /* \"#utility.yul\":9780:9798   */\n      add\n        /* \"ValidatorView.sol\":13571:13817  function stakingValidations(address user, address validatorAddress) external view returns(uint256 minimumStakingAmt, uint256 stakingWaiting){... */\n      tag_41\n        /* \"#utility.yul\":9633:9881   */\n      jump\n        /* \"ValidatorView.sol\":5571:5596  uint256 public rewardFund */\n    tag_25:\n      callvalue\n      dup1\n      iszero\n      tag_146\n      jumpi\n      0x00\n      dup1\n      revert\n    tag_146:\n      pop\n      tag_39\n      sload(0x05)\n      dup2\n      jump\n        /* \"ValidatorView.sol\":5654:5707  mapping(address=>uint256) public totalProfitWithdrawn */\n    tag_26:\n      callvalue\n      dup1\n      iszero\n      tag_150\n      jumpi\n      0x00\n      dup1\n      revert\n    tag_150:\n      pop\n      tag_39\n      tag_152\n      calldatasize\n      0x04\n      tag_57\n      jump\t// in\n    tag_152:\n      mstore(0x20, 0x07)\n      0x00\n      swap1\n      dup2\n      mstore\n      0x40\n      swap1\n      keccak256\n      sload\n      dup2\n      jump\n        /* \"ValidatorView.sol\":6619:6850  function unstake(address validator)... */\n    tag_27:\n      callvalue\n      dup1\n      iszero\n      tag_155\n      jumpi\n      0x00\n      dup1\n      revert\n    tag_155:\n      pop\n      tag_93\n      tag_157\n      calldatasize\n      0x04\n      tag_57\n      jump\t// in\n    tag_157:\n      tag_158\n      jump\t// in\n        /* \"ValidatorView.sol\":4691:4923  function transferOwnership(address newOwner) public virtual onlyOwner {... */\n    tag_28:\n      callvalue\n      dup1\n      iszero\n      tag_160\n      jumpi\n      0x00\n      dup1\n      revert\n    tag_160:\n      pop\n      tag_50\n      tag_162\n      calldatasize\n      0x04\n      tag_57\n      jump\t// in\n    tag_162:\n      tag_163\n      jump\t// in\n        /* \"ValidatorView.sol\":12712:12928  function waitingUnstaking(address user, address validator) external view returns(uint256){... */\n    tag_47:\n        /* \"ValidatorView.sol\":12793:12800  uint256 */\n      0x00\n        /* \"ValidatorView.sol\":12712:12928  function waitingUnstaking(address user, address validator) external view returns(uint256){... */\n    tag_164:\n      swap3\n      swap2\n      pop\n      pop\n      jump\t// out\n        /* \"ValidatorView.sol\":9357:9479  function changeMinimumValidatorStaking(uint256 amount) external onlyOwner{... */\n    tag_53:\n        /* \"ValidatorView.sol\":3704:3717  _checkOwner() */\n      tag_166\n        /* \"ValidatorView.sol\":3704:3715  _checkOwner */\n      tag_167\n        /* \"ValidatorView.sol\":3704:3717  _checkOwner() */\n      jump\t// in\n    tag_166:\n        /* \"ValidatorView.sol\":9440:9463  minimumValidatorStaking */\n      0x02\n        /* \"ValidatorView.sol\":9440:9472  minimumValidatorStaking = amount */\n      sstore\n        /* \"ValidatorView.sol\":9357:9479  function changeMinimumValidatorStaking(uint256 amount) external onlyOwner{... */\n      jump\t// out\n        /* \"ValidatorView.sol\":7458:8751  function viewValidatorRewards(address validator) public view returns(uint256 rewardAmount){... */\n    tag_58:\n        /* \"ValidatorView.sol\":7616:7627  valContract */\n      sload(0x01)\n        /* \"ValidatorView.sol\":7616:7655  valContract.getValidatorInfo(validator) */\n      mload(0x40)\n      shl(0xe0, 0x8a11d7c9)\n      dup2\n      mstore\n      sub(shl(0xa0, 0x01), 0x01)\n        /* \"#utility.yul\":6434:6466   */\n      dup4\n      dup2\n      and\n        /* \"ValidatorView.sol\":7616:7655  valContract.getValidatorInfo(validator) */\n      0x04\n      dup4\n      add\n        /* \"#utility.yul\":6416:6467   */\n      mstore\n        /* \"ValidatorView.sol\":7527:7547  uint256 rewardAmount */\n      0x00\n      swap3\n      dup4\n      swap3\n        /* \"ValidatorView.sol\":7616:7627  valContract */\n      swap2\n      and\n      swap1\n        /* \"ValidatorView.sol\":7616:7644  valContract.getValidatorInfo */\n      0x8a11d7c9\n      swap1\n        /* \"#utility.yul\":6389:6407   */\n      0x24\n      add\n        /* \"ValidatorView.sol\":7616:7655  valContract.getValidatorInfo(validator) */\n      0x00\n      mload(0x40)\n      dup1\n      dup4\n      sub\n      dup2\n      dup7\n      gas\n      staticcall\n      iszero\n      dup1\n      iszero\n      tag_172\n      jumpi\n      returndatasize\n      0x00\n      dup1\n      returndatacopy\n      revert(0x00, returndatasize)\n    tag_172:\n      pop\n      pop\n      pop\n      pop\n      mload(0x40)\n      returndatasize\n      0x00\n      dup3\n      returndatacopy\n      0x1f\n      returndatasize\n      swap1\n      dup2\n      add\n      not(0x1f)\n      and\n      dup3\n      add\n      0x40\n      mstore\n      tag_173\n      swap2\n      swap1\n      dup2\n      add\n      swap1\n      tag_174\n      jump\t// in\n    tag_173:\n      pop\n        /* \"ValidatorView.sol\":7559:7655  (, InterfaceValidator.Status validatorStatus, , , ,  ) = valContract.getValidatorInfo(validator) */\n      swap3\n      swap5\n      pop\n        /* \"ValidatorView.sol\":7780:7812  InterfaceValidator.Status.Jailed */\n      0x04\n      swap4\n      pop\n        /* \"ValidatorView.sol\":7761:7812  validatorStatus == InterfaceValidator.Status.Jailed */\n      tag_176\n      swap3\n      pop\n      pop\n      pop\n      jump\n    tag_176:\n        /* \"ValidatorView.sol\":7761:7776  validatorStatus */\n      dup2\n        /* \"ValidatorView.sol\":7761:7812  validatorStatus == InterfaceValidator.Status.Jailed */\n      0x04\n      dup2\n      gt\n      iszero\n      tag_179\n      jumpi\n      tag_179\n      tag_177\n      jump\t// in\n    tag_179:\n      eq\n        /* \"ValidatorView.sol\":7761:7869  validatorStatus == InterfaceValidator.Status.Jailed || validatorStatus == InterfaceValidator.Status.NotExist */\n      dup1\n      tag_180\n      jumpi\n      pop\n        /* \"ValidatorView.sol\":7835:7869  InterfaceValidator.Status.NotExist */\n      0x00\n        /* \"ValidatorView.sol\":7816:7831  validatorStatus */\n      dup2\n        /* \"ValidatorView.sol\":7816:7869  validatorStatus == InterfaceValidator.Status.NotExist */\n      0x04\n      dup2\n      gt\n      iszero\n      tag_184\n      jumpi\n      tag_184\n      tag_177\n      jump\t// in\n    tag_184:\n      eq\n        /* \"ValidatorView.sol\":7761:7869  validatorStatus == InterfaceValidator.Status.Jailed || validatorStatus == InterfaceValidator.Status.NotExist */\n    tag_180:\n        /* \"ValidatorView.sol\":7761:7925  validatorStatus == InterfaceValidator.Status.Jailed || validatorStatus == InterfaceValidator.Status.NotExist || validatorStatus == InterfaceValidator.Status.Created */\n      dup1\n      tag_185\n      jumpi\n      pop\n        /* \"ValidatorView.sol\":7892:7925  InterfaceValidator.Status.Created */\n      0x01\n        /* \"ValidatorView.sol\":7873:7888  validatorStatus */\n      dup2\n        /* \"ValidatorView.sol\":7873:7925  validatorStatus == InterfaceValidator.Status.Created */\n      0x04\n      dup2\n      gt\n      iszero\n      tag_189\n      jumpi\n      tag_189\n      tag_177\n      jump\t// in\n    tag_189:\n      eq\n        /* \"ValidatorView.sol\":7761:7925  validatorStatus == InterfaceValidator.Status.Jailed || validatorStatus == InterfaceValidator.Status.NotExist || validatorStatus == InterfaceValidator.Status.Created */\n    tag_185:\n        /* \"ValidatorView.sol\":7758:7960  if(validatorStatus == InterfaceValidator.Status.Jailed || validatorStatus == InterfaceValidator.Status.NotExist || validatorStatus == InterfaceValidator.Status.Created ){... */\n      iszero\n      tag_190\n      jumpi\n      pop\n        /* \"ValidatorView.sol\":7948:7949  0 */\n      0x00\n      swap3\n        /* \"ValidatorView.sol\":7458:8751  function viewValidatorRewards(address validator) public view returns(uint256 rewardAmount){... */\n      swap2\n      pop\n      pop\n      jump\t// out\n        /* \"ValidatorView.sol\":7758:7960  if(validatorStatus == InterfaceValidator.Status.Jailed || validatorStatus == InterfaceValidator.Status.NotExist || validatorStatus == InterfaceValidator.Status.Created ){... */\n    tag_190:\n        /* \"ValidatorView.sol\":8206:8226  extraRewardsPerBlock */\n      sload(0x04)\n        /* \"ValidatorView.sol\":8192:8202  rewardFund */\n      sload(0x05)\n        /* \"ValidatorView.sol\":8192:8226  rewardFund >= extraRewardsPerBlock */\n      lt\n      iszero\n        /* \"ValidatorView.sol\":8192:8274  rewardFund >= extraRewardsPerBlock && address(this).balance > extraRewardsPerBlock */\n      dup1\n      iszero\n      tag_191\n      jumpi\n      pop\n        /* \"ValidatorView.sol\":8254:8274  extraRewardsPerBlock */\n      sload(0x04)\n        /* \"ValidatorView.sol\":8230:8251  address(this).balance */\n      selfbalance\n        /* \"ValidatorView.sol\":8230:8274  address(this).balance > extraRewardsPerBlock */\n      gt\n        /* \"ValidatorView.sol\":8192:8274  rewardFund >= extraRewardsPerBlock && address(this).balance > extraRewardsPerBlock */\n    tag_191:\n        /* \"ValidatorView.sol\":8192:8331  rewardFund >= extraRewardsPerBlock && address(this).balance > extraRewardsPerBlock && validatorStatus != InterfaceValidator.Status.Unstaked */\n      dup1\n      iszero\n      tag_192\n      jumpi\n      pop\n        /* \"ValidatorView.sol\":8297:8331  InterfaceValidator.Status.Unstaked */\n      0x03\n        /* \"ValidatorView.sol\":8278:8293  validatorStatus */\n      dup2\n        /* \"ValidatorView.sol\":8278:8331  validatorStatus != InterfaceValidator.Status.Unstaked */\n      0x04\n      dup2\n      gt\n      iszero\n      tag_196\n      jumpi\n      tag_196\n      tag_177\n      jump\t// in\n    tag_196:\n      eq\n      iszero\n        /* \"ValidatorView.sol\":8192:8331  rewardFund >= extraRewardsPerBlock && address(this).balance > extraRewardsPerBlock && validatorStatus != InterfaceValidator.Status.Unstaked */\n    tag_192:\n        /* \"ValidatorView.sol\":8189:8688  if(rewardFund >= extraRewardsPerBlock && address(this).balance > extraRewardsPerBlock && validatorStatus != InterfaceValidator.Status.Unstaked){... */\n      iszero\n      tag_197\n      jumpi\n        /* \"ValidatorView.sol\":8386:8397  valContract */\n      sload(0x01)\n        /* \"ValidatorView.sol\":8386:8416  valContract.getTopValidators() */\n      0x40\n      dup1\n      mload\n      shl(0xe0, 0xafeea115)\n      dup2\n      mstore\n      swap1\n      mload\n        /* \"ValidatorView.sol\":8346:8383  address[] memory highestValidatorsSet */\n      0x00\n      swap3\n      sub(shl(0xa0, 0x01), 0x01)\n        /* \"ValidatorView.sol\":8386:8397  valContract */\n      and\n      swap2\n        /* \"ValidatorView.sol\":8386:8414  valContract.getTopValidators */\n      0xafeea115\n      swap2\n        /* \"ValidatorView.sol\":8386:8416  valContract.getTopValidators() */\n      0x04\n      dup1\n      dup4\n      add\n      swap3\n        /* \"ValidatorView.sol\":8346:8383  address[] memory highestValidatorsSet */\n      dup7\n      swap3\n        /* \"ValidatorView.sol\":8386:8416  valContract.getTopValidators() */\n      swap2\n      swap1\n      dup3\n      swap1\n      sub\n      add\n      dup2\n        /* \"ValidatorView.sol\":8386:8397  valContract */\n      dup7\n        /* \"ValidatorView.sol\":8386:8416  valContract.getTopValidators() */\n      gas\n      staticcall\n      iszero\n      dup1\n      iszero\n      tag_199\n      jumpi\n      returndatasize\n      0x00\n      dup1\n      returndatacopy\n      revert(0x00, returndatasize)\n    tag_199:\n      pop\n      pop\n      pop\n      pop\n      mload(0x40)\n      returndatasize\n      0x00\n      dup3\n      returndatacopy\n      0x1f\n      returndatasize\n      swap1\n      dup2\n      add\n      not(0x1f)\n      and\n      dup3\n      add\n      0x40\n      mstore\n      tag_200\n      swap2\n      swap1\n      dup2\n      add\n      swap1\n      tag_201\n      jump\t// in\n    tag_200:\n        /* \"ValidatorView.sol\":8457:8484  highestValidatorsSet.length */\n      dup1\n      mload\n        /* \"ValidatorView.sol\":8517:8534  lastRewardedBlock */\n      sload(0x03)\n        /* \"ValidatorView.sol\":8346:8416  address[] memory highestValidatorsSet = valContract.getTopValidators() */\n      swap2\n      swap3\n      pop\n        /* \"ValidatorView.sol\":8457:8484  highestValidatorsSet.length */\n      swap1\n      dup2\n      swap1\n        /* \"ValidatorView.sol\":8502:8534  block.number - lastRewardedBlock */\n      tag_202\n      swap1\n        /* \"ValidatorView.sol\":8502:8514  block.number */\n      number\n        /* \"ValidatorView.sol\":8502:8534  block.number - lastRewardedBlock */\n      tag_203\n      jump\t// in\n    tag_202:\n        /* \"ValidatorView.sol\":8502:8553  block.number - lastRewardedBlock >= totalValidators */\n      lt\n        /* \"ValidatorView.sol\":8499:8678  if(block.number - lastRewardedBlock >= totalValidators ){... */\n      tag_204\n      jumpi\n        /* \"ValidatorView.sol\":8648:8663  totalValidators */\n      dup1\n        /* \"ValidatorView.sol\":8625:8645  extraRewardsPerBlock */\n      sload(0x04)\n        /* \"ValidatorView.sol\":8604:8621  lastRewardedBlock */\n      sload(0x03)\n        /* \"ValidatorView.sol\":8589:8601  block.number */\n      number\n        /* \"ValidatorView.sol\":8589:8621  block.number - lastRewardedBlock */\n      tag_205\n      swap2\n      swap1\n      tag_203\n      jump\t// in\n    tag_205:\n        /* \"ValidatorView.sol\":8588:8645  (block.number - lastRewardedBlock) * extraRewardsPerBlock */\n      tag_206\n      swap2\n      swap1\n      tag_207\n      jump\t// in\n    tag_206:\n        /* \"ValidatorView.sol\":8588:8663  (block.number - lastRewardedBlock) * extraRewardsPerBlock / totalValidators */\n      tag_208\n      swap2\n      swap1\n      tag_209\n      jump\t// in\n    tag_208:\n        /* \"ValidatorView.sol\":8573:8663  rewardAmount = (block.number - lastRewardedBlock) * extraRewardsPerBlock / totalValidators */\n      swap4\n      pop\n        /* \"ValidatorView.sol\":8499:8678  if(block.number - lastRewardedBlock >= totalValidators ){... */\n    tag_204:\n        /* \"ValidatorView.sol\":8332:8688  {... */\n      pop\n      pop\n        /* \"ValidatorView.sol\":8189:8688  if(rewardFund >= extraRewardsPerBlock && address(this).balance > extraRewardsPerBlock && validatorStatus != InterfaceValidator.Status.Unstaked){... */\n    tag_197:\n      sub(shl(0xa0, 0x01), 0x01)\n        /* \"ValidatorView.sol\":8705:8729  rewardBalance[validator] */\n      dup4\n      and\n      0x00\n      swap1\n      dup2\n      mstore\n        /* \"ValidatorView.sol\":8705:8718  rewardBalance */\n      0x06\n        /* \"ValidatorView.sol\":8705:8729  rewardBalance[validator] */\n      0x20\n      mstore\n      0x40\n      swap1\n      keccak256\n      sload\n        /* \"ValidatorView.sol\":8705:8744  rewardBalance[validator] + rewardAmount */\n      tag_210\n      swap1\n        /* \"ValidatorView.sol\":8732:8744  rewardAmount */\n      dup4\n      swap1\n        /* \"ValidatorView.sol\":8705:8744  rewardBalance[validator] + rewardAmount */\n      tag_37\n      jump\t// in\n    tag_210:\n        /* \"ValidatorView.sol\":8698:8744  return rewardBalance[validator] + rewardAmount */\n      swap4\n        /* \"ValidatorView.sol\":7458:8751  function viewValidatorRewards(address validator) public view returns(uint256 rewardAmount){... */\n      swap3\n      pop\n      pop\n      pop\n      jump\t// out\n        /* \"ValidatorView.sol\":9524:10935  function getAllValidatorInfo() external view returns (uint256 totalValidatorCount,uint256 totalStakedCoins,address[] memory,InterfaceValidator.Status[] memory,uint256[] memory,string[] memory,string[] memory)... */\n    tag_62:\n        /* \"ValidatorView.sol\":9578:9605  uint256 totalValidatorCount */\n      0x00\n        /* \"ValidatorView.sol\":9606:9630  uint256 totalStakedCoins */\n      dup1\n        /* \"ValidatorView.sol\":9631:9647  address[] memory */\n      0x60\n        /* \"ValidatorView.sol\":9648:9682  InterfaceValidator.Status[] memory */\n      dup1\n        /* \"ValidatorView.sol\":9683:9699  uint256[] memory */\n      0x60\n        /* \"ValidatorView.sol\":9700:9715  string[] memory */\n      dup1\n        /* \"ValidatorView.sol\":9716:9731  string[] memory */\n      0x60\n        /* \"ValidatorView.sol\":9747:9784  address[] memory highestValidatorsSet */\n      0x00\n        /* \"ValidatorView.sol\":9787:9798  valContract */\n      0x01\n      0x00\n      swap1\n      sload\n      swap1\n      0x0100\n      exp\n      swap1\n      div\n      sub(shl(0xa0, 0x01), 0x01)\n      and\n      sub(shl(0xa0, 0x01), 0x01)\n        /* \"ValidatorView.sol\":9787:9815  valContract.getTopValidators */\n      and\n      0xafeea115\n        /* \"ValidatorView.sol\":9787:9817  valContract.getTopValidators() */\n      mload(0x40)\n      dup2\n      0xffffffff\n      and\n      0xe0\n      shl\n      dup2\n      mstore\n      0x04\n      add\n      0x00\n      mload(0x40)\n      dup1\n      dup4\n      sub\n      dup2\n      dup7\n      gas\n      staticcall\n      iszero\n      dup1\n      iszero\n      tag_213\n      jumpi\n      returndatasize\n      0x00\n      dup1\n      returndatacopy\n      revert(0x00, returndatasize)\n    tag_213:\n      pop\n      pop\n      pop\n      pop\n      mload(0x40)\n      returndatasize\n      0x00\n      dup3\n      returndatacopy\n      0x1f\n      returndatasize\n      swap1\n      dup2\n      add\n      not(0x1f)\n      and\n      dup3\n      add\n      0x40\n      mstore\n      tag_214\n      swap2\n      swap1\n      dup2\n      add\n      swap1\n      tag_201\n      jump\t// in\n    tag_214:\n        /* \"ValidatorView.sol\":9854:9881  highestValidatorsSet.length */\n      dup1\n      mload\n        /* \"ValidatorView.sol\":9747:9817  address[] memory highestValidatorsSet = valContract.getTopValidators() */\n      swap1\n      swap2\n      pop\n        /* \"ValidatorView.sol\":9828:9851  uint256 totalValidators */\n      0x00\n      dup1\n        /* \"ValidatorView.sol\":9854:9881  highestValidatorsSet.length */\n      dup3\n      sub(shl(0x40, 0x01), 0x01)\n        /* \"ValidatorView.sol\":9965:10013  new InterfaceValidator.Status[](totalValidators) */\n      dup2\n      gt\n      iszero\n      tag_216\n      jumpi\n      tag_216\n      tag_217\n      jump\t// in\n    tag_216:\n      mload(0x40)\n      swap1\n      dup1\n      dup3\n      mstore\n      dup1\n      0x20\n      mul\n      0x20\n      add\n      dup3\n      add\n      0x40\n      mstore\n      dup1\n      iszero\n      tag_218\n      jumpi\n      dup2\n      0x20\n      add\n      0x20\n      dup3\n      mul\n      dup1\n      calldatasize\n      dup4\n      calldatacopy\n      add\n      swap1\n      pop\n    tag_218:\n      pop\n        /* \"ValidatorView.sol\":9916:10013  InterfaceValidator.Status[] memory statusArray = new InterfaceValidator.Status[](totalValidators) */\n      swap1\n      pop\n        /* \"ValidatorView.sol\":10023:10050  uint256[] memory coinsArray */\n      0x00\n        /* \"ValidatorView.sol\":10067:10082  totalValidators */\n      dup4\n      sub(shl(0x40, 0x01), 0x01)\n        /* \"ValidatorView.sol\":10053:10083  new uint256[](totalValidators) */\n      dup2\n      gt\n      iszero\n      tag_220\n      jumpi\n      tag_220\n      tag_217\n      jump\t// in\n    tag_220:\n      mload(0x40)\n      swap1\n      dup1\n      dup3\n      mstore\n      dup1\n      0x20\n      mul\n      0x20\n      add\n      dup3\n      add\n      0x40\n      mstore\n      dup1\n      iszero\n      tag_221\n      jumpi\n      dup2\n      0x20\n      add\n      0x20\n      dup3\n      mul\n      dup1\n      calldatasize\n      dup4\n      calldatacopy\n      add\n      swap1\n      pop\n    tag_221:\n      pop\n        /* \"ValidatorView.sol\":10023:10083  uint256[] memory coinsArray = new uint256[](totalValidators) */\n      swap1\n      pop\n        /* \"ValidatorView.sol\":10093:10122  string[] memory identityArray */\n      0x00\n        /* \"ValidatorView.sol\":10138:10153  totalValidators */\n      dup5\n      sub(shl(0x40, 0x01), 0x01)\n        /* \"ValidatorView.sol\":10125:10154  new string[](totalValidators) */\n      dup2\n      gt\n      iszero\n      tag_223\n      jumpi\n      tag_223\n      tag_217\n      jump\t// in\n    tag_223:\n      mload(0x40)\n      swap1\n      dup1\n      dup3\n      mstore\n      dup1\n      0x20\n      mul\n      0x20\n      add\n      dup3\n      add\n      0x40\n      mstore\n      dup1\n      iszero\n      tag_224\n      jumpi\n      dup2\n      0x20\n      add\n    tag_225:\n      0x60\n      dup2\n      mstore\n      0x20\n      add\n      swap1\n      0x01\n      swap1\n      sub\n      swap1\n      dup2\n      tag_225\n      jumpi\n      swap1\n      pop\n    tag_224:\n      pop\n        /* \"ValidatorView.sol\":10093:10154  string[] memory identityArray = new string[](totalValidators) */\n      swap1\n      pop\n        /* \"ValidatorView.sol\":10164:10192  string[] memory websiteArray */\n      0x00\n        /* \"ValidatorView.sol\":10208:10223  totalValidators */\n      dup6\n      sub(shl(0x40, 0x01), 0x01)\n        /* \"ValidatorView.sol\":10195:10224  new string[](totalValidators) */\n      dup2\n      gt\n      iszero\n      tag_227\n      jumpi\n      tag_227\n      tag_217\n      jump\t// in\n    tag_227:\n      mload(0x40)\n      swap1\n      dup1\n      dup3\n      mstore\n      dup1\n      0x20\n      mul\n      0x20\n      add\n      dup3\n      add\n      0x40\n      mstore\n      dup1\n      iszero\n      tag_228\n      jumpi\n      dup2\n      0x20\n      add\n    tag_229:\n      0x60\n      dup2\n      mstore\n      0x20\n      add\n      swap1\n      0x01\n      swap1\n      sub\n      swap1\n      dup2\n      tag_229\n      jumpi\n      swap1\n      pop\n    tag_228:\n      pop\n        /* \"ValidatorView.sol\":10164:10224  string[] memory websiteArray = new string[](totalValidators) */\n      swap1\n      pop\n        /* \"ValidatorView.sol\":10239:10246  uint8 i */\n      0x00\n        /* \"ValidatorView.sol\":10235:10775  for(uint8 i=0; i < totalValidators; i++){... */\n    tag_230:\n        /* \"ValidatorView.sol\":10254:10269  totalValidators */\n      dup7\n        /* \"ValidatorView.sol\":10250:10251  i */\n      dup2\n        /* \"ValidatorView.sol\":10250:10269  i < totalValidators */\n      0xff\n      and\n      lt\n        /* \"ValidatorView.sol\":10235:10775  for(uint8 i=0; i < totalValidators; i++){... */\n      iszero\n      tag_231\n      jumpi\n        /* \"ValidatorView.sol\":10349:10360  valContract */\n      sload(0x01)\n        /* \"ValidatorView.sol\":10378:10401  highestValidatorsSet[i] */\n      dup9\n      mload\n        /* \"ValidatorView.sol\":10292:10324  InterfaceValidator.Status status */\n      0x00\n      swap2\n      dup3\n      swap2\n      sub(shl(0xa0, 0x01), 0x01)\n        /* \"ValidatorView.sol\":10349:10360  valContract */\n      swap1\n      swap2\n      and\n      swap1\n        /* \"ValidatorView.sol\":10349:10377  valContract.getValidatorInfo */\n      0x8a11d7c9\n      swap1\n        /* \"ValidatorView.sol\":10378:10398  highestValidatorsSet */\n      dup13\n      swap1\n        /* \"ValidatorView.sol\":10378:10401  highestValidatorsSet[i] */\n      0xff\n      dup8\n      and\n      swap1\n      dup2\n      lt\n      tag_234\n      jumpi\n      tag_234\n      tag_235\n      jump\t// in\n    tag_234:\n      0x20\n      mul\n      0x20\n      add\n      add\n      mload\n        /* \"ValidatorView.sol\":10349:10402  valContract.getValidatorInfo(highestValidatorsSet[i]) */\n      mload(0x40)\n      dup3\n      0xffffffff\n      and\n      0xe0\n      shl\n      dup2\n      mstore\n      0x04\n      add\n      tag_236\n      swap2\n      swap1\n      sub(shl(0xa0, 0x01), 0x01)\n        /* \"#utility.yul\":6434:6466   */\n      swap2\n      swap1\n      swap2\n      and\n        /* \"#utility.yul\":6416:6467   */\n      dup2\n      mstore\n        /* \"#utility.yul\":6404:6406   */\n      0x20\n        /* \"#utility.yul\":6389:6407   */\n      add\n      swap1\n        /* \"#utility.yul\":6270:6473   */\n      jump\n        /* \"ValidatorView.sol\":10349:10402  valContract.getValidatorInfo(highestValidatorsSet[i]) */\n    tag_236:\n      0x00\n      mload(0x40)\n      dup1\n      dup4\n      sub\n      dup2\n      dup7\n      gas\n      staticcall\n      iszero\n      dup1\n      iszero\n      tag_238\n      jumpi\n      returndatasize\n      0x00\n      dup1\n      returndatacopy\n      revert(0x00, returndatasize)\n    tag_238:\n      pop\n      pop\n      pop\n      pop\n      mload(0x40)\n      returndatasize\n      0x00\n      dup3\n      returndatacopy\n      0x1f\n      returndatasize\n      swap1\n      dup2\n      add\n      not(0x1f)\n      and\n      dup3\n      add\n      0x40\n      mstore\n      tag_239\n      swap2\n      swap1\n      dup2\n      add\n      swap1\n      tag_174\n      jump\t// in\n    tag_239:\n        /* \"ValidatorView.sol\":10289:10402  (, InterfaceValidator.Status status, uint256 coins, , , ) = valContract.getValidatorInfo(highestValidatorsSet[i]) */\n      pop\n      pop\n      pop\n      swap3\n      pop\n      swap3\n      pop\n      pop\n        /* \"ValidatorView.sol\":10414:10415  0 */\n      0x00\n        /* \"ValidatorView.sol\":10408:10413  coins */\n      dup2\n        /* \"ValidatorView.sol\":10408:10415  coins>0 */\n      gt\n        /* \"ValidatorView.sol\":10405:10764  if(coins>0){... */\n      iszero\n      tag_240\n      jumpi\n        /* \"ValidatorView.sol\":10485:10496  valContract */\n      sload(0x01)\n        /* \"ValidatorView.sol\":10521:10544  highestValidatorsSet[i] */\n      dup11\n      mload\n        /* \"ValidatorView.sol\":10433:10455  string memory identity */\n      0x00\n      swap2\n      dup3\n      swap2\n      sub(shl(0xa0, 0x01), 0x01)\n        /* \"ValidatorView.sol\":10485:10496  valContract */\n      swap1\n      swap2\n      and\n      swap1\n        /* \"ValidatorView.sol\":10485:10520  valContract.getValidatorDescription */\n      0xa43569b3\n      swap1\n        /* \"ValidatorView.sol\":10521:10541  highestValidatorsSet */\n      dup15\n      swap1\n        /* \"ValidatorView.sol\":10521:10544  highestValidatorsSet[i] */\n      0xff\n      dup10\n      and\n      swap1\n      dup2\n      lt\n      tag_242\n      jumpi\n      tag_242\n      tag_235\n      jump\t// in\n    tag_242:\n      0x20\n      mul\n      0x20\n      add\n      add\n      mload\n        /* \"ValidatorView.sol\":10485:10545  valContract.getValidatorDescription(highestValidatorsSet[i]) */\n      mload(0x40)\n      dup3\n      0xffffffff\n      and\n      0xe0\n      shl\n      dup2\n      mstore\n      0x04\n      add\n      tag_243\n      swap2\n      swap1\n      sub(shl(0xa0, 0x01), 0x01)\n        /* \"#utility.yul\":6434:6466   */\n      swap2\n      swap1\n      swap2\n      and\n        /* \"#utility.yul\":6416:6467   */\n      dup2\n      mstore\n        /* \"#utility.yul\":6404:6406   */\n      0x20\n        /* \"#utility.yul\":6389:6407   */\n      add\n      swap1\n        /* \"#utility.yul\":6270:6473   */\n      jump\n        /* \"ValidatorView.sol\":10485:10545  valContract.getValidatorDescription(highestValidatorsSet[i]) */\n    tag_243:\n      0x00\n      mload(0x40)\n      dup1\n      dup4\n      sub\n      dup2\n      dup7\n      gas\n      staticcall\n      iszero\n      dup1\n      iszero\n      tag_245\n      jumpi\n      returndatasize\n      0x00\n      dup1\n      returndatacopy\n      revert(0x00, returndatasize)\n    tag_245:\n      pop\n      pop\n      pop\n      pop\n      mload(0x40)\n      returndatasize\n      0x00\n      dup3\n      returndatacopy\n      0x1f\n      returndatasize\n      swap1\n      dup2\n      add\n      not(0x1f)\n      and\n      dup3\n      add\n      0x40\n      mstore\n      tag_246\n      swap2\n      swap1\n      dup2\n      add\n      swap1\n      tag_247\n      jump\t// in\n    tag_246:\n        /* \"ValidatorView.sol\":10430:10545  (, string memory identity, string memory website, ,) = valContract.getValidatorDescription(highestValidatorsSet[i]) */\n      pop\n      pop\n      swap3\n      pop\n      swap3\n      pop\n      pop\n        /* \"ValidatorView.sol\":10577:10583  status */\n      dup4\n        /* \"ValidatorView.sol\":10560:10571  statusArray */\n      dup10\n        /* \"ValidatorView.sol\":10572:10573  i */\n      dup7\n        /* \"ValidatorView.sol\":10560:10574  statusArray[i] */\n      0xff\n      and\n      dup2\n      mload\n      dup2\n      lt\n      tag_249\n      jumpi\n      tag_249\n      tag_235\n      jump\t// in\n    tag_249:\n      0x20\n      mul\n      0x20\n      add\n      add\n        /* \"ValidatorView.sol\":10560:10583  statusArray[i] = status */\n      swap1\n      0x04\n      dup2\n      gt\n      iszero\n      tag_251\n      jumpi\n      tag_251\n      tag_177\n      jump\t// in\n    tag_251:\n      swap1\n      dup2\n      0x04\n      dup2\n      gt\n      iszero\n      tag_253\n      jumpi\n      tag_253\n      tag_177\n      jump\t// in\n    tag_253:\n      dup2\n      mstore\n      pop\n      pop\n        /* \"ValidatorView.sol\":10613:10618  coins */\n      dup3\n        /* \"ValidatorView.sol\":10597:10607  coinsArray */\n      dup9\n        /* \"ValidatorView.sol\":10608:10609  i */\n      dup7\n        /* \"ValidatorView.sol\":10597:10610  coinsArray[i] */\n      0xff\n      and\n      dup2\n      mload\n      dup2\n      lt\n      tag_255\n      jumpi\n      tag_255\n      tag_235\n      jump\t// in\n    tag_255:\n      0x20\n      mul\n      0x20\n      add\n      add\n        /* \"ValidatorView.sol\":10597:10618  coinsArray[i] = coins */\n      dup2\n      dup2\n      mstore\n      pop\n      pop\n        /* \"ValidatorView.sol\":10651:10659  identity */\n      dup2\n        /* \"ValidatorView.sol\":10632:10645  identityArray */\n      dup8\n        /* \"ValidatorView.sol\":10646:10647  i */\n      dup7\n        /* \"ValidatorView.sol\":10632:10648  identityArray[i] */\n      0xff\n      and\n      dup2\n      mload\n      dup2\n      lt\n      tag_257\n      jumpi\n      tag_257\n      tag_235\n      jump\t// in\n    tag_257:\n      0x20\n      mul\n      0x20\n      add\n      add\n        /* \"ValidatorView.sol\":10632:10659  identityArray[i] = identity */\n      dup2\n      swap1\n      mstore\n      pop\n        /* \"ValidatorView.sol\":10691:10698  website */\n      dup1\n        /* \"ValidatorView.sol\":10673:10685  websiteArray */\n      dup7\n        /* \"ValidatorView.sol\":10686:10687  i */\n      dup7\n        /* \"ValidatorView.sol\":10673:10688  websiteArray[i] */\n      0xff\n      and\n      dup2\n      mload\n      dup2\n      lt\n      tag_259\n      jumpi\n      tag_259\n      tag_235\n      jump\t// in\n    tag_259:\n      0x20\n      mul\n      0x20\n      add\n      add\n        /* \"ValidatorView.sol\":10673:10698  websiteArray[i] = website */\n      dup2\n      swap1\n      mstore\n      pop\n        /* \"ValidatorView.sol\":10416:10703  {... */\n      pop\n      pop\n        /* \"ValidatorView.sol\":10405:10764  if(coins>0){... */\n      jump(tag_260)\n    tag_240:\n        /* \"ValidatorView.sol\":10741:10759  totalunstaked += 1 */\n      tag_261\n        /* \"ValidatorView.sol\":10758:10759  1 */\n      0x01\n        /* \"ValidatorView.sol\":10741:10759  totalunstaked += 1 */\n      dup10\n      tag_37\n      jump\t// in\n    tag_261:\n      swap8\n      pop\n        /* \"ValidatorView.sol\":10405:10764  if(coins>0){... */\n    tag_260:\n        /* \"ValidatorView.sol\":10275:10775  {... */\n      pop\n      pop\n        /* \"ValidatorView.sol\":10271:10274  i++ */\n      dup1\n      dup1\n      tag_262\n      swap1\n      tag_263\n      jump\t// in\n    tag_262:\n      swap2\n      pop\n      pop\n        /* \"ValidatorView.sol\":10235:10775  for(uint8 i=0; i < totalValidators; i++){... */\n      jump(tag_230)\n    tag_231:\n      pop\n        /* \"ValidatorView.sol\":10791:10822  totalValidators - totalunstaked */\n      tag_264\n        /* \"ValidatorView.sol\":10809:10822  totalunstaked */\n      dup6\n        /* \"ValidatorView.sol\":10791:10806  totalValidators */\n      dup8\n        /* \"ValidatorView.sol\":10791:10822  totalValidators - totalunstaked */\n      tag_203\n      jump\t// in\n    tag_264:\n        /* \"ValidatorView.sol\":10825:10836  valContract */\n      0x01\n      0x00\n      swap1\n      sload\n      swap1\n      0x0100\n      exp\n      swap1\n      div\n      sub(shl(0xa0, 0x01), 0x01)\n      and\n      sub(shl(0xa0, 0x01), 0x01)\n        /* \"ValidatorView.sol\":10825:10847  valContract.totalStake */\n      and\n      0x8b0e9f3f\n        /* \"ValidatorView.sol\":10825:10849  valContract.totalStake() */\n      mload(0x40)\n      dup2\n      0xffffffff\n      and\n      0xe0\n      shl\n      dup2\n      mstore\n      0x04\n      add\n      0x20\n      mload(0x40)\n      dup1\n      dup4\n      sub\n      dup2\n      dup7\n      gas\n      staticcall\n      iszero\n      dup1\n      iszero\n      tag_266\n      jumpi\n      returndatasize\n      0x00\n      dup1\n      returndatacopy\n      revert(0x00, returndatasize)\n    tag_266:\n      pop\n      pop\n      pop\n      pop\n      mload(0x40)\n      returndatasize\n      not(0x1f)\n      0x1f\n      dup3\n      add\n      and\n      dup3\n      add\n      dup1\n      0x40\n      mstore\n      pop\n      dup2\n      add\n      swap1\n      tag_267\n      swap2\n      swap1\n      tag_268\n      jump\t// in\n    tag_267:\n        /* \"ValidatorView.sol\":10784:10926  return(totalValidators - totalunstaked , valContract.totalStake(), highestValidatorsSet, statusArray, coinsArray, identityArray, websiteArray) */\n      swap1\n      swap16\n      swap1\n      swap15\n      pop\n        /* \"ValidatorView.sol\":10851:10871  highestValidatorsSet */\n      swap7\n      swap13\n      pop\n        /* \"ValidatorView.sol\":10873:10884  statusArray */\n      swap3\n      swap11\n      pop\n        /* \"ValidatorView.sol\":10886:10896  coinsArray */\n      swap1\n      swap9\n      pop\n        /* \"ValidatorView.sol\":10873:10884  statusArray */\n      swap7\n      pop\n        /* \"ValidatorView.sol\":10851:10871  highestValidatorsSet */\n      swap5\n      pop\n        /* \"ValidatorView.sol\":9524:10935  function getAllValidatorInfo() external view returns (uint256 totalValidatorCount,uint256 totalStakedCoins,address[] memory,InterfaceValidator.Status[] memory,uint256[] memory,string[] memory,string[] memory)... */\n      swap2\n      swap3\n      pop\n      pop\n      pop\n      jump\t// out\n        /* \"ValidatorView.sol\":11742:12307  function validatorSpecificInfo2(address validatorAddress, address user) external view returns(uint256 totalStakedCoins, InterfaceValidator.Status status, uint256 selfStakedCoins, uint256 masterVoters, uint256 stakers, address){... */\n    tag_77:\n        /* \"ValidatorView.sol\":12067:12078  valContract */\n      sload(0x01)\n        /* \"ValidatorView.sol\":12067:12113  valContract.getValidatorInfo(validatorAddress) */\n      mload(0x40)\n      shl(0xe0, 0x8a11d7c9)\n      dup2\n      mstore\n      sub(shl(0xa0, 0x01), 0x01)\n        /* \"#utility.yul\":6434:6466   */\n      dup5\n      dup2\n      and\n        /* \"ValidatorView.sol\":12067:12113  valContract.getValidatorInfo(validatorAddress) */\n      0x04\n      dup4\n      add\n        /* \"#utility.yul\":6416:6467   */\n      mstore\n        /* \"ValidatorView.sol\":11836:11860  uint256 totalStakedCoins */\n      0x00\n      swap3\n      dup4\n      swap3\n      dup4\n      swap3\n      dup4\n      swap3\n      dup4\n      swap3\n      dup4\n      swap3\n        /* \"ValidatorView.sol\":11978:12007  address[] memory stakersArray */\n      0x60\n      swap3\n        /* \"ValidatorView.sol\":12067:12078  valContract */\n      and\n      swap1\n        /* \"ValidatorView.sol\":12067:12095  valContract.getValidatorInfo */\n      0x8a11d7c9\n      swap1\n        /* \"#utility.yul\":6389:6407   */\n      0x24\n      add\n        /* \"ValidatorView.sol\":12067:12113  valContract.getValidatorInfo(validatorAddress) */\n      0x00\n      mload(0x40)\n      dup1\n      dup4\n      sub\n      dup2\n      dup7\n      gas\n      staticcall\n      iszero\n      dup1\n      iszero\n      tag_273\n      jumpi\n      returndatasize\n      0x00\n      dup1\n      returndatacopy\n      revert(0x00, returndatasize)\n    tag_273:\n      pop\n      pop\n      pop\n      pop\n      mload(0x40)\n      returndatasize\n      0x00\n      dup3\n      returndatacopy\n      0x1f\n      returndatasize\n      swap1\n      dup2\n      add\n      not(0x1f)\n      and\n      dup3\n      add\n      0x40\n      mstore\n      tag_274\n      swap2\n      swap1\n      dup2\n      add\n      swap1\n      tag_174\n      jump\t// in\n    tag_274:\n        /* \"ValidatorView.sol\":12148:12159  valContract */\n      sload(0x01)\n        /* \"ValidatorView.sol\":12148:12209  valContract.getStakingInfo(validatorAddress,validatorAddress) */\n      mload(0x40)\n      shl(0xe1, 0x3fa7cafd)\n      dup2\n      mstore\n        /* \"ValidatorView.sol\":12017:12113  (, status, totalStakedCoins, , , stakersArray)  = valContract.getValidatorInfo(validatorAddress) */\n      swap5\n      swap14\n      pop\n      swap5\n      swap12\n      pop\n      swap6\n      pop\n      pop\n      sub(shl(0xa0, 0x01), 0x01)\n        /* \"ValidatorView.sol\":12148:12159  valContract */\n      swap1\n      swap3\n      and\n      swap3\n      pop\n        /* \"ValidatorView.sol\":12148:12174  valContract.getStakingInfo */\n      0x7f4f95fa\n      swap2\n      pop\n        /* \"ValidatorView.sol\":12148:12209  valContract.getStakingInfo(validatorAddress,validatorAddress) */\n      tag_275\n      swap1\n        /* \"ValidatorView.sol\":12175:12191  validatorAddress */\n      dup13\n      swap1\n      dup2\n      swap1\n        /* \"ValidatorView.sol\":12148:12209  valContract.getStakingInfo(validatorAddress,validatorAddress) */\n      0x04\n      add\n      sub(shl(0xa0, 0x01), 0x01)\n        /* \"#utility.yul\":15251:15266   */\n      swap3\n      dup4\n      and\n        /* \"#utility.yul\":15233:15267   */\n      dup2\n      mstore\n        /* \"#utility.yul\":15303:15318   */\n      swap2\n      and\n        /* \"#utility.yul\":15298:15300   */\n      0x20\n        /* \"#utility.yul\":15283:15301   */\n      dup3\n      add\n        /* \"#utility.yul\":15276:15319   */\n      mstore\n        /* \"#utility.yul\":15183:15185   */\n      0x40\n        /* \"#utility.yul\":15168:15186   */\n      add\n      swap1\n        /* \"#utility.yul\":15021:15325   */\n      jump\n        /* \"ValidatorView.sol\":12148:12209  valContract.getStakingInfo(validatorAddress,validatorAddress) */\n    tag_275:\n      0x60\n      mload(0x40)\n      dup1\n      dup4\n      sub\n      dup2\n      dup7\n      gas\n      staticcall\n      iszero\n      dup1\n      iszero\n      tag_278\n      jumpi\n      returndatasize\n      0x00\n      dup1\n      returndatacopy\n      revert(0x00, returndatasize)\n    tag_278:\n      pop\n      pop\n      pop\n      pop\n      mload(0x40)\n      returndatasize\n      not(0x1f)\n      0x1f\n      dup3\n      add\n      and\n      dup3\n      add\n      dup1\n      0x40\n      mstore\n      pop\n      dup2\n      add\n      swap1\n      tag_279\n      swap2\n      swap1\n      tag_280\n      jump\t// in\n    tag_279:\n      pop\n      pop\n        /* \"ValidatorView.sol\":12274:12293  stakersArray.length */\n      swap1\n      mload\n        /* \"ValidatorView.sol\":11742:12307  function validatorSpecificInfo2(address validatorAddress, address user) external view returns(uint256 totalStakedCoins, InterfaceValidator.Status status, uint256 selfStakedCoins, uint256 masterVoters, uint256 stakers, address){... */\n      swap7\n      swap10\n      swap6\n      swap9\n      pop\n        /* \"ValidatorView.sol\":12274:12293  stakersArray.length */\n      swap7\n        /* \"ValidatorView.sol\":12271:12272  0 */\n      0x00\n      swap7\n        /* \"ValidatorView.sol\":12274:12293  stakersArray.length */\n      swap6\n        /* \"ValidatorView.sol\":12295:12299  user */\n      swap1\n      swap5\n      pop\n        /* \"ValidatorView.sol\":11742:12307  function validatorSpecificInfo2(address validatorAddress, address user) external view returns(uint256 totalStakedCoins, InterfaceValidator.Status status, uint256 selfStakedCoins, uint256 masterVoters, uint256 stakers, address){... */\n      swap3\n      pop\n      pop\n      pop\n      jump\t// out\n        /* \"ValidatorView.sol\":4441:4542  function renounceOwnership() public virtual onlyOwner {... */\n    tag_87:\n        /* \"ValidatorView.sol\":3704:3717  _checkOwner() */\n      tag_282\n        /* \"ValidatorView.sol\":3704:3715  _checkOwner */\n      tag_167\n        /* \"ValidatorView.sol\":3704:3717  _checkOwner() */\n      jump\t// in\n    tag_282:\n        /* \"ValidatorView.sol\":4505:4535  _transferOwnership(address(0)) */\n      tag_284\n        /* \"ValidatorView.sol\":4532:4533  0 */\n      0x00\n        /* \"ValidatorView.sol\":4505:4523  _transferOwnership */\n      tag_285\n        /* \"ValidatorView.sol\":4505:4535  _transferOwnership(address(0)) */\n      jump\t// in\n    tag_284:\n        /* \"ValidatorView.sol\":4441:4542  function renounceOwnership() public virtual onlyOwner {... */\n      jump\t// out\n        /* \"ValidatorView.sol\":6856:7452  function withdrawStakingReward(address validator) external {... */\n    tag_91:\n      sub(shl(0xa0, 0x01), 0x01)\n        /* \"ValidatorView.sol\":6933:6955  validator == tx.origin */\n      dup2\n      and\n        /* \"ValidatorView.sol\":6946:6955  tx.origin */\n      origin\n        /* \"ValidatorView.sol\":6933:6955  validator == tx.origin */\n      eq\n        /* \"ValidatorView.sol\":6925:6991  require(validator == tx.origin, \"caller should be real validator\") */\n      tag_287\n      jumpi\n      mload(0x40)\n      shl(0xe5, 0x461bcd)\n      dup2\n      mstore\n        /* \"#utility.yul\":15843:15845   */\n      0x20\n        /* \"ValidatorView.sol\":6925:6991  require(validator == tx.origin, \"caller should be real validator\") */\n      0x04\n      dup3\n      add\n        /* \"#utility.yul\":15825:15846   */\n      mstore\n        /* \"#utility.yul\":15882:15884   */\n      0x1f\n        /* \"#utility.yul\":15862:15880   */\n      0x24\n      dup3\n      add\n        /* \"#utility.yul\":15855:15885   */\n      mstore\n        /* \"#utility.yul\":15921:15954   */\n      0x63616c6c65722073686f756c64206265207265616c2076616c696461746f7200\n        /* \"#utility.yul\":15901:15919   */\n      0x44\n      dup3\n      add\n        /* \"#utility.yul\":15894:15955   */\n      mstore\n        /* \"#utility.yul\":15972:15990   */\n      0x64\n      add\n        /* \"ValidatorView.sol\":6925:6991  require(validator == tx.origin, \"caller should be real validator\") */\n    tag_288:\n      mload(0x40)\n      dup1\n      swap2\n      sub\n      swap1\n      revert\n    tag_287:\n        /* \"ValidatorView.sol\":7001:7021  uint256 blockRewards */\n      0x00\n        /* \"ValidatorView.sol\":7024:7055  viewValidatorRewards(validator) */\n      tag_290\n        /* \"ValidatorView.sol\":7045:7054  validator */\n      dup3\n        /* \"ValidatorView.sol\":7024:7044  viewValidatorRewards */\n      tag_58\n        /* \"ValidatorView.sol\":7024:7055  viewValidatorRewards(validator) */\n      jump\t// in\n    tag_290:\n        /* \"ValidatorView.sol\":7001:7055  uint256 blockRewards = viewValidatorRewards(validator) */\n      swap1\n      pop\n        /* \"ValidatorView.sol\":7088:7089  0 */\n      0x00\n        /* \"ValidatorView.sol\":7073:7085  blockRewards */\n      dup2\n        /* \"ValidatorView.sol\":7073:7089  blockRewards > 0 */\n      gt\n        /* \"ValidatorView.sol\":7065:7113  require(blockRewards > 0, \"Nothing to withdraw\") */\n      tag_291\n      jumpi\n      mload(0x40)\n      shl(0xe5, 0x461bcd)\n      dup2\n      mstore\n        /* \"#utility.yul\":16203:16205   */\n      0x20\n        /* \"ValidatorView.sol\":7065:7113  require(blockRewards > 0, \"Nothing to withdraw\") */\n      0x04\n      dup3\n      add\n        /* \"#utility.yul\":16185:16206   */\n      mstore\n        /* \"#utility.yul\":16242:16244   */\n      0x13\n        /* \"#utility.yul\":16222:16240   */\n      0x24\n      dup3\n      add\n        /* \"#utility.yul\":16215:16245   */\n      mstore\n      shl(0x68, 0x4e6f7468696e6720746f207769746864726177)\n        /* \"#utility.yul\":16261:16279   */\n      0x44\n      dup3\n      add\n        /* \"#utility.yul\":16254:16303   */\n      mstore\n        /* \"#utility.yul\":16320:16338   */\n      0x64\n      add\n        /* \"ValidatorView.sol\":7065:7113  require(blockRewards > 0, \"Nothing to withdraw\") */\n      tag_288\n        /* \"#utility.yul\":16001:16344   */\n      jump\n        /* \"ValidatorView.sol\":7065:7113  require(blockRewards > 0, \"Nothing to withdraw\") */\n    tag_291:\n        /* \"ValidatorView.sol\":7124:7144  _distributeRewards() */\n      tag_294\n        /* \"ValidatorView.sol\":7124:7142  _distributeRewards */\n      tag_295\n        /* \"ValidatorView.sol\":7124:7144  _distributeRewards() */\n      jump\t// in\n    tag_294:\n        /* \"ValidatorView.sol\":7147:7158  valContract */\n      sload(0x01)\n        /* \"ValidatorView.sol\":7147:7185  valContract.withdrawProfits(validator) */\n      mload(0x40)\n      shl(0xe0, 0x362a77)\n      dup2\n      mstore\n      sub(shl(0xa0, 0x01), 0x01)\n        /* \"#utility.yul\":6434:6466   */\n      dup5\n      dup2\n      and\n        /* \"ValidatorView.sol\":7147:7185  valContract.withdrawProfits(validator) */\n      0x04\n      dup4\n      add\n        /* \"#utility.yul\":6416:6467   */\n      mstore\n        /* \"ValidatorView.sol\":7147:7158  valContract */\n      swap1\n      swap2\n      and\n      swap1\n        /* \"ValidatorView.sol\":7147:7174  valContract.withdrawProfits */\n      0x362a77\n      swap1\n        /* \"#utility.yul\":6389:6407   */\n      0x24\n      add\n        /* \"ValidatorView.sol\":7147:7185  valContract.withdrawProfits(validator) */\n      0x20\n      mload(0x40)\n      dup1\n      dup4\n      sub\n      dup2\n      0x00\n      dup8\n      gas\n      call\n      iszero\n      dup1\n      iszero\n      tag_298\n      jumpi\n      returndatasize\n      0x00\n      dup1\n      returndatacopy\n      revert(0x00, returndatasize)\n    tag_298:\n      pop\n      pop\n      pop\n      pop\n      mload(0x40)\n      returndatasize\n      not(0x1f)\n      0x1f\n      dup3\n      add\n      and\n      dup3\n      add\n      dup1\n      0x40\n      mstore\n      pop\n      dup2\n      add\n      swap1\n      tag_299\n      swap2\n      swap1\n      tag_300\n      jump\t// in\n    tag_299:\n      pop\n        /* \"ValidatorView.sol\":7210:7222  blockRewards */\n      dup1\n        /* \"ValidatorView.sol\":7196:7206  rewardFund */\n      0x05\n      0x00\n        /* \"ValidatorView.sol\":7196:7222  rewardFund -= blockRewards */\n      dup3\n      dup3\n      sload\n      tag_301\n      swap2\n      swap1\n      tag_203\n      jump\t// in\n    tag_301:\n      swap1\n      swap2\n      sstore\n      pop\n      pop\n      sub(shl(0xa0, 0x01), 0x01)\n        /* \"ValidatorView.sol\":7233:7257  rewardBalance[validator] */\n      dup3\n      and\n        /* \"ValidatorView.sol\":7260:7261  0 */\n      0x00\n        /* \"ValidatorView.sol\":7233:7257  rewardBalance[validator] */\n      swap1\n      dup2\n      mstore\n        /* \"ValidatorView.sol\":7233:7246  rewardBalance */\n      0x06\n        /* \"ValidatorView.sol\":7233:7257  rewardBalance[validator] */\n      0x20\n      swap1\n      dup2\n      mstore\n      0x40\n      dup1\n      dup4\n      keccak256\n        /* \"ValidatorView.sol\":7233:7261  rewardBalance[validator] = 0 */\n      dup4\n      swap1\n      sstore\n        /* \"ValidatorView.sol\":7271:7291  totalProfitWithdrawn */\n      0x07\n        /* \"ValidatorView.sol\":7271:7302  totalProfitWithdrawn[validator] */\n      swap1\n      swap2\n      mstore\n      dup2\n      keccak256\n        /* \"ValidatorView.sol\":7271:7318  totalProfitWithdrawn[validator] += blockRewards */\n      dup1\n      sload\n        /* \"ValidatorView.sol\":7306:7318  blockRewards */\n      dup4\n      swap3\n        /* \"ValidatorView.sol\":7260:7261  0 */\n      swap1\n        /* \"ValidatorView.sol\":7271:7318  totalProfitWithdrawn[validator] += blockRewards */\n      tag_302\n      swap1\n        /* \"ValidatorView.sol\":7306:7318  blockRewards */\n      dup5\n      swap1\n        /* \"ValidatorView.sol\":7271:7318  totalProfitWithdrawn[validator] += blockRewards */\n      tag_37\n      jump\t// in\n    tag_302:\n      swap1\n      swap2\n      sstore\n      pop\n      pop\n        /* \"ValidatorView.sol\":7329:7370  payable(validator).transfer(blockRewards) */\n      mload(0x40)\n      sub(shl(0xa0, 0x01), 0x01)\n        /* \"ValidatorView.sol\":7329:7356  payable(validator).transfer */\n      dup4\n      and\n      swap1\n        /* \"ValidatorView.sol\":7329:7370  payable(validator).transfer(blockRewards) */\n      dup3\n      iszero\n      0x08fc\n      mul\n      swap1\n        /* \"ValidatorView.sol\":7357:7369  blockRewards */\n      dup4\n      swap1\n        /* \"ValidatorView.sol\":7329:7370  payable(validator).transfer(blockRewards) */\n      0x00\n      dup2\n      dup2\n      dup2\n        /* \"ValidatorView.sol\":7357:7369  blockRewards */\n      dup6\n        /* \"ValidatorView.sol\":7329:7356  payable(validator).transfer */\n      dup9\n        /* \"ValidatorView.sol\":7329:7370  payable(validator).transfer(blockRewards) */\n      dup9\n      call\n      swap4\n      pop\n      pop\n      pop\n      pop\n      iszero\n      dup1\n      iszero\n      tag_304\n      jumpi\n      returndatasize\n      0x00\n      dup1\n      returndatacopy\n      revert(0x00, returndatasize)\n    tag_304:\n      pop\n        /* \"ValidatorView.sol\":7386:7445  WithdrawProfit( validator,  blockRewards,  block.timestamp) */\n      0x40\n      dup1\n      mload\n      sub(shl(0xa0, 0x01), 0x01)\n        /* \"#utility.yul\":16851:16883   */\n      dup5\n      and\n        /* \"#utility.yul\":16833:16884   */\n      dup2\n      mstore\n        /* \"#utility.yul\":16915:16917   */\n      0x20\n        /* \"#utility.yul\":16900:16918   */\n      dup2\n      add\n        /* \"#utility.yul\":16893:16927   */\n      dup4\n      swap1\n      mstore\n        /* \"ValidatorView.sol\":7429:7444  block.timestamp */\n      timestamp\n        /* \"#utility.yul\":16943:16961   */\n      dup2\n      dup4\n      add\n        /* \"#utility.yul\":16936:16970   */\n      mstore\n        /* \"ValidatorView.sol\":7386:7445  WithdrawProfit( validator,  blockRewards,  block.timestamp) */\n      swap1\n      mload\n      0x66f79629c03cd92f64c49d27760e90fd00ebc6f4ab63c8e3553228d9f62b3c01\n      swap2\n      dup2\n      swap1\n      sub\n        /* \"#utility.yul\":16821:16823   */\n      0x60\n        /* \"ValidatorView.sol\":7386:7445  WithdrawProfit( validator,  blockRewards,  block.timestamp) */\n      add\n      swap1\n      log1\n        /* \"ValidatorView.sol\":6915:7452  {... */\n      pop\n        /* \"ValidatorView.sol\":6856:7452  function withdrawStakingReward(address validator) external {... */\n      pop\n      jump\t// out\n        /* \"ValidatorView.sol\":12315:12478  function totalProfitEarned(address validator) public view returns(uint256){... */\n    tag_101:\n        /* \"ValidatorView.sol\":12381:12388  uint256 */\n      0x00\n        /* \"ValidatorView.sol\":12440:12471  viewValidatorRewards(validator) */\n      tag_309\n        /* \"ValidatorView.sol\":12461:12470  validator */\n      dup3\n        /* \"ValidatorView.sol\":12440:12460  viewValidatorRewards */\n      tag_58\n        /* \"ValidatorView.sol\":12440:12471  viewValidatorRewards(validator) */\n      jump\t// in\n    tag_309:\n      sub(shl(0xa0, 0x01), 0x01)\n        /* \"ValidatorView.sol\":12406:12437  totalProfitWithdrawn[validator] */\n      dup4\n      and\n      0x00\n      swap1\n      dup2\n      mstore\n        /* \"ValidatorView.sol\":12406:12426  totalProfitWithdrawn */\n      0x07\n        /* \"ValidatorView.sol\":12406:12437  totalProfitWithdrawn[validator] */\n      0x20\n      mstore\n      0x40\n      swap1\n      keccak256\n      sload\n        /* \"ValidatorView.sol\":12406:12471  totalProfitWithdrawn[validator] + viewValidatorRewards(validator) */\n      tag_164\n      swap2\n      swap1\n      tag_37\n      jump\t// in\n        /* \"ValidatorView.sol\":10942:11735  function validatorSpecificInfo1(address validatorAddress, address user) external view returns(string memory identityName, string memory website, string memory otherDetails, uint256 withdrawableRewards, uint256 stakedCoins, uint256 waitingBlocksForUnstake ){... */\n    tag_115:\n        /* \"ValidatorView.sol\":11290:11301  valContract */\n      sload(0x01)\n        /* \"ValidatorView.sol\":11290:11343  valContract.getValidatorDescription(validatorAddress) */\n      mload(0x40)\n      shl(0xe0, 0xa43569b3)\n      dup2\n      mstore\n      sub(shl(0xa0, 0x01), 0x01)\n        /* \"#utility.yul\":6434:6466   */\n      dup5\n      dup2\n      and\n        /* \"ValidatorView.sol\":11290:11343  valContract.getValidatorDescription(validatorAddress) */\n      0x04\n      dup4\n      add\n        /* \"#utility.yul\":6416:6467   */\n      mstore\n        /* \"ValidatorView.sol\":11036:11062  string memory identityName */\n      0x60\n      swap3\n      dup4\n      swap3\n      dup4\n      swap3\n        /* \"ValidatorView.sol\":11115:11142  uint256 withdrawableRewards */\n      0x00\n      swap3\n      dup4\n      swap3\n      dup4\n      swap3\n      dup4\n      swap3\n      dup4\n      swap3\n      dup4\n      swap3\n        /* \"ValidatorView.sol\":11290:11301  valContract */\n      swap1\n      swap2\n      and\n      swap1\n        /* \"ValidatorView.sol\":11290:11325  valContract.getValidatorDescription */\n      0xa43569b3\n      swap1\n        /* \"#utility.yul\":6389:6407   */\n      0x24\n      add\n        /* \"ValidatorView.sol\":11290:11343  valContract.getValidatorDescription(validatorAddress) */\n      0x00\n      mload(0x40)\n      dup1\n      dup4\n      sub\n      dup2\n      dup7\n      gas\n      staticcall\n      iszero\n      dup1\n      iszero\n      tag_315\n      jumpi\n      returndatasize\n      0x00\n      dup1\n      returndatacopy\n      revert(0x00, returndatasize)\n    tag_315:\n      pop\n      pop\n      pop\n      pop\n      mload(0x40)\n      returndatasize\n      0x00\n      dup3\n      returndatacopy\n      0x1f\n      returndatasize\n      swap1\n      dup2\n      add\n      not(0x1f)\n      and\n      dup3\n      add\n      0x40\n      mstore\n      tag_316\n      swap2\n      swap1\n      dup2\n      add\n      swap1\n      tag_247\n      jump\t// in\n    tag_316:\n        /* \"ValidatorView.sol\":11418:11429  valContract */\n      sload(0x01)\n        /* \"ValidatorView.sol\":11418:11479  valContract.getStakingInfo(validatorAddress,validatorAddress) */\n      mload(0x40)\n      shl(0xe1, 0x3fa7cafd)\n      dup2\n      mstore\n        /* \"ValidatorView.sol\":11209:11343  (, string memory identity, string memory websiteLocal, ,string memory details) = valContract.getValidatorDescription(validatorAddress) */\n      swap5\n      swap9\n      pop\n      swap3\n      swap7\n      pop\n      swap5\n      pop\n        /* \"ValidatorView.sol\":11355:11375  uint256 unstakeBlock */\n      0x00\n      swap4\n      pop\n      pop\n      sub(shl(0xa0, 0x01), 0x01)\n        /* \"ValidatorView.sol\":11418:11429  valContract */\n      and\n      swap1\n        /* \"ValidatorView.sol\":11418:11444  valContract.getStakingInfo */\n      0x7f4f95fa\n      swap1\n        /* \"ValidatorView.sol\":11418:11479  valContract.getStakingInfo(validatorAddress,validatorAddress) */\n      tag_317\n      swap1\n        /* \"ValidatorView.sol\":11445:11461  validatorAddress */\n      dup16\n      swap1\n      dup2\n      swap1\n        /* \"ValidatorView.sol\":11418:11479  valContract.getStakingInfo(validatorAddress,validatorAddress) */\n      0x04\n      add\n      sub(shl(0xa0, 0x01), 0x01)\n        /* \"#utility.yul\":15251:15266   */\n      swap3\n      dup4\n      and\n        /* \"#utility.yul\":15233:15267   */\n      dup2\n      mstore\n        /* \"#utility.yul\":15303:15318   */\n      swap2\n      and\n        /* \"#utility.yul\":15298:15300   */\n      0x20\n        /* \"#utility.yul\":15283:15301   */\n      dup3\n      add\n        /* \"#utility.yul\":15276:15319   */\n      mstore\n        /* \"#utility.yul\":15183:15185   */\n      0x40\n        /* \"#utility.yul\":15168:15186   */\n      add\n      swap1\n        /* \"#utility.yul\":15021:15325   */\n      jump\n        /* \"ValidatorView.sol\":11418:11479  valContract.getStakingInfo(validatorAddress,validatorAddress) */\n    tag_317:\n      0x60\n      mload(0x40)\n      dup1\n      dup4\n      sub\n      dup2\n      dup7\n      gas\n      staticcall\n      iszero\n      dup1\n      iszero\n      tag_319\n      jumpi\n      returndatasize\n      0x00\n      dup1\n      returndatacopy\n      revert(0x00, returndatasize)\n    tag_319:\n      pop\n      pop\n      pop\n      pop\n      mload(0x40)\n      returndatasize\n      not(0x1f)\n      0x1f\n      dup3\n      add\n      and\n      dup3\n      add\n      dup1\n      0x40\n      mstore\n      pop\n      dup2\n      add\n      swap1\n      tag_320\n      swap2\n      swap1\n      tag_280\n      jump\t// in\n    tag_320:\n      pop\n        /* \"ValidatorView.sol\":11386:11479  (stakedCoins, unstakeBlock, ) = valContract.getStakingInfo(validatorAddress,validatorAddress) */\n      swap1\n      swap7\n      pop\n      swap1\n      pop\n        /* \"ValidatorView.sol\":11493:11508  unstakeBlock!=0 */\n      dup1\n      iszero\n        /* \"ValidatorView.sol\":11490:11600  if(unstakeBlock!=0){... */\n      tag_321\n      jumpi\n        /* \"ValidatorView.sol\":11588:11589  0 */\n      0x00\n      swap6\n        /* \"ValidatorView.sol\":11549:11560  stakedCoins */\n      swap5\n      pop\n        /* \"ValidatorView.sol\":11490:11600  if(unstakeBlock!=0){... */\n    tag_321:\n        /* \"ValidatorView.sol\":11617:11625  identity */\n      dup4\n        /* \"ValidatorView.sol\":11627:11639  websiteLocal */\n      dup4\n        /* \"ValidatorView.sol\":11641:11648  details */\n      dup4\n        /* \"ValidatorView.sol\":11650:11688  viewValidatorRewards(validatorAddress) */\n      tag_322\n        /* \"ValidatorView.sol\":11671:11687  validatorAddress */\n      dup16\n        /* \"ValidatorView.sol\":11650:11670  viewValidatorRewards */\n      tag_58\n        /* \"ValidatorView.sol\":11650:11688  viewValidatorRewards(validatorAddress) */\n      jump\t// in\n    tag_322:\n        /* \"ValidatorView.sol\":11610:11727  return(identity, websiteLocal, details, viewValidatorRewards(validatorAddress), stakedCoins, waitingBlocksForUnstake) */\n      swap10\n      pop\n      swap10\n      pop\n      swap10\n      pop\n      swap10\n      pop\n      pop\n      pop\n      pop\n      pop\n        /* \"ValidatorView.sol\":10942:11735  function validatorSpecificInfo1(address validatorAddress, address user) external view returns(string memory identityName, string memory website, string memory otherDetails, uint256 withdrawableRewards, uint256 stakedCoins, uint256 waitingBlocksForUnstake ){... */\n      swap3\n      swap6\n      pop\n      swap3\n      swap6\n      pop\n      swap3\n      swap6\n      jump\t// out\n        /* \"ValidatorView.sol\":6010:6612  function createOrEditValidator(... */\n    tag_121:\n        /* \"ValidatorView.sol\":6271:6275  bool */\n      0x00\n        /* \"ValidatorView.sol\":6288:6308  _distributeRewards() */\n      tag_324\n        /* \"ValidatorView.sol\":6288:6306  _distributeRewards */\n      tag_295\n        /* \"ValidatorView.sol\":6288:6308  _distributeRewards() */\n      jump\t// in\n    tag_324:\n        /* \"ValidatorView.sol\":6340:6363  minimumValidatorStaking */\n      sload(0x02)\n        /* \"ValidatorView.sol\":6327:6336  msg.value */\n      callvalue\n        /* \"ValidatorView.sol\":6327:6363  msg.value >= minimumValidatorStaking */\n      lt\n      iszero\n        /* \"ValidatorView.sol\":6319:6407  require(msg.value >= minimumValidatorStaking, \"Please stake minimum validator staking\" ) */\n      tag_325\n      jumpi\n      mload(0x40)\n      shl(0xe5, 0x461bcd)\n      dup2\n      mstore\n        /* \"#utility.yul\":17183:17185   */\n      0x20\n        /* \"ValidatorView.sol\":6319:6407  require(msg.value >= minimumValidatorStaking, \"Please stake minimum validator staking\" ) */\n      0x04\n      dup3\n      add\n        /* \"#utility.yul\":17165:17186   */\n      mstore\n        /* \"#utility.yul\":17222:17224   */\n      0x26\n        /* \"#utility.yul\":17202:17220   */\n      0x24\n      dup3\n      add\n        /* \"#utility.yul\":17195:17225   */\n      mstore\n        /* \"#utility.yul\":17261:17295   */\n      0x506c65617365207374616b65206d696e696d756d2076616c696461746f722073\n        /* \"#utility.yul\":17241:17259   */\n      0x44\n      dup3\n      add\n        /* \"#utility.yul\":17234:17296   */\n      mstore\n      shl(0xd0, 0x74616b696e67)\n        /* \"#utility.yul\":17312:17330   */\n      0x64\n      dup3\n      add\n        /* \"#utility.yul\":17305:17341   */\n      mstore\n        /* \"#utility.yul\":17358:17377   */\n      0x84\n      add\n        /* \"ValidatorView.sol\":6319:6407  require(msg.value >= minimumValidatorStaking, \"Please stake minimum validator staking\" ) */\n      tag_288\n        /* \"#utility.yul\":16981:17383   */\n      jump\n        /* \"ValidatorView.sol\":6319:6407  require(msg.value >= minimumValidatorStaking, \"Please stake minimum validator staking\" ) */\n    tag_325:\n        /* \"ValidatorView.sol\":6418:6429  valContract */\n      0x01\n      0x00\n      swap1\n      sload\n      swap1\n      0x0100\n      exp\n      swap1\n      div\n      sub(shl(0xa0, 0x01), 0x01)\n      and\n      sub(shl(0xa0, 0x01), 0x01)\n        /* \"ValidatorView.sol\":6418:6451  valContract.createOrEditValidator */\n      and\n      0xa406fcb7\n        /* \"ValidatorView.sol\":6459:6468  msg.value */\n      callvalue\n        /* \"ValidatorView.sol\":6470:6477  feeAddr */\n      dup15\n        /* \"ValidatorView.sol\":6479:6486  moniker */\n      dup15\n      dup15\n        /* \"ValidatorView.sol\":6488:6496  identity */\n      dup15\n      dup15\n        /* \"ValidatorView.sol\":6498:6505  website */\n      dup15\n      dup15\n        /* \"ValidatorView.sol\":6507:6512  email */\n      dup15\n      dup15\n        /* \"ValidatorView.sol\":6514:6521  details */\n      dup15\n      dup15\n        /* \"ValidatorView.sol\":6418:6522  valContract.createOrEditValidator{value: msg.value}(feeAddr, moniker, identity, website, email, details) */\n      mload(0x40)\n      dup14\n      0xffffffff\n      and\n      0xe0\n      shl\n      dup2\n      mstore\n      0x04\n      add\n      tag_328\n      swap12\n      swap11\n      swap10\n      swap9\n      swap8\n      swap7\n      swap6\n      swap5\n      swap4\n      swap3\n      swap2\n      swap1\n      tag_329\n      jump\t// in\n    tag_328:\n      0x20\n      mload(0x40)\n      dup1\n      dup4\n      sub\n      dup2\n      dup6\n      dup9\n      gas\n      call\n      iszero\n      dup1\n      iszero\n      tag_331\n      jumpi\n      returndatasize\n      0x00\n      dup1\n      returndatacopy\n      revert(0x00, returndatasize)\n    tag_331:\n      pop\n      pop\n      pop\n      pop\n      pop\n      mload(0x40)\n      returndatasize\n      not(0x1f)\n      0x1f\n      dup3\n      add\n      and\n      dup3\n      add\n      dup1\n      0x40\n      mstore\n      pop\n      dup2\n      add\n      swap1\n      tag_332\n      swap2\n      swap1\n      tag_300\n      jump\t// in\n    tag_332:\n      pop\n        /* \"ValidatorView.sol\":6538:6583  Stake(msg.sender, msg.value, block.timestamp) */\n      0x40\n      dup1\n      mload\n        /* \"ValidatorView.sol\":6544:6554  msg.sender */\n      caller\n        /* \"#utility.yul\":16833:16884   */\n      dup2\n      mstore\n        /* \"ValidatorView.sol\":6556:6565  msg.value */\n      callvalue\n        /* \"#utility.yul\":16915:16917   */\n      0x20\n        /* \"#utility.yul\":16900:16918   */\n      dup3\n      add\n        /* \"#utility.yul\":16893:16927   */\n      mstore\n        /* \"ValidatorView.sol\":6567:6582  block.timestamp */\n      timestamp\n        /* \"#utility.yul\":16943:16961   */\n      dup2\n      dup4\n      add\n        /* \"#utility.yul\":16936:16970   */\n      mstore\n        /* \"ValidatorView.sol\":6538:6583  Stake(msg.sender, msg.value, block.timestamp) */\n      swap1\n      mload\n      0x5af417134f72a9d41143ace85b0a26dce6f550f894f2cbc1eeee8810603d91b6\n      swap2\n      dup2\n      swap1\n      sub\n        /* \"#utility.yul\":16821:16823   */\n      0x60\n        /* \"ValidatorView.sol\":6538:6583  Stake(msg.sender, msg.value, block.timestamp) */\n      add\n      swap1\n      log1\n      pop\n        /* \"ValidatorView.sol\":6601:6605  true */\n      0x01\n        /* \"ValidatorView.sol\":6010:6612  function createOrEditValidator(... */\n      swap12\n      swap11\n      pop\n      pop\n      pop\n      pop\n      pop\n      pop\n      pop\n      pop\n      pop\n      pop\n      pop\n      jump\t// out\n        /* \"ValidatorView.sol\":9198:9352  function rescueCoins() external onlyOwner{... */\n    tag_130:\n        /* \"ValidatorView.sol\":3704:3717  _checkOwner() */\n      tag_335\n        /* \"ValidatorView.sol\":3704:3715  _checkOwner */\n      tag_167\n        /* \"ValidatorView.sol\":3704:3717  _checkOwner() */\n      jump\t// in\n    tag_335:\n        /* \"ValidatorView.sol\":9263:9284  address(this).balance */\n      selfbalance\n        /* \"ValidatorView.sol\":9249:9259  rewardFund */\n      0x05\n      0x00\n        /* \"ValidatorView.sol\":9249:9284  rewardFund -= address(this).balance */\n      dup3\n      dup3\n      sload\n      tag_337\n      swap2\n      swap1\n      tag_203\n      jump\t// in\n    tag_337:\n      swap1\n      swap2\n      sstore\n      pop\n      pop\n        /* \"ValidatorView.sol\":9294:9345  payable(msg.sender).transfer(address(this).balance) */\n      mload(0x40)\n        /* \"ValidatorView.sol\":9302:9312  msg.sender */\n      caller\n      swap1\n        /* \"ValidatorView.sol\":9323:9344  address(this).balance */\n      selfbalance\n        /* \"ValidatorView.sol\":9294:9345  payable(msg.sender).transfer(address(this).balance) */\n      dup1\n      iszero\n      0x08fc\n      mul\n      swap2\n      0x00\n      dup2\n      dup2\n      dup2\n        /* \"ValidatorView.sol\":9323:9344  address(this).balance */\n      dup6\n        /* \"ValidatorView.sol\":9302:9312  msg.sender */\n      dup9\n        /* \"ValidatorView.sol\":9294:9345  payable(msg.sender).transfer(address(this).balance) */\n      dup9\n      call\n      swap4\n      pop\n      pop\n      pop\n      pop\n      iszero\n      dup1\n      iszero\n      tag_339\n      jumpi\n      returndatasize\n      0x00\n      dup1\n      returndatacopy\n      revert(0x00, returndatasize)\n    tag_339:\n      pop\n        /* \"ValidatorView.sol\":9198:9352  function rescueCoins() external onlyOwner{... */\n      jump\t// out\n        /* \"ValidatorView.sol\":13447:13565  function minimumStakingAmount() external view returns(uint256){... */\n    tag_133:\n        /* \"ValidatorView.sol\":13526:13537  valContract */\n      sload(0x01)\n        /* \"ValidatorView.sol\":13526:13558  valContract.MinimalStakingCoin() */\n      0x40\n      dup1\n      mload\n      shl(0xe1, 0x5f322b49)\n      dup2\n      mstore\n      swap1\n      mload\n        /* \"ValidatorView.sol\":13501:13508  uint256 */\n      0x00\n      swap3\n      sub(shl(0xa0, 0x01), 0x01)\n        /* \"ValidatorView.sol\":13526:13537  valContract */\n      and\n      swap2\n        /* \"ValidatorView.sol\":13526:13556  valContract.MinimalStakingCoin */\n      0xbe645692\n      swap2\n        /* \"ValidatorView.sol\":13526:13558  valContract.MinimalStakingCoin() */\n      0x04\n      dup1\n      dup4\n      add\n      swap3\n      0x20\n      swap3\n      swap2\n      swap1\n      dup3\n      swap1\n      sub\n      add\n      dup2\n        /* \"ValidatorView.sol\":13526:13537  valContract */\n      dup7\n        /* \"ValidatorView.sol\":13526:13558  valContract.MinimalStakingCoin() */\n      gas\n      staticcall\n      iszero\n      dup1\n      iszero\n      tag_342\n      jumpi\n      returndatasize\n      0x00\n      dup1\n      returndatacopy\n      revert(0x00, returndatasize)\n    tag_342:\n      pop\n      pop\n      pop\n      pop\n      mload(0x40)\n      returndatasize\n      not(0x1f)\n      0x1f\n      dup3\n      add\n      and\n      dup3\n      add\n      dup1\n      0x40\n      mstore\n      pop\n      dup2\n      add\n      swap1\n      tag_343\n      swap2\n      swap1\n      tag_268\n      jump\t// in\n    tag_343:\n        /* \"ValidatorView.sol\":13519:13558  return valContract.MinimalStakingCoin() */\n      swap1\n      pop\n        /* \"ValidatorView.sol\":13447:13565  function minimumStakingAmount() external view returns(uint256){... */\n      swap1\n      jump\t// out\n        /* \"ValidatorView.sol\":12934:13441  function waitingWithdrawStaking(address user, address validatorAddress) public view returns(uint256){... */\n    tag_138:\n        /* \"ValidatorView.sol\":13128:13139  valContract */\n      sload(0x01)\n        /* \"ValidatorView.sol\":13128:13177  valContract.getStakingInfo(user,validatorAddress) */\n      mload(0x40)\n      shl(0xe1, 0x3fa7cafd)\n      dup2\n      mstore\n      sub(shl(0xa0, 0x01), 0x01)\n        /* \"#utility.yul\":15251:15266   */\n      dup5\n      dup2\n      and\n        /* \"ValidatorView.sol\":13128:13177  valContract.getStakingInfo(user,validatorAddress) */\n      0x04\n      dup4\n      add\n        /* \"#utility.yul\":15233:15267   */\n      mstore\n        /* \"#utility.yul\":15303:15318   */\n      dup4\n      dup2\n      and\n        /* \"#utility.yul\":15283:15301   */\n      0x24\n      dup4\n      add\n        /* \"#utility.yul\":15276:15319   */\n      mstore\n        /* \"ValidatorView.sol\":13026:13033  uint256 */\n      0x00\n      swap3\n      dup4\n      swap3\n        /* \"ValidatorView.sol\":13128:13139  valContract */\n      swap2\n      and\n      swap1\n        /* \"ValidatorView.sol\":13128:13154  valContract.getStakingInfo */\n      0x7f4f95fa\n      swap1\n        /* \"#utility.yul\":15168:15186   */\n      0x44\n      add\n        /* \"ValidatorView.sol\":13128:13177  valContract.getStakingInfo(user,validatorAddress) */\n      0x60\n      mload(0x40)\n      dup1\n      dup4\n      sub\n      dup2\n      dup7\n      gas\n      staticcall\n      iszero\n      dup1\n      iszero\n      tag_347\n      jumpi\n      returndatasize\n      0x00\n      dup1\n      returndatacopy\n      revert(0x00, returndatasize)\n    tag_347:\n      pop\n      pop\n      pop\n      pop\n      mload(0x40)\n      returndatasize\n      not(0x1f)\n      0x1f\n      dup3\n      add\n      and\n      dup3\n      add\n      dup1\n      0x40\n      mstore\n      pop\n      dup2\n      add\n      swap1\n      tag_348\n      swap2\n      swap1\n      tag_280\n      jump\t// in\n    tag_348:\n        /* \"ValidatorView.sol\":13099:13177  (, uint256 unstakeBlock, ) = valContract.getStakingInfo(user,validatorAddress) */\n      pop\n      swap2\n      pop\n      pop\n        /* \"ValidatorView.sol\":13191:13203  unstakeBlock */\n      dup1\n        /* \"ValidatorView.sol\":13205:13206  0 */\n      0x00\n        /* \"ValidatorView.sol\":13191:13206  unstakeBlock==0 */\n      sub\n        /* \"ValidatorView.sol\":13188:13240  if(unstakeBlock==0){... */\n      tag_349\n      jumpi\n        /* \"ValidatorView.sol\":13228:13229  0 */\n      0x00\n        /* \"ValidatorView.sol\":13221:13229  return 0 */\n      swap2\n      pop\n      pop\n      jump(tag_164)\n        /* \"ValidatorView.sol\":13188:13240  if(unstakeBlock==0){... */\n    tag_349:\n        /* \"ValidatorView.sol\":13268:13279  valContract */\n      sload(0x01)\n        /* \"ValidatorView.sol\":13268:13299  valContract.StakingLockPeriod() */\n      0x40\n      dup1\n      mload\n      shl(0xe3, 0x1b6f1ba5)\n      dup2\n      mstore\n      swap1\n      mload\n        /* \"ValidatorView.sol\":13302:13314  block.number */\n      number\n      swap3\n      sub(shl(0xa0, 0x01), 0x01)\n        /* \"ValidatorView.sol\":13268:13279  valContract */\n      and\n      swap2\n        /* \"ValidatorView.sol\":13268:13297  valContract.StakingLockPeriod */\n      0xdb78dd28\n      swap2\n        /* \"ValidatorView.sol\":13268:13299  valContract.StakingLockPeriod() */\n      0x04\n      dup1\n      dup4\n      add\n      swap3\n      0x20\n      swap3\n      swap2\n      swap1\n      dup3\n      swap1\n      sub\n      add\n      dup2\n        /* \"ValidatorView.sol\":13268:13279  valContract */\n      dup7\n        /* \"ValidatorView.sol\":13268:13299  valContract.StakingLockPeriod() */\n      gas\n      staticcall\n      iszero\n      dup1\n      iszero\n      tag_351\n      jumpi\n      returndatasize\n      0x00\n      dup1\n      returndatacopy\n      revert(0x00, returndatasize)\n    tag_351:\n      pop\n      pop\n      pop\n      pop\n      mload(0x40)\n      returndatasize\n      not(0x1f)\n      0x1f\n      dup3\n      add\n      and\n      dup3\n      add\n      dup1\n      0x40\n      mstore\n      pop\n      dup2\n      add\n      swap1\n      tag_352\n      swap2\n      swap1\n      tag_353\n      jump\t// in\n    tag_352:\n        /* \"ValidatorView.sol\":13253:13299  unstakeBlock + valContract.StakingLockPeriod() */\n      tag_354\n      swap1\n      sub(shl(0x40, 0x01), 0x01)\n      and\n        /* \"ValidatorView.sol\":13253:13265  unstakeBlock */\n      dup4\n        /* \"ValidatorView.sol\":13253:13299  unstakeBlock + valContract.StakingLockPeriod() */\n      tag_37\n      jump\t// in\n    tag_354:\n        /* \"ValidatorView.sol\":13253:13314  unstakeBlock + valContract.StakingLockPeriod() > block.number */\n      gt\n        /* \"ValidatorView.sol\":13250:13416  if(unstakeBlock + valContract.StakingLockPeriod() > block.number){... */\n      iszero\n      tag_355\n      jumpi\n        /* \"ValidatorView.sol\":13357:13368  valContract */\n      sload(0x01)\n        /* \"ValidatorView.sol\":13357:13388  valContract.StakingLockPeriod() */\n      0x40\n      dup1\n      mload\n      shl(0xe3, 0x1b6f1ba5)\n      dup2\n      mstore\n      swap1\n      mload\n        /* \"ValidatorView.sol\":13392:13404  block.number */\n      number\n      swap3\n      sub(shl(0xa0, 0x01), 0x01)\n        /* \"ValidatorView.sol\":13357:13368  valContract */\n      and\n      swap2\n        /* \"ValidatorView.sol\":13357:13386  valContract.StakingLockPeriod */\n      0xdb78dd28\n      swap2\n        /* \"ValidatorView.sol\":13357:13388  valContract.StakingLockPeriod() */\n      0x04\n      dup1\n      dup4\n      add\n      swap3\n      0x20\n      swap3\n      swap2\n      swap1\n      dup3\n      swap1\n      sub\n      add\n      dup2\n        /* \"ValidatorView.sol\":13357:13368  valContract */\n      dup7\n        /* \"ValidatorView.sol\":13357:13388  valContract.StakingLockPeriod() */\n      gas\n      staticcall\n      iszero\n      dup1\n      iszero\n      tag_357\n      jumpi\n      returndatasize\n      0x00\n      dup1\n      returndatacopy\n      revert(0x00, returndatasize)\n    tag_357:\n      pop\n      pop\n      pop\n      pop\n      mload(0x40)\n      returndatasize\n      not(0x1f)\n      0x1f\n      dup3\n      add\n      and\n      dup3\n      add\n      dup1\n      0x40\n      mstore\n      pop\n      dup2\n      add\n      swap1\n      tag_358\n      swap2\n      swap1\n      tag_353\n      jump\t// in\n    tag_358:\n        /* \"ValidatorView.sol\":13342:13388  unstakeBlock + valContract.StakingLockPeriod() */\n      tag_359\n      swap1\n      sub(shl(0x40, 0x01), 0x01)\n      and\n        /* \"ValidatorView.sol\":13342:13354  unstakeBlock */\n      dup4\n        /* \"ValidatorView.sol\":13342:13388  unstakeBlock + valContract.StakingLockPeriod() */\n      tag_37\n      jump\t// in\n    tag_359:\n        /* \"ValidatorView.sol\":13341:13404  (unstakeBlock + valContract.StakingLockPeriod()) - block.number */\n      tag_360\n      swap2\n      swap1\n      tag_203\n      jump\t// in\n    tag_360:\n        /* \"ValidatorView.sol\":13336:13405  2 * ((unstakeBlock + valContract.StakingLockPeriod()) - block.number) */\n      tag_361\n      swap1\n        /* \"ValidatorView.sol\":13336:13337  2 */\n      0x02\n        /* \"ValidatorView.sol\":13336:13405  2 * ((unstakeBlock + valContract.StakingLockPeriod()) - block.number) */\n      tag_207\n      jump\t// in\n    tag_361:\n        /* \"ValidatorView.sol\":13329:13405  return 2 * ((unstakeBlock + valContract.StakingLockPeriod()) - block.number) */\n      swap2\n      pop\n      pop\n      jump(tag_164)\n        /* \"ValidatorView.sol\":13250:13416  if(unstakeBlock + valContract.StakingLockPeriod() > block.number){... */\n    tag_355:\n      pop\n        /* \"ValidatorView.sol\":13432:13433  0 */\n      0x00\n      swap4\n        /* \"ValidatorView.sol\":12934:13441  function waitingWithdrawStaking(address user, address validatorAddress) public view returns(uint256){... */\n      swap3\n      pop\n      pop\n      pop\n      jump\t// out\n        /* \"ValidatorView.sol\":13571:13817  function stakingValidations(address user, address validatorAddress) external view returns(uint256 minimumStakingAmt, uint256 stakingWaiting){... */\n    tag_143:\n        /* \"ValidatorView.sol\":13661:13686  uint256 minimumStakingAmt */\n      0x00\n        /* \"ValidatorView.sol\":13688:13710  uint256 stakingWaiting */\n      dup1\n        /* \"ValidatorView.sol\":13729:13740  valContract */\n      0x01\n      0x00\n      swap1\n      sload\n      swap1\n      0x0100\n      exp\n      swap1\n      div\n      sub(shl(0xa0, 0x01), 0x01)\n      and\n      sub(shl(0xa0, 0x01), 0x01)\n        /* \"ValidatorView.sol\":13729:13759  valContract.MinimalStakingCoin */\n      and\n      0xbe645692\n        /* \"ValidatorView.sol\":13729:13761  valContract.MinimalStakingCoin() */\n      mload(0x40)\n      dup2\n      0xffffffff\n      and\n      0xe0\n      shl\n      dup2\n      mstore\n      0x04\n      add\n      0x20\n      mload(0x40)\n      dup1\n      dup4\n      sub\n      dup2\n      dup7\n      gas\n      staticcall\n      iszero\n      dup1\n      iszero\n      tag_364\n      jumpi\n      returndatasize\n      0x00\n      dup1\n      returndatacopy\n      revert(0x00, returndatasize)\n    tag_364:\n      pop\n      pop\n      pop\n      pop\n      mload(0x40)\n      returndatasize\n      not(0x1f)\n      0x1f\n      dup3\n      add\n      and\n      dup3\n      add\n      dup1\n      0x40\n      mstore\n      pop\n      dup2\n      add\n      swap1\n      tag_365\n      swap2\n      swap1\n      tag_268\n      jump\t// in\n    tag_365:\n        /* \"ValidatorView.sol\":13763:13809  waitingWithdrawStaking(user, validatorAddress) */\n      tag_366\n        /* \"ValidatorView.sol\":13786:13790  user */\n      dup6\n        /* \"ValidatorView.sol\":13792:13808  validatorAddress */\n      dup6\n        /* \"ValidatorView.sol\":13763:13785  waitingWithdrawStaking */\n      tag_138\n        /* \"ValidatorView.sol\":13763:13809  waitingWithdrawStaking(user, validatorAddress) */\n      jump\t// in\n    tag_366:\n        /* \"ValidatorView.sol\":13721:13810  return (valContract.MinimalStakingCoin(), waitingWithdrawStaking(user, validatorAddress)) */\n      swap2\n      pop\n      swap2\n      pop\n        /* \"ValidatorView.sol\":13571:13817  function stakingValidations(address user, address validatorAddress) external view returns(uint256 minimumStakingAmt, uint256 stakingWaiting){... */\n    tag_362:\n      swap3\n      pop\n      swap3\n      swap1\n      pop\n      jump\t// out\n        /* \"ValidatorView.sol\":6619:6850  function unstake(address validator)... */\n    tag_158:\n        /* \"ValidatorView.sol\":6689:6693  bool */\n      0x00\n        /* \"ValidatorView.sol\":6709:6729  _distributeRewards() */\n      tag_368\n        /* \"ValidatorView.sol\":6709:6727  _distributeRewards */\n      tag_295\n        /* \"ValidatorView.sol\":6709:6729  _distributeRewards() */\n      jump\t// in\n    tag_368:\n        /* \"ValidatorView.sol\":6740:6751  valContract */\n      sload(0x01)\n        /* \"ValidatorView.sol\":6740:6770  valContract.unstake(validator) */\n      mload(0x40)\n      shl(0xe0, 0xf2888dbb)\n      dup2\n      mstore\n      sub(shl(0xa0, 0x01), 0x01)\n        /* \"#utility.yul\":6434:6466   */\n      dup5\n      dup2\n      and\n        /* \"ValidatorView.sol\":6740:6770  valContract.unstake(validator) */\n      0x04\n      dup4\n      add\n        /* \"#utility.yul\":6416:6467   */\n      mstore\n        /* \"ValidatorView.sol\":6740:6751  valContract */\n      swap1\n      swap2\n      and\n      swap1\n        /* \"ValidatorView.sol\":6740:6759  valContract.unstake */\n      0xf2888dbb\n      swap1\n        /* \"#utility.yul\":6389:6407   */\n      0x24\n      add\n        /* \"ValidatorView.sol\":6740:6770  valContract.unstake(validator) */\n      0x20\n      mload(0x40)\n      dup1\n      dup4\n      sub\n      dup2\n      0x00\n      dup8\n      gas\n      call\n      iszero\n      dup1\n      iszero\n      tag_371\n      jumpi\n      returndatasize\n      0x00\n      dup1\n      returndatacopy\n      revert(0x00, returndatasize)\n    tag_371:\n      pop\n      pop\n      pop\n      pop\n      mload(0x40)\n      returndatasize\n      not(0x1f)\n      0x1f\n      dup3\n      add\n      and\n      dup3\n      add\n      dup1\n      0x40\n      mstore\n      pop\n      dup2\n      add\n      swap1\n      tag_372\n      swap2\n      swap1\n      tag_300\n      jump\t// in\n    tag_372:\n      pop\n        /* \"ValidatorView.sol\":6786:6822  Unstake(msg.sender, block.timestamp) */\n      0x40\n      dup1\n      mload\n        /* \"ValidatorView.sol\":6794:6804  msg.sender */\n      caller\n        /* \"#utility.yul\":19258:19309   */\n      dup2\n      mstore\n        /* \"ValidatorView.sol\":6806:6821  block.timestamp */\n      timestamp\n        /* \"#utility.yul\":19340:19342   */\n      0x20\n        /* \"#utility.yul\":19325:19343   */\n      dup3\n      add\n        /* \"#utility.yul\":19318:19352   */\n      mstore\n        /* \"ValidatorView.sol\":6786:6822  Unstake(msg.sender, block.timestamp) */\n      0x85082129d87b2fe11527cb1b3b7a520aeb5aa6913f88a3d8757fe40d1db02fdd\n      swap2\n        /* \"#utility.yul\":19231:19249   */\n      add\n        /* \"ValidatorView.sol\":6786:6822  Unstake(msg.sender, block.timestamp) */\n      mload(0x40)\n      dup1\n      swap2\n      sub\n      swap1\n      log1\n      pop\n        /* \"ValidatorView.sol\":6839:6843  true */\n      0x01\n      swap2\n        /* \"ValidatorView.sol\":6619:6850  function unstake(address validator)... */\n      swap1\n      pop\n      jump\t// out\n        /* \"ValidatorView.sol\":4691:4923  function transferOwnership(address newOwner) public virtual onlyOwner {... */\n    tag_163:\n        /* \"ValidatorView.sol\":3704:3717  _checkOwner() */\n      tag_376\n        /* \"ValidatorView.sol\":3704:3715  _checkOwner */\n      tag_167\n        /* \"ValidatorView.sol\":3704:3717  _checkOwner() */\n      jump\t// in\n    tag_376:\n      sub(shl(0xa0, 0x01), 0x01)\n        /* \"ValidatorView.sol\":4792:4814  newOwner != address(0) */\n      dup2\n      and\n        /* \"ValidatorView.sol\":4771:4878  require(... */\n      tag_378\n      jumpi\n      mload(0x40)\n      shl(0xe5, 0x461bcd)\n      dup2\n      mstore\n        /* \"#utility.yul\":19565:19567   */\n      0x20\n        /* \"ValidatorView.sol\":4771:4878  require(... */\n      0x04\n      dup3\n      add\n        /* \"#utility.yul\":19547:19568   */\n      mstore\n        /* \"#utility.yul\":19604:19606   */\n      0x26\n        /* \"#utility.yul\":19584:19602   */\n      0x24\n      dup3\n      add\n        /* \"#utility.yul\":19577:19607   */\n      mstore\n        /* \"#utility.yul\":19643:19677   */\n      0x4f776e61626c653a206e6577206f776e657220697320746865207a65726f2061\n        /* \"#utility.yul\":19623:19641   */\n      0x44\n      dup3\n      add\n        /* \"#utility.yul\":19616:19678   */\n      mstore\n      shl(0xd0, 0x646472657373)\n        /* \"#utility.yul\":19694:19712   */\n      0x64\n      dup3\n      add\n        /* \"#utility.yul\":19687:19723   */\n      mstore\n        /* \"#utility.yul\":19740:19759   */\n      0x84\n      add\n        /* \"ValidatorView.sol\":4771:4878  require(... */\n      tag_288\n        /* \"#utility.yul\":19363:19765   */\n      jump\n        /* \"ValidatorView.sol\":4771:4878  require(... */\n    tag_378:\n        /* \"ValidatorView.sol\":4888:4916  _transferOwnership(newOwner) */\n      tag_339\n        /* \"ValidatorView.sol\":4907:4915  newOwner */\n      dup2\n        /* \"ValidatorView.sol\":4888:4906  _transferOwnership */\n      tag_285\n        /* \"ValidatorView.sol\":4888:4916  _transferOwnership(newOwner) */\n      jump\t// in\n        /* \"ValidatorView.sol\":3969:4099  function _checkOwner() internal view virtual {... */\n    tag_167:\n        /* \"ValidatorView.sol\":3857:3864  address */\n      0x00\n        /* \"ValidatorView.sol\":3883:3889  _owner */\n      sload\n      sub(shl(0xa0, 0x01), 0x01)\n      and\n        /* \"ValidatorView.sol\":2621:2631  msg.sender */\n      caller\n        /* \"ValidatorView.sol\":4032:4055  owner() == _msgSender() */\n      eq\n        /* \"ValidatorView.sol\":4024:4092  require(owner() == _msgSender(), \"Ownable: caller is not the owner\") */\n      tag_284\n      jumpi\n      mload(0x40)\n      shl(0xe5, 0x461bcd)\n      dup2\n      mstore\n        /* \"#utility.yul\":19972:19974   */\n      0x20\n        /* \"ValidatorView.sol\":4024:4092  require(owner() == _msgSender(), \"Ownable: caller is not the owner\") */\n      0x04\n      dup3\n      add\n        /* \"#utility.yul\":19954:19975   */\n      dup2\n      swap1\n      mstore\n        /* \"#utility.yul\":19991:20009   */\n      0x24\n      dup3\n      add\n        /* \"#utility.yul\":19984:20014   */\n      mstore\n        /* \"#utility.yul\":20050:20084   */\n      0x4f776e61626c653a2063616c6c6572206973206e6f7420746865206f776e6572\n        /* \"#utility.yul\":20030:20048   */\n      0x44\n      dup3\n      add\n        /* \"#utility.yul\":20023:20085   */\n      mstore\n        /* \"#utility.yul\":20102:20120   */\n      0x64\n      add\n        /* \"ValidatorView.sol\":4024:4092  require(owner() == _msgSender(), \"Ownable: caller is not the owner\") */\n      tag_288\n        /* \"#utility.yul\":19770:20126   */\n      jump\n        /* \"ValidatorView.sol\":5077:5264  function _transferOwnership(address newOwner) internal virtual {... */\n    tag_285:\n        /* \"ValidatorView.sol\":5150:5166  address oldOwner */\n      0x00\n        /* \"ValidatorView.sol\":5169:5175  _owner */\n      dup1\n      sload\n      sub(shl(0xa0, 0x01), 0x01)\n        /* \"ValidatorView.sol\":5185:5202  _owner = newOwner */\n      dup4\n      dup2\n      and\n      not(sub(shl(0xa0, 0x01), 0x01))\n      dup4\n      and\n      dup2\n      or\n      dup5\n      sstore\n        /* \"ValidatorView.sol\":5217:5257  OwnershipTransferred(oldOwner, newOwner) */\n      mload(0x40)\n        /* \"ValidatorView.sol\":5169:5175  _owner */\n      swap2\n      swap1\n      swap3\n      and\n      swap3\n      dup4\n      swap2\n        /* \"ValidatorView.sol\":5217:5257  OwnershipTransferred(oldOwner, newOwner) */\n      0x8be0079c531659141344cd1fd0a4f28419497f9722a3daafe3b4186f6b6457e0\n      swap2\n        /* \"ValidatorView.sol\":5150:5166  address oldOwner */\n      swap1\n        /* \"ValidatorView.sol\":5217:5257  OwnershipTransferred(oldOwner, newOwner) */\n      log3\n        /* \"ValidatorView.sol\":5140:5264  {... */\n      pop\n        /* \"ValidatorView.sol\":5077:5264  function _transferOwnership(address newOwner) internal virtual {... */\n      pop\n      jump\t// out\n        /* \"ValidatorView.sol\":8757:9153  function _distributeRewards() internal {... */\n    tag_295:\n        /* \"ValidatorView.sol\":8847:8858  valContract */\n      sload(0x01)\n        /* \"ValidatorView.sol\":8847:8877  valContract.getTopValidators() */\n      0x40\n      dup1\n      mload\n      shl(0xe0, 0xafeea115)\n      dup2\n      mstore\n      swap1\n      mload\n        /* \"ValidatorView.sol\":8807:8844  address[] memory highestValidatorsSet */\n      0x00\n      swap3\n      sub(shl(0xa0, 0x01), 0x01)\n        /* \"ValidatorView.sol\":8847:8858  valContract */\n      and\n      swap2\n        /* \"ValidatorView.sol\":8847:8875  valContract.getTopValidators */\n      0xafeea115\n      swap2\n        /* \"ValidatorView.sol\":8847:8877  valContract.getTopValidators() */\n      0x04\n      dup1\n      dup4\n      add\n      swap3\n        /* \"ValidatorView.sol\":8807:8844  address[] memory highestValidatorsSet */\n      dup7\n      swap3\n        /* \"ValidatorView.sol\":8847:8877  valContract.getTopValidators() */\n      swap2\n      swap1\n      dup3\n      swap1\n      sub\n      add\n      dup2\n        /* \"ValidatorView.sol\":8847:8858  valContract */\n      dup7\n        /* \"ValidatorView.sol\":8847:8877  valContract.getTopValidators() */\n      gas\n      staticcall\n      iszero\n      dup1\n      iszero\n      tag_392\n      jumpi\n      returndatasize\n      0x00\n      dup1\n      returndatacopy\n      revert(0x00, returndatasize)\n    tag_392:\n      pop\n      pop\n      pop\n      pop\n      mload(0x40)\n      returndatasize\n      0x00\n      dup3\n      returndatacopy\n      0x1f\n      returndatasize\n      swap1\n      dup2\n      add\n      not(0x1f)\n      and\n      dup3\n      add\n      0x40\n      mstore\n      tag_393\n      swap2\n      swap1\n      dup2\n      add\n      swap1\n      tag_201\n      jump\t// in\n    tag_393:\n        /* \"ValidatorView.sol\":8913:8940  highestValidatorsSet.length */\n      dup1\n      mload\n        /* \"ValidatorView.sol\":8807:8877  address[] memory highestValidatorsSet = valContract.getTopValidators() */\n      swap1\n      swap2\n      pop\n        /* \"ValidatorView.sol\":8887:8910  uint256 totalValidators */\n      0x00\n        /* \"ValidatorView.sol\":8951:9104  for(uint8 i=0; i < totalValidators; i++){... */\n    tag_394:\n        /* \"ValidatorView.sol\":8970:8985  totalValidators */\n      dup2\n        /* \"ValidatorView.sol\":8966:8967  i */\n      dup2\n        /* \"ValidatorView.sol\":8966:8985  i < totalValidators */\n      0xff\n      and\n      lt\n        /* \"ValidatorView.sol\":8951:9104  for(uint8 i=0; i < totalValidators; i++){... */\n      iszero\n      tag_395\n      jumpi\n        /* \"ValidatorView.sol\":9047:9092  viewValidatorRewards(highestValidatorsSet[i]) */\n      tag_397\n        /* \"ValidatorView.sol\":9068:9088  highestValidatorsSet */\n      dup4\n        /* \"ValidatorView.sol\":9089:9090  i */\n      dup3\n        /* \"ValidatorView.sol\":9068:9091  highestValidatorsSet[i] */\n      0xff\n      and\n      dup2\n      mload\n      dup2\n      lt\n      tag_399\n      jumpi\n      tag_399\n      tag_235\n      jump\t// in\n    tag_399:\n      0x20\n      mul\n      0x20\n      add\n      add\n      mload\n        /* \"ValidatorView.sol\":9047:9067  viewValidatorRewards */\n      tag_58\n        /* \"ValidatorView.sol\":9047:9092  viewValidatorRewards(highestValidatorsSet[i]) */\n      jump\t// in\n    tag_397:\n        /* \"ValidatorView.sol\":9006:9019  rewardBalance */\n      0x06\n        /* \"ValidatorView.sol\":9006:9044  rewardBalance[highestValidatorsSet[i]] */\n      0x00\n        /* \"ValidatorView.sol\":9020:9040  highestValidatorsSet */\n      dup6\n        /* \"ValidatorView.sol\":9041:9042  i */\n      dup5\n        /* \"ValidatorView.sol\":9020:9043  highestValidatorsSet[i] */\n      0xff\n      and\n      dup2\n      mload\n      dup2\n      lt\n      tag_401\n      jumpi\n      tag_401\n      tag_235\n      jump\t// in\n    tag_401:\n      0x20\n      mul\n      0x20\n      add\n      add\n      mload\n      sub(shl(0xa0, 0x01), 0x01)\n        /* \"ValidatorView.sol\":9006:9044  rewardBalance[highestValidatorsSet[i]] */\n      and\n      sub(shl(0xa0, 0x01), 0x01)\n      and\n      dup2\n      mstore\n      0x20\n      add\n      swap1\n      dup2\n      mstore\n      0x20\n      add\n      0x00\n      keccak256\n        /* \"ValidatorView.sol\":9006:9092  rewardBalance[highestValidatorsSet[i]] = viewValidatorRewards(highestValidatorsSet[i]) */\n      dup2\n      swap1\n      sstore\n      pop\n        /* \"ValidatorView.sol\":8987:8990  i++ */\n      dup1\n      dup1\n      tag_402\n      swap1\n      tag_263\n      jump\t// in\n    tag_402:\n      swap2\n      pop\n      pop\n        /* \"ValidatorView.sol\":8951:9104  for(uint8 i=0; i < totalValidators; i++){... */\n      jump(tag_394)\n    tag_395:\n      pop\n      pop\n        /* \"ValidatorView.sol\":9133:9145  block.number */\n      number\n        /* \"ValidatorView.sol\":9113:9130  lastRewardedBlock */\n      0x03\n        /* \"ValidatorView.sol\":9113:9145  lastRewardedBlock = block.number */\n      sstore\n      pop\n        /* \"ValidatorView.sol\":8757:9153  function _distributeRewards() internal {... */\n      jump\t// out\n        /* \"#utility.yul\":14:141   */\n    tag_404:\n        /* \"#utility.yul\":75:85   */\n      0x4e487b71\n        /* \"#utility.yul\":70:73   */\n      0xe0\n        /* \"#utility.yul\":66:86   */\n      shl\n        /* \"#utility.yul\":63:64   */\n      0x00\n        /* \"#utility.yul\":56:87   */\n      mstore\n        /* \"#utility.yul\":106:110   */\n      0x11\n        /* \"#utility.yul\":103:104   */\n      0x04\n        /* \"#utility.yul\":96:111   */\n      mstore\n        /* \"#utility.yul\":130:134   */\n      0x24\n        /* \"#utility.yul\":127:128   */\n      0x00\n        /* \"#utility.yul\":120:135   */\n      revert\n        /* \"#utility.yul\":146:271   */\n    tag_37:\n        /* \"#utility.yul\":211:220   */\n      dup1\n      dup3\n      add\n        /* \"#utility.yul\":232:242   */\n      dup1\n      dup3\n      gt\n        /* \"#utility.yul\":229:265   */\n      iszero\n      tag_164\n      jumpi\n        /* \"#utility.yul\":245:263   */\n      tag_164\n      tag_404\n      jump\t// in\n        /* \"#utility.yul\":458:589   */\n    tag_405:\n      sub(shl(0xa0, 0x01), 0x01)\n        /* \"#utility.yul\":533:564   */\n      dup2\n      and\n        /* \"#utility.yul\":523:565   */\n      dup2\n      eq\n        /* \"#utility.yul\":513:583   */\n      tag_339\n      jumpi\n        /* \"#utility.yul\":579:580   */\n      0x00\n        /* \"#utility.yul\":576:577   */\n      dup1\n        /* \"#utility.yul\":569:581   */\n      revert\n        /* \"#utility.yul\":594:982   */\n    tag_46:\n        /* \"#utility.yul\":662:668   */\n      0x00\n        /* \"#utility.yul\":670:676   */\n      dup1\n        /* \"#utility.yul\":723:725   */\n      0x40\n        /* \"#utility.yul\":711:720   */\n      dup4\n        /* \"#utility.yul\":702:709   */\n      dup6\n        /* \"#utility.yul\":698:721   */\n      sub\n        /* \"#utility.yul\":694:726   */\n      slt\n        /* \"#utility.yul\":691:743   */\n      iszero\n      tag_427\n      jumpi\n        /* \"#utility.yul\":739:740   */\n      0x00\n        /* \"#utility.yul\":736:737   */\n      dup1\n        /* \"#utility.yul\":729:741   */\n      revert\n        /* \"#utility.yul\":691:743   */\n    tag_427:\n        /* \"#utility.yul\":778:787   */\n      dup3\n        /* \"#utility.yul\":765:788   */\n      calldataload\n        /* \"#utility.yul\":797:828   */\n      tag_428\n        /* \"#utility.yul\":822:827   */\n      dup2\n        /* \"#utility.yul\":797:828   */\n      tag_405\n      jump\t// in\n    tag_428:\n        /* \"#utility.yul\":847:852   */\n      swap2\n      pop\n        /* \"#utility.yul\":904:906   */\n      0x20\n        /* \"#utility.yul\":889:907   */\n      dup4\n      add\n        /* \"#utility.yul\":876:908   */\n      calldataload\n        /* \"#utility.yul\":917:950   */\n      tag_429\n        /* \"#utility.yul\":876:908   */\n      dup2\n        /* \"#utility.yul\":917:950   */\n      tag_405\n      jump\t// in\n    tag_429:\n        /* \"#utility.yul\":969:976   */\n      dup1\n        /* \"#utility.yul\":959:976   */\n      swap2\n      pop\n      pop\n        /* \"#utility.yul\":594:982   */\n      swap3\n      pop\n      swap3\n      swap1\n      pop\n      jump\t// out\n        /* \"#utility.yul\":987:1167   */\n    tag_52:\n        /* \"#utility.yul\":1046:1052   */\n      0x00\n        /* \"#utility.yul\":1099:1101   */\n      0x20\n        /* \"#utility.yul\":1087:1096   */\n      dup3\n        /* \"#utility.yul\":1078:1085   */\n      dup5\n        /* \"#utility.yul\":1074:1097   */\n      sub\n        /* \"#utility.yul\":1070:1102   */\n      slt\n        /* \"#utility.yul\":1067:1119   */\n      iszero\n      tag_431\n      jumpi\n        /* \"#utility.yul\":1115:1116   */\n      0x00\n        /* \"#utility.yul\":1112:1113   */\n      dup1\n        /* \"#utility.yul\":1105:1117   */\n      revert\n        /* \"#utility.yul\":1067:1119   */\n    tag_431:\n      pop\n        /* \"#utility.yul\":1138:1161   */\n      calldataload\n      swap2\n        /* \"#utility.yul\":987:1167   */\n      swap1\n      pop\n      jump\t// out\n        /* \"#utility.yul\":1172:1419   */\n    tag_57:\n        /* \"#utility.yul\":1231:1237   */\n      0x00\n        /* \"#utility.yul\":1284:1286   */\n      0x20\n        /* \"#utility.yul\":1272:1281   */\n      dup3\n        /* \"#utility.yul\":1263:1270   */\n      dup5\n        /* \"#utility.yul\":1259:1282   */\n      sub\n        /* \"#utility.yul\":1255:1287   */\n      slt\n        /* \"#utility.yul\":1252:1304   */\n      iszero\n      tag_433\n      jumpi\n        /* \"#utility.yul\":1300:1301   */\n      0x00\n        /* \"#utility.yul\":1297:1298   */\n      dup1\n        /* \"#utility.yul\":1290:1302   */\n      revert\n        /* \"#utility.yul\":1252:1304   */\n    tag_433:\n        /* \"#utility.yul\":1339:1348   */\n      dup2\n        /* \"#utility.yul\":1326:1349   */\n      calldataload\n        /* \"#utility.yul\":1358:1389   */\n      tag_210\n        /* \"#utility.yul\":1383:1388   */\n      dup2\n        /* \"#utility.yul\":1358:1389   */\n      tag_405\n      jump\t// in\n        /* \"#utility.yul\":1424:1551   */\n    tag_177:\n        /* \"#utility.yul\":1485:1495   */\n      0x4e487b71\n        /* \"#utility.yul\":1480:1483   */\n      0xe0\n        /* \"#utility.yul\":1476:1496   */\n      shl\n        /* \"#utility.yul\":1473:1474   */\n      0x00\n        /* \"#utility.yul\":1466:1497   */\n      mstore\n        /* \"#utility.yul\":1516:1520   */\n      0x21\n        /* \"#utility.yul\":1513:1514   */\n      0x04\n        /* \"#utility.yul\":1506:1521   */\n      mstore\n        /* \"#utility.yul\":1540:1544   */\n      0x24\n        /* \"#utility.yul\":1537:1538   */\n      0x00\n        /* \"#utility.yul\":1530:1545   */\n      revert\n        /* \"#utility.yul\":1556:1790   */\n    tag_406:\n        /* \"#utility.yul\":1634:1635   */\n      0x05\n        /* \"#utility.yul\":1627:1632   */\n      dup2\n        /* \"#utility.yul\":1624:1636   */\n      lt\n        /* \"#utility.yul\":1614:1757   */\n      tag_437\n      jumpi\n        /* \"#utility.yul\":1679:1689   */\n      0x4e487b71\n        /* \"#utility.yul\":1674:1677   */\n      0xe0\n        /* \"#utility.yul\":1670:1690   */\n      shl\n        /* \"#utility.yul\":1667:1668   */\n      0x00\n        /* \"#utility.yul\":1660:1691   */\n      mstore\n        /* \"#utility.yul\":1714:1718   */\n      0x21\n        /* \"#utility.yul\":1711:1712   */\n      0x04\n        /* \"#utility.yul\":1704:1719   */\n      mstore\n        /* \"#utility.yul\":1742:1746   */\n      0x24\n        /* \"#utility.yul\":1739:1740   */\n      0x00\n        /* \"#utility.yul\":1732:1747   */\n      revert\n        /* \"#utility.yul\":1614:1757   */\n    tag_437:\n        /* \"#utility.yul\":1766:1784   */\n      swap1\n      mstore\n        /* \"#utility.yul\":1556:1790   */\n      jump\t// out\n        /* \"#utility.yul\":1795:2250   */\n    tag_407:\n        /* \"#utility.yul\":1852:1855   */\n      0x00\n        /* \"#utility.yul\":1890:1895   */\n      dup2\n        /* \"#utility.yul\":1884:1896   */\n      mload\n        /* \"#utility.yul\":1917:1923   */\n      dup1\n        /* \"#utility.yul\":1912:1915   */\n      dup5\n        /* \"#utility.yul\":1905:1924   */\n      mstore\n        /* \"#utility.yul\":1943:1947   */\n      0x20\n        /* \"#utility.yul\":1972:1974   */\n      dup1\n        /* \"#utility.yul\":1967:1970   */\n      dup6\n        /* \"#utility.yul\":1963:1975   */\n      add\n        /* \"#utility.yul\":1956:1975   */\n      swap5\n      pop\n        /* \"#utility.yul\":2009:2011   */\n      dup1\n        /* \"#utility.yul\":2002:2007   */\n      dup5\n        /* \"#utility.yul\":1998:2012   */\n      add\n        /* \"#utility.yul\":2030:2031   */\n      0x00\n        /* \"#utility.yul\":2040:2225   */\n    tag_439:\n        /* \"#utility.yul\":2054:2060   */\n      dup4\n        /* \"#utility.yul\":2051:2052   */\n      dup2\n        /* \"#utility.yul\":2048:2061   */\n      lt\n        /* \"#utility.yul\":2040:2225   */\n      iszero\n      tag_441\n      jumpi\n        /* \"#utility.yul\":2103:2145   */\n      tag_442\n        /* \"#utility.yul\":2141:2144   */\n      dup8\n        /* \"#utility.yul\":2132:2138   */\n      dup4\n        /* \"#utility.yul\":2126:2139   */\n      mload\n        /* \"#utility.yul\":2103:2145   */\n      tag_406\n      jump\t// in\n    tag_442:\n        /* \"#utility.yul\":2165:2177   */\n      swap6\n      dup3\n      add\n      swap6\n        /* \"#utility.yul\":2200:2215   */\n      swap1\n      dup3\n      add\n      swap1\n        /* \"#utility.yul\":2076:2077   */\n      0x01\n        /* \"#utility.yul\":2069:2078   */\n      add\n        /* \"#utility.yul\":2040:2225   */\n      jump(tag_439)\n    tag_441:\n      pop\n        /* \"#utility.yul\":2241:2244   */\n      swap5\n      swap6\n        /* \"#utility.yul\":1795:2250   */\n      swap5\n      pop\n      pop\n      pop\n      pop\n      pop\n      jump\t// out\n        /* \"#utility.yul\":2255:2690   */\n    tag_408:\n        /* \"#utility.yul\":2308:2311   */\n      0x00\n        /* \"#utility.yul\":2346:2351   */\n      dup2\n        /* \"#utility.yul\":2340:2352   */\n      mload\n        /* \"#utility.yul\":2373:2379   */\n      dup1\n        /* \"#utility.yul\":2368:2371   */\n      dup5\n        /* \"#utility.yul\":2361:2380   */\n      mstore\n        /* \"#utility.yul\":2399:2403   */\n      0x20\n        /* \"#utility.yul\":2428:2430   */\n      dup1\n        /* \"#utility.yul\":2423:2426   */\n      dup6\n        /* \"#utility.yul\":2419:2431   */\n      add\n        /* \"#utility.yul\":2412:2431   */\n      swap5\n      pop\n        /* \"#utility.yul\":2465:2467   */\n      dup1\n        /* \"#utility.yul\":2458:2463   */\n      dup5\n        /* \"#utility.yul\":2454:2468   */\n      add\n        /* \"#utility.yul\":2486:2487   */\n      0x00\n        /* \"#utility.yul\":2496:2665   */\n    tag_444:\n        /* \"#utility.yul\":2510:2516   */\n      dup4\n        /* \"#utility.yul\":2507:2508   */\n      dup2\n        /* \"#utility.yul\":2504:2517   */\n      lt\n        /* \"#utility.yul\":2496:2665   */\n      iszero\n      tag_441\n      jumpi\n        /* \"#utility.yul\":2571:2584   */\n      dup2\n      mload\n        /* \"#utility.yul\":2559:2585   */\n      dup8\n      mstore\n        /* \"#utility.yul\":2605:2617   */\n      swap6\n      dup3\n      add\n      swap6\n        /* \"#utility.yul\":2640:2655   */\n      swap1\n      dup3\n      add\n      swap1\n        /* \"#utility.yul\":2532:2533   */\n      0x01\n        /* \"#utility.yul\":2525:2534   */\n      add\n        /* \"#utility.yul\":2496:2665   */\n      jump(tag_444)\n        /* \"#utility.yul\":2695:2945   */\n    tag_409:\n        /* \"#utility.yul\":2780:2781   */\n      0x00\n        /* \"#utility.yul\":2790:2903   */\n    tag_448:\n        /* \"#utility.yul\":2804:2810   */\n      dup4\n        /* \"#utility.yul\":2801:2802   */\n      dup2\n        /* \"#utility.yul\":2798:2811   */\n      lt\n        /* \"#utility.yul\":2790:2903   */\n      iszero\n      tag_450\n      jumpi\n        /* \"#utility.yul\":2880:2891   */\n      dup2\n      dup2\n      add\n        /* \"#utility.yul\":2874:2892   */\n      mload\n        /* \"#utility.yul\":2861:2872   */\n      dup4\n      dup3\n      add\n        /* \"#utility.yul\":2854:2893   */\n      mstore\n        /* \"#utility.yul\":2826:2828   */\n      0x20\n        /* \"#utility.yul\":2819:2829   */\n      add\n        /* \"#utility.yul\":2790:2903   */\n      jump(tag_448)\n    tag_450:\n      pop\n      pop\n        /* \"#utility.yul\":2937:2938   */\n      0x00\n        /* \"#utility.yul\":2919:2935   */\n      swap2\n      add\n        /* \"#utility.yul\":2912:2939   */\n      mstore\n        /* \"#utility.yul\":2695:2945   */\n      jump\t// out\n        /* \"#utility.yul\":2950:3221   */\n    tag_410:\n        /* \"#utility.yul\":2992:2995   */\n      0x00\n        /* \"#utility.yul\":3030:3035   */\n      dup2\n        /* \"#utility.yul\":3024:3036   */\n      mload\n        /* \"#utility.yul\":3057:3063   */\n      dup1\n        /* \"#utility.yul\":3052:3055   */\n      dup5\n        /* \"#utility.yul\":3045:3064   */\n      mstore\n        /* \"#utility.yul\":3073:3149   */\n      tag_452\n        /* \"#utility.yul\":3142:3148   */\n      dup2\n        /* \"#utility.yul\":3135:3139   */\n      0x20\n        /* \"#utility.yul\":3130:3133   */\n      dup7\n        /* \"#utility.yul\":3126:3140   */\n      add\n        /* \"#utility.yul\":3119:3123   */\n      0x20\n        /* \"#utility.yul\":3112:3117   */\n      dup7\n        /* \"#utility.yul\":3108:3124   */\n      add\n        /* \"#utility.yul\":3073:3149   */\n      tag_409\n      jump\t// in\n    tag_452:\n        /* \"#utility.yul\":3203:3205   */\n      0x1f\n        /* \"#utility.yul\":3182:3197   */\n      add\n      not(0x1f)\n        /* \"#utility.yul\":3178:3207   */\n      and\n        /* \"#utility.yul\":3169:3208   */\n      swap3\n      swap1\n      swap3\n      add\n        /* \"#utility.yul\":3210:3214   */\n      0x20\n        /* \"#utility.yul\":3165:3215   */\n      add\n      swap3\n        /* \"#utility.yul\":2950:3221   */\n      swap2\n      pop\n      pop\n      jump\t// out\n        /* \"#utility.yul\":3226:3842   */\n    tag_411:\n        /* \"#utility.yul\":3278:3281   */\n      0x00\n        /* \"#utility.yul\":3316:3321   */\n      dup2\n        /* \"#utility.yul\":3310:3322   */\n      mload\n        /* \"#utility.yul\":3343:3349   */\n      dup1\n        /* \"#utility.yul\":3338:3341   */\n      dup5\n        /* \"#utility.yul\":3331:3350   */\n      mstore\n        /* \"#utility.yul\":3369:3373   */\n      0x20\n        /* \"#utility.yul\":3410:3412   */\n      dup1\n        /* \"#utility.yul\":3405:3408   */\n      dup6\n        /* \"#utility.yul\":3401:3413   */\n      add\n        /* \"#utility.yul\":3435:3446   */\n      dup1\n        /* \"#utility.yul\":3462:3473   */\n      dup2\n        /* \"#utility.yul\":3455:3473   */\n      swap7\n      pop\n        /* \"#utility.yul\":3512:3518   */\n      dup4\n        /* \"#utility.yul\":3509:3510   */\n      0x05\n        /* \"#utility.yul\":3505:3519   */\n      shl\n        /* \"#utility.yul\":3498:3503   */\n      dup2\n        /* \"#utility.yul\":3494:3520   */\n      add\n        /* \"#utility.yul\":3482:3520   */\n      swap2\n      pop\n        /* \"#utility.yul\":3554:3556   */\n      dup3\n        /* \"#utility.yul\":3547:3552   */\n      dup7\n        /* \"#utility.yul\":3543:3557   */\n      add\n        /* \"#utility.yul\":3575:3576   */\n      0x00\n        /* \"#utility.yul\":3585:3816   */\n    tag_454:\n        /* \"#utility.yul\":3599:3605   */\n      dup6\n        /* \"#utility.yul\":3596:3597   */\n      dup2\n        /* \"#utility.yul\":3593:3606   */\n      lt\n        /* \"#utility.yul\":3585:3816   */\n      iszero\n      tag_456\n      jumpi\n        /* \"#utility.yul\":3670:3675   */\n      dup3\n        /* \"#utility.yul\":3664:3668   */\n      dup5\n        /* \"#utility.yul\":3660:3676   */\n      sub\n        /* \"#utility.yul\":3655:3658   */\n      dup10\n        /* \"#utility.yul\":3648:3677   */\n      mstore\n        /* \"#utility.yul\":3698:3736   */\n      tag_457\n        /* \"#utility.yul\":3731:3735   */\n      dup5\n        /* \"#utility.yul\":3722:3728   */\n      dup4\n        /* \"#utility.yul\":3716:3729   */\n      mload\n        /* \"#utility.yul\":3698:3736   */\n      tag_410\n      jump\t// in\n    tag_457:\n        /* \"#utility.yul\":3794:3806   */\n      swap9\n      dup6\n      add\n      swap9\n        /* \"#utility.yul\":3690:3736   */\n      swap4\n      pop\n        /* \"#utility.yul\":3759:3774   */\n      swap1\n      dup5\n      add\n      swap1\n        /* \"#utility.yul\":3621:3622   */\n      0x01\n        /* \"#utility.yul\":3614:3623   */\n      add\n        /* \"#utility.yul\":3585:3816   */\n      jump(tag_454)\n    tag_456:\n      pop\n        /* \"#utility.yul\":3832:3836   */\n      swap2\n      swap8\n        /* \"#utility.yul\":3226:3842   */\n      swap7\n      pop\n      pop\n      pop\n      pop\n      pop\n      pop\n      pop\n      jump\t// out\n        /* \"#utility.yul\":3847:5485   */\n    tag_64:\n        /* \"#utility.yul\":4403:4407   */\n      0x00\n        /* \"#utility.yul\":4451:4454   */\n      0xe0\n        /* \"#utility.yul\":4440:4449   */\n      dup3\n        /* \"#utility.yul\":4436:4455   */\n      add\n        /* \"#utility.yul\":4482:4488   */\n      dup10\n        /* \"#utility.yul\":4471:4480   */\n      dup4\n        /* \"#utility.yul\":4464:4489   */\n      mstore\n        /* \"#utility.yul\":4508:4510   */\n      0x20\n        /* \"#utility.yul\":4546:4552   */\n      dup10\n        /* \"#utility.yul\":4541:4543   */\n      dup2\n        /* \"#utility.yul\":4530:4539   */\n      dup6\n        /* \"#utility.yul\":4526:4544   */\n      add\n        /* \"#utility.yul\":4519:4553   */\n      mstore\n        /* \"#utility.yul\":4589:4592   */\n      0xe0\n        /* \"#utility.yul\":4584:4586   */\n      0x40\n        /* \"#utility.yul\":4573:4582   */\n      dup6\n        /* \"#utility.yul\":4569:4587   */\n      add\n        /* \"#utility.yul\":4562:4593   */\n      mstore\n        /* \"#utility.yul\":4613:4619   */\n      dup2\n        /* \"#utility.yul\":4648:4654   */\n      dup10\n        /* \"#utility.yul\":4642:4655   */\n      mload\n        /* \"#utility.yul\":4679:4685   */\n      dup1\n        /* \"#utility.yul\":4671:4677   */\n      dup5\n        /* \"#utility.yul\":4664:4686   */\n      mstore\n        /* \"#utility.yul\":4717:4720   */\n      0x0100\n        /* \"#utility.yul\":4706:4715   */\n      dup7\n        /* \"#utility.yul\":4702:4721   */\n      add\n        /* \"#utility.yul\":4695:4721   */\n      swap2\n      pop\n        /* \"#utility.yul\":4756:4758   */\n      dup3\n        /* \"#utility.yul\":4748:4754   */\n      dup12\n        /* \"#utility.yul\":4744:4759   */\n      add\n        /* \"#utility.yul\":4730:4759   */\n      swap4\n      pop\n        /* \"#utility.yul\":4777:4778   */\n      0x00\n        /* \"#utility.yul\":4787:4982   */\n    tag_459:\n        /* \"#utility.yul\":4801:4807   */\n      dup2\n        /* \"#utility.yul\":4798:4799   */\n      dup2\n        /* \"#utility.yul\":4795:4808   */\n      lt\n        /* \"#utility.yul\":4787:4982   */\n      iszero\n      tag_461\n      jumpi\n        /* \"#utility.yul\":4866:4879   */\n      dup5\n      mload\n      sub(shl(0xa0, 0x01), 0x01)\n        /* \"#utility.yul\":4862:4901   */\n      and\n        /* \"#utility.yul\":4850:4902   */\n      dup4\n      mstore\n        /* \"#utility.yul\":4957:4972   */\n      swap4\n      dup4\n      add\n      swap4\n        /* \"#utility.yul\":4922:4934   */\n      swap2\n      dup4\n      add\n      swap2\n        /* \"#utility.yul\":4898:4899   */\n      0x01\n        /* \"#utility.yul\":4816:4825   */\n      add\n        /* \"#utility.yul\":4787:4982   */\n      jump(tag_459)\n    tag_461:\n        /* \"#utility.yul\":4791:4794   */\n      pop\n      pop\n        /* \"#utility.yul\":5027:5036   */\n      dup5\n        /* \"#utility.yul\":5022:5025   */\n      dup2\n        /* \"#utility.yul\":5018:5037   */\n      sub\n        /* \"#utility.yul\":5013:5015   */\n      0x60\n        /* \"#utility.yul\":5002:5011   */\n      dup7\n        /* \"#utility.yul\":4998:5016   */\n      add\n        /* \"#utility.yul\":4991:5038   */\n      mstore\n        /* \"#utility.yul\":5061:5106   */\n      tag_462\n        /* \"#utility.yul\":5102:5105   */\n      dup2\n        /* \"#utility.yul\":5094:5100   */\n      dup11\n        /* \"#utility.yul\":5061:5106   */\n      tag_407\n      jump\t// in\n    tag_462:\n        /* \"#utility.yul\":5047:5106   */\n      swap3\n      pop\n      pop\n      pop\n        /* \"#utility.yul\":5155:5164   */\n      dup3\n        /* \"#utility.yul\":5147:5153   */\n      dup2\n        /* \"#utility.yul\":5143:5165   */\n      sub\n        /* \"#utility.yul\":5137:5140   */\n      0x80\n        /* \"#utility.yul\":5126:5135   */\n      dup5\n        /* \"#utility.yul\":5122:5141   */\n      add\n        /* \"#utility.yul\":5115:5166   */\n      mstore\n        /* \"#utility.yul\":5189:5233   */\n      tag_463\n        /* \"#utility.yul\":5226:5232   */\n      dup2\n        /* \"#utility.yul\":5218:5224   */\n      dup8\n        /* \"#utility.yul\":5189:5233   */\n      tag_408\n      jump\t// in\n    tag_463:\n        /* \"#utility.yul\":5175:5233   */\n      swap1\n      pop\n        /* \"#utility.yul\":5282:5291   */\n      dup3\n        /* \"#utility.yul\":5274:5280   */\n      dup2\n        /* \"#utility.yul\":5270:5292   */\n      sub\n        /* \"#utility.yul\":5264:5267   */\n      0xa0\n        /* \"#utility.yul\":5253:5262   */\n      dup5\n        /* \"#utility.yul\":5249:5268   */\n      add\n        /* \"#utility.yul\":5242:5293   */\n      mstore\n        /* \"#utility.yul\":5316:5359   */\n      tag_464\n        /* \"#utility.yul\":5352:5358   */\n      dup2\n        /* \"#utility.yul\":5344:5350   */\n      dup7\n        /* \"#utility.yul\":5316:5359   */\n      tag_411\n      jump\t// in\n    tag_464:\n        /* \"#utility.yul\":5302:5359   */\n      swap1\n      pop\n        /* \"#utility.yul\":5408:5417   */\n      dup3\n        /* \"#utility.yul\":5400:5406   */\n      dup2\n        /* \"#utility.yul\":5396:5418   */\n      sub\n        /* \"#utility.yul\":5390:5393   */\n      0xc0\n        /* \"#utility.yul\":5379:5388   */\n      dup5\n        /* \"#utility.yul\":5375:5394   */\n      add\n        /* \"#utility.yul\":5368:5419   */\n      mstore\n        /* \"#utility.yul\":5436:5479   */\n      tag_465\n        /* \"#utility.yul\":5472:5478   */\n      dup2\n        /* \"#utility.yul\":5464:5470   */\n      dup6\n        /* \"#utility.yul\":5436:5479   */\n      tag_411\n      jump\t// in\n    tag_465:\n        /* \"#utility.yul\":5428:5479   */\n      swap11\n        /* \"#utility.yul\":3847:5485   */\n      swap10\n      pop\n      pop\n      pop\n      pop\n      pop\n      pop\n      pop\n      pop\n      pop\n      pop\n      jump\t// out\n        /* \"#utility.yul\":5490:6073   */\n    tag_79:\n        /* \"#utility.yul\":5783:5808   */\n      dup7\n      dup2\n      mstore\n        /* \"#utility.yul\":5770:5773   */\n      0xc0\n        /* \"#utility.yul\":5755:5774   */\n      dup2\n      add\n        /* \"#utility.yul\":5817:5867   */\n      tag_467\n        /* \"#utility.yul\":5863:5865   */\n      0x20\n        /* \"#utility.yul\":5848:5866   */\n      dup4\n      add\n        /* \"#utility.yul\":5840:5846   */\n      dup9\n        /* \"#utility.yul\":5817:5867   */\n      tag_406\n      jump\t// in\n    tag_467:\n        /* \"#utility.yul\":5898:5900   */\n      0x40\n        /* \"#utility.yul\":5883:5901   */\n      dup3\n      add\n        /* \"#utility.yul\":5876:5910   */\n      swap6\n      swap1\n      swap6\n      mstore\n        /* \"#utility.yul\":5941:5943   */\n      0x60\n        /* \"#utility.yul\":5926:5944   */\n      dup2\n      add\n        /* \"#utility.yul\":5919:5953   */\n      swap4\n      swap1\n      swap4\n      mstore\n        /* \"#utility.yul\":5984:5987   */\n      0x80\n        /* \"#utility.yul\":5969:5988   */\n      dup4\n      add\n        /* \"#utility.yul\":5962:5997   */\n      swap2\n      swap1\n      swap2\n      mstore\n      sub(shl(0xa0, 0x01), 0x01)\n        /* \"#utility.yul\":6034:6066   */\n      and\n        /* \"#utility.yul\":6054:6057   */\n      0xa0\n        /* \"#utility.yul\":6013:6032   */\n      swap1\n      swap2\n      add\n        /* \"#utility.yul\":6006:6067   */\n      mstore\n        /* \"#utility.yul\":5490:6073   */\n      swap3\n      swap2\n      pop\n      pop\n      jump\t// out\n        /* \"#utility.yul\":6478:7241   */\n    tag_117:\n        /* \"#utility.yul\":6807:6810   */\n      0xc0\n        /* \"#utility.yul\":6796:6805   */\n      dup2\n        /* \"#utility.yul\":6789:6811   */\n      mstore\n        /* \"#utility.yul\":6770:6774   */\n      0x00\n        /* \"#utility.yul\":6834:6880   */\n      tag_471\n        /* \"#utility.yul\":6875:6878   */\n      0xc0\n        /* \"#utility.yul\":6864:6873   */\n      dup4\n        /* \"#utility.yul\":6860:6879   */\n      add\n        /* \"#utility.yul\":6852:6858   */\n      dup10\n        /* \"#utility.yul\":6834:6880   */\n      tag_410\n      jump\t// in\n    tag_471:\n        /* \"#utility.yul\":6928:6937   */\n      dup3\n        /* \"#utility.yul\":6920:6926   */\n      dup2\n        /* \"#utility.yul\":6916:6938   */\n      sub\n        /* \"#utility.yul\":6911:6913   */\n      0x20\n        /* \"#utility.yul\":6900:6909   */\n      dup5\n        /* \"#utility.yul\":6896:6914   */\n      add\n        /* \"#utility.yul\":6889:6939   */\n      mstore\n        /* \"#utility.yul\":6962:6995   */\n      tag_472\n        /* \"#utility.yul\":6988:6994   */\n      dup2\n        /* \"#utility.yul\":6980:6986   */\n      dup10\n        /* \"#utility.yul\":6962:6995   */\n      tag_410\n      jump\t// in\n    tag_472:\n        /* \"#utility.yul\":6948:6995   */\n      swap1\n      pop\n        /* \"#utility.yul\":7043:7052   */\n      dup3\n        /* \"#utility.yul\":7035:7041   */\n      dup2\n        /* \"#utility.yul\":7031:7053   */\n      sub\n        /* \"#utility.yul\":7026:7028   */\n      0x40\n        /* \"#utility.yul\":7015:7024   */\n      dup5\n        /* \"#utility.yul\":7011:7029   */\n      add\n        /* \"#utility.yul\":7004:7054   */\n      mstore\n        /* \"#utility.yul\":7071:7104   */\n      tag_473\n        /* \"#utility.yul\":7097:7103   */\n      dup2\n        /* \"#utility.yul\":7089:7095   */\n      dup9\n        /* \"#utility.yul\":7071:7104   */\n      tag_410\n      jump\t// in\n    tag_473:\n        /* \"#utility.yul\":7135:7137   */\n      0x60\n        /* \"#utility.yul\":7120:7138   */\n      dup5\n      add\n        /* \"#utility.yul\":7113:7147   */\n      swap7\n      swap1\n      swap7\n      mstore\n      pop\n      pop\n        /* \"#utility.yul\":7178:7181   */\n      0x80\n        /* \"#utility.yul\":7163:7182   */\n      dup2\n      add\n        /* \"#utility.yul\":7156:7191   */\n      swap3\n      swap1\n      swap3\n      mstore\n        /* \"#utility.yul\":7222:7225   */\n      0xa0\n        /* \"#utility.yul\":7207:7226   */\n      swap1\n      swap2\n      add\n        /* \"#utility.yul\":7200:7235   */\n      mstore\n        /* \"#utility.yul\":7063:7104   */\n      swap4\n        /* \"#utility.yul\":6478:7241   */\n      swap3\n      pop\n      pop\n      pop\n      jump\t// out\n        /* \"#utility.yul\":7246:7388   */\n    tag_412:\n        /* \"#utility.yul\":7322:7342   */\n      dup1\n      calldataload\n        /* \"#utility.yul\":7351:7382   */\n      tag_475\n        /* \"#utility.yul\":7322:7342   */\n      dup2\n        /* \"#utility.yul\":7351:7382   */\n      tag_405\n      jump\t// in\n    tag_475:\n        /* \"#utility.yul\":7246:7388   */\n      swap2\n      swap1\n      pop\n      jump\t// out\n        /* \"#utility.yul\":7393:7741   */\n    tag_413:\n        /* \"#utility.yul\":7445:7453   */\n      0x00\n        /* \"#utility.yul\":7455:7461   */\n      dup1\n        /* \"#utility.yul\":7509:7512   */\n      dup4\n        /* \"#utility.yul\":7502:7506   */\n      0x1f\n        /* \"#utility.yul\":7494:7500   */\n      dup5\n        /* \"#utility.yul\":7490:7507   */\n      add\n        /* \"#utility.yul\":7486:7513   */\n      slt\n        /* \"#utility.yul\":7476:7531   */\n      tag_477\n      jumpi\n        /* \"#utility.yul\":7527:7528   */\n      0x00\n        /* \"#utility.yul\":7524:7525   */\n      dup1\n        /* \"#utility.yul\":7517:7529   */\n      revert\n        /* \"#utility.yul\":7476:7531   */\n    tag_477:\n      pop\n        /* \"#utility.yul\":7550:7570   */\n      dup2\n      calldataload\n      sub(shl(0x40, 0x01), 0x01)\n        /* \"#utility.yul\":7582:7612   */\n      dup2\n      gt\n        /* \"#utility.yul\":7579:7629   */\n      iszero\n      tag_478\n      jumpi\n        /* \"#utility.yul\":7625:7626   */\n      0x00\n        /* \"#utility.yul\":7622:7623   */\n      dup1\n        /* \"#utility.yul\":7615:7627   */\n      revert\n        /* \"#utility.yul\":7579:7629   */\n    tag_478:\n        /* \"#utility.yul\":7662:7666   */\n      0x20\n        /* \"#utility.yul\":7654:7660   */\n      dup4\n        /* \"#utility.yul\":7650:7667   */\n      add\n        /* \"#utility.yul\":7638:7667   */\n      swap2\n      pop\n        /* \"#utility.yul\":7714:7717   */\n      dup4\n        /* \"#utility.yul\":7707:7711   */\n      0x20\n        /* \"#utility.yul\":7698:7704   */\n      dup3\n        /* \"#utility.yul\":7690:7696   */\n      dup6\n        /* \"#utility.yul\":7686:7705   */\n      add\n        /* \"#utility.yul\":7682:7712   */\n      add\n        /* \"#utility.yul\":7679:7718   */\n      gt\n        /* \"#utility.yul\":7676:7735   */\n      iszero\n      tag_362\n      jumpi\n        /* \"#utility.yul\":7731:7732   */\n      0x00\n        /* \"#utility.yul\":7728:7729   */\n      dup1\n        /* \"#utility.yul\":7721:7733   */\n      revert\n        /* \"#utility.yul\":7746:9394   */\n    tag_120:\n        /* \"#utility.yul\":7918:7924   */\n      0x00\n        /* \"#utility.yul\":7926:7932   */\n      dup1\n        /* \"#utility.yul\":7934:7940   */\n      0x00\n        /* \"#utility.yul\":7942:7948   */\n      dup1\n        /* \"#utility.yul\":7950:7956   */\n      0x00\n        /* \"#utility.yul\":7958:7964   */\n      dup1\n        /* \"#utility.yul\":7966:7972   */\n      0x00\n        /* \"#utility.yul\":7974:7980   */\n      dup1\n        /* \"#utility.yul\":7982:7988   */\n      0x00\n        /* \"#utility.yul\":7990:7996   */\n      dup1\n        /* \"#utility.yul\":7998:8005   */\n      0x00\n        /* \"#utility.yul\":8052:8055   */\n      0xc0\n        /* \"#utility.yul\":8040:8049   */\n      dup13\n        /* \"#utility.yul\":8031:8038   */\n      dup15\n        /* \"#utility.yul\":8027:8050   */\n      sub\n        /* \"#utility.yul\":8023:8056   */\n      slt\n        /* \"#utility.yul\":8020:8073   */\n      iszero\n      tag_481\n      jumpi\n        /* \"#utility.yul\":8069:8070   */\n      0x00\n        /* \"#utility.yul\":8066:8067   */\n      dup1\n        /* \"#utility.yul\":8059:8071   */\n      revert\n        /* \"#utility.yul\":8020:8073   */\n    tag_481:\n        /* \"#utility.yul\":8092:8129   */\n      tag_482\n        /* \"#utility.yul\":8119:8128   */\n      dup13\n        /* \"#utility.yul\":8092:8129   */\n      tag_412\n      jump\t// in\n    tag_482:\n        /* \"#utility.yul\":8082:8129   */\n      swap11\n      pop\n      sub(shl(0x40, 0x01), 0x01)\n        /* \"#utility.yul\":8215:8217   */\n      dup1\n        /* \"#utility.yul\":8209:8211   */\n      0x20\n        /* \"#utility.yul\":8198:8207   */\n      dup15\n        /* \"#utility.yul\":8194:8212   */\n      add\n        /* \"#utility.yul\":8181:8213   */\n      calldataload\n        /* \"#utility.yul\":8178:8218   */\n      gt\n        /* \"#utility.yul\":8175:8235   */\n      iszero\n      tag_483\n      jumpi\n        /* \"#utility.yul\":8231:8232   */\n      0x00\n        /* \"#utility.yul\":8228:8229   */\n      dup1\n        /* \"#utility.yul\":8221:8233   */\n      revert\n        /* \"#utility.yul\":8175:8235   */\n    tag_483:\n        /* \"#utility.yul\":8270:8355   */\n      tag_484\n        /* \"#utility.yul\":8347:8354   */\n      dup15\n        /* \"#utility.yul\":8340:8342   */\n      0x20\n        /* \"#utility.yul\":8329:8338   */\n      dup16\n        /* \"#utility.yul\":8325:8343   */\n      add\n        /* \"#utility.yul\":8312:8344   */\n      calldataload\n        /* \"#utility.yul\":8301:8310   */\n      dup16\n        /* \"#utility.yul\":8297:8345   */\n      add\n        /* \"#utility.yul\":8270:8355   */\n      tag_413\n      jump\t// in\n    tag_484:\n        /* \"#utility.yul\":8374:8382   */\n      swap1\n      swap12\n      pop\n        /* \"#utility.yul\":8401:8409   */\n      swap10\n      pop\n        /* \"#utility.yul\":8452:8454   */\n      0x40\n        /* \"#utility.yul\":8437:8455   */\n      dup14\n      add\n        /* \"#utility.yul\":8424:8456   */\n      calldataload\n        /* \"#utility.yul\":8421:8461   */\n      dup2\n      lt\n        /* \"#utility.yul\":8418:8478   */\n      iszero\n      tag_485\n      jumpi\n        /* \"#utility.yul\":8474:8475   */\n      0x00\n        /* \"#utility.yul\":8471:8472   */\n      dup1\n        /* \"#utility.yul\":8464:8476   */\n      revert\n        /* \"#utility.yul\":8418:8478   */\n    tag_485:\n        /* \"#utility.yul\":8513:8598   */\n      tag_486\n        /* \"#utility.yul\":8590:8597   */\n      dup15\n        /* \"#utility.yul\":8583:8585   */\n      0x40\n        /* \"#utility.yul\":8572:8581   */\n      dup16\n        /* \"#utility.yul\":8568:8586   */\n      add\n        /* \"#utility.yul\":8555:8587   */\n      calldataload\n        /* \"#utility.yul\":8544:8553   */\n      dup16\n        /* \"#utility.yul\":8540:8588   */\n      add\n        /* \"#utility.yul\":8513:8598   */\n      tag_413\n      jump\t// in\n    tag_486:\n        /* \"#utility.yul\":8617:8625   */\n      swap1\n      swap10\n      pop\n        /* \"#utility.yul\":8644:8652   */\n      swap8\n      pop\n        /* \"#utility.yul\":8695:8697   */\n      0x60\n        /* \"#utility.yul\":8680:8698   */\n      dup14\n      add\n        /* \"#utility.yul\":8667:8699   */\n      calldataload\n        /* \"#utility.yul\":8664:8704   */\n      dup2\n      lt\n        /* \"#utility.yul\":8661:8721   */\n      iszero\n      tag_487\n      jumpi\n        /* \"#utility.yul\":8717:8718   */\n      0x00\n        /* \"#utility.yul\":8714:8715   */\n      dup1\n        /* \"#utility.yul\":8707:8719   */\n      revert\n        /* \"#utility.yul\":8661:8721   */\n    tag_487:\n        /* \"#utility.yul\":8756:8841   */\n      tag_488\n        /* \"#utility.yul\":8833:8840   */\n      dup15\n        /* \"#utility.yul\":8826:8828   */\n      0x60\n        /* \"#utility.yul\":8815:8824   */\n      dup16\n        /* \"#utility.yul\":8811:8829   */\n      add\n        /* \"#utility.yul\":8798:8830   */\n      calldataload\n        /* \"#utility.yul\":8787:8796   */\n      dup16\n        /* \"#utility.yul\":8783:8831   */\n      add\n        /* \"#utility.yul\":8756:8841   */\n      tag_413\n      jump\t// in\n    tag_488:\n        /* \"#utility.yul\":8860:8868   */\n      swap1\n      swap8\n      pop\n        /* \"#utility.yul\":8887:8895   */\n      swap6\n      pop\n        /* \"#utility.yul\":8938:8941   */\n      0x80\n        /* \"#utility.yul\":8923:8942   */\n      dup14\n      add\n        /* \"#utility.yul\":8910:8943   */\n      calldataload\n        /* \"#utility.yul\":8907:8948   */\n      dup2\n      lt\n        /* \"#utility.yul\":8904:8965   */\n      iszero\n      tag_489\n      jumpi\n        /* \"#utility.yul\":8961:8962   */\n      0x00\n        /* \"#utility.yul\":8958:8959   */\n      dup1\n        /* \"#utility.yul\":8951:8963   */\n      revert\n        /* \"#utility.yul\":8904:8965   */\n    tag_489:\n        /* \"#utility.yul\":9000:9086   */\n      tag_490\n        /* \"#utility.yul\":9078:9085   */\n      dup15\n        /* \"#utility.yul\":9070:9073   */\n      0x80\n        /* \"#utility.yul\":9059:9068   */\n      dup16\n        /* \"#utility.yul\":9055:9074   */\n      add\n        /* \"#utility.yul\":9042:9075   */\n      calldataload\n        /* \"#utility.yul\":9031:9040   */\n      dup16\n        /* \"#utility.yul\":9027:9076   */\n      add\n        /* \"#utility.yul\":9000:9086   */\n      tag_413\n      jump\t// in\n    tag_490:\n        /* \"#utility.yul\":9105:9113   */\n      swap1\n      swap6\n      pop\n        /* \"#utility.yul\":9132:9140   */\n      swap4\n      pop\n        /* \"#utility.yul\":9183:9186   */\n      0xa0\n        /* \"#utility.yul\":9168:9187   */\n      dup14\n      add\n        /* \"#utility.yul\":9155:9188   */\n      calldataload\n        /* \"#utility.yul\":9152:9193   */\n      dup2\n      lt\n        /* \"#utility.yul\":9149:9210   */\n      iszero\n      tag_491\n      jumpi\n        /* \"#utility.yul\":9206:9207   */\n      0x00\n        /* \"#utility.yul\":9203:9204   */\n      dup1\n        /* \"#utility.yul\":9196:9208   */\n      revert\n        /* \"#utility.yul\":9149:9210   */\n    tag_491:\n      pop\n        /* \"#utility.yul\":9246:9332   */\n      tag_492\n        /* \"#utility.yul\":9324:9331   */\n      dup14\n        /* \"#utility.yul\":9316:9319   */\n      0xa0\n        /* \"#utility.yul\":9305:9314   */\n      dup15\n        /* \"#utility.yul\":9301:9320   */\n      add\n        /* \"#utility.yul\":9288:9321   */\n      calldataload\n        /* \"#utility.yul\":9277:9286   */\n      dup15\n        /* \"#utility.yul\":9273:9322   */\n      add\n        /* \"#utility.yul\":9246:9332   */\n      tag_413\n      jump\t// in\n    tag_492:\n        /* \"#utility.yul\":9351:9359   */\n      dup2\n        /* \"#utility.yul\":9341:9359   */\n      swap4\n      pop\n        /* \"#utility.yul\":9379:9388   */\n      dup1\n        /* \"#utility.yul\":9368:9388   */\n      swap3\n      pop\n      pop\n      pop\n        /* \"#utility.yul\":7746:9394   */\n      swap3\n      swap6\n      swap9\n      swap12\n      pop\n      swap3\n      swap6\n      swap9\n      swap12\n      swap1\n      swap4\n      swap7\n      swap10\n      pop\n      jump\t// out\n        /* \"#utility.yul\":9886:10013   */\n    tag_217:\n        /* \"#utility.yul\":9947:9957   */\n      0x4e487b71\n        /* \"#utility.yul\":9942:9945   */\n      0xe0\n        /* \"#utility.yul\":9938:9958   */\n      shl\n        /* \"#utility.yul\":9935:9936   */\n      0x00\n        /* \"#utility.yul\":9928:9959   */\n      mstore\n        /* \"#utility.yul\":9978:9982   */\n      0x41\n        /* \"#utility.yul\":9975:9976   */\n      0x04\n        /* \"#utility.yul\":9968:9983   */\n      mstore\n        /* \"#utility.yul\":10002:10006   */\n      0x24\n        /* \"#utility.yul\":9999:10000   */\n      0x00\n        /* \"#utility.yul\":9992:10007   */\n      revert\n        /* \"#utility.yul\":10018:10293   */\n    tag_414:\n        /* \"#utility.yul\":10089:10091   */\n      0x40\n        /* \"#utility.yul\":10083:10092   */\n      mload\n        /* \"#utility.yul\":10154:10156   */\n      0x1f\n        /* \"#utility.yul\":10135:10148   */\n      dup3\n      add\n      not(0x1f)\n        /* \"#utility.yul\":10131:10158   */\n      and\n        /* \"#utility.yul\":10119:10159   */\n      dup2\n      add\n      sub(shl(0x40, 0x01), 0x01)\n        /* \"#utility.yul\":10174:10208   */\n      dup2\n      gt\n        /* \"#utility.yul\":10210:10232   */\n      dup3\n      dup3\n      lt\n        /* \"#utility.yul\":10171:10233   */\n      or\n        /* \"#utility.yul\":10168:10256   */\n      iszero\n      tag_498\n      jumpi\n        /* \"#utility.yul\":10236:10254   */\n      tag_498\n      tag_217\n      jump\t// in\n    tag_498:\n        /* \"#utility.yul\":10272:10274   */\n      0x40\n        /* \"#utility.yul\":10265:10287   */\n      mstore\n        /* \"#utility.yul\":10018:10293   */\n      swap2\n      swap1\n      pop\n      jump\t// out\n        /* \"#utility.yul\":10298:11082   */\n    tag_415:\n        /* \"#utility.yul\":10363:10368   */\n      0x00\n        /* \"#utility.yul\":10416:10419   */\n      dup3\n        /* \"#utility.yul\":10409:10413   */\n      0x1f\n        /* \"#utility.yul\":10401:10407   */\n      dup4\n        /* \"#utility.yul\":10397:10414   */\n      add\n        /* \"#utility.yul\":10393:10420   */\n      slt\n        /* \"#utility.yul\":10383:10438   */\n      tag_500\n      jumpi\n        /* \"#utility.yul\":10434:10435   */\n      0x00\n        /* \"#utility.yul\":10431:10432   */\n      dup1\n        /* \"#utility.yul\":10424:10436   */\n      revert\n        /* \"#utility.yul\":10383:10438   */\n    tag_500:\n        /* \"#utility.yul\":10463:10469   */\n      dup2\n        /* \"#utility.yul\":10457:10470   */\n      mload\n        /* \"#utility.yul\":10489:10493   */\n      0x20\n      sub(shl(0x40, 0x01), 0x01)\n        /* \"#utility.yul\":10508:10510   */\n      dup3\n        /* \"#utility.yul\":10505:10531   */\n      gt\n        /* \"#utility.yul\":10502:10554   */\n      iszero\n      tag_502\n      jumpi\n        /* \"#utility.yul\":10534:10552   */\n      tag_502\n      tag_217\n      jump\t// in\n    tag_502:\n        /* \"#utility.yul\":10580:10582   */\n      dup2\n        /* \"#utility.yul\":10577:10578   */\n      0x05\n        /* \"#utility.yul\":10573:10583   */\n      shl\n        /* \"#utility.yul\":10603:10631   */\n      tag_503\n        /* \"#utility.yul\":10627:10629   */\n      dup3\n        /* \"#utility.yul\":10623:10625   */\n      dup3\n        /* \"#utility.yul\":10619:10630   */\n      add\n        /* \"#utility.yul\":10603:10631   */\n      tag_414\n      jump\t// in\n    tag_503:\n        /* \"#utility.yul\":10665:10680   */\n      swap3\n      dup4\n      mstore\n        /* \"#utility.yul\":10735:10750   */\n      dup5\n      dup2\n      add\n        /* \"#utility.yul\":10731:10755   */\n      dup3\n      add\n      swap3\n        /* \"#utility.yul\":10696:10708   */\n      dup3\n      dup2\n      add\n      swap1\n        /* \"#utility.yul\":10767:10782   */\n      dup8\n      dup6\n      gt\n        /* \"#utility.yul\":10764:10799   */\n      iszero\n      tag_504\n      jumpi\n        /* \"#utility.yul\":10795:10796   */\n      0x00\n        /* \"#utility.yul\":10792:10793   */\n      dup1\n        /* \"#utility.yul\":10785:10797   */\n      revert\n        /* \"#utility.yul\":10764:10799   */\n    tag_504:\n        /* \"#utility.yul\":10831:10833   */\n      dup4\n        /* \"#utility.yul\":10823:10829   */\n      dup8\n        /* \"#utility.yul\":10819:10834   */\n      add\n        /* \"#utility.yul\":10808:10834   */\n      swap3\n      pop\n        /* \"#utility.yul\":10843:11053   */\n    tag_505:\n        /* \"#utility.yul\":10859:10865   */\n      dup5\n        /* \"#utility.yul\":10854:10857   */\n      dup4\n        /* \"#utility.yul\":10851:10866   */\n      lt\n        /* \"#utility.yul\":10843:11053   */\n      iszero\n      tag_507\n      jumpi\n        /* \"#utility.yul\":10932:10935   */\n      dup3\n        /* \"#utility.yul\":10926:10936   */\n      mload\n        /* \"#utility.yul\":10949:10980   */\n      tag_508\n        /* \"#utility.yul\":10974:10979   */\n      dup2\n        /* \"#utility.yul\":10949:10980   */\n      tag_405\n      jump\t// in\n    tag_508:\n        /* \"#utility.yul\":10993:11011   */\n      dup3\n      mstore\n        /* \"#utility.yul\":10876:10888   */\n      swap2\n      dup4\n      add\n      swap2\n        /* \"#utility.yul\":11031:11043   */\n      swap1\n      dup4\n      add\n      swap1\n        /* \"#utility.yul\":10843:11053   */\n      jump(tag_505)\n    tag_507:\n        /* \"#utility.yul\":11071:11076   */\n      swap8\n        /* \"#utility.yul\":10298:11082   */\n      swap7\n      pop\n      pop\n      pop\n      pop\n      pop\n      pop\n      pop\n      jump\t// out\n        /* \"#utility.yul\":11087:11923   */\n    tag_174:\n        /* \"#utility.yul\":11243:11249   */\n      0x00\n        /* \"#utility.yul\":11251:11257   */\n      dup1\n        /* \"#utility.yul\":11259:11265   */\n      0x00\n        /* \"#utility.yul\":11267:11273   */\n      dup1\n        /* \"#utility.yul\":11275:11281   */\n      0x00\n        /* \"#utility.yul\":11283:11289   */\n      dup1\n        /* \"#utility.yul\":11336:11339   */\n      0xc0\n        /* \"#utility.yul\":11324:11333   */\n      dup8\n        /* \"#utility.yul\":11315:11322   */\n      dup10\n        /* \"#utility.yul\":11311:11334   */\n      sub\n        /* \"#utility.yul\":11307:11340   */\n      slt\n        /* \"#utility.yul\":11304:11357   */\n      iszero\n      tag_510\n      jumpi\n        /* \"#utility.yul\":11353:11354   */\n      0x00\n        /* \"#utility.yul\":11350:11351   */\n      dup1\n        /* \"#utility.yul\":11343:11355   */\n      revert\n        /* \"#utility.yul\":11304:11357   */\n    tag_510:\n        /* \"#utility.yul\":11385:11394   */\n      dup7\n        /* \"#utility.yul\":11379:11395   */\n      mload\n        /* \"#utility.yul\":11404:11435   */\n      tag_511\n        /* \"#utility.yul\":11429:11434   */\n      dup2\n        /* \"#utility.yul\":11404:11435   */\n      tag_405\n      jump\t// in\n    tag_511:\n        /* \"#utility.yul\":11504:11506   */\n      0x20\n        /* \"#utility.yul\":11489:11507   */\n      dup9\n      add\n        /* \"#utility.yul\":11483:11508   */\n      mload\n        /* \"#utility.yul\":11454:11459   */\n      swap1\n      swap7\n      pop\n        /* \"#utility.yul\":11539:11540   */\n      0x05\n        /* \"#utility.yul\":11527:11541   */\n      dup2\n      lt\n        /* \"#utility.yul\":11517:11559   */\n      tag_512\n      jumpi\n        /* \"#utility.yul\":11555:11556   */\n      0x00\n        /* \"#utility.yul\":11552:11553   */\n      dup1\n        /* \"#utility.yul\":11545:11557   */\n      revert\n        /* \"#utility.yul\":11517:11559   */\n    tag_512:\n        /* \"#utility.yul\":11578:11585   */\n      dup1\n        /* \"#utility.yul\":11568:11585   */\n      swap6\n      pop\n      pop\n        /* \"#utility.yul\":11625:11627   */\n      0x40\n        /* \"#utility.yul\":11614:11623   */\n      dup8\n        /* \"#utility.yul\":11610:11628   */\n      add\n        /* \"#utility.yul\":11604:11629   */\n      mload\n        /* \"#utility.yul\":11594:11629   */\n      swap4\n      pop\n        /* \"#utility.yul\":11669:11671   */\n      0x60\n        /* \"#utility.yul\":11658:11667   */\n      dup8\n        /* \"#utility.yul\":11654:11672   */\n      add\n        /* \"#utility.yul\":11648:11673   */\n      mload\n        /* \"#utility.yul\":11638:11673   */\n      swap3\n      pop\n        /* \"#utility.yul\":11713:11716   */\n      0x80\n        /* \"#utility.yul\":11702:11711   */\n      dup8\n        /* \"#utility.yul\":11698:11717   */\n      add\n        /* \"#utility.yul\":11692:11718   */\n      mload\n        /* \"#utility.yul\":11682:11718   */\n      swap2\n      pop\n        /* \"#utility.yul\":11762:11765   */\n      0xa0\n        /* \"#utility.yul\":11751:11760   */\n      dup8\n        /* \"#utility.yul\":11747:11766   */\n      add\n        /* \"#utility.yul\":11741:11767   */\n      mload\n      sub(shl(0x40, 0x01), 0x01)\n        /* \"#utility.yul\":11782:11788   */\n      dup2\n        /* \"#utility.yul\":11779:11809   */\n      gt\n        /* \"#utility.yul\":11776:11826   */\n      iszero\n      tag_513\n      jumpi\n        /* \"#utility.yul\":11822:11823   */\n      0x00\n        /* \"#utility.yul\":11819:11820   */\n      dup1\n        /* \"#utility.yul\":11812:11824   */\n      revert\n        /* \"#utility.yul\":11776:11826   */\n    tag_513:\n        /* \"#utility.yul\":11845:11917   */\n      tag_514\n        /* \"#utility.yul\":11909:11916   */\n      dup10\n        /* \"#utility.yul\":11900:11906   */\n      dup3\n        /* \"#utility.yul\":11889:11898   */\n      dup11\n        /* \"#utility.yul\":11885:11907   */\n      add\n        /* \"#utility.yul\":11845:11917   */\n      tag_415\n      jump\t// in\n    tag_514:\n        /* \"#utility.yul\":11835:11917   */\n      swap2\n      pop\n      pop\n        /* \"#utility.yul\":11087:11923   */\n      swap3\n      swap6\n      pop\n      swap3\n      swap6\n      pop\n      swap3\n      swap6\n      jump\t// out\n        /* \"#utility.yul\":11928:12291   */\n    tag_201:\n        /* \"#utility.yul\":12023:12029   */\n      0x00\n        /* \"#utility.yul\":12076:12078   */\n      0x20\n        /* \"#utility.yul\":12064:12073   */\n      dup3\n        /* \"#utility.yul\":12055:12062   */\n      dup5\n        /* \"#utility.yul\":12051:12074   */\n      sub\n        /* \"#utility.yul\":12047:12079   */\n      slt\n        /* \"#utility.yul\":12044:12096   */\n      iszero\n      tag_516\n      jumpi\n        /* \"#utility.yul\":12092:12093   */\n      0x00\n        /* \"#utility.yul\":12089:12090   */\n      dup1\n        /* \"#utility.yul\":12082:12094   */\n      revert\n        /* \"#utility.yul\":12044:12096   */\n    tag_516:\n        /* \"#utility.yul\":12125:12134   */\n      dup2\n        /* \"#utility.yul\":12119:12135   */\n      mload\n      sub(shl(0x40, 0x01), 0x01)\n        /* \"#utility.yul\":12150:12156   */\n      dup2\n        /* \"#utility.yul\":12147:12177   */\n      gt\n        /* \"#utility.yul\":12144:12194   */\n      iszero\n      tag_517\n      jumpi\n        /* \"#utility.yul\":12190:12191   */\n      0x00\n        /* \"#utility.yul\":12187:12188   */\n      dup1\n        /* \"#utility.yul\":12180:12192   */\n      revert\n        /* \"#utility.yul\":12144:12194   */\n    tag_517:\n        /* \"#utility.yul\":12213:12285   */\n      tag_518\n        /* \"#utility.yul\":12277:12284   */\n      dup5\n        /* \"#utility.yul\":12268:12274   */\n      dup3\n        /* \"#utility.yul\":12257:12266   */\n      dup6\n        /* \"#utility.yul\":12253:12275   */\n      add\n        /* \"#utility.yul\":12213:12285   */\n      tag_415\n      jump\t// in\n    tag_518:\n        /* \"#utility.yul\":12203:12285   */\n      swap5\n        /* \"#utility.yul\":11928:12291   */\n      swap4\n      pop\n      pop\n      pop\n      pop\n      jump\t// out\n        /* \"#utility.yul\":12296:12424   */\n    tag_203:\n        /* \"#utility.yul\":12363:12372   */\n      dup2\n      dup2\n      sub\n        /* \"#utility.yul\":12384:12395   */\n      dup2\n      dup2\n      gt\n        /* \"#utility.yul\":12381:12418   */\n      iszero\n      tag_164\n      jumpi\n        /* \"#utility.yul\":12398:12416   */\n      tag_164\n      tag_404\n      jump\t// in\n        /* \"#utility.yul\":12429:12597   */\n    tag_207:\n        /* \"#utility.yul\":12502:12511   */\n      dup1\n      dup3\n      mul\n        /* \"#utility.yul\":12533:12542   */\n      dup2\n      iszero\n        /* \"#utility.yul\":12550:12565   */\n      dup3\n      dup3\n      div\n        /* \"#utility.yul\":12544:12566   */\n      dup5\n      eq\n        /* \"#utility.yul\":12530:12567   */\n      or\n        /* \"#utility.yul\":12520:12591   */\n      tag_164\n      jumpi\n        /* \"#utility.yul\":12571:12589   */\n      tag_164\n      tag_404\n      jump\t// in\n        /* \"#utility.yul\":12602:12819   */\n    tag_209:\n        /* \"#utility.yul\":12642:12643   */\n      0x00\n        /* \"#utility.yul\":12668:12669   */\n      dup3\n        /* \"#utility.yul\":12658:12790   */\n      tag_526\n      jumpi\n        /* \"#utility.yul\":12712:12722   */\n      0x4e487b71\n        /* \"#utility.yul\":12707:12710   */\n      0xe0\n        /* \"#utility.yul\":12703:12723   */\n      shl\n        /* \"#utility.yul\":12700:12701   */\n      0x00\n        /* \"#utility.yul\":12693:12724   */\n      mstore\n        /* \"#utility.yul\":12747:12751   */\n      0x12\n        /* \"#utility.yul\":12744:12745   */\n      0x04\n        /* \"#utility.yul\":12737:12752   */\n      mstore\n        /* \"#utility.yul\":12775:12779   */\n      0x24\n        /* \"#utility.yul\":12772:12773   */\n      0x00\n        /* \"#utility.yul\":12765:12780   */\n      revert\n        /* \"#utility.yul\":12658:12790   */\n    tag_526:\n      pop\n        /* \"#utility.yul\":12804:12813   */\n      div\n      swap1\n        /* \"#utility.yul\":12602:12819   */\n      jump\t// out\n        /* \"#utility.yul\":12824:12951   */\n    tag_235:\n        /* \"#utility.yul\":12885:12895   */\n      0x4e487b71\n        /* \"#utility.yul\":12880:12883   */\n      0xe0\n        /* \"#utility.yul\":12876:12896   */\n      shl\n        /* \"#utility.yul\":12873:12874   */\n      0x00\n        /* \"#utility.yul\":12866:12897   */\n      mstore\n        /* \"#utility.yul\":12916:12920   */\n      0x32\n        /* \"#utility.yul\":12913:12914   */\n      0x04\n        /* \"#utility.yul\":12906:12921   */\n      mstore\n        /* \"#utility.yul\":12940:12944   */\n      0x24\n        /* \"#utility.yul\":12937:12938   */\n      0x00\n        /* \"#utility.yul\":12930:12945   */\n      revert\n        /* \"#utility.yul\":12956:13466   */\n    tag_416:\n        /* \"#utility.yul\":13010:13015   */\n      0x00\n        /* \"#utility.yul\":13063:13066   */\n      dup3\n        /* \"#utility.yul\":13056:13060   */\n      0x1f\n        /* \"#utility.yul\":13048:13054   */\n      dup4\n        /* \"#utility.yul\":13044:13061   */\n      add\n        /* \"#utility.yul\":13040:13067   */\n      slt\n        /* \"#utility.yul\":13030:13085   */\n      tag_529\n      jumpi\n        /* \"#utility.yul\":13081:13082   */\n      0x00\n        /* \"#utility.yul\":13078:13079   */\n      dup1\n        /* \"#utility.yul\":13071:13083   */\n      revert\n        /* \"#utility.yul\":13030:13085   */\n    tag_529:\n        /* \"#utility.yul\":13110:13116   */\n      dup2\n        /* \"#utility.yul\":13104:13117   */\n      mload\n      sub(shl(0x40, 0x01), 0x01)\n        /* \"#utility.yul\":13132:13134   */\n      dup2\n        /* \"#utility.yul\":13129:13155   */\n      gt\n        /* \"#utility.yul\":13126:13178   */\n      iszero\n      tag_531\n      jumpi\n        /* \"#utility.yul\":13158:13176   */\n      tag_531\n      tag_217\n      jump\t// in\n    tag_531:\n        /* \"#utility.yul\":13202:13257   */\n      tag_532\n        /* \"#utility.yul\":13245:13247   */\n      0x1f\n        /* \"#utility.yul\":13226:13239   */\n      dup3\n      add\n      not(0x1f)\n        /* \"#utility.yul\":13222:13249   */\n      and\n        /* \"#utility.yul\":13251:13255   */\n      0x20\n        /* \"#utility.yul\":13218:13256   */\n      add\n        /* \"#utility.yul\":13202:13257   */\n      tag_414\n      jump\t// in\n    tag_532:\n        /* \"#utility.yul\":13282:13284   */\n      dup2\n        /* \"#utility.yul\":13273:13280   */\n      dup2\n        /* \"#utility.yul\":13266:13285   */\n      mstore\n        /* \"#utility.yul\":13328:13331   */\n      dup5\n        /* \"#utility.yul\":13321:13325   */\n      0x20\n        /* \"#utility.yul\":13316:13318   */\n      dup4\n        /* \"#utility.yul\":13308:13314   */\n      dup7\n        /* \"#utility.yul\":13304:13319   */\n      add\n        /* \"#utility.yul\":13300:13326   */\n      add\n        /* \"#utility.yul\":13297:13332   */\n      gt\n        /* \"#utility.yul\":13294:13349   */\n      iszero\n      tag_533\n      jumpi\n        /* \"#utility.yul\":13345:13346   */\n      0x00\n        /* \"#utility.yul\":13342:13343   */\n      dup1\n        /* \"#utility.yul\":13335:13347   */\n      revert\n        /* \"#utility.yul\":13294:13349   */\n    tag_533:\n        /* \"#utility.yul\":13358:13435   */\n      tag_518\n        /* \"#utility.yul\":13432:13434   */\n      dup3\n        /* \"#utility.yul\":13425:13429   */\n      0x20\n        /* \"#utility.yul\":13416:13423   */\n      dup4\n        /* \"#utility.yul\":13412:13430   */\n      add\n        /* \"#utility.yul\":13405:13409   */\n      0x20\n        /* \"#utility.yul\":13397:13403   */\n      dup8\n        /* \"#utility.yul\":13393:13410   */\n      add\n        /* \"#utility.yul\":13358:13435   */\n      tag_409\n      jump\t// in\n        /* \"#utility.yul\":13471:14647   */\n    tag_247:\n        /* \"#utility.yul\":13627:13633   */\n      0x00\n        /* \"#utility.yul\":13635:13641   */\n      dup1\n        /* \"#utility.yul\":13643:13649   */\n      0x00\n        /* \"#utility.yul\":13651:13657   */\n      dup1\n        /* \"#utility.yul\":13659:13665   */\n      0x00\n        /* \"#utility.yul\":13712:13715   */\n      0xa0\n        /* \"#utility.yul\":13700:13709   */\n      dup7\n        /* \"#utility.yul\":13691:13698   */\n      dup9\n        /* \"#utility.yul\":13687:13710   */\n      sub\n        /* \"#utility.yul\":13683:13716   */\n      slt\n        /* \"#utility.yul\":13680:13733   */\n      iszero\n      tag_536\n      jumpi\n        /* \"#utility.yul\":13729:13730   */\n      0x00\n        /* \"#utility.yul\":13726:13727   */\n      dup1\n        /* \"#utility.yul\":13719:13731   */\n      revert\n        /* \"#utility.yul\":13680:13733   */\n    tag_536:\n        /* \"#utility.yul\":13762:13771   */\n      dup6\n        /* \"#utility.yul\":13756:13772   */\n      mload\n      sub(shl(0x40, 0x01), 0x01)\n        /* \"#utility.yul\":13832:13834   */\n      dup1\n        /* \"#utility.yul\":13824:13830   */\n      dup3\n        /* \"#utility.yul\":13821:13835   */\n      gt\n        /* \"#utility.yul\":13818:13852   */\n      iszero\n      tag_537\n      jumpi\n        /* \"#utility.yul\":13848:13849   */\n      0x00\n        /* \"#utility.yul\":13845:13846   */\n      dup1\n        /* \"#utility.yul\":13838:13850   */\n      revert\n        /* \"#utility.yul\":13818:13852   */\n    tag_537:\n        /* \"#utility.yul\":13871:13932   */\n      tag_538\n        /* \"#utility.yul\":13924:13931   */\n      dup10\n        /* \"#utility.yul\":13915:13921   */\n      dup4\n        /* \"#utility.yul\":13904:13913   */\n      dup11\n        /* \"#utility.yul\":13900:13922   */\n      add\n        /* \"#utility.yul\":13871:13932   */\n      tag_416\n      jump\t// in\n    tag_538:\n        /* \"#utility.yul\":13861:13932   */\n      swap7\n      pop\n        /* \"#utility.yul\":13978:13980   */\n      0x20\n        /* \"#utility.yul\":13967:13976   */\n      dup9\n        /* \"#utility.yul\":13963:13981   */\n      add\n        /* \"#utility.yul\":13957:13982   */\n      mload\n        /* \"#utility.yul\":13941:13982   */\n      swap2\n      pop\n        /* \"#utility.yul\":14007:14009   */\n      dup1\n        /* \"#utility.yul\":13997:14005   */\n      dup3\n        /* \"#utility.yul\":13994:14010   */\n      gt\n        /* \"#utility.yul\":13991:14027   */\n      iszero\n      tag_539\n      jumpi\n        /* \"#utility.yul\":14023:14024   */\n      0x00\n        /* \"#utility.yul\":14020:14021   */\n      dup1\n        /* \"#utility.yul\":14013:14025   */\n      revert\n        /* \"#utility.yul\":13991:14027   */\n    tag_539:\n        /* \"#utility.yul\":14046:14109   */\n      tag_540\n        /* \"#utility.yul\":14101:14108   */\n      dup10\n        /* \"#utility.yul\":14090:14098   */\n      dup4\n        /* \"#utility.yul\":14079:14088   */\n      dup11\n        /* \"#utility.yul\":14075:14099   */\n      add\n        /* \"#utility.yul\":14046:14109   */\n      tag_416\n      jump\t// in\n    tag_540:\n        /* \"#utility.yul\":14036:14109   */\n      swap6\n      pop\n        /* \"#utility.yul\":14155:14157   */\n      0x40\n        /* \"#utility.yul\":14144:14153   */\n      dup9\n        /* \"#utility.yul\":14140:14158   */\n      add\n        /* \"#utility.yul\":14134:14159   */\n      mload\n        /* \"#utility.yul\":14118:14159   */\n      swap2\n      pop\n        /* \"#utility.yul\":14184:14186   */\n      dup1\n        /* \"#utility.yul\":14174:14182   */\n      dup3\n        /* \"#utility.yul\":14171:14187   */\n      gt\n        /* \"#utility.yul\":14168:14204   */\n      iszero\n      tag_541\n      jumpi\n        /* \"#utility.yul\":14200:14201   */\n      0x00\n        /* \"#utility.yul\":14197:14198   */\n      dup1\n        /* \"#utility.yul\":14190:14202   */\n      revert\n        /* \"#utility.yul\":14168:14204   */\n    tag_541:\n        /* \"#utility.yul\":14223:14286   */\n      tag_542\n        /* \"#utility.yul\":14278:14285   */\n      dup10\n        /* \"#utility.yul\":14267:14275   */\n      dup4\n        /* \"#utility.yul\":14256:14265   */\n      dup11\n        /* \"#utility.yul\":14252:14276   */\n      add\n        /* \"#utility.yul\":14223:14286   */\n      tag_416\n      jump\t// in\n    tag_542:\n        /* \"#utility.yul\":14213:14286   */\n      swap5\n      pop\n        /* \"#utility.yul\":14332:14334   */\n      0x60\n        /* \"#utility.yul\":14321:14330   */\n      dup9\n        /* \"#utility.yul\":14317:14335   */\n      add\n        /* \"#utility.yul\":14311:14336   */\n      mload\n        /* \"#utility.yul\":14295:14336   */\n      swap2\n      pop\n        /* \"#utility.yul\":14361:14363   */\n      dup1\n        /* \"#utility.yul\":14351:14359   */\n      dup3\n        /* \"#utility.yul\":14348:14364   */\n      gt\n        /* \"#utility.yul\":14345:14381   */\n      iszero\n      tag_543\n      jumpi\n        /* \"#utility.yul\":14377:14378   */\n      0x00\n        /* \"#utility.yul\":14374:14375   */\n      dup1\n        /* \"#utility.yul\":14367:14379   */\n      revert\n        /* \"#utility.yul\":14345:14381   */\n    tag_543:\n        /* \"#utility.yul\":14400:14463   */\n      tag_544\n        /* \"#utility.yul\":14455:14462   */\n      dup10\n        /* \"#utility.yul\":14444:14452   */\n      dup4\n        /* \"#utility.yul\":14433:14442   */\n      dup11\n        /* \"#utility.yul\":14429:14453   */\n      add\n        /* \"#utility.yul\":14400:14463   */\n      tag_416\n      jump\t// in\n    tag_544:\n        /* \"#utility.yul\":14390:14463   */\n      swap4\n      pop\n        /* \"#utility.yul\":14509:14512   */\n      0x80\n        /* \"#utility.yul\":14498:14507   */\n      dup9\n        /* \"#utility.yul\":14494:14513   */\n      add\n        /* \"#utility.yul\":14488:14514   */\n      mload\n        /* \"#utility.yul\":14472:14514   */\n      swap2\n      pop\n        /* \"#utility.yul\":14539:14541   */\n      dup1\n        /* \"#utility.yul\":14529:14537   */\n      dup3\n        /* \"#utility.yul\":14526:14542   */\n      gt\n        /* \"#utility.yul\":14523:14559   */\n      iszero\n      tag_545\n      jumpi\n        /* \"#utility.yul\":14555:14556   */\n      0x00\n        /* \"#utility.yul\":14552:14553   */\n      dup1\n        /* \"#utility.yul\":14545:14557   */\n      revert\n        /* \"#utility.yul\":14523:14559   */\n    tag_545:\n      pop\n        /* \"#utility.yul\":14578:14641   */\n      tag_546\n        /* \"#utility.yul\":14633:14640   */\n      dup9\n        /* \"#utility.yul\":14622:14630   */\n      dup3\n        /* \"#utility.yul\":14611:14620   */\n      dup10\n        /* \"#utility.yul\":14607:14631   */\n      add\n        /* \"#utility.yul\":14578:14641   */\n      tag_416\n      jump\t// in\n    tag_546:\n        /* \"#utility.yul\":14568:14641   */\n      swap2\n      pop\n      pop\n        /* \"#utility.yul\":13471:14647   */\n      swap3\n      swap6\n      pop\n      swap3\n      swap6\n      swap1\n      swap4\n      pop\n      jump\t// out\n        /* \"#utility.yul\":14652:14827   */\n    tag_263:\n        /* \"#utility.yul\":14689:14692   */\n      0x00\n        /* \"#utility.yul\":14733:14737   */\n      0xff\n        /* \"#utility.yul\":14726:14731   */\n      dup3\n        /* \"#utility.yul\":14722:14738   */\n      and\n        /* \"#utility.yul\":14762:14766   */\n      0xff\n        /* \"#utility.yul\":14753:14760   */\n      dup2\n        /* \"#utility.yul\":14750:14767   */\n      sub\n        /* \"#utility.yul\":14747:14790   */\n      tag_549\n      jumpi\n        /* \"#utility.yul\":14770:14788   */\n      tag_549\n      tag_404\n      jump\t// in\n    tag_549:\n        /* \"#utility.yul\":14819:14820   */\n      0x01\n        /* \"#utility.yul\":14806:14821   */\n      add\n      swap3\n        /* \"#utility.yul\":14652:14827   */\n      swap2\n      pop\n      pop\n      jump\t// out\n        /* \"#utility.yul\":14832:15016   */\n    tag_268:\n        /* \"#utility.yul\":14902:14908   */\n      0x00\n        /* \"#utility.yul\":14955:14957   */\n      0x20\n        /* \"#utility.yul\":14943:14952   */\n      dup3\n        /* \"#utility.yul\":14934:14941   */\n      dup5\n        /* \"#utility.yul\":14930:14953   */\n      sub\n        /* \"#utility.yul\":14926:14958   */\n      slt\n        /* \"#utility.yul\":14923:14975   */\n      iszero\n      tag_551\n      jumpi\n        /* \"#utility.yul\":14971:14972   */\n      0x00\n        /* \"#utility.yul\":14968:14969   */\n      dup1\n        /* \"#utility.yul\":14961:14973   */\n      revert\n        /* \"#utility.yul\":14923:14975   */\n    tag_551:\n      pop\n        /* \"#utility.yul\":14994:15010   */\n      mload\n      swap2\n        /* \"#utility.yul\":14832:15016   */\n      swap1\n      pop\n      jump\t// out\n        /* \"#utility.yul\":15330:15636   */\n    tag_280:\n        /* \"#utility.yul\":15418:15424   */\n      0x00\n        /* \"#utility.yul\":15426:15432   */\n      dup1\n        /* \"#utility.yul\":15434:15440   */\n      0x00\n        /* \"#utility.yul\":15487:15489   */\n      0x60\n        /* \"#utility.yul\":15475:15484   */\n      dup5\n        /* \"#utility.yul\":15466:15473   */\n      dup7\n        /* \"#utility.yul\":15462:15485   */\n      sub\n        /* \"#utility.yul\":15458:15490   */\n      slt\n        /* \"#utility.yul\":15455:15507   */\n      iszero\n      tag_554\n      jumpi\n        /* \"#utility.yul\":15503:15504   */\n      0x00\n        /* \"#utility.yul\":15500:15501   */\n      dup1\n        /* \"#utility.yul\":15493:15505   */\n      revert\n        /* \"#utility.yul\":15455:15507   */\n    tag_554:\n        /* \"#utility.yul\":15532:15541   */\n      dup4\n        /* \"#utility.yul\":15526:15542   */\n      mload\n        /* \"#utility.yul\":15516:15542   */\n      swap3\n      pop\n        /* \"#utility.yul\":15582:15584   */\n      0x20\n        /* \"#utility.yul\":15571:15580   */\n      dup5\n        /* \"#utility.yul\":15567:15585   */\n      add\n        /* \"#utility.yul\":15561:15586   */\n      mload\n        /* \"#utility.yul\":15551:15586   */\n      swap2\n      pop\n        /* \"#utility.yul\":15626:15628   */\n      0x40\n        /* \"#utility.yul\":15615:15624   */\n      dup5\n        /* \"#utility.yul\":15611:15629   */\n      add\n        /* \"#utility.yul\":15605:15630   */\n      mload\n        /* \"#utility.yul\":15595:15630   */\n      swap1\n      pop\n        /* \"#utility.yul\":15330:15636   */\n      swap3\n      pop\n      swap3\n      pop\n      swap3\n      jump\t// out\n        /* \"#utility.yul\":16349:16626   */\n    tag_300:\n        /* \"#utility.yul\":16416:16422   */\n      0x00\n        /* \"#utility.yul\":16469:16471   */\n      0x20\n        /* \"#utility.yul\":16457:16466   */\n      dup3\n        /* \"#utility.yul\":16448:16455   */\n      dup5\n        /* \"#utility.yul\":16444:16467   */\n      sub\n        /* \"#utility.yul\":16440:16472   */\n      slt\n        /* \"#utility.yul\":16437:16489   */\n      iszero\n      tag_558\n      jumpi\n        /* \"#utility.yul\":16485:16486   */\n      0x00\n        /* \"#utility.yul\":16482:16483   */\n      dup1\n        /* \"#utility.yul\":16475:16487   */\n      revert\n        /* \"#utility.yul\":16437:16489   */\n    tag_558:\n        /* \"#utility.yul\":16517:16526   */\n      dup2\n        /* \"#utility.yul\":16511:16527   */\n      mload\n        /* \"#utility.yul\":16570:16575   */\n      dup1\n        /* \"#utility.yul\":16563:16576   */\n      iszero\n        /* \"#utility.yul\":16556:16577   */\n      iszero\n        /* \"#utility.yul\":16549:16554   */\n      dup2\n        /* \"#utility.yul\":16546:16578   */\n      eq\n        /* \"#utility.yul\":16536:16596   */\n      tag_210\n      jumpi\n        /* \"#utility.yul\":16592:16593   */\n      0x00\n        /* \"#utility.yul\":16589:16590   */\n      dup1\n        /* \"#utility.yul\":16582:16594   */\n      revert\n        /* \"#utility.yul\":17388:17655   */\n    tag_417:\n        /* \"#utility.yul\":17477:17483   */\n      dup2\n        /* \"#utility.yul\":17472:17475   */\n      dup4\n        /* \"#utility.yul\":17465:17484   */\n      mstore\n        /* \"#utility.yul\":17529:17535   */\n      dup2\n        /* \"#utility.yul\":17522:17527   */\n      dup2\n        /* \"#utility.yul\":17515:17519   */\n      0x20\n        /* \"#utility.yul\":17510:17513   */\n      dup6\n        /* \"#utility.yul\":17506:17520   */\n      add\n        /* \"#utility.yul\":17493:17536   */\n      calldatacopy\n      pop\n        /* \"#utility.yul\":17581:17582   */\n      0x00\n        /* \"#utility.yul\":17556:17572   */\n      dup3\n      dup3\n      add\n        /* \"#utility.yul\":17574:17578   */\n      0x20\n        /* \"#utility.yul\":17552:17579   */\n      swap1\n      dup2\n      add\n        /* \"#utility.yul\":17545:17583   */\n      swap2\n      swap1\n      swap2\n      mstore\n        /* \"#utility.yul\":17637:17639   */\n      0x1f\n        /* \"#utility.yul\":17616:17631   */\n      swap1\n      swap2\n      add\n      not(0x1f)\n        /* \"#utility.yul\":17612:17641   */\n      and\n        /* \"#utility.yul\":17603:17642   */\n      swap1\n      swap2\n      add\n        /* \"#utility.yul\":17599:17649   */\n      add\n      swap1\n        /* \"#utility.yul\":17388:17655   */\n      jump\t// out\n        /* \"#utility.yul\":17660:18786   */\n    tag_329:\n      sub(shl(0xa0, 0x01), 0x01)\n        /* \"#utility.yul\":18096:18128   */\n      dup13\n      and\n        /* \"#utility.yul\":18078:18129   */\n      dup2\n      mstore\n        /* \"#utility.yul\":18165:18168   */\n      0xc0\n        /* \"#utility.yul\":18160:18162   */\n      0x20\n        /* \"#utility.yul\":18145:18163   */\n      dup3\n      add\n        /* \"#utility.yul\":18138:18169   */\n      dup2\n      swap1\n      mstore\n      0x00\n      swap1\n        /* \"#utility.yul\":18192:18255   */\n      tag_564\n      swap1\n        /* \"#utility.yul\":18235:18254   */\n      dup4\n      add\n        /* \"#utility.yul\":18227:18233   */\n      dup13\n        /* \"#utility.yul\":18219:18225   */\n      dup15\n        /* \"#utility.yul\":18192:18255   */\n      tag_417\n      jump\t// in\n    tag_564:\n        /* \"#utility.yul\":18303:18312   */\n      dup3\n        /* \"#utility.yul\":18295:18301   */\n      dup2\n        /* \"#utility.yul\":18291:18313   */\n      sub\n        /* \"#utility.yul\":18286:18288   */\n      0x40\n        /* \"#utility.yul\":18275:18284   */\n      dup5\n        /* \"#utility.yul\":18271:18289   */\n      add\n        /* \"#utility.yul\":18264:18314   */\n      mstore\n        /* \"#utility.yul\":18337:18387   */\n      tag_565\n        /* \"#utility.yul\":18380:18386   */\n      dup2\n        /* \"#utility.yul\":18372:18378   */\n      dup12\n        /* \"#utility.yul\":18364:18370   */\n      dup14\n        /* \"#utility.yul\":18337:18387   */\n      tag_417\n      jump\t// in\n    tag_565:\n        /* \"#utility.yul\":18323:18387   */\n      swap1\n      pop\n        /* \"#utility.yul\":18435:18444   */\n      dup3\n        /* \"#utility.yul\":18427:18433   */\n      dup2\n        /* \"#utility.yul\":18423:18445   */\n      sub\n        /* \"#utility.yul\":18418:18420   */\n      0x60\n        /* \"#utility.yul\":18407:18416   */\n      dup5\n        /* \"#utility.yul\":18403:18421   */\n      add\n        /* \"#utility.yul\":18396:18446   */\n      mstore\n        /* \"#utility.yul\":18469:18519   */\n      tag_566\n        /* \"#utility.yul\":18512:18518   */\n      dup2\n        /* \"#utility.yul\":18504:18510   */\n      dup10\n        /* \"#utility.yul\":18496:18502   */\n      dup12\n        /* \"#utility.yul\":18469:18519   */\n      tag_417\n      jump\t// in\n    tag_566:\n        /* \"#utility.yul\":18455:18519   */\n      swap1\n      pop\n        /* \"#utility.yul\":18568:18577   */\n      dup3\n        /* \"#utility.yul\":18560:18566   */\n      dup2\n        /* \"#utility.yul\":18556:18578   */\n      sub\n        /* \"#utility.yul\":18550:18553   */\n      0x80\n        /* \"#utility.yul\":18539:18548   */\n      dup5\n        /* \"#utility.yul\":18535:18554   */\n      add\n        /* \"#utility.yul\":18528:18579   */\n      mstore\n        /* \"#utility.yul\":18602:18652   */\n      tag_567\n        /* \"#utility.yul\":18645:18651   */\n      dup2\n        /* \"#utility.yul\":18637:18643   */\n      dup8\n        /* \"#utility.yul\":18629:18635   */\n      dup10\n        /* \"#utility.yul\":18602:18652   */\n      tag_417\n      jump\t// in\n    tag_567:\n        /* \"#utility.yul\":18588:18652   */\n      swap1\n      pop\n        /* \"#utility.yul\":18701:18710   */\n      dup3\n        /* \"#utility.yul\":18693:18699   */\n      dup2\n        /* \"#utility.yul\":18689:18711   */\n      sub\n        /* \"#utility.yul\":18683:18686   */\n      0xa0\n        /* \"#utility.yul\":18672:18681   */\n      dup5\n        /* \"#utility.yul\":18668:18687   */\n      add\n        /* \"#utility.yul\":18661:18712   */\n      mstore\n        /* \"#utility.yul\":18729:18780   */\n      tag_568\n        /* \"#utility.yul\":18773:18779   */\n      dup2\n        /* \"#utility.yul\":18764:18771   */\n      dup6\n        /* \"#utility.yul\":18756:18762   */\n      dup8\n        /* \"#utility.yul\":18729:18780   */\n      tag_417\n      jump\t// in\n    tag_568:\n        /* \"#utility.yul\":18721:18780   */\n      swap15\n        /* \"#utility.yul\":17660:18786   */\n      swap14\n      pop\n      pop\n      pop\n      pop\n      pop\n      pop\n      pop\n      pop\n      pop\n      pop\n      pop\n      pop\n      pop\n      pop\n      jump\t// out\n        /* \"#utility.yul\":18791:19079   */\n    tag_353:\n        /* \"#utility.yul\":18860:18866   */\n      0x00\n        /* \"#utility.yul\":18913:18915   */\n      0x20\n        /* \"#utility.yul\":18901:18910   */\n      dup3\n        /* \"#utility.yul\":18892:18899   */\n      dup5\n        /* \"#utility.yul\":18888:18911   */\n      sub\n        /* \"#utility.yul\":18884:18916   */\n      slt\n        /* \"#utility.yul\":18881:18933   */\n      iszero\n      tag_570\n      jumpi\n        /* \"#utility.yul\":18929:18930   */\n      0x00\n        /* \"#utility.yul\":18926:18927   */\n      dup1\n        /* \"#utility.yul\":18919:18931   */\n      revert\n        /* \"#utility.yul\":18881:18933   */\n    tag_570:\n        /* \"#utility.yul\":18961:18970   */\n      dup2\n        /* \"#utility.yul\":18955:18971   */\n      mload\n      sub(shl(0x40, 0x01), 0x01)\n        /* \"#utility.yul\":19004:19009   */\n      dup2\n        /* \"#utility.yul\":19000:19030   */\n      and\n        /* \"#utility.yul\":18993:18998   */\n      dup2\n        /* \"#utility.yul\":18990:19031   */\n      eq\n        /* \"#utility.yul\":18980:19049   */\n      tag_210\n      jumpi\n        /* \"#utility.yul\":19045:19046   */\n      0x00\n        /* \"#utility.yul\":19042:19043   */\n      dup1\n        /* \"#utility.yul\":19035:19047   */\n      revert\n\n    auxdata: 0xa2646970667358221220230b6ce9bb25aede1e5673bc1c9acdf5527f45c3edeb6b8d4d224d342ccae0b664736f6c63430008130033\n}\n",
				"bytecode": {
					"linkReferences": {},
					"object": "6080604052600180546001600160a01b03191661f00017905569d3c21bcecceda1000000600255670de0b6b3a764000060045534801561003e57600080fd5b506100483361004d565b61009d565b600080546001600160a01b038381166001600160a01b0319831681178455604051919092169283917f8be0079c531659141344cd1fd0a4f28419497f9722a3daafe3b4186f6b6457e09190a35050565b61210d806100ac6000396000f3fe6080604052600436106101855760003560e01c80638ae53dbd116100d1578063b0d2d0111161008a578063efe2226611610064578063efe2226614610483578063f188df2b14610499578063f2888dbb146104c6578063f2fde38b146104e657600080fd5b8063b0d2d01114610419578063d4aa673b1461042e578063e1b6d9d41461044e57600080fd5b80638ae53dbd146103575780638da5cb5b1461036d57806390efe56d1461039f578063a406fcb7146103d1578063afbbc803146103e4578063b08061081461040457600080fd5b806358ae4e991161013e578063715018a611610118578063715018a6146102d157806372d30a70146102e6578063797327ae146103065780637fc5e1e51461033757600080fd5b806358ae4e99146101d2578063648779811461027257806367b40cf7146102a457600080fd5b80630976c65d146101a957806314306168146101d25780631d06022c146101f25780631e724caa146102145780633f8dc65a146102345780634cc67b5b1461025c57600080fd5b366101a457346005600082825461019c91906117c9565b925050819055005b600080fd5b3480156101b557600080fd5b506101bf60025481565b6040519081526020015b60405180910390f35b3480156101de57600080fd5b506101bf6101ed3660046117f1565b610506565b3480156101fe57600080fd5b5061021261020d36600461182a565b61050f565b005b34801561022057600080fd5b506101bf61022f366004611843565b61051c565b34801561024057600080fd5b50610249610716565b6040516101c997969594939291906119af565b34801561026857600080fd5b506101bf60035481565b34801561027e57600080fd5b5061029261028d3660046117f1565b610bb7565b6040516101c996959493929190611a60565b3480156102b057600080fd5b506101bf6102bf366004611843565b60066020526000908152604090205481565b3480156102dd57600080fd5b50610212610ce1565b3480156102f257600080fd5b50610212610301366004611843565b610cf5565b34801561031257600080fd5b50610327610321366004611843565b50600190565b60405190151581526020016101c9565b34801561034357600080fd5b506101bf610352366004611843565b610ef0565b34801561036357600080fd5b506101bf60045481565b34801561037957600080fd5b506000546001600160a01b03165b6040516001600160a01b0390911681526020016101c9565b3480156103ab57600080fd5b506103bf6103ba3660046117f1565b610f1e565b6040516101c996959493929190611aa1565b6103276103df366004611b4a565b61106b565b3480156103f057600080fd5b50600154610387906001600160a01b031681565b34801561041057600080fd5b506102126111c0565b34801561042557600080fd5b506101bf61120e565b34801561043a57600080fd5b506101bf6104493660046117f1565b611281565b34801561045a57600080fd5b5061046e6104693660046117f1565b61143e565b604080519283526020830191909152016101c9565b34801561048f57600080fd5b506101bf60055481565b3480156104a557600080fd5b506101bf6104b4366004611843565b60076020526000908152604090205481565b3480156104d257600080fd5b506103276104e1366004611843565b6114ce565b3480156104f257600080fd5b50610212610501366004611843565b611589565b60005b92915050565b6105176115ff565b600255565b600154604051638a11d7c960e01b81526001600160a01b0383811660048301526000928392911690638a11d7c990602401600060405180830381865afa15801561056a573d6000803e3d6000fd5b505050506040513d6000823e601f3d908101601f191682016040526105929190810190611d1e565b50929450600493506105a392505050565b8160048111156105b5576105b5611860565b14806105d2575060008160048111156105d0576105d0611860565b145b806105ee575060018160048111156105ec576105ec611860565b145b156105fc5750600092915050565b60045460055410158015610611575060045447115b801561062f5750600381600481111561062c5761062c611860565b14155b156106eb576001546040805163afeea11560e01b815290516000926001600160a01b03169163afeea11591600480830192869291908290030181865afa15801561067d573d6000803e3d6000fd5b505050506040513d6000823e601f3d908101601f191682016040526106a59190810190611da2565b80516003549192509081906106ba9043611dde565b106106e85780600454600354436106d19190611dde565b6106db9190611df1565b6106e59190611e08565b93505b50505b6001600160a01b03831660009081526006602052604090205461070f9083906117c9565b9392505050565b60008060608060608060606000600160009054906101000a90046001600160a01b03166001600160a01b031663afeea1156040518163ffffffff1660e01b8152600401600060405180830381865afa158015610776573d6000803e3d6000fd5b505050506040513d6000823e601f3d908101601f1916820160405261079e9190810190611da2565b8051909150600080826001600160401b038111156107be576107be611c50565b6040519080825280602002602001820160405280156107e7578160200160208202803683370190505b5090506000836001600160401b0381111561080457610804611c50565b60405190808252806020026020018201604052801561082d578160200160208202803683370190505b5090506000846001600160401b0381111561084a5761084a611c50565b60405190808252806020026020018201604052801561087d57816020015b60608152602001906001900390816108685790505b5090506000856001600160401b0381111561089a5761089a611c50565b6040519080825280602002602001820160405280156108cd57816020015b60608152602001906001900390816108b85790505b50905060005b868160ff161015610b1c57600154885160009182916001600160a01b0390911690638a11d7c9908c9060ff871690811061090f5761090f611e2a565b60200260200101516040518263ffffffff1660e01b815260040161094291906001600160a01b0391909116815260200190565b600060405180830381865afa15801561095f573d6000803e3d6000fd5b505050506040513d6000823e601f3d908101601f191682016040526109879190810190611d1e565b50505092509250506000811115610af9576001548a5160009182916001600160a01b039091169063a43569b3908e9060ff89169081106109c9576109c9611e2a565b60200260200101516040518263ffffffff1660e01b81526004016109fc91906001600160a01b0391909116815260200190565b600060405180830381865afa158015610a19573d6000803e3d6000fd5b505050506040513d6000823e601f3d908101601f19168201604052610a419190810190611ea3565b5050925092505083898660ff1681518110610a5e57610a5e611e2a565b60200260200101906004811115610a7757610a77611860565b90816004811115610a8a57610a8a611860565b8152505082888660ff1681518110610aa457610aa4611e2a565b60200260200101818152505081878660ff1681518110610ac657610ac6611e2a565b602002602001018190525080868660ff1681518110610ae757610ae7611e2a565b60200260200101819052505050610b07565b610b046001896117c9565b97505b50508080610b1490611f74565b9150506108d3565b50610b278587611dde565b600160009054906101000a90046001600160a01b03166001600160a01b0316638b0e9f3f6040518163ffffffff1660e01b8152600401602060405180830381865afa158015610b7a573d6000803e3d6000fd5b505050506040513d601f19601f82011682018060405250810190610b9e9190611f93565b909f909e50969c50929a50909850965094509192505050565b600154604051638a11d7c960e01b81526001600160a01b038481166004830152600092839283928392839283926060921690638a11d7c990602401600060405180830381865afa158015610c0f573d6000803e3d6000fd5b505050506040513d6000823e601f3d908101601f19168201604052610c379190810190611d1e565b600154604051633fa7cafd60e11b8152949d50949b509550506001600160a01b039092169250637f4f95fa9150610c89908c9081906004016001600160a01b0392831681529116602082015260400190565b606060405180830381865afa158015610ca6573d6000803e3d6000fd5b505050506040513d601f19601f82011682018060405250810190610cca9190611fac565b505090519699959850966000969590945092505050565b610ce96115ff565b610cf36000611659565b565b6001600160a01b0381163214610d525760405162461bcd60e51b815260206004820152601f60248201527f63616c6c65722073686f756c64206265207265616c2076616c696461746f720060448201526064015b60405180910390fd5b6000610d5d8261051c565b905060008111610da55760405162461bcd60e51b81526020600482015260136024820152724e6f7468696e6720746f20776974686472617760681b6044820152606401610d49565b610dad6116a9565b60015460405162362a7760e01b81526001600160a01b0384811660048301529091169062362a77906024016020604051808303816000875af1158015610df7573d6000803e3d6000fd5b505050506040513d601f19601f82011682018060405250810190610e1b9190611fda565b508060056000828254610e2e9190611dde565b90915550506001600160a01b0382166000908152600660209081526040808320839055600790915281208054839290610e689084906117c9565b90915550506040516001600160a01b0383169082156108fc029083906000818181858888f19350505050158015610ea3573d6000803e3d6000fd5b50604080516001600160a01b038416815260208101839052428183015290517f66f79629c03cd92f64c49d27760e90fd00ebc6f4ab63c8e3553228d9f62b3c019181900360600190a15050565b6000610efb8261051c565b6001600160a01b03831660009081526007602052604090205461050991906117c9565b60015460405163a43569b360e01b81526001600160a01b03848116600483015260609283928392600092839283928392839283929091169063a43569b390602401600060405180830381865afa158015610f7c573d6000803e3d6000fd5b505050506040513d6000823e601f3d908101601f19168201604052610fa49190810190611ea3565b600154604051633fa7cafd60e11b8152949850929650945060009350506001600160a01b031690637f4f95fa90610ff6908f9081906004016001600160a01b0392831681529116602082015260400190565b606060405180830381865afa158015611013573d6000803e3d6000fd5b505050506040513d601f19601f820116820180604052508101906110379190611fac565b50909650905080156110495760009594505b8383836110558f61051c565b9950995099509950505050509295509295509295565b60006110756116a9565b6002543410156110d65760405162461bcd60e51b815260206004820152602660248201527f506c65617365207374616b65206d696e696d756d2076616c696461746f72207360448201526574616b696e6760d01b6064820152608401610d49565b600160009054906101000a90046001600160a01b03166001600160a01b031663a406fcb7348e8e8e8e8e8e8e8e8e8e8e6040518d63ffffffff1660e01b815260040161112c9b9a99989796959493929190612025565b60206040518083038185885af115801561114a573d6000803e3d6000fd5b50505050506040513d601f19601f8201168201806040525081019061116f9190611fda565b5060408051338152346020820152428183015290517f5af417134f72a9d41143ace85b0a26dce6f550f894f2cbc1eeee8810603d91b69181900360600190a15060019b9a5050505050505050505050565b6111c86115ff565b47600560008282546111da9190611dde565b909155505060405133904780156108fc02916000818181858888f1935050505015801561120b573d6000803e3d6000fd5b50565b60015460408051635f322b4960e11b815290516000926001600160a01b03169163be6456929160048083019260209291908290030181865afa158015611258573d6000803e3d6000fd5b505050506040513d601f19601f8201168201806040525081019061127c9190611f93565b905090565b600154604051633fa7cafd60e11b81526001600160a01b03848116600483015283811660248301526000928392911690637f4f95fa90604401606060405180830381865afa1580156112d7573d6000803e3d6000fd5b505050506040513d601f19601f820116820180604052508101906112fb9190611fac565b5091505080600003611311576000915050610509565b60015460408051631b6f1ba560e31b8152905143926001600160a01b03169163db78dd289160048083019260209291908290030181865afa15801561135a573d6000803e3d6000fd5b505050506040513d601f19601f8201168201806040525081019061137e91906120ae565b611391906001600160401b0316836117c9565b11156114345760015460408051631b6f1ba560e31b8152905143926001600160a01b03169163db78dd289160048083019260209291908290030181865afa1580156113e0573d6000803e3d6000fd5b505050506040513d601f19601f8201168201806040525081019061140491906120ae565b611417906001600160401b0316836117c9565b6114219190611dde565b61142c906002611df1565b915050610509565b5060009392505050565b600080600160009054906101000a90046001600160a01b03166001600160a01b031663be6456926040518163ffffffff1660e01b8152600401602060405180830381865afa158015611494573d6000803e3d6000fd5b505050506040513d601f19601f820116820180604052508101906114b89190611f93565b6114c28585611281565b915091505b9250929050565b60006114d86116a9565b60015460405163f2888dbb60e01b81526001600160a01b0384811660048301529091169063f2888dbb906024016020604051808303816000875af1158015611524573d6000803e3d6000fd5b505050506040513d601f19601f820116820180604052508101906115489190611fda565b50604080513381524260208201527f85082129d87b2fe11527cb1b3b7a520aeb5aa6913f88a3d8757fe40d1db02fdd910160405180910390a1506001919050565b6115916115ff565b6001600160a01b0381166115f65760405162461bcd60e51b815260206004820152602660248201527f4f776e61626c653a206e6577206f776e657220697320746865207a65726f206160448201526564647265737360d01b6064820152608401610d49565b61120b81611659565b6000546001600160a01b03163314610cf35760405162461bcd60e51b815260206004820181905260248201527f4f776e61626c653a2063616c6c6572206973206e6f7420746865206f776e65726044820152606401610d49565b600080546001600160a01b038381166001600160a01b0319831681178455604051919092169283917f8be0079c531659141344cd1fd0a4f28419497f9722a3daafe3b4186f6b6457e09190a35050565b6001546040805163afeea11560e01b815290516000926001600160a01b03169163afeea11591600480830192869291908290030181865afa1580156116f2573d6000803e3d6000fd5b505050506040513d6000823e601f3d908101601f1916820160405261171a9190810190611da2565b805190915060005b818160ff1610156117aa57611752838260ff168151811061174557611745611e2a565b602002602001015161051c565b60066000858460ff168151811061176b5761176b611e2a565b60200260200101516001600160a01b03166001600160a01b031681526020019081526020016000208190555080806117a290611f74565b915050611722565b50504360035550565b634e487b7160e01b600052601160045260246000fd5b80820180821115610509576105096117b3565b6001600160a01b038116811461120b57600080fd5b6000806040838503121561180457600080fd5b823561180f816117dc565b9150602083013561181f816117dc565b809150509250929050565b60006020828403121561183c57600080fd5b5035919050565b60006020828403121561185557600080fd5b813561070f816117dc565b634e487b7160e01b600052602160045260246000fd5b6005811061189457634e487b7160e01b600052602160045260246000fd5b9052565b600081518084526020808501945080840160005b838110156118cf576118bf878351611876565b95820195908201906001016118ac565b509495945050505050565b600081518084526020808501945080840160005b838110156118cf578151875295820195908201906001016118ee565b60005b8381101561192557818101518382015260200161190d565b50506000910152565b6000815180845261194681602086016020860161190a565b601f01601f19169290920160200192915050565b600081518084526020808501808196508360051b8101915082860160005b858110156119a257828403895261199084835161192e565b98850198935090840190600101611978565b5091979650505050505050565b600060e082018983526020898185015260e0604085015281895180845261010086019150828b01935060005b81811015611a005784516001600160a01b0316835293830193918301916001016119db565b50508481036060860152611a14818a611898565b925050508281036080840152611a2a81876118da565b905082810360a0840152611a3e818661195a565b905082810360c0840152611a52818561195a565b9a9950505050505050505050565b86815260c08101611a746020830188611876565b6040820195909552606081019390935260808301919091526001600160a01b031660a09091015292915050565b60c081526000611ab460c083018961192e565b8281036020840152611ac6818961192e565b90508281036040840152611ada818861192e565b60608401969096525050608081019290925260a0909101529392505050565b8035611b04816117dc565b919050565b60008083601f840112611b1b57600080fd5b5081356001600160401b03811115611b3257600080fd5b6020830191508360208285010111156114c757600080fd5b600080600080600080600080600080600060c08c8e031215611b6b57600080fd5b611b748c611af9565b9a506001600160401b038060208e01351115611b8f57600080fd5b611b9f8e60208f01358f01611b09565b909b50995060408d0135811015611bb557600080fd5b611bc58e60408f01358f01611b09565b909950975060608d0135811015611bdb57600080fd5b611beb8e60608f01358f01611b09565b909750955060808d0135811015611c0157600080fd5b611c118e60808f01358f01611b09565b909550935060a08d0135811015611c2757600080fd5b50611c388d60a08e01358e01611b09565b81935080925050509295989b509295989b9093969950565b634e487b7160e01b600052604160045260246000fd5b604051601f8201601f191681016001600160401b0381118282101715611c8e57611c8e611c50565b604052919050565b600082601f830112611ca757600080fd5b815160206001600160401b03821115611cc257611cc2611c50565b8160051b611cd1828201611c66565b9283528481018201928281019087851115611ceb57600080fd5b83870192505b84831015611d13578251611d04816117dc565b82529183019190830190611cf1565b979650505050505050565b60008060008060008060c08789031215611d3757600080fd5b8651611d42816117dc565b602088015190965060058110611d5757600080fd5b8095505060408701519350606087015192506080870151915060a08701516001600160401b03811115611d8957600080fd5b611d9589828a01611c96565b9150509295509295509295565b600060208284031215611db457600080fd5b81516001600160401b03811115611dca57600080fd5b611dd684828501611c96565b949350505050565b81810381811115610509576105096117b3565b8082028115828204841417610509576105096117b3565b600082611e2557634e487b7160e01b600052601260045260246000fd5b500490565b634e487b7160e01b600052603260045260246000fd5b600082601f830112611e5157600080fd5b81516001600160401b03811115611e6a57611e6a611c50565b611e7d601f8201601f1916602001611c66565b818152846020838601011115611e9257600080fd5b611dd682602083016020870161190a565b600080600080600060a08688031215611ebb57600080fd5b85516001600160401b0380821115611ed257600080fd5b611ede89838a01611e40565b96506020880151915080821115611ef457600080fd5b611f0089838a01611e40565b95506040880151915080821115611f1657600080fd5b611f2289838a01611e40565b94506060880151915080821115611f3857600080fd5b611f4489838a01611e40565b93506080880151915080821115611f5a57600080fd5b50611f6788828901611e40565b9150509295509295909350565b600060ff821660ff8103611f8a57611f8a6117b3565b60010192915050565b600060208284031215611fa557600080fd5b5051919050565b600080600060608486031215611fc157600080fd5b8351925060208401519150604084015190509250925092565b600060208284031215611fec57600080fd5b8151801515811461070f57600080fd5b81835281816020850137506000828201602090810191909152601f909101601f19169091010190565b6001600160a01b038c16815260c06020820181905260009061204a9083018c8e611ffc565b828103604084015261205d818b8d611ffc565b9050828103606084015261207281898b611ffc565b90508281036080840152612087818789611ffc565b905082810360a084015261209c818587611ffc565b9e9d5050505050505050505050505050565b6000602082840312156120c057600080fd5b81516001600160401b038116811461070f57600080fdfea2646970667358221220230b6ce9bb25aede1e5673bc1c9acdf5527f45c3edeb6b8d4d224d342ccae0b664736f6c63430008130033",
					"opcodes": "PUSH1 0x80 PUSH1 0x40 MSTORE PUSH1 0x1 DUP1 SLOAD PUSH1 0x1 PUSH1 0x1 PUSH1 0xA0 SHL SUB NOT AND PUSH2 0xF000 OR SWAP1 SSTORE PUSH10 0xD3C21BCECCEDA1000000 PUSH1 0x2 SSTORE PUSH8 0xDE0B6B3A7640000 PUSH1 0x4 SSTORE CALLVALUE DUP1 ISZERO PUSH2 0x3E JUMPI PUSH1 0x0 DUP1 REVERT JUMPDEST POP PUSH2 0x48 CALLER PUSH2 0x4D JUMP JUMPDEST PUSH2 0x9D JUMP JUMPDEST PUSH1 0x0 DUP1 SLOAD PUSH1 0x1 PUSH1 0x1 PUSH1 0xA0 SHL SUB DUP4 DUP2 AND PUSH1 0x1 PUSH1 0x1 PUSH1 0xA0 SHL SUB NOT DUP4 AND DUP2 OR DUP5 SSTORE PUSH1 0x40 MLOAD SWAP2 SWAP1 SWAP3 AND SWAP3 DUP4 SWAP2 PUSH32 0x8BE0079C531659141344CD1FD0A4F28419497F9722A3DAAFE3B4186F6B6457E0 SWAP2 SWAP1 LOG3 POP POP JUMP JUMPDEST PUSH2 0x210D DUP1 PUSH2 0xAC PUSH1 0x0 CODECOPY PUSH1 0x0 RETURN INVALID PUSH1 0x80 PUSH1 0x40 MSTORE PUSH1 0x4 CALLDATASIZE LT PUSH2 0x185 JUMPI PUSH1 0x0 CALLDATALOAD PUSH1 0xE0 SHR DUP1 PUSH4 0x8AE53DBD GT PUSH2 0xD1 JUMPI DUP1 PUSH4 0xB0D2D011 GT PUSH2 0x8A JUMPI DUP1 PUSH4 0xEFE22266 GT PUSH2 0x64 JUMPI DUP1 PUSH4 0xEFE22266 EQ PUSH2 0x483 JUMPI DUP1 PUSH4 0xF188DF2B EQ PUSH2 0x499 JUMPI DUP1 PUSH4 0xF2888DBB EQ PUSH2 0x4C6 JUMPI DUP1 PUSH4 0xF2FDE38B EQ PUSH2 0x4E6 JUMPI PUSH1 0x0 DUP1 REVERT JUMPDEST DUP1 PUSH4 0xB0D2D011 EQ PUSH2 0x419 JUMPI DUP1 PUSH4 0xD4AA673B EQ PUSH2 0x42E JUMPI DUP1 PUSH4 0xE1B6D9D4 EQ PUSH2 0x44E JUMPI PUSH1 0x0 DUP1 REVERT JUMPDEST DUP1 PUSH4 0x8AE53DBD EQ PUSH2 0x357 JUMPI DUP1 PUSH4 0x8DA5CB5B EQ PUSH2 0x36D JUMPI DUP1 PUSH4 0x90EFE56D EQ PUSH2 0x39F JUMPI DUP1 PUSH4 0xA406FCB7 EQ PUSH2 0x3D1 JUMPI DUP1 PUSH4 0xAFBBC803 EQ PUSH2 0x3E4 JUMPI DUP1 PUSH4 0xB0806108 EQ PUSH2 0x404 JUMPI PUSH1 0x0 DUP1 REVERT JUMPDEST DUP1 PUSH4 0x58AE4E99 GT PUSH2 0x13E JUMPI DUP1 PUSH4 0x715018A6 GT PUSH2 0x118 JUMPI DUP1 PUSH4 0x715018A6 EQ PUSH2 0x2D1 JUMPI DUP1 PUSH4 0x72D30A70 EQ PUSH2 0x2E6 JUMPI DUP1 PUSH4 0x797327AE EQ PUSH2 0x306 JUMPI DUP1 PUSH4 0x7FC5E1E5 EQ PUSH2 0x337 JUMPI PUSH1 0x0 DUP1 REVERT JUMPDEST DUP1 PUSH4 0x58AE4E99 EQ PUSH2 0x1D2 JUMPI DUP1 PUSH4 0x64877981 EQ PUSH2 0x272 JUMPI DUP1 PUSH4 0x67B40CF7 EQ PUSH2 0x2A4 JUMPI PUSH1 0x0 DUP1 REVERT JUMPDEST DUP1 PUSH4 0x976C65D EQ PUSH2 0x1A9 JUMPI DUP1 PUSH4 0x14306168 EQ PUSH2 0x1D2 JUMPI DUP1 PUSH4 0x1D06022C EQ PUSH2 0x1F2 JUMPI DUP1 PUSH4 0x1E724CAA EQ PUSH2 0x214 JUMPI DUP1 PUSH4 0x3F8DC65A EQ PUSH2 0x234 JUMPI DUP1 PUSH4 0x4CC67B5B EQ PUSH2 0x25C JUMPI PUSH1 0x0 DUP1 REVERT JUMPDEST CALLDATASIZE PUSH2 0x1A4 JUMPI CALLVALUE PUSH1 0x5 PUSH1 0x0 DUP3 DUP3 SLOAD PUSH2 0x19C SWAP2 SWAP1 PUSH2 0x17C9 JUMP JUMPDEST SWAP3 POP POP DUP2 SWAP1 SSTORE STOP JUMPDEST PUSH1 0x0 DUP1 REVERT JUMPDEST CALLVALUE DUP1 ISZERO PUSH2 0x1B5 JUMPI PUSH1 0x0 DUP1 REVERT JUMPDEST POP PUSH2 0x1BF PUSH1 0x2 SLOAD DUP2 JUMP JUMPDEST PUSH1 0x40 MLOAD SWAP1 DUP2 MSTORE PUSH1 0x20 ADD JUMPDEST PUSH1 0x40 MLOAD DUP1 SWAP2 SUB SWAP1 RETURN JUMPDEST CALLVALUE DUP1 ISZERO PUSH2 0x1DE JUMPI PUSH1 0x0 DUP1 REVERT JUMPDEST POP PUSH2 0x1BF PUSH2 0x1ED CALLDATASIZE PUSH1 0x4 PUSH2 0x17F1 JUMP JUMPDEST PUSH2 0x506 JUMP JUMPDEST CALLVALUE DUP1 ISZERO PUSH2 0x1FE JUMPI PUSH1 0x0 DUP1 REVERT JUMPDEST POP PUSH2 0x212 PUSH2 0x20D CALLDATASIZE PUSH1 0x4 PUSH2 0x182A JUMP JUMPDEST PUSH2 0x50F JUMP JUMPDEST STOP JUMPDEST CALLVALUE DUP1 ISZERO PUSH2 0x220 JUMPI PUSH1 0x0 DUP1 REVERT JUMPDEST POP PUSH2 0x1BF PUSH2 0x22F CALLDATASIZE PUSH1 0x4 PUSH2 0x1843 JUMP JUMPDEST PUSH2 0x51C JUMP JUMPDEST CALLVALUE DUP1 ISZERO PUSH2 0x240 JUMPI PUSH1 0x0 DUP1 REVERT JUMPDEST POP PUSH2 0x249 PUSH2 0x716 JUMP JUMPDEST PUSH1 0x40 MLOAD PUSH2 0x1C9 SWAP8 SWAP7 SWAP6 SWAP5 SWAP4 SWAP3 SWAP2 SWAP1 PUSH2 0x19AF JUMP JUMPDEST CALLVALUE DUP1 ISZERO PUSH2 0x268 JUMPI PUSH1 0x0 DUP1 REVERT JUMPDEST POP PUSH2 0x1BF PUSH1 0x3 SLOAD DUP2 JUMP JUMPDEST CALLVALUE DUP1 ISZERO PUSH2 0x27E JUMPI PUSH1 0x0 DUP1 REVERT JUMPDEST POP PUSH2 0x292 PUSH2 0x28D CALLDATASIZE PUSH1 0x4 PUSH2 0x17F1 JUMP JUMPDEST PUSH2 0xBB7 JUMP JUMPDEST PUSH1 0x40 MLOAD PUSH2 0x1C9 SWAP7 SWAP6 SWAP5 SWAP4 SWAP3 SWAP2 SWAP1 PUSH2 0x1A60 JUMP JUMPDEST CALLVALUE DUP1 ISZERO PUSH2 0x2B0 JUMPI PUSH1 0x0 DUP1 REVERT JUMPDEST POP PUSH2 0x1BF PUSH2 0x2BF CALLDATASIZE PUSH1 0x4 PUSH2 0x1843 JUMP JUMPDEST PUSH1 0x6 PUSH1 0x20 MSTORE PUSH1 0x0 SWAP1 DUP2 MSTORE PUSH1 0x40 SWAP1 KECCAK256 SLOAD DUP2 JUMP JUMPDEST CALLVALUE DUP1 ISZERO PUSH2 0x2DD JUMPI PUSH1 0x0 DUP1 REVERT JUMPDEST POP PUSH2 0x212 PUSH2 0xCE1 JUMP JUMPDEST CALLVALUE DUP1 ISZERO PUSH2 0x2F2 JUMPI PUSH1 0x0 DUP1 REVERT JUMPDEST POP PUSH2 0x212 PUSH2 0x301 CALLDATASIZE PUSH1 0x4 PUSH2 0x1843 JUMP JUMPDEST PUSH2 0xCF5 JUMP JUMPDEST CALLVALUE DUP1 ISZERO PUSH2 0x312 JUMPI PUSH1 0x0 DUP1 REVERT JUMPDEST POP PUSH2 0x327 PUSH2 0x321 CALLDATASIZE PUSH1 0x4 PUSH2 0x1843 JUMP JUMPDEST POP PUSH1 0x1 SWAP1 JUMP JUMPDEST PUSH1 0x40 MLOAD SWAP1 ISZERO ISZERO DUP2 MSTORE PUSH1 0x20 ADD PUSH2 0x1C9 JUMP JUMPDEST CALLVALUE DUP1 ISZERO PUSH2 0x343 JUMPI PUSH1 0x0 DUP1 REVERT JUMPDEST POP PUSH2 0x1BF PUSH2 0x352 CALLDATASIZE PUSH1 0x4 PUSH2 0x1843 JUMP JUMPDEST PUSH2 0xEF0 JUMP JUMPDEST CALLVALUE DUP1 ISZERO PUSH2 0x363 JUMPI PUSH1 0x0 DUP1 REVERT JUMPDEST POP PUSH2 0x1BF PUSH1 0x4 SLOAD DUP2 JUMP JUMPDEST CALLVALUE DUP1 ISZERO PUSH2 0x379 JUMPI PUSH1 0x0 DUP1 REVERT JUMPDEST POP PUSH1 0x0 SLOAD PUSH1 0x1 PUSH1 0x1 PUSH1 0xA0 SHL SUB AND JUMPDEST PUSH1 0x40 MLOAD PUSH1 0x1 PUSH1 0x1 PUSH1 0xA0 SHL SUB SWAP1 SWAP2 AND DUP2 MSTORE PUSH1 0x20 ADD PUSH2 0x1C9 JUMP JUMPDEST CALLVALUE DUP1 ISZERO PUSH2 0x3AB JUMPI PUSH1 0x0 DUP1 REVERT JUMPDEST POP PUSH2 0x3BF PUSH2 0x3BA CALLDATASIZE PUSH1 0x4 PUSH2 0x17F1 JUMP JUMPDEST PUSH2 0xF1E JUMP JUMPDEST PUSH1 0x40 MLOAD PUSH2 0x1C9 SWAP7 SWAP6 SWAP5 SWAP4 SWAP3 SWAP2 SWAP1 PUSH2 0x1AA1 JUMP JUMPDEST PUSH2 0x327 PUSH2 0x3DF CALLDATASIZE PUSH1 0x4 PUSH2 0x1B4A JUMP JUMPDEST PUSH2 0x106B JUMP JUMPDEST CALLVALUE DUP1 ISZERO PUSH2 0x3F0 JUMPI PUSH1 0x0 DUP1 REVERT JUMPDEST POP PUSH1 0x1 SLOAD PUSH2 0x387 SWAP1 PUSH1 0x1 PUSH1 0x1 PUSH1 0xA0 SHL SUB AND DUP2 JUMP JUMPDEST CALLVALUE DUP1 ISZERO PUSH2 0x410 JUMPI PUSH1 0x0 DUP1 REVERT JUMPDEST POP PUSH2 0x212 PUSH2 0x11C0 JUMP JUMPDEST CALLVALUE DUP1 ISZERO PUSH2 0x425 JUMPI PUSH1 0x0 DUP1 REVERT JUMPDEST POP PUSH2 0x1BF PUSH2 0x120E JUMP JUMPDEST CALLVALUE DUP1 ISZERO PUSH2 0x43A JUMPI PUSH1 0x0 DUP1 REVERT JUMPDEST POP PUSH2 0x1BF PUSH2 0x449 CALLDATASIZE PUSH1 0x4 PUSH2 0x17F1 JUMP JUMPDEST PUSH2 0x1281 JUMP JUMPDEST CALLVALUE DUP1 ISZERO PUSH2 0x45A JUMPI PUSH1 0x0 DUP1 REVERT JUMPDEST POP PUSH2 0x46E PUSH2 0x469 CALLDATASIZE PUSH1 0x4 PUSH2 0x17F1 JUMP JUMPDEST PUSH2 0x143E JUMP JUMPDEST PUSH1 0x40 DUP1 MLOAD SWAP3 DUP4 MSTORE PUSH1 0x20 DUP4 ADD SWAP2 SWAP1 SWAP2 MSTORE ADD PUSH2 0x1C9 JUMP JUMPDEST CALLVALUE DUP1 ISZERO PUSH2 0x48F JUMPI PUSH1 0x0 DUP1 REVERT JUMPDEST POP PUSH2 0x1BF PUSH1 0x5 SLOAD DUP2 JUMP JUMPDEST CALLVALUE DUP1 ISZERO PUSH2 0x4A5 JUMPI PUSH1 0x0 DUP1 REVERT JUMPDEST POP PUSH2 0x1BF PUSH2 0x4B4 CALLDATASIZE PUSH1 0x4 PUSH2 0x1843 JUMP JUMPDEST PUSH1 0x7 PUSH1 0x20 MSTORE PUSH1 0x0 SWAP1 DUP2 MSTORE PUSH1 0x40 SWAP1 KECCAK256 SLOAD DUP2 JUMP JUMPDEST CALLVALUE DUP1 ISZERO PUSH2 0x4D2 JUMPI PUSH1 0x0 DUP1 REVERT JUMPDEST POP PUSH2 0x327 PUSH2 0x4E1 CALLDATASIZE PUSH1 0x4 PUSH2 0x1843 JUMP JUMPDEST PUSH2 0x14CE JUMP JUMPDEST CALLVALUE DUP1 ISZERO PUSH2 0x4F2 JUMPI PUSH1 0x0 DUP1 REVERT JUMPDEST POP PUSH2 0x212 PUSH2 0x501 CALLDATASIZE PUSH1 0x4 PUSH2 0x1843 JUMP JUMPDEST PUSH2 0x1589 JUMP JUMPDEST PUSH1 0x0 JUMPDEST SWAP3 SWAP2 POP POP JUMP JUMPDEST PUSH2 0x517 PUSH2 0x15FF JUMP JUMPDEST PUSH1 0x2 SSTORE JUMP JUMPDEST PUSH1 0x1 SLOAD PUSH1 0x40 MLOAD PUSH4 0x8A11D7C9 PUSH1 0xE0 SHL DUP2 MSTORE PUSH1 0x1 PUSH1 0x1 PUSH1 0xA0 SHL SUB DUP4 DUP2 AND PUSH1 0x4 DUP4 ADD MSTORE PUSH1 0x0 SWAP3 DUP4 SWAP3 SWAP2 AND SWAP1 PUSH4 0x8A11D7C9 SWAP1 PUSH1 0x24 ADD PUSH1 0x0 PUSH1 0x40 MLOAD DUP1 DUP4 SUB DUP2 DUP7 GAS STATICCALL ISZERO DUP1 ISZERO PUSH2 0x56A JUMPI RETURNDATASIZE PUSH1 0x0 DUP1 RETURNDATACOPY RETURNDATASIZE PUSH1 0x0 REVERT JUMPDEST POP POP POP POP PUSH1 0x40 MLOAD RETURNDATASIZE PUSH1 0x0 DUP3 RETURNDATACOPY PUSH1 0x1F RETURNDATASIZE SWAP1 DUP2 ADD PUSH1 0x1F NOT AND DUP3 ADD PUSH1 0x40 MSTORE PUSH2 0x592 SWAP2 SWAP1 DUP2 ADD SWAP1 PUSH2 0x1D1E JUMP JUMPDEST POP SWAP3 SWAP5 POP PUSH1 0x4 SWAP4 POP PUSH2 0x5A3 SWAP3 POP POP POP JUMP JUMPDEST DUP2 PUSH1 0x4 DUP2 GT ISZERO PUSH2 0x5B5 JUMPI PUSH2 0x5B5 PUSH2 0x1860 JUMP JUMPDEST EQ DUP1 PUSH2 0x5D2 JUMPI POP PUSH1 0x0 DUP2 PUSH1 0x4 DUP2 GT ISZERO PUSH2 0x5D0 JUMPI PUSH2 0x5D0 PUSH2 0x1860 JUMP JUMPDEST EQ JUMPDEST DUP1 PUSH2 0x5EE JUMPI POP PUSH1 0x1 DUP2 PUSH1 0x4 DUP2 GT ISZERO PUSH2 0x5EC JUMPI PUSH2 0x5EC PUSH2 0x1860 JUMP JUMPDEST EQ JUMPDEST ISZERO PUSH2 0x5FC JUMPI POP PUSH1 0x0 SWAP3 SWAP2 POP POP JUMP JUMPDEST PUSH1 0x4 SLOAD PUSH1 0x5 SLOAD LT ISZERO DUP1 ISZERO PUSH2 0x611 JUMPI POP PUSH1 0x4 SLOAD SELFBALANCE GT JUMPDEST DUP1 ISZERO PUSH2 0x62F JUMPI POP PUSH1 0x3 DUP2 PUSH1 0x4 DUP2 GT ISZERO PUSH2 0x62C JUMPI PUSH2 0x62C PUSH2 0x1860 JUMP JUMPDEST EQ ISZERO JUMPDEST ISZERO PUSH2 0x6EB JUMPI PUSH1 0x1 SLOAD PUSH1 0x40 DUP1 MLOAD PUSH4 0xAFEEA115 PUSH1 0xE0 SHL DUP2 MSTORE SWAP1 MLOAD PUSH1 0x0 SWAP3 PUSH1 0x1 PUSH1 0x1 PUSH1 0xA0 SHL SUB AND SWAP2 PUSH4 0xAFEEA115 SWAP2 PUSH1 0x4 DUP1 DUP4 ADD SWAP3 DUP7 SWAP3 SWAP2 SWAP1 DUP3 SWAP1 SUB ADD DUP2 DUP7 GAS STATICCALL ISZERO DUP1 ISZERO PUSH2 0x67D JUMPI RETURNDATASIZE PUSH1 0x0 DUP1 RETURNDATACOPY RETURNDATASIZE PUSH1 0x0 REVERT JUMPDEST POP POP POP POP PUSH1 0x40 MLOAD RETURNDATASIZE PUSH1 0x0 DUP3 RETURNDATACOPY PUSH1 0x1F RETURNDATASIZE SWAP1 DUP2 ADD PUSH1 0x1F NOT AND DUP3 ADD PUSH1 0x40 MSTORE PUSH2 0x6A5 SWAP2 SWAP1 DUP2 ADD SWAP1 PUSH2 0x1DA2 JUMP JUMPDEST DUP1 MLOAD PUSH1 0x3 SLOAD SWAP2 SWAP3 POP SWAP1 DUP2 SWAP1 PUSH2 0x6BA SWAP1 NUMBER PUSH2 0x1DDE JUMP JUMPDEST LT PUSH2 0x6E8 JUMPI DUP1 PUSH1 0x4 SLOAD PUSH1 0x3 SLOAD NUMBER PUSH2 0x6D1 SWAP2 SWAP1 PUSH2 0x1DDE JUMP JUMPDEST PUSH2 0x6DB SWAP2 SWAP1 PUSH2 0x1DF1 JUMP JUMPDEST PUSH2 0x6E5 SWAP2 SWAP1 PUSH2 0x1E08 JUMP JUMPDEST SWAP4 POP JUMPDEST POP POP JUMPDEST PUSH1 0x1 PUSH1 0x1 PUSH1 0xA0 SHL SUB DUP4 AND PUSH1 0x0 SWAP1 DUP2 MSTORE PUSH1 0x6 PUSH1 0x20 MSTORE PUSH1 0x40 SWAP1 KECCAK256 SLOAD PUSH2 0x70F SWAP1 DUP4 SWAP1 PUSH2 0x17C9 JUMP JUMPDEST SWAP4 SWAP3 POP POP POP JUMP JUMPDEST PUSH1 0x0 DUP1 PUSH1 0x60 DUP1 PUSH1 0x60 DUP1 PUSH1 0x60 PUSH1 0x0 PUSH1 0x1 PUSH1 0x0 SWAP1 SLOAD SWAP1 PUSH2 0x100 EXP SWAP1 DIV PUSH1 0x1 PUSH1 0x1 PUSH1 0xA0 SHL SUB AND PUSH1 0x1 PUSH1 0x1 PUSH1 0xA0 SHL SUB AND PUSH4 0xAFEEA115 PUSH1 0x40 MLOAD DUP2 PUSH4 0xFFFFFFFF AND PUSH1 0xE0 SHL DUP2 MSTORE PUSH1 0x4 ADD PUSH1 0x0 PUSH1 0x40 MLOAD DUP1 DUP4 SUB DUP2 DUP7 GAS STATICCALL ISZERO DUP1 ISZERO PUSH2 0x776 JUMPI RETURNDATASIZE PUSH1 0x0 DUP1 RETURNDATACOPY RETURNDATASIZE PUSH1 0x0 REVERT JUMPDEST POP POP POP POP PUSH1 0x40 MLOAD RETURNDATASIZE PUSH1 0x0 DUP3 RETURNDATACOPY PUSH1 0x1F RETURNDATASIZE SWAP1 DUP2 ADD PUSH1 0x1F NOT AND DUP3 ADD PUSH1 0x40 MSTORE PUSH2 0x79E SWAP2 SWAP1 DUP2 ADD SWAP1 PUSH2 0x1DA2 JUMP JUMPDEST DUP1 MLOAD SWAP1 SWAP2 POP PUSH1 0x0 DUP1 DUP3 PUSH1 0x1 PUSH1 0x1 PUSH1 0x40 SHL SUB DUP2 GT ISZERO PUSH2 0x7BE JUMPI PUSH2 0x7BE PUSH2 0x1C50 JUMP JUMPDEST PUSH1 0x40 MLOAD SWAP1 DUP1 DUP3 MSTORE DUP1 PUSH1 0x20 MUL PUSH1 0x20 ADD DUP3 ADD PUSH1 0x40 MSTORE DUP1 ISZERO PUSH2 0x7E7 JUMPI DUP2 PUSH1 0x20 ADD PUSH1 0x20 DUP3 MUL DUP1 CALLDATASIZE DUP4 CALLDATACOPY ADD SWAP1 POP JUMPDEST POP SWAP1 POP PUSH1 0x0 DUP4 PUSH1 0x1 PUSH1 0x1 PUSH1 0x40 SHL SUB DUP2 GT ISZERO PUSH2 0x804 JUMPI PUSH2 0x804 PUSH2 0x1C50 JUMP JUMPDEST PUSH1 0x40 MLOAD SWAP1 DUP1 DUP3 MSTORE DUP1 PUSH1 0x20 MUL PUSH1 0x20 ADD DUP3 ADD PUSH1 0x40 MSTORE DUP1 ISZERO PUSH2 0x82D JUMPI DUP2 PUSH1 0x20 ADD PUSH1 0x20 DUP3 MUL DUP1 CALLDATASIZE DUP4 CALLDATACOPY ADD SWAP1 POP JUMPDEST POP SWAP1 POP PUSH1 0x0 DUP5 PUSH1 0x1 PUSH1 0x1 PUSH1 0x40 SHL SUB DUP2 GT ISZERO PUSH2 0x84A JUMPI PUSH2 0x84A PUSH2 0x1C50 JUMP JUMPDEST PUSH1 0x40 MLOAD SWAP1 DUP1 DUP3 MSTORE DUP1 PUSH1 0x20 MUL PUSH1 0x20 ADD DUP3 ADD PUSH1 0x40 MSTORE DUP1 ISZERO PUSH2 0x87D JUMPI DUP2 PUSH1 0x20 ADD JUMPDEST PUSH1 0x60 DUP2 MSTORE PUSH1 0x20 ADD SWAP1 PUSH1 0x1 SWAP1 SUB SWAP1 DUP2 PUSH2 0x868 JUMPI SWAP1 POP JUMPDEST POP SWAP1 POP PUSH1 0x0 DUP6 PUSH1 0x1 PUSH1 0x1 PUSH1 0x40 SHL SUB DUP2 GT ISZERO PUSH2 0x89A JUMPI PUSH2 0x89A PUSH2 0x1C50 JUMP JUMPDEST PUSH1 0x40 MLOAD SWAP1 DUP1 DUP3 MSTORE DUP1 PUSH1 0x20 MUL PUSH1 0x20 ADD DUP3 ADD PUSH1 0x40 MSTORE DUP1 ISZERO PUSH2 0x8CD JUMPI DUP2 PUSH1 0x20 ADD JUMPDEST PUSH1 0x60 DUP2 MSTORE PUSH1 0x20 ADD SWAP1 PUSH1 0x1 SWAP1 SUB SWAP1 DUP2 PUSH2 0x8B8 JUMPI SWAP1 POP JUMPDEST POP SWAP1 POP PUSH1 0x0 JUMPDEST DUP7 DUP2 PUSH1 0xFF AND LT ISZERO PUSH2 0xB1C JUMPI PUSH1 0x1 SLOAD DUP9 MLOAD PUSH1 0x0 SWAP2 DUP3 SWAP2 PUSH1 0x1 PUSH1 0x1 PUSH1 0xA0 SHL SUB SWAP1 SWAP2 AND SWAP1 PUSH4 0x8A11D7C9 SWAP1 DUP13 SWAP1 PUSH1 0xFF DUP8 AND SWAP1 DUP2 LT PUSH2 0x90F JUMPI PUSH2 0x90F PUSH2 0x1E2A JUMP JUMPDEST PUSH1 0x20 MUL PUSH1 0x20 ADD ADD MLOAD PUSH1 0x40 MLOAD DUP3 PUSH4 0xFFFFFFFF AND PUSH1 0xE0 SHL DUP2 MSTORE PUSH1 0x4 ADD PUSH2 0x942 SWAP2 SWAP1 PUSH1 0x1 PUSH1 0x1 PUSH1 0xA0 SHL SUB SWAP2 SWAP1 SWAP2 AND DUP2 MSTORE PUSH1 0x20 ADD SWAP1 JUMP JUMPDEST PUSH1 0x0 PUSH1 0x40 MLOAD DUP1 DUP4 SUB DUP2 DUP7 GAS STATICCALL ISZERO DUP1 ISZERO PUSH2 0x95F JUMPI RETURNDATASIZE PUSH1 0x0 DUP1 RETURNDATACOPY RETURNDATASIZE PUSH1 0x0 REVERT JUMPDEST POP POP POP POP PUSH1 0x40 MLOAD RETURNDATASIZE PUSH1 0x0 DUP3 RETURNDATACOPY PUSH1 0x1F RETURNDATASIZE SWAP1 DUP2 ADD PUSH1 0x1F NOT AND DUP3 ADD PUSH1 0x40 MSTORE PUSH2 0x987 SWAP2 SWAP1 DUP2 ADD SWAP1 PUSH2 0x1D1E JUMP JUMPDEST POP POP POP SWAP3 POP SWAP3 POP POP PUSH1 0x0 DUP2 GT ISZERO PUSH2 0xAF9 JUMPI PUSH1 0x1 SLOAD DUP11 MLOAD PUSH1 0x0 SWAP2 DUP3 SWAP2 PUSH1 0x1 PUSH1 0x1 PUSH1 0xA0 SHL SUB SWAP1 SWAP2 AND SWAP1 PUSH4 0xA43569B3 SWAP1 DUP15 SWAP1 PUSH1 0xFF DUP10 AND SWAP1 DUP2 LT PUSH2 0x9C9 JUMPI PUSH2 0x9C9 PUSH2 0x1E2A JUMP JUMPDEST PUSH1 0x20 MUL PUSH1 0x20 ADD ADD MLOAD PUSH1 0x40 MLOAD DUP3 PUSH4 0xFFFFFFFF AND PUSH1 0xE0 SHL DUP2 MSTORE PUSH1 0x4 ADD PUSH2 0x9FC SWAP2 SWAP1 PUSH1 0x1 PUSH1 0x1 PUSH1 0xA0 SHL SUB SWAP2 SWAP1 SWAP2 AND DUP2 MSTORE PUSH1 0x20 ADD SWAP1 JUMP JUMPDEST PUSH1 0x0 PUSH1 0x40 MLOAD DUP1 DUP4 SUB DUP2 DUP7 GAS STATICCALL ISZERO DUP1 ISZERO PUSH2 0xA19 JUMPI RETURNDATASIZE PUSH1 0x0 DUP1 RETURNDATACOPY RETURNDATASIZE PUSH1 0x0 REVERT JUMPDEST POP POP POP POP PUSH1 0x40 MLOAD RETURNDATASIZE PUSH1 0x0 DUP3 RETURNDATACOPY PUSH1 0x1F RETURNDATASIZE SWAP1 DUP2 ADD PUSH1 0x1F NOT AND DUP3 ADD PUSH1 0x40 MSTORE PUSH2 0xA41 SWAP2 SWAP1 DUP2 ADD SWAP1 PUSH2 0x1EA3 JUMP JUMPDEST POP POP SWAP3 POP SWAP3 POP POP DUP4 DUP10 DUP7 PUSH1 0xFF AND DUP2 MLOAD DUP2 LT PUSH2 0xA5E JUMPI PUSH2 0xA5E PUSH2 0x1E2A JUMP JUMPDEST PUSH1 0x20 MUL PUSH1 0x20 ADD ADD SWAP1 PUSH1 0x4 DUP2 GT ISZERO PUSH2 0xA77 JUMPI PUSH2 0xA77 PUSH2 0x1860 JUMP JUMPDEST SWAP1 DUP2 PUSH1 0x4 DUP2 GT ISZERO PUSH2 0xA8A JUMPI PUSH2 0xA8A PUSH2 0x1860 JUMP JUMPDEST DUP2 MSTORE POP POP DUP3 DUP9 DUP7 PUSH1 0xFF AND DUP2 MLOAD DUP2 LT PUSH2 0xAA4 JUMPI PUSH2 0xAA4 PUSH2 0x1E2A JUMP JUMPDEST PUSH1 0x20 MUL PUSH1 0x20 ADD ADD DUP2 DUP2 MSTORE POP POP DUP2 DUP8 DUP7 PUSH1 0xFF AND DUP2 MLOAD DUP2 LT PUSH2 0xAC6 JUMPI PUSH2 0xAC6 PUSH2 0x1E2A JUMP JUMPDEST PUSH1 0x20 MUL PUSH1 0x20 ADD ADD DUP2 SWAP1 MSTORE POP DUP1 DUP7 DUP7 PUSH1 0xFF AND DUP2 MLOAD DUP2 LT PUSH2 0xAE7 JUMPI PUSH2 0xAE7 PUSH2 0x1E2A JUMP JUMPDEST PUSH1 0x20 MUL PUSH1 0x20 ADD ADD DUP2 SWAP1 MSTORE POP POP POP PUSH2 0xB07 JUMP JUMPDEST PUSH2 0xB04 PUSH1 0x1 DUP10 PUSH2 0x17C9 JUMP JUMPDEST SWAP8 POP JUMPDEST POP POP DUP1 DUP1 PUSH2 0xB14 SWAP1 PUSH2 0x1F74 JUMP JUMPDEST SWAP2 POP POP PUSH2 0x8D3 JUMP JUMPDEST POP PUSH2 0xB27 DUP6 DUP8 PUSH2 0x1DDE JUMP JUMPDEST PUSH1 0x1 PUSH1 0x0 SWAP1 SLOAD SWAP1 PUSH2 0x100 EXP SWAP1 DIV PUSH1 0x1 PUSH1 0x1 PUSH1 0xA0 SHL SUB AND PUSH1 0x1 PUSH1 0x1 PUSH1 0xA0 SHL SUB AND PUSH4 0x8B0E9F3F PUSH1 0x40 MLOAD DUP2 PUSH4 0xFFFFFFFF AND PUSH1 0xE0 SHL DUP2 MSTORE PUSH1 0x4 ADD PUSH1 0x20 PUSH1 0x40 MLOAD DUP1 DUP4 SUB DUP2 DUP7 GAS STATICCALL ISZERO DUP1 ISZERO PUSH2 0xB7A JUMPI RETURNDATASIZE PUSH1 0x0 DUP1 RETURNDATACOPY RETURNDATASIZE PUSH1 0x0 REVERT JUMPDEST POP POP POP POP PUSH1 0x40 MLOAD RETURNDATASIZE PUSH1 0x1F NOT PUSH1 0x1F DUP3 ADD AND DUP3 ADD DUP1 PUSH1 0x40 MSTORE POP DUP2 ADD SWAP1 PUSH2 0xB9E SWAP2 SWAP1 PUSH2 0x1F93 JUMP JUMPDEST SWAP1 SWAP16 SWAP1 SWAP15 POP SWAP7 SWAP13 POP SWAP3 SWAP11 POP SWAP1 SWAP9 POP SWAP7 POP SWAP5 POP SWAP2 SWAP3 POP POP POP JUMP JUMPDEST PUSH1 0x1 SLOAD PUSH1 0x40 MLOAD PUSH4 0x8A11D7C9 PUSH1 0xE0 SHL DUP2 MSTORE PUSH1 0x1 PUSH1 0x1 PUSH1 0xA0 SHL SUB DUP5 DUP2 AND PUSH1 0x4 DUP4 ADD MSTORE PUSH1 0x0 SWAP3 DUP4 SWAP3 DUP4 SWAP3 DUP4 SWAP3 DUP4 SWAP3 DUP4 SWAP3 PUSH1 0x60 SWAP3 AND SWAP1 PUSH4 0x8A11D7C9 SWAP1 PUSH1 0x24 ADD PUSH1 0x0 PUSH1 0x40 MLOAD DUP1 DUP4 SUB DUP2 DUP7 GAS STATICCALL ISZERO DUP1 ISZERO PUSH2 0xC0F JUMPI RETURNDATASIZE PUSH1 0x0 DUP1 RETURNDATACOPY RETURNDATASIZE PUSH1 0x0 REVERT JUMPDEST POP POP POP POP PUSH1 0x40 MLOAD RETURNDATASIZE PUSH1 0x0 DUP3 RETURNDATACOPY PUSH1 0x1F RETURNDATASIZE SWAP1 DUP2 ADD PUSH1 0x1F NOT AND DUP3 ADD PUSH1 0x40 MSTORE PUSH2 0xC37 SWAP2 SWAP1 DUP2 ADD SWAP1 PUSH2 0x1D1E JUMP JUMPDEST PUSH1 0x1 SLOAD PUSH1 0x40 MLOAD PUSH4 0x3FA7CAFD PUSH1 0xE1 SHL DUP2 MSTORE SWAP5 SWAP14 POP SWAP5 SWAP12 POP SWAP6 POP POP PUSH1 0x1 PUSH1 0x1 PUSH1 0xA0 SHL SUB SWAP1 SWAP3 AND SWAP3 POP PUSH4 0x7F4F95FA SWAP2 POP PUSH2 0xC89 SWAP1 DUP13 SWAP1 DUP2 SWAP1 PUSH1 0x4 ADD PUSH1 0x1 PUSH1 0x1 PUSH1 0xA0 SHL SUB SWAP3 DUP4 AND DUP2 MSTORE SWAP2 AND PUSH1 0x20 DUP3 ADD MSTORE PUSH1 0x40 ADD SWAP1 JUMP JUMPDEST PUSH1 0x60 PUSH1 0x40 MLOAD DUP1 DUP4 SUB DUP2 DUP7 GAS STATICCALL ISZERO DUP1 ISZERO PUSH2 0xCA6 JUMPI RETURNDATASIZE PUSH1 0x0 DUP1 RETURNDATACOPY RETURNDATASIZE PUSH1 0x0 REVERT JUMPDEST POP POP POP POP PUSH1 0x40 MLOAD RETURNDATASIZE PUSH1 0x1F NOT PUSH1 0x1F DUP3 ADD AND DUP3 ADD DUP1 PUSH1 0x40 MSTORE POP DUP2 ADD SWAP1 PUSH2 0xCCA SWAP2 SWAP1 PUSH2 0x1FAC JUMP JUMPDEST POP POP SWAP1 MLOAD SWAP7 SWAP10 SWAP6 SWAP9 POP SWAP7 PUSH1 0x0 SWAP7 SWAP6 SWAP1 SWAP5 POP SWAP3 POP POP POP JUMP JUMPDEST PUSH2 0xCE9 PUSH2 0x15FF JUMP JUMPDEST PUSH2 0xCF3 PUSH1 0x0 PUSH2 0x1659 JUMP JUMPDEST JUMP JUMPDEST PUSH1 0x1 PUSH1 0x1 PUSH1 0xA0 SHL SUB DUP2 AND ORIGIN EQ PUSH2 0xD52 JUMPI PUSH1 0x40 MLOAD PUSH3 0x461BCD PUSH1 0xE5 SHL DUP2 MSTORE PUSH1 0x20 PUSH1 0x4 DUP3 ADD MSTORE PUSH1 0x1F PUSH1 0x24 DUP3 ADD MSTORE PUSH32 0x63616C6C65722073686F756C64206265207265616C2076616C696461746F7200 PUSH1 0x44 DUP3 ADD MSTORE PUSH1 0x64 ADD JUMPDEST PUSH1 0x40 MLOAD DUP1 SWAP2 SUB SWAP1 REVERT JUMPDEST PUSH1 0x0 PUSH2 0xD5D DUP3 PUSH2 0x51C JUMP JUMPDEST SWAP1 POP PUSH1 0x0 DUP2 GT PUSH2 0xDA5 JUMPI PUSH1 0x40 MLOAD PUSH3 0x461BCD PUSH1 0xE5 SHL DUP2 MSTORE PUSH1 0x20 PUSH1 0x4 DUP3 ADD MSTORE PUSH1 0x13 PUSH1 0x24 DUP3 ADD MSTORE PUSH19 0x4E6F7468696E6720746F207769746864726177 PUSH1 0x68 SHL PUSH1 0x44 DUP3 ADD MSTORE PUSH1 0x64 ADD PUSH2 0xD49 JUMP JUMPDEST PUSH2 0xDAD PUSH2 0x16A9 JUMP JUMPDEST PUSH1 0x1 SLOAD PUSH1 0x40 MLOAD PUSH3 0x362A77 PUSH1 0xE0 SHL DUP2 MSTORE PUSH1 0x1 PUSH1 0x1 PUSH1 0xA0 SHL SUB DUP5 DUP2 AND PUSH1 0x4 DUP4 ADD MSTORE SWAP1 SWAP2 AND SWAP1 PUSH3 0x362A77 SWAP1 PUSH1 0x24 ADD PUSH1 0x20 PUSH1 0x40 MLOAD DUP1 DUP4 SUB DUP2 PUSH1 0x0 DUP8 GAS CALL ISZERO DUP1 ISZERO PUSH2 0xDF7 JUMPI RETURNDATASIZE PUSH1 0x0 DUP1 RETURNDATACOPY RETURNDATASIZE PUSH1 0x0 REVERT JUMPDEST POP POP POP POP PUSH1 0x40 MLOAD RETURNDATASIZE PUSH1 0x1F NOT PUSH1 0x1F DUP3 ADD AND DUP3 ADD DUP1 PUSH1 0x40 MSTORE POP DUP2 ADD SWAP1 PUSH2 0xE1B SWAP2 SWAP1 PUSH2 0x1FDA JUMP JUMPDEST POP DUP1 PUSH1 0x5 PUSH1 0x0 DUP3 DUP3 SLOAD PUSH2 0xE2E SWAP2 SWAP1 PUSH2 0x1DDE JUMP JUMPDEST SWAP1 SWAP2 SSTORE POP POP PUSH1 0x1 PUSH1 0x1 PUSH1 0xA0 SHL SUB DUP3 AND PUSH1 0x0 SWAP1 DUP2 MSTORE PUSH1 0x6 PUSH1 0x20 SWAP1 DUP2 MSTORE PUSH1 0x40 DUP1 DUP4 KECCAK256 DUP4 SWAP1 SSTORE PUSH1 0x7 SWAP1 SWAP2 MSTORE DUP2 KECCAK256 DUP1 SLOAD DUP4 SWAP3 SWAP1 PUSH2 0xE68 SWAP1 DUP5 SWAP1 PUSH2 0x17C9 JUMP JUMPDEST SWAP1 SWAP2 SSTORE POP POP PUSH1 0x40 MLOAD PUSH1 0x1 PUSH1 0x1 PUSH1 0xA0 SHL SUB DUP4 AND SWAP1 DUP3 ISZERO PUSH2 0x8FC MUL SWAP1 DUP4 SWAP1 PUSH1 0x0 DUP2 DUP2 DUP2 DUP6 DUP9 DUP9 CALL SWAP4 POP POP POP POP ISZERO DUP1 ISZERO PUSH2 0xEA3 JUMPI RETURNDATASIZE PUSH1 0x0 DUP1 RETURNDATACOPY RETURNDATASIZE PUSH1 0x0 REVERT JUMPDEST POP PUSH1 0x40 DUP1 MLOAD PUSH1 0x1 PUSH1 0x1 PUSH1 0xA0 SHL SUB DUP5 AND DUP2 MSTORE PUSH1 0x20 DUP2 ADD DUP4 SWAP1 MSTORE TIMESTAMP DUP2 DUP4 ADD MSTORE SWAP1 MLOAD PUSH32 0x66F79629C03CD92F64C49D27760E90FD00EBC6F4AB63C8E3553228D9F62B3C01 SWAP2 DUP2 SWAP1 SUB PUSH1 0x60 ADD SWAP1 LOG1 POP POP JUMP JUMPDEST PUSH1 0x0 PUSH2 0xEFB DUP3 PUSH2 0x51C JUMP JUMPDEST PUSH1 0x1 PUSH1 0x1 PUSH1 0xA0 SHL SUB DUP4 AND PUSH1 0x0 SWAP1 DUP2 MSTORE PUSH1 0x7 PUSH1 0x20 MSTORE PUSH1 0x40 SWAP1 KECCAK256 SLOAD PUSH2 0x509 SWAP2 SWAP1 PUSH2 0x17C9 JUMP JUMPDEST PUSH1 0x1 SLOAD PUSH1 0x40 MLOAD PUSH4 0xA43569B3 PUSH1 0xE0 SHL DUP2 MSTORE PUSH1 0x1 PUSH1 0x1 PUSH1 0xA0 SHL SUB DUP5 DUP2 AND PUSH1 0x4 DUP4 ADD MSTORE PUSH1 0x60 SWAP3 DUP4 SWAP3 DUP4 SWAP3 PUSH1 0x0 SWAP3 DUP4 SWAP3 DUP4 SWAP3 DUP4 SWAP3 DUP4 SWAP3 DUP4 SWAP3 SWAP1 SWAP2 AND SWAP1 PUSH4 0xA43569B3 SWAP1 PUSH1 0x24 ADD PUSH1 0x0 PUSH1 0x40 MLOAD DUP1 DUP4 SUB DUP2 DUP7 GAS STATICCALL ISZERO DUP1 ISZERO PUSH2 0xF7C JUMPI RETURNDATASIZE PUSH1 0x0 DUP1 RETURNDATACOPY RETURNDATASIZE PUSH1 0x0 REVERT JUMPDEST POP POP POP POP PUSH1 0x40 MLOAD RETURNDATASIZE PUSH1 0x0 DUP3 RETURNDATACOPY PUSH1 0x1F RETURNDATASIZE SWAP1 DUP2 ADD PUSH1 0x1F NOT AND DUP3 ADD PUSH1 0x40 MSTORE PUSH2 0xFA4 SWAP2 SWAP1 DUP2 ADD SWAP1 PUSH2 0x1EA3 JUMP JUMPDEST PUSH1 0x1 SLOAD PUSH1 0x40 MLOAD PUSH4 0x3FA7CAFD PUSH1 0xE1 SHL DUP2 MSTORE SWAP5 SWAP9 POP SWAP3 SWAP7 POP SWAP5 POP PUSH1 0x0 SWAP4 POP POP PUSH1 0x1 PUSH1 0x1 PUSH1 0xA0 SHL SUB AND SWAP1 PUSH4 0x7F4F95FA SWAP1 PUSH2 0xFF6 SWAP1 DUP16 SWAP1 DUP2 SWAP1 PUSH1 0x4 ADD PUSH1 0x1 PUSH1 0x1 PUSH1 0xA0 SHL SUB SWAP3 DUP4 AND DUP2 MSTORE SWAP2 AND PUSH1 0x20 DUP3 ADD MSTORE PUSH1 0x40 ADD SWAP1 JUMP JUMPDEST PUSH1 0x60 PUSH1 0x40 MLOAD DUP1 DUP4 SUB DUP2 DUP7 GAS STATICCALL ISZERO DUP1 ISZERO PUSH2 0x1013 JUMPI RETURNDATASIZE PUSH1 0x0 DUP1 RETURNDATACOPY RETURNDATASIZE PUSH1 0x0 REVERT JUMPDEST POP POP POP POP PUSH1 0x40 MLOAD RETURNDATASIZE PUSH1 0x1F NOT PUSH1 0x1F DUP3 ADD AND DUP3 ADD DUP1 PUSH1 0x40 MSTORE POP DUP2 ADD SWAP1 PUSH2 0x1037 SWAP2 SWAP1 PUSH2 0x1FAC JUMP JUMPDEST POP SWAP1 SWAP7 POP SWAP1 POP DUP1 ISZERO PUSH2 0x1049 JUMPI PUSH1 0x0 SWAP6 SWAP5 POP JUMPDEST DUP4 DUP4 DUP4 PUSH2 0x1055 DUP16 PUSH2 0x51C JUMP JUMPDEST SWAP10 POP SWAP10 POP SWAP10 POP SWAP10 POP POP POP POP POP SWAP3 SWAP6 POP SWAP3 SWAP6 POP SWAP3 SWAP6 JUMP JUMPDEST PUSH1 0x0 PUSH2 0x1075 PUSH2 0x16A9 JUMP JUMPDEST PUSH1 0x2 SLOAD CALLVALUE LT ISZERO PUSH2 0x10D6 JUMPI PUSH1 0x40 MLOAD PUSH3 0x461BCD PUSH1 0xE5 SHL DUP2 MSTORE PUSH1 0x20 PUSH1 0x4 DUP3 ADD MSTORE PUSH1 0x26 PUSH1 0x24 DUP3 ADD MSTORE PUSH32 0x506C65617365207374616B65206D696E696D756D2076616C696461746F722073 PUSH1 0x44 DUP3 ADD MSTORE PUSH6 0x74616B696E67 PUSH1 0xD0 SHL PUSH1 0x64 DUP3 ADD MSTORE PUSH1 0x84 ADD PUSH2 0xD49 JUMP JUMPDEST PUSH1 0x1 PUSH1 0x0 SWAP1 SLOAD SWAP1 PUSH2 0x100 EXP SWAP1 DIV PUSH1 0x1 PUSH1 0x1 PUSH1 0xA0 SHL SUB AND PUSH1 0x1 PUSH1 0x1 PUSH1 0xA0 SHL SUB AND PUSH4 0xA406FCB7 CALLVALUE DUP15 DUP15 DUP15 DUP15 DUP15 DUP15 DUP15 DUP15 DUP15 DUP15 DUP15 PUSH1 0x40 MLOAD DUP14 PUSH4 0xFFFFFFFF AND PUSH1 0xE0 SHL DUP2 MSTORE PUSH1 0x4 ADD PUSH2 0x112C SWAP12 SWAP11 SWAP10 SWAP9 SWAP8 SWAP7 SWAP6 SWAP5 SWAP4 SWAP3 SWAP2 SWAP1 PUSH2 0x2025 JUMP JUMPDEST PUSH1 0x20 PUSH1 0x40 MLOAD DUP1 DUP4 SUB DUP2 DUP6 DUP9 GAS CALL ISZERO DUP1 ISZERO PUSH2 0x114A JUMPI RETURNDATASIZE PUSH1 0x0 DUP1 RETURNDATACOPY RETURNDATASIZE PUSH1 0x0 REVERT JUMPDEST POP POP POP POP POP PUSH1 0x40 MLOAD RETURNDATASIZE PUSH1 0x1F NOT PUSH1 0x1F DUP3 ADD AND DUP3 ADD DUP1 PUSH1 0x40 MSTORE POP DUP2 ADD SWAP1 PUSH2 0x116F SWAP2 SWAP1 PUSH2 0x1FDA JUMP JUMPDEST POP PUSH1 0x40 DUP1 MLOAD CALLER DUP2 MSTORE CALLVALUE PUSH1 0x20 DUP3 ADD MSTORE TIMESTAMP DUP2 DUP4 ADD MSTORE SWAP1 MLOAD PUSH32 0x5AF417134F72A9D41143ACE85B0A26DCE6F550F894F2CBC1EEEE8810603D91B6 SWAP2 DUP2 SWAP1 SUB PUSH1 0x60 ADD SWAP1 LOG1 POP PUSH1 0x1 SWAP12 SWAP11 POP POP POP POP POP POP POP POP POP POP POP JUMP JUMPDEST PUSH2 0x11C8 PUSH2 0x15FF JUMP JUMPDEST SELFBALANCE PUSH1 0x5 PUSH1 0x0 DUP3 DUP3 SLOAD PUSH2 0x11DA SWAP2 SWAP1 PUSH2 0x1DDE JUMP JUMPDEST SWAP1 SWAP2 SSTORE POP POP PUSH1 0x40 MLOAD CALLER SWAP1 SELFBALANCE DUP1 ISZERO PUSH2 0x8FC MUL SWAP2 PUSH1 0x0 DUP2 DUP2 DUP2 DUP6 DUP9 DUP9 CALL SWAP4 POP POP POP POP ISZERO DUP1 ISZERO PUSH2 0x120B JUMPI RETURNDATASIZE PUSH1 0x0 DUP1 RETURNDATACOPY RETURNDATASIZE PUSH1 0x0 REVERT JUMPDEST POP JUMP JUMPDEST PUSH1 0x1 SLOAD PUSH1 0x40 DUP1 MLOAD PUSH4 0x5F322B49 PUSH1 0xE1 SHL DUP2 MSTORE SWAP1 MLOAD PUSH1 0x0 SWAP3 PUSH1 0x1 PUSH1 0x1 PUSH1 0xA0 SHL SUB AND SWAP2 PUSH4 0xBE645692 SWAP2 PUSH1 0x4 DUP1 DUP4 ADD SWAP3 PUSH1 0x20 SWAP3 SWAP2 SWAP1 DUP3 SWAP1 SUB ADD DUP2 DUP7 GAS STATICCALL ISZERO DUP1 ISZERO PUSH2 0x1258 JUMPI RETURNDATASIZE PUSH1 0x0 DUP1 RETURNDATACOPY RETURNDATASIZE PUSH1 0x0 REVERT JUMPDEST POP POP POP POP PUSH1 0x40 MLOAD RETURNDATASIZE PUSH1 0x1F NOT PUSH1 0x1F DUP3 ADD AND DUP3 ADD DUP1 PUSH1 0x40 MSTORE POP DUP2 ADD SWAP1 PUSH2 0x127C SWAP2 SWAP1 PUSH2 0x1F93 JUMP JUMPDEST SWAP1 POP SWAP1 JUMP JUMPDEST PUSH1 0x1 SLOAD PUSH1 0x40 MLOAD PUSH4 0x3FA7CAFD PUSH1 0xE1 SHL DUP2 MSTORE PUSH1 0x1 PUSH1 0x1 PUSH1 0xA0 SHL SUB DUP5 DUP2 AND PUSH1 0x4 DUP4 ADD MSTORE DUP4 DUP2 AND PUSH1 0x24 DUP4 ADD MSTORE PUSH1 0x0 SWAP3 DUP4 SWAP3 SWAP2 AND SWAP1 PUSH4 0x7F4F95FA SWAP1 PUSH1 0x44 ADD PUSH1 0x60 PUSH1 0x40 MLOAD DUP1 DUP4 SUB DUP2 DUP7 GAS STATICCALL ISZERO DUP1 ISZERO PUSH2 0x12D7 JUMPI RETURNDATASIZE PUSH1 0x0 DUP1 RETURNDATACOPY RETURNDATASIZE PUSH1 0x0 REVERT JUMPDEST POP POP POP POP PUSH1 0x40 MLOAD RETURNDATASIZE PUSH1 0x1F NOT PUSH1 0x1F DUP3 ADD AND DUP3 ADD DUP1 PUSH1 0x40 MSTORE POP DUP2 ADD SWAP1 PUSH2 0x12FB SWAP2 SWAP1 PUSH2 0x1FAC JUMP JUMPDEST POP SWAP2 POP POP DUP1 PUSH1 0x0 SUB PUSH2 0x1311 JUMPI PUSH1 0x0 SWAP2 POP POP PUSH2 0x509 JUMP JUMPDEST PUSH1 0x1 SLOAD PUSH1 0x40 DUP1 MLOAD PUSH4 0x1B6F1BA5 PUSH1 0xE3 SHL DUP2 MSTORE SWAP1 MLOAD NUMBER SWAP3 PUSH1 0x1 PUSH1 0x1 PUSH1 0xA0 SHL SUB AND SWAP2 PUSH4 0xDB78DD28 SWAP2 PUSH1 0x4 DUP1 DUP4 ADD SWAP3 PUSH1 0x20 SWAP3 SWAP2 SWAP1 DUP3 SWAP1 SUB ADD DUP2 DUP7 GAS STATICCALL ISZERO DUP1 ISZERO PUSH2 0x135A JUMPI RETURNDATASIZE PUSH1 0x0 DUP1 RETURNDATACOPY RETURNDATASIZE PUSH1 0x0 REVERT JUMPDEST POP POP POP POP PUSH1 0x40 MLOAD RETURNDATASIZE PUSH1 0x1F NOT PUSH1 0x1F DUP3 ADD AND DUP3 ADD DUP1 PUSH1 0x40 MSTORE POP DUP2 ADD SWAP1 PUSH2 0x137E SWAP2 SWAP1 PUSH2 0x20AE JUMP JUMPDEST PUSH2 0x1391 SWAP1 PUSH1 0x1 PUSH1 0x1 PUSH1 0x40 SHL SUB AND DUP4 PUSH2 0x17C9 JUMP JUMPDEST GT ISZERO PUSH2 0x1434 JUMPI PUSH1 0x1 SLOAD PUSH1 0x40 DUP1 MLOAD PUSH4 0x1B6F1BA5 PUSH1 0xE3 SHL DUP2 MSTORE SWAP1 MLOAD NUMBER SWAP3 PUSH1 0x1 PUSH1 0x1 PUSH1 0xA0 SHL SUB AND SWAP2 PUSH4 0xDB78DD28 SWAP2 PUSH1 0x4 DUP1 DUP4 ADD SWAP3 PUSH1 0x20 SWAP3 SWAP2 SWAP1 DUP3 SWAP1 SUB ADD DUP2 DUP7 GAS STATICCALL ISZERO DUP1 ISZERO PUSH2 0x13E0 JUMPI RETURNDATASIZE PUSH1 0x0 DUP1 RETURNDATACOPY RETURNDATASIZE PUSH1 0x0 REVERT JUMPDEST POP POP POP POP PUSH1 0x40 MLOAD RETURNDATASIZE PUSH1 0x1F NOT PUSH1 0x1F DUP3 ADD AND DUP3 ADD DUP1 PUSH1 0x40 MSTORE POP DUP2 ADD SWAP1 PUSH2 0x1404 SWAP2 SWAP1 PUSH2 0x20AE JUMP JUMPDEST PUSH2 0x1417 SWAP1 PUSH1 0x1 PUSH1 0x1 PUSH1 0x40 SHL SUB AND DUP4 PUSH2 0x17C9 JUMP JUMPDEST PUSH2 0x1421 SWAP2 SWAP1 PUSH2 0x1DDE JUMP JUMPDEST PUSH2 0x142C SWAP1 PUSH1 0x2 PUSH2 0x1DF1 JUMP JUMPDEST SWAP2 POP POP PUSH2 0x509 JUMP JUMPDEST POP PUSH1 0x0 SWAP4 SWAP3 POP POP POP JUMP JUMPDEST PUSH1 0x0 DUP1 PUSH1 0x1 PUSH1 0x0 SWAP1 SLOAD SWAP1 PUSH2 0x100 EXP SWAP1 DIV PUSH1 0x1 PUSH1 0x1 PUSH1 0xA0 SHL SUB AND PUSH1 0x1 PUSH1 0x1 PUSH1 0xA0 SHL SUB AND PUSH4 0xBE645692 PUSH1 0x40 MLOAD DUP2 PUSH4 0xFFFFFFFF AND PUSH1 0xE0 SHL DUP2 MSTORE PUSH1 0x4 ADD PUSH1 0x20 PUSH1 0x40 MLOAD DUP1 DUP4 SUB DUP2 DUP7 GAS STATICCALL ISZERO DUP1 ISZERO PUSH2 0x1494 JUMPI RETURNDATASIZE PUSH1 0x0 DUP1 RETURNDATACOPY RETURNDATASIZE PUSH1 0x0 REVERT JUMPDEST POP POP POP POP PUSH1 0x40 MLOAD RETURNDATASIZE PUSH1 0x1F NOT PUSH1 0x1F DUP3 ADD AND DUP3 ADD DUP1 PUSH1 0x40 MSTORE POP DUP2 ADD SWAP1 PUSH2 0x14B8 SWAP2 SWAP1 PUSH2 0x1F93 JUMP JUMPDEST PUSH2 0x14C2 DUP6 DUP6 PUSH2 0x1281 JUMP JUMPDEST SWAP2 POP SWAP2 POP JUMPDEST SWAP3 POP SWAP3 SWAP1 POP JUMP JUMPDEST PUSH1 0x0 PUSH2 0x14D8 PUSH2 0x16A9 JUMP JUMPDEST PUSH1 0x1 SLOAD PUSH1 0x40 MLOAD PUSH4 0xF2888DBB PUSH1 0xE0 SHL DUP2 MSTORE PUSH1 0x1 PUSH1 0x1 PUSH1 0xA0 SHL SUB DUP5 DUP2 AND PUSH1 0x4 DUP4 ADD MSTORE SWAP1 SWAP2 AND SWAP1 PUSH4 0xF2888DBB SWAP1 PUSH1 0x24 ADD PUSH1 0x20 PUSH1 0x40 MLOAD DUP1 DUP4 SUB DUP2 PUSH1 0x0 DUP8 GAS CALL ISZERO DUP1 ISZERO PUSH2 0x1524 JUMPI RETURNDATASIZE PUSH1 0x0 DUP1 RETURNDATACOPY RETURNDATASIZE PUSH1 0x0 REVERT JUMPDEST POP POP POP POP PUSH1 0x40 MLOAD RETURNDATASIZE PUSH1 0x1F NOT PUSH1 0x1F DUP3 ADD AND DUP3 ADD DUP1 PUSH1 0x40 MSTORE POP DUP2 ADD SWAP1 PUSH2 0x1548 SWAP2 SWAP1 PUSH2 0x1FDA JUMP JUMPDEST POP PUSH1 0x40 DUP1 MLOAD CALLER DUP2 MSTORE TIMESTAMP PUSH1 0x20 DUP3 ADD MSTORE PUSH32 0x85082129D87B2FE11527CB1B3B7A520AEB5AA6913F88A3D8757FE40D1DB02FDD SWAP2 ADD PUSH1 0x40 MLOAD DUP1 SWAP2 SUB SWAP1 LOG1 POP PUSH1 0x1 SWAP2 SWAP1 POP JUMP JUMPDEST PUSH2 0x1591 PUSH2 0x15FF JUMP JUMPDEST PUSH1 0x1 PUSH1 0x1 PUSH1 0xA0 SHL SUB DUP2 AND PUSH2 0x15F6 JUMPI PUSH1 0x40 MLOAD PUSH3 0x461BCD PUSH1 0xE5 SHL DUP2 MSTORE PUSH1 0x20 PUSH1 0x4 DUP3 ADD MSTORE PUSH1 0x26 PUSH1 0x24 DUP3 ADD MSTORE PUSH32 0x4F776E61626C653A206E6577206F776E657220697320746865207A65726F2061 PUSH1 0x44 DUP3 ADD MSTORE PUSH6 0x646472657373 PUSH1 0xD0 SHL PUSH1 0x64 DUP3 ADD MSTORE PUSH1 0x84 ADD PUSH2 0xD49 JUMP JUMPDEST PUSH2 0x120B DUP2 PUSH2 0x1659 JUMP JUMPDEST PUSH1 0x0 SLOAD PUSH1 0x1 PUSH1 0x1 PUSH1 0xA0 SHL SUB AND CALLER EQ PUSH2 0xCF3 JUMPI PUSH1 0x40 MLOAD PUSH3 0x461BCD PUSH1 0xE5 SHL DUP2 MSTORE PUSH1 0x20 PUSH1 0x4 DUP3 ADD DUP2 SWAP1 MSTORE PUSH1 0x24 DUP3 ADD MSTORE PUSH32 0x4F776E61626C653A2063616C6C6572206973206E6F7420746865206F776E6572 PUSH1 0x44 DUP3 ADD MSTORE PUSH1 0x64 ADD PUSH2 0xD49 JUMP JUMPDEST PUSH1 0x0 DUP1 SLOAD PUSH1 0x1 PUSH1 0x1 PUSH1 0xA0 SHL SUB DUP4 DUP2 AND PUSH1 0x1 PUSH1 0x1 PUSH1 0xA0 SHL SUB NOT DUP4 AND DUP2 OR DUP5 SSTORE PUSH1 0x40 MLOAD SWAP2 SWAP1 SWAP3 AND SWAP3 DUP4 SWAP2 PUSH32 0x8BE0079C531659141344CD1FD0A4F28419497F9722A3DAAFE3B4186F6B6457E0 SWAP2 SWAP1 LOG3 POP POP JUMP JUMPDEST PUSH1 0x1 SLOAD PUSH1 0x40 DUP1 MLOAD PUSH4 0xAFEEA115 PUSH1 0xE0 SHL DUP2 MSTORE SWAP1 MLOAD PUSH1 0x0 SWAP3 PUSH1 0x1 PUSH1 0x1 PUSH1 0xA0 SHL SUB AND SWAP2 PUSH4 0xAFEEA115 SWAP2 PUSH1 0x4 DUP1 DUP4 ADD SWAP3 DUP7 SWAP3 SWAP2 SWAP1 DUP3 SWAP1 SUB ADD DUP2 DUP7 GAS STATICCALL ISZERO DUP1 ISZERO PUSH2 0x16F2 JUMPI RETURNDATASIZE PUSH1 0x0 DUP1 RETURNDATACOPY RETURNDATASIZE PUSH1 0x0 REVERT JUMPDEST POP POP POP POP PUSH1 0x40 MLOAD RETURNDATASIZE PUSH1 0x0 DUP3 RETURNDATACOPY PUSH1 0x1F RETURNDATASIZE SWAP1 DUP2 ADD PUSH1 0x1F NOT AND DUP3 ADD PUSH1 0x40 MSTORE PUSH2 0x171A SWAP2 SWAP1 DUP2 ADD SWAP1 PUSH2 0x1DA2 JUMP JUMPDEST DUP1 MLOAD SWAP1 SWAP2 POP PUSH1 0x0 JUMPDEST DUP2 DUP2 PUSH1 0xFF AND LT ISZERO PUSH2 0x17AA JUMPI PUSH2 0x1752 DUP4 DUP3 PUSH1 0xFF AND DUP2 MLOAD DUP2 LT PUSH2 0x1745 JUMPI PUSH2 0x1745 PUSH2 0x1E2A JUMP JUMPDEST PUSH1 0x20 MUL PUSH1 0x20 ADD ADD MLOAD PUSH2 0x51C JUMP JUMPDEST PUSH1 0x6 PUSH1 0x0 DUP6 DUP5 PUSH1 0xFF AND DUP2 MLOAD DUP2 LT PUSH2 0x176B JUMPI PUSH2 0x176B PUSH2 0x1E2A JUMP JUMPDEST PUSH1 0x20 MUL PUSH1 0x20 ADD ADD MLOAD PUSH1 0x1 PUSH1 0x1 PUSH1 0xA0 SHL SUB AND PUSH1 0x1 PUSH1 0x1 PUSH1 0xA0 SHL SUB AND DUP2 MSTORE PUSH1 0x20 ADD SWAP1 DUP2 MSTORE PUSH1 0x20 ADD PUSH1 0x0 KECCAK256 DUP2 SWAP1 SSTORE POP DUP1 DUP1 PUSH2 0x17A2 SWAP1 PUSH2 0x1F74 JUMP JUMPDEST SWAP2 POP POP PUSH2 0x1722 JUMP JUMPDEST POP POP NUMBER PUSH1 0x3 SSTORE POP JUMP JUMPDEST PUSH4 0x4E487B71 PUSH1 0xE0 SHL PUSH1 0x0 MSTORE PUSH1 0x11 PUSH1 0x4 MSTORE PUSH1 0x24 PUSH1 0x0 REVERT JUMPDEST DUP1 DUP3 ADD DUP1 DUP3 GT ISZERO PUSH2 0x509 JUMPI PUSH2 0x509 PUSH2 0x17B3 JUMP JUMPDEST PUSH1 0x1 PUSH1 0x1 PUSH1 0xA0 SHL SUB DUP2 AND DUP2 EQ PUSH2 0x120B JUMPI PUSH1 0x0 DUP1 REVERT JUMPDEST PUSH1 0x0 DUP1 PUSH1 0x40 DUP4 DUP6 SUB SLT ISZERO PUSH2 0x1804 JUMPI PUSH1 0x0 DUP1 REVERT JUMPDEST DUP3 CALLDATALOAD PUSH2 0x180F DUP2 PUSH2 0x17DC JUMP JUMPDEST SWAP2 POP PUSH1 0x20 DUP4 ADD CALLDATALOAD PUSH2 0x181F DUP2 PUSH2 0x17DC JUMP JUMPDEST DUP1 SWAP2 POP POP SWAP3 POP SWAP3 SWAP1 POP JUMP JUMPDEST PUSH1 0x0 PUSH1 0x20 DUP3 DUP5 SUB SLT ISZERO PUSH2 0x183C JUMPI PUSH1 0x0 DUP1 REVERT JUMPDEST POP CALLDATALOAD SWAP2 SWAP1 POP JUMP JUMPDEST PUSH1 0x0 PUSH1 0x20 DUP3 DUP5 SUB SLT ISZERO PUSH2 0x1855 JUMPI PUSH1 0x0 DUP1 REVERT JUMPDEST DUP2 CALLDATALOAD PUSH2 0x70F DUP2 PUSH2 0x17DC JUMP JUMPDEST PUSH4 0x4E487B71 PUSH1 0xE0 SHL PUSH1 0x0 MSTORE PUSH1 0x21 PUSH1 0x4 MSTORE PUSH1 0x24 PUSH1 0x0 REVERT JUMPDEST PUSH1 0x5 DUP2 LT PUSH2 0x1894 JUMPI PUSH4 0x4E487B71 PUSH1 0xE0 SHL PUSH1 0x0 MSTORE PUSH1 0x21 PUSH1 0x4 MSTORE PUSH1 0x24 PUSH1 0x0 REVERT JUMPDEST SWAP1 MSTORE JUMP JUMPDEST PUSH1 0x0 DUP2 MLOAD DUP1 DUP5 MSTORE PUSH1 0x20 DUP1 DUP6 ADD SWAP5 POP DUP1 DUP5 ADD PUSH1 0x0 JUMPDEST DUP4 DUP2 LT ISZERO PUSH2 0x18CF JUMPI PUSH2 0x18BF DUP8 DUP4 MLOAD PUSH2 0x1876 JUMP JUMPDEST SWAP6 DUP3 ADD SWAP6 SWAP1 DUP3 ADD SWAP1 PUSH1 0x1 ADD PUSH2 0x18AC JUMP JUMPDEST POP SWAP5 SWAP6 SWAP5 POP POP POP POP POP JUMP JUMPDEST PUSH1 0x0 DUP2 MLOAD DUP1 DUP5 MSTORE PUSH1 0x20 DUP1 DUP6 ADD SWAP5 POP DUP1 DUP5 ADD PUSH1 0x0 JUMPDEST DUP4 DUP2 LT ISZERO PUSH2 0x18CF JUMPI DUP2 MLOAD DUP8 MSTORE SWAP6 DUP3 ADD SWAP6 SWAP1 DUP3 ADD SWAP1 PUSH1 0x1 ADD PUSH2 0x18EE JUMP JUMPDEST PUSH1 0x0 JUMPDEST DUP4 DUP2 LT ISZERO PUSH2 0x1925 JUMPI DUP2 DUP2 ADD MLOAD DUP4 DUP3 ADD MSTORE PUSH1 0x20 ADD PUSH2 0x190D JUMP JUMPDEST POP POP PUSH1 0x0 SWAP2 ADD MSTORE JUMP JUMPDEST PUSH1 0x0 DUP2 MLOAD DUP1 DUP5 MSTORE PUSH2 0x1946 DUP2 PUSH1 0x20 DUP7 ADD PUSH1 0x20 DUP7 ADD PUSH2 0x190A JUMP JUMPDEST PUSH1 0x1F ADD PUSH1 0x1F NOT AND SWAP3 SWAP1 SWAP3 ADD PUSH1 0x20 ADD SWAP3 SWAP2 POP POP JUMP JUMPDEST PUSH1 0x0 DUP2 MLOAD DUP1 DUP5 MSTORE PUSH1 0x20 DUP1 DUP6 ADD DUP1 DUP2 SWAP7 POP DUP4 PUSH1 0x5 SHL DUP2 ADD SWAP2 POP DUP3 DUP7 ADD PUSH1 0x0 JUMPDEST DUP6 DUP2 LT ISZERO PUSH2 0x19A2 JUMPI DUP3 DUP5 SUB DUP10 MSTORE PUSH2 0x1990 DUP5 DUP4 MLOAD PUSH2 0x192E JUMP JUMPDEST SWAP9 DUP6 ADD SWAP9 SWAP4 POP SWAP1 DUP5 ADD SWAP1 PUSH1 0x1 ADD PUSH2 0x1978 JUMP JUMPDEST POP SWAP2 SWAP8 SWAP7 POP POP POP POP POP POP POP JUMP JUMPDEST PUSH1 0x0 PUSH1 0xE0 DUP3 ADD DUP10 DUP4 MSTORE PUSH1 0x20 DUP10 DUP2 DUP6 ADD MSTORE PUSH1 0xE0 PUSH1 0x40 DUP6 ADD MSTORE DUP2 DUP10 MLOAD DUP1 DUP5 MSTORE PUSH2 0x100 DUP7 ADD SWAP2 POP DUP3 DUP12 ADD SWAP4 POP PUSH1 0x0 JUMPDEST DUP2 DUP2 LT ISZERO PUSH2 0x1A00 JUMPI DUP5 MLOAD PUSH1 0x1 PUSH1 0x1 PUSH1 0xA0 SHL SUB AND DUP4 MSTORE SWAP4 DUP4 ADD SWAP4 SWAP2 DUP4 ADD SWAP2 PUSH1 0x1 ADD PUSH2 0x19DB JUMP JUMPDEST POP POP DUP5 DUP2 SUB PUSH1 0x60 DUP7 ADD MSTORE PUSH2 0x1A14 DUP2 DUP11 PUSH2 0x1898 JUMP JUMPDEST SWAP3 POP POP POP DUP3 DUP2 SUB PUSH1 0x80 DUP5 ADD MSTORE PUSH2 0x1A2A DUP2 DUP8 PUSH2 0x18DA JUMP JUMPDEST SWAP1 POP DUP3 DUP2 SUB PUSH1 0xA0 DUP5 ADD MSTORE PUSH2 0x1A3E DUP2 DUP7 PUSH2 0x195A JUMP JUMPDEST SWAP1 POP DUP3 DUP2 SUB PUSH1 0xC0 DUP5 ADD MSTORE PUSH2 0x1A52 DUP2 DUP6 PUSH2 0x195A JUMP JUMPDEST SWAP11 SWAP10 POP POP POP POP POP POP POP POP POP POP JUMP JUMPDEST DUP7 DUP2 MSTORE PUSH1 0xC0 DUP2 ADD PUSH2 0x1A74 PUSH1 0x20 DUP4 ADD DUP9 PUSH2 0x1876 JUMP JUMPDEST PUSH1 0x40 DUP3 ADD SWAP6 SWAP1 SWAP6 MSTORE PUSH1 0x60 DUP2 ADD SWAP4 SWAP1 SWAP4 MSTORE PUSH1 0x80 DUP4 ADD SWAP2 SWAP1 SWAP2 MSTORE PUSH1 0x1 PUSH1 0x1 PUSH1 0xA0 SHL SUB AND PUSH1 0xA0 SWAP1 SWAP2 ADD MSTORE SWAP3 SWAP2 POP POP JUMP JUMPDEST PUSH1 0xC0 DUP2 MSTORE PUSH1 0x0 PUSH2 0x1AB4 PUSH1 0xC0 DUP4 ADD DUP10 PUSH2 0x192E JUMP JUMPDEST DUP3 DUP2 SUB PUSH1 0x20 DUP5 ADD MSTORE PUSH2 0x1AC6 DUP2 DUP10 PUSH2 0x192E JUMP JUMPDEST SWAP1 POP DUP3 DUP2 SUB PUSH1 0x40 DUP5 ADD MSTORE PUSH2 0x1ADA DUP2 DUP9 PUSH2 0x192E JUMP JUMPDEST PUSH1 0x60 DUP5 ADD SWAP7 SWAP1 SWAP7 MSTORE POP POP PUSH1 0x80 DUP2 ADD SWAP3 SWAP1 SWAP3 MSTORE PUSH1 0xA0 SWAP1 SWAP2 ADD MSTORE SWAP4 SWAP3 POP POP POP JUMP JUMPDEST DUP1 CALLDATALOAD PUSH2 0x1B04 DUP2 PUSH2 0x17DC JUMP JUMPDEST SWAP2 SWAP1 POP JUMP JUMPDEST PUSH1 0x0 DUP1 DUP4 PUSH1 0x1F DUP5 ADD SLT PUSH2 0x1B1B JUMPI PUSH1 0x0 DUP1 REVERT JUMPDEST POP DUP2 CALLDATALOAD PUSH1 0x1 PUSH1 0x1 PUSH1 0x40 SHL SUB DUP2 GT ISZERO PUSH2 0x1B32 JUMPI PUSH1 0x0 DUP1 REVERT JUMPDEST PUSH1 0x20 DUP4 ADD SWAP2 POP DUP4 PUSH1 0x20 DUP3 DUP6 ADD ADD GT ISZERO PUSH2 0x14C7 JUMPI PUSH1 0x0 DUP1 REVERT JUMPDEST PUSH1 0x0 DUP1 PUSH1 0x0 DUP1 PUSH1 0x0 DUP1 PUSH1 0x0 DUP1 PUSH1 0x0 DUP1 PUSH1 0x0 PUSH1 0xC0 DUP13 DUP15 SUB SLT ISZERO PUSH2 0x1B6B JUMPI PUSH1 0x0 DUP1 REVERT JUMPDEST PUSH2 0x1B74 DUP13 PUSH2 0x1AF9 JUMP JUMPDEST SWAP11 POP PUSH1 0x1 PUSH1 0x1 PUSH1 0x40 SHL SUB DUP1 PUSH1 0x20 DUP15 ADD CALLDATALOAD GT ISZERO PUSH2 0x1B8F JUMPI PUSH1 0x0 DUP1 REVERT JUMPDEST PUSH2 0x1B9F DUP15 PUSH1 0x20 DUP16 ADD CALLDATALOAD DUP16 ADD PUSH2 0x1B09 JUMP JUMPDEST SWAP1 SWAP12 POP SWAP10 POP PUSH1 0x40 DUP14 ADD CALLDATALOAD DUP2 LT ISZERO PUSH2 0x1BB5 JUMPI PUSH1 0x0 DUP1 REVERT JUMPDEST PUSH2 0x1BC5 DUP15 PUSH1 0x40 DUP16 ADD CALLDATALOAD DUP16 ADD PUSH2 0x1B09 JUMP JUMPDEST SWAP1 SWAP10 POP SWAP8 POP PUSH1 0x60 DUP14 ADD CALLDATALOAD DUP2 LT ISZERO PUSH2 0x1BDB JUMPI PUSH1 0x0 DUP1 REVERT JUMPDEST PUSH2 0x1BEB DUP15 PUSH1 0x60 DUP16 ADD CALLDATALOAD DUP16 ADD PUSH2 0x1B09 JUMP JUMPDEST SWAP1 SWAP8 POP SWAP6 POP PUSH1 0x80 DUP14 ADD CALLDATALOAD DUP2 LT ISZERO PUSH2 0x1C01 JUMPI PUSH1 0x0 DUP1 REVERT JUMPDEST PUSH2 0x1C11 DUP15 PUSH1 0x80 DUP16 ADD CALLDATALOAD DUP16 ADD PUSH2 0x1B09 JUMP JUMPDEST SWAP1 SWAP6 POP SWAP4 POP PUSH1 0xA0 DUP14 ADD CALLDATALOAD DUP2 LT ISZERO PUSH2 0x1C27 JUMPI PUSH1 0x0 DUP1 REVERT JUMPDEST POP PUSH2 0x1C38 DUP14 PUSH1 0xA0 DUP15 ADD CALLDATALOAD DUP15 ADD PUSH2 0x1B09 JUMP JUMPDEST DUP2 SWAP4 POP DUP1 SWAP3 POP POP POP SWAP3 SWAP6 SWAP9 SWAP12 POP SWAP3 SWAP6 SWAP9 SWAP12 SWAP1 SWAP4 SWAP7 SWAP10 POP JUMP JUMPDEST PUSH4 0x4E487B71 PUSH1 0xE0 SHL PUSH1 0x0 MSTORE PUSH1 0x41 PUSH1 0x4 MSTORE PUSH1 0x24 PUSH1 0x0 REVERT JUMPDEST PUSH1 0x40 MLOAD PUSH1 0x1F DUP3 ADD PUSH1 0x1F NOT AND DUP2 ADD PUSH1 0x1 PUSH1 0x1 PUSH1 0x40 SHL SUB DUP2 GT DUP3 DUP3 LT OR ISZERO PUSH2 0x1C8E JUMPI PUSH2 0x1C8E PUSH2 0x1C50 JUMP JUMPDEST PUSH1 0x40 MSTORE SWAP2 SWAP1 POP JUMP JUMPDEST PUSH1 0x0 DUP3 PUSH1 0x1F DUP4 ADD SLT PUSH2 0x1CA7 JUMPI PUSH1 0x0 DUP1 REVERT JUMPDEST DUP2 MLOAD PUSH1 0x20 PUSH1 0x1 PUSH1 0x1 PUSH1 0x40 SHL SUB DUP3 GT ISZERO PUSH2 0x1CC2 JUMPI PUSH2 0x1CC2 PUSH2 0x1C50 JUMP JUMPDEST DUP2 PUSH1 0x5 SHL PUSH2 0x1CD1 DUP3 DUP3 ADD PUSH2 0x1C66 JUMP JUMPDEST SWAP3 DUP4 MSTORE DUP5 DUP2 ADD DUP3 ADD SWAP3 DUP3 DUP2 ADD SWAP1 DUP8 DUP6 GT ISZERO PUSH2 0x1CEB JUMPI PUSH1 0x0 DUP1 REVERT JUMPDEST DUP4 DUP8 ADD SWAP3 POP JUMPDEST DUP5 DUP4 LT ISZERO PUSH2 0x1D13 JUMPI DUP3 MLOAD PUSH2 0x1D04 DUP2 PUSH2 0x17DC JUMP JUMPDEST DUP3 MSTORE SWAP2 DUP4 ADD SWAP2 SWAP1 DUP4 ADD SWAP1 PUSH2 0x1CF1 JUMP JUMPDEST SWAP8 SWAP7 POP POP POP POP POP POP POP JUMP JUMPDEST PUSH1 0x0 DUP1 PUSH1 0x0 DUP1 PUSH1 0x0 DUP1 PUSH1 0xC0 DUP8 DUP10 SUB SLT ISZERO PUSH2 0x1D37 JUMPI PUSH1 0x0 DUP1 REVERT JUMPDEST DUP7 MLOAD PUSH2 0x1D42 DUP2 PUSH2 0x17DC JUMP JUMPDEST PUSH1 0x20 DUP9 ADD MLOAD SWAP1 SWAP7 POP PUSH1 0x5 DUP2 LT PUSH2 0x1D57 JUMPI PUSH1 0x0 DUP1 REVERT JUMPDEST DUP1 SWAP6 POP POP PUSH1 0x40 DUP8 ADD MLOAD SWAP4 POP PUSH1 0x60 DUP8 ADD MLOAD SWAP3 POP PUSH1 0x80 DUP8 ADD MLOAD SWAP2 POP PUSH1 0xA0 DUP8 ADD MLOAD PUSH1 0x1 PUSH1 0x1 PUSH1 0x40 SHL SUB DUP2 GT ISZERO PUSH2 0x1D89 JUMPI PUSH1 0x0 DUP1 REVERT JUMPDEST PUSH2 0x1D95 DUP10 DUP3 DUP11 ADD PUSH2 0x1C96 JUMP JUMPDEST SWAP2 POP POP SWAP3 SWAP6 POP SWAP3 SWAP6 POP SWAP3 SWAP6 JUMP JUMPDEST PUSH1 0x0 PUSH1 0x20 DUP3 DUP5 SUB SLT ISZERO PUSH2 0x1DB4 JUMPI PUSH1 0x0 DUP1 REVERT JUMPDEST DUP2 MLOAD PUSH1 0x1 PUSH1 0x1 PUSH1 0x40 SHL SUB DUP2 GT ISZERO PUSH2 0x1DCA JUMPI PUSH1 0x0 DUP1 REVERT JUMPDEST PUSH2 0x1DD6 DUP5 DUP3 DUP6 ADD PUSH2 0x1C96 JUMP JUMPDEST SWAP5 SWAP4 POP POP POP POP JUMP JUMPDEST DUP2 DUP2 SUB DUP2 DUP2 GT ISZERO PUSH2 0x509 JUMPI PUSH2 0x509 PUSH2 0x17B3 JUMP JUMPDEST DUP1 DUP3 MUL DUP2 ISZERO DUP3 DUP3 DIV DUP5 EQ OR PUSH2 0x509 JUMPI PUSH2 0x509 PUSH2 0x17B3 JUMP JUMPDEST PUSH1 0x0 DUP3 PUSH2 0x1E25 JUMPI PUSH4 0x4E487B71 PUSH1 0xE0 SHL PUSH1 0x0 MSTORE PUSH1 0x12 PUSH1 0x4 MSTORE PUSH1 0x24 PUSH1 0x0 REVERT JUMPDEST POP DIV SWAP1 JUMP JUMPDEST PUSH4 0x4E487B71 PUSH1 0xE0 SHL PUSH1 0x0 MSTORE PUSH1 0x32 PUSH1 0x4 MSTORE PUSH1 0x24 PUSH1 0x0 REVERT JUMPDEST PUSH1 0x0 DUP3 PUSH1 0x1F DUP4 ADD SLT PUSH2 0x1E51 JUMPI PUSH1 0x0 DUP1 REVERT JUMPDEST DUP2 MLOAD PUSH1 0x1 PUSH1 0x1 PUSH1 0x40 SHL SUB DUP2 GT ISZERO PUSH2 0x1E6A JUMPI PUSH2 0x1E6A PUSH2 0x1C50 JUMP JUMPDEST PUSH2 0x1E7D PUSH1 0x1F DUP3 ADD PUSH1 0x1F NOT AND PUSH1 0x20 ADD PUSH2 0x1C66 JUMP JUMPDEST DUP2 DUP2 MSTORE DUP5 PUSH1 0x20 DUP4 DUP7 ADD ADD GT ISZERO PUSH2 0x1E92 JUMPI PUSH1 0x0 DUP1 REVERT JUMPDEST PUSH2 0x1DD6 DUP3 PUSH1 0x20 DUP4 ADD PUSH1 0x20 DUP8 ADD PUSH2 0x190A JUMP JUMPDEST PUSH1 0x0 DUP1 PUSH1 0x0 DUP1 PUSH1 0x0 PUSH1 0xA0 DUP7 DUP9 SUB SLT ISZERO PUSH2 0x1EBB JUMPI PUSH1 0x0 DUP1 REVERT JUMPDEST DUP6 MLOAD PUSH1 0x1 PUSH1 0x1 PUSH1 0x40 SHL SUB DUP1 DUP3 GT ISZERO PUSH2 0x1ED2 JUMPI PUSH1 0x0 DUP1 REVERT JUMPDEST PUSH2 0x1EDE DUP10 DUP4 DUP11 ADD PUSH2 0x1E40 JUMP JUMPDEST SWAP7 POP PUSH1 0x20 DUP9 ADD MLOAD SWAP2 POP DUP1 DUP3 GT ISZERO PUSH2 0x1EF4 JUMPI PUSH1 0x0 DUP1 REVERT JUMPDEST PUSH2 0x1F00 DUP10 DUP4 DUP11 ADD PUSH2 0x1E40 JUMP JUMPDEST SWAP6 POP PUSH1 0x40 DUP9 ADD MLOAD SWAP2 POP DUP1 DUP3 GT ISZERO PUSH2 0x1F16 JUMPI PUSH1 0x0 DUP1 REVERT JUMPDEST PUSH2 0x1F22 DUP10 DUP4 DUP11 ADD PUSH2 0x1E40 JUMP JUMPDEST SWAP5 POP PUSH1 0x60 DUP9 ADD MLOAD SWAP2 POP DUP1 DUP3 GT ISZERO PUSH2 0x1F38 JUMPI PUSH1 0x0 DUP1 REVERT JUMPDEST PUSH2 0x1F44 DUP10 DUP4 DUP11 ADD PUSH2 0x1E40 JUMP JUMPDEST SWAP4 POP PUSH1 0x80 DUP9 ADD MLOAD SWAP2 POP DUP1 DUP3 GT ISZERO PUSH2 0x1F5A JUMPI PUSH1 0x0 DUP1 REVERT JUMPDEST POP PUSH2 0x1F67 DUP9 DUP3 DUP10 ADD PUSH2 0x1E40 JUMP JUMPDEST SWAP2 POP POP SWAP3 SWAP6 POP SWAP3 SWAP6 SWAP1 SWAP4 POP JUMP JUMPDEST PUSH1 0x0 PUSH1 0xFF DUP3 AND PUSH1 0xFF DUP2 SUB PUSH2 0x1F8A JUMPI PUSH2 0x1F8A PUSH2 0x17B3 JUMP JUMPDEST PUSH1 0x1 ADD SWAP3 SWAP2 POP POP JUMP JUMPDEST PUSH1 0x0 PUSH1 0x20 DUP3 DUP5 SUB SLT ISZERO PUSH2 0x1FA5 JUMPI PUSH1 0x0 DUP1 REVERT JUMPDEST POP MLOAD SWAP2 SWAP1 POP JUMP JUMPDEST PUSH1 0x0 DUP1 PUSH1 0x0 PUSH1 0x60 DUP5 DUP7 SUB SLT ISZERO PUSH2 0x1FC1 JUMPI PUSH1 0x0 DUP1 REVERT JUMPDEST DUP4 MLOAD SWAP3 POP PUSH1 0x20 DUP5 ADD MLOAD SWAP2 POP PUSH1 0x40 DUP5 ADD MLOAD SWAP1 POP SWAP3 POP SWAP3 POP SWAP3 JUMP JUMPDEST PUSH1 0x0 PUSH1 0x20 DUP3 DUP5 SUB SLT ISZERO PUSH2 0x1FEC JUMPI PUSH1 0x0 DUP1 REVERT JUMPDEST DUP2 MLOAD DUP1 ISZERO ISZERO DUP2 EQ PUSH2 0x70F JUMPI PUSH1 0x0 DUP1 REVERT JUMPDEST DUP2 DUP4 MSTORE DUP2 DUP2 PUSH1 0x20 DUP6 ADD CALLDATACOPY POP PUSH1 0x0 DUP3 DUP3 ADD PUSH1 0x20 SWAP1 DUP2 ADD SWAP2 SWAP1 SWAP2 MSTORE PUSH1 0x1F SWAP1 SWAP2 ADD PUSH1 0x1F NOT AND SWAP1 SWAP2 ADD ADD SWAP1 JUMP JUMPDEST PUSH1 0x1 PUSH1 0x1 PUSH1 0xA0 SHL SUB DUP13 AND DUP2 MSTORE PUSH1 0xC0 PUSH1 0x20 DUP3 ADD DUP2 SWAP1 MSTORE PUSH1 0x0 SWAP1 PUSH2 0x204A SWAP1 DUP4 ADD DUP13 DUP15 PUSH2 0x1FFC JUMP JUMPDEST DUP3 DUP2 SUB PUSH1 0x40 DUP5 ADD MSTORE PUSH2 0x205D DUP2 DUP12 DUP14 PUSH2 0x1FFC JUMP JUMPDEST SWAP1 POP DUP3 DUP2 SUB PUSH1 0x60 DUP5 ADD MSTORE PUSH2 0x2072 DUP2 DUP10 DUP12 PUSH2 0x1FFC JUMP JUMPDEST SWAP1 POP DUP3 DUP2 SUB PUSH1 0x80 DUP5 ADD MSTORE PUSH2 0x2087 DUP2 DUP8 DUP10 PUSH2 0x1FFC JUMP JUMPDEST SWAP1 POP DUP3 DUP2 SUB PUSH1 0xA0 DUP5 ADD MSTORE PUSH2 0x209C DUP2 DUP6 DUP8 PUSH2 0x1FFC JUMP JUMPDEST SWAP15 SWAP14 POP POP POP POP POP POP POP POP POP POP POP POP POP POP JUMP JUMPDEST PUSH1 0x0 PUSH1 0x20 DUP3 DUP5 SUB SLT ISZERO PUSH2 0x20C0 JUMPI PUSH1 0x0 DUP1 REVERT JUMPDEST DUP2 MLOAD PUSH1 0x1 PUSH1 0x1 PUSH1 0x40 SHL SUB DUP2 AND DUP2 EQ PUSH2 0x70F JUMPI PUSH1 0x0 DUP1 REVERT INVALID LOG2 PUSH5 0x6970667358 0x22 SLT KECCAK256 0x23 SIGNEXTEND PUSH13 0xE9BB25AEDE1E5673BC1C9ACDF5 MSTORE PUSH32 0x45C3EDEB6B8D4D224D342CCAE0B664736F6C6343000813003300000000000000 "
				},
				"gasEstimates": {
					"creation": {
						"codeDepositCost": "1692200",
						"executionCost": "96067",
						"totalCost": "1788267"
					},
					"external": {
						"changeMinimumValidatorStaking(uint256)": "24556",
						"checkValidator(address)": "444",
						"createOrEditValidator(address,string,string,string,string,string)": "infinite",
						"extraRewardsPerBlock()": "2307",
						"getAllValidatorInfo()": "infinite",
						"lastRewardedBlock()": "2418",
						"minimumStakingAmount()": "infinite",
						"minimumValidatorStaking()": "2308",
						"owner()": "2365",
						"renounceOwnership()": "infinite",
						"rescueCoins()": "infinite",
						"rewardBalance(address)": "2592",
						"rewardFund()": "2328",
						"stakingValidations(address,address)": "infinite",
						"totalProfitEarned(address)": "infinite",
						"totalProfitWithdrawn(address)": "2568",
						"transferOwnership(address)": "infinite",
						"unstake(address)": "infinite",
						"valContract()": "2448",
						"validatorSpecificInfo1(address,address)": "infinite",
						"validatorSpecificInfo2(address,address)": "infinite",
						"viewValidatorRewards(address)": "infinite",
						"waitingUnstaking(address,address)": "infinite",
						"waitingWithdrawProfit(address,address)": "infinite",
						"waitingWithdrawStaking(address,address)": "infinite",
						"withdrawStakingReward(address)": "infinite"
					},
					"internal": {
						"_distributeRewards()": "infinite"
					}
				},
				"methodIdentifiers": {
					"changeMinimumValidatorStaking(uint256)": "1d06022c",
					"checkValidator(address)": "797327ae",
					"createOrEditValidator(address,string,string,string,string,string)": "a406fcb7",
					"extraRewardsPerBlock()": "8ae53dbd",
					"getAllValidatorInfo()": "3f8dc65a",
					"lastRewardedBlock()": "4cc67b5b",
					"minimumStakingAmount()": "b0d2d011",
					"minimumValidatorStaking()": "0976c65d",
					"owner()": "8da5cb5b",
					"renounceOwnership()": "715018a6",
					"rescueCoins()": "b0806108",
					"rewardBalance(address)": "67b40cf7",
					"rewardFund()": "efe22266",
					"stakingValidations(address,address)": "e1b6d9d4",
					"totalProfitEarned(address)": "7fc5e1e5",
					"totalProfitWithdrawn(address)": "f188df2b",
					"transferOwnership(address)": "f2fde38b",
					"unstake(address)": "f2888dbb",
					"valContract()": "afbbc803",
					"validatorSpecificInfo1(address,address)": "90efe56d",
					"validatorSpecificInfo2(address,address)": "64877981",
					"viewValidatorRewards(address)": "1e724caa",
					"waitingUnstaking(address,address)": "14306168",
					"waitingWithdrawProfit(address,address)": "58ae4e99",
					"waitingWithdrawStaking(address,address)": "d4aa673b",
					"withdrawStakingReward(address)": "72d30a70"
				}
			},
			"storageLayout": {
				"storage": [
					{
						"astId": 169,
						"contract": "ValidatorView.sol:ValidatorHelper",
						"label": "_owner",
						"offset": 0,
						"slot": "0",
						"type": "t_address"
					},
					{
						"astId": 282,
						"contract": "ValidatorView.sol:ValidatorHelper",
						"label": "valContract",
						"offset": 0,
						"slot": "1",
						"type": "t_contract(InterfaceValidator)144"
					},
					{
						"astId": 287,
						"contract": "ValidatorView.sol:ValidatorHelper",
						"label": "minimumValidatorStaking",
						"offset": 0,
						"slot": "2",
						"type": "t_uint256"
					},
					{
						"astId": 289,
						"contract": "ValidatorView.sol:ValidatorHelper",
						"label": "lastRewardedBlock",
						"offset": 0,
						"slot": "3",
						"type": "t_uint256"
					},
					{
						"astId": 294,
						"contract": "ValidatorView.sol:ValidatorHelper",
						"label": "extraRewardsPerBlock",
						"offset": 0,
						"slot": "4",
						"type": "t_uint256"
					},
					{
						"astId": 296,
						"contract": "ValidatorView.sol:ValidatorHelper",
						"label": "rewardFund",
						"offset": 0,
						"slot": "5",
						"type": "t_uint256"
					},
					{
						"astId": 300,
						"contract": "ValidatorView.sol:ValidatorHelper",
						"label": "rewardBalance",
						"offset": 0,
						"slot": "6",
						"type": "t_mapping(t_address,t_uint256)"
					},
					{
						"astId": 304,
						"contract": "ValidatorView.sol:ValidatorHelper",
						"label": "totalProfitWithdrawn",
						"offset": 0,
						"slot": "7",
						"type": "t_mapping(t_address,t_uint256)"
					}
				],
				"types": {
					"t_address": {
						"encoding": "inplace",
						"label": "address",
						"numberOfBytes": "20"
					},
					"t_contract(InterfaceValidator)144": {
						"encoding": "inplace",
						"label": "contract InterfaceValidator",
						"numberOfBytes": "20"
					},
					"t_mapping(t_address,t_uint256)": {
						"encoding": "mapping",
						"key": "t_address",
						"label": "mapping(address => uint256)",
						"numberOfBytes": "32",
						"value": "t_uint256"
					},
					"t_uint256": {
						"encoding": "inplace",
						"label": "uint256",
						"numberOfBytes": "32"
					}
				}
			},
			"userdoc": {
				"kind": "user",
				"methods": {
					"getAllValidatorInfo()": {
						"notice": "View functions"
					},
					"rescueCoins()": {
						"notice": "admin functions"
					}
				},
				"version": 1
			}
		}
	}
}