{
	"data": {
		"bytecode": {
			"linkReferences": {},
			"object": "608060405234801561001057600080fd5b5061021d806100206000396000f3fe608060405234801561001057600080fd5b50600436106100ea5760003560e01c8063966ff6501161008c578063c967f90f11610066578063c967f90f146101a1578063cd779d21146101bc578063db78dd28146101c4578063fca737c0146101bc57600080fd5b8063966ff650146101765780639d7714ce1461017f578063be6456921461019157600080fd5b806337dbc8cc116100c857806337dbc8cc146101515780633a061bd31461015a57806342127ee7146101635780636233be5d1461016d57600080fd5b80630976c65d146100ef578063158ef93e146101135780631b5e358c14610130575b600080fd5b61010069017b7883c0691660000081565b6040519081526020015b60405180910390f35b6000546101209060ff1681565b604051901515815260200161010a565b61013961f00181565b6040516001600160a01b03909116815260200161010a565b61010061138881565b61013961f00081565b6101006201731881565b61013961f00281565b61010060015481565b6101006a084595161401484a00000081565b6101006801bc16d674ec80000081565b6101a9603381565b60405161ffff909116815260200161010a565b610100600081565b6101ce6201518081565b60405167ffffffffffffffff909116815260200161010a56fea2646970667358221220487f798772bdf6e770f5f3125757085172f8d711f613317897c04b940770077564736f6c63430008110033",
			"opcodes": "PUSH1 0x80 PUSH1 0x40 MSTORE CALLVALUE DUP1 ISZERO PUSH2 0x10 JUMPI PUSH1 0x0 DUP1 REVERT JUMPDEST POP PUSH2 0x21D DUP1 PUSH2 0x20 PUSH1 0x0 CODECOPY PUSH1 0x0 RETURN INVALID PUSH1 0x80 PUSH1 0x40 MSTORE CALLVALUE DUP1 ISZERO PUSH2 0x10 JUMPI PUSH1 0x0 DUP1 REVERT JUMPDEST POP PUSH1 0x4 CALLDATASIZE LT PUSH2 0xEA JUMPI PUSH1 0x0 CALLDATALOAD PUSH1 0xE0 SHR DUP1 PUSH4 0x966FF650 GT PUSH2 0x8C JUMPI DUP1 PUSH4 0xC967F90F GT PUSH2 0x66 JUMPI DUP1 PUSH4 0xC967F90F EQ PUSH2 0x1A1 JUMPI DUP1 PUSH4 0xCD779D21 EQ PUSH2 0x1BC JUMPI DUP1 PUSH4 0xDB78DD28 EQ PUSH2 0x1C4 JUMPI DUP1 PUSH4 0xFCA737C0 EQ PUSH2 0x1BC JUMPI PUSH1 0x0 DUP1 REVERT JUMPDEST DUP1 PUSH4 0x966FF650 EQ PUSH2 0x176 JUMPI DUP1 PUSH4 0x9D7714CE EQ PUSH2 0x17F JUMPI DUP1 PUSH4 0xBE645692 EQ PUSH2 0x191 JUMPI PUSH1 0x0 DUP1 REVERT JUMPDEST DUP1 PUSH4 0x37DBC8CC GT PUSH2 0xC8 JUMPI DUP1 PUSH4 0x37DBC8CC EQ PUSH2 0x151 JUMPI DUP1 PUSH4 0x3A061BD3 EQ PUSH2 0x15A JUMPI DUP1 PUSH4 0x42127EE7 EQ PUSH2 0x163 JUMPI DUP1 PUSH4 0x6233BE5D EQ PUSH2 0x16D JUMPI PUSH1 0x0 DUP1 REVERT JUMPDEST DUP1 PUSH4 0x976C65D EQ PUSH2 0xEF JUMPI DUP1 PUSH4 0x158EF93E EQ PUSH2 0x113 JUMPI DUP1 PUSH4 0x1B5E358C EQ PUSH2 0x130 JUMPI JUMPDEST PUSH1 0x0 DUP1 REVERT JUMPDEST PUSH2 0x100 PUSH10 0x17B7883C06916600000 DUP2 JUMP JUMPDEST PUSH1 0x40 MLOAD SWAP1 DUP2 MSTORE PUSH1 0x20 ADD JUMPDEST PUSH1 0x40 MLOAD DUP1 SWAP2 SUB SWAP1 RETURN JUMPDEST PUSH1 0x0 SLOAD PUSH2 0x120 SWAP1 PUSH1 0xFF AND DUP2 JUMP JUMPDEST PUSH1 0x40 MLOAD SWAP1 ISZERO ISZERO DUP2 MSTORE PUSH1 0x20 ADD PUSH2 0x10A JUMP JUMPDEST PUSH2 0x139 PUSH2 0xF001 DUP2 JUMP JUMPDEST PUSH1 0x40 MLOAD PUSH1 0x1 PUSH1 0x1 PUSH1 0xA0 SHL SUB SWAP1 SWAP2 AND DUP2 MSTORE PUSH1 0x20 ADD PUSH2 0x10A JUMP JUMPDEST PUSH2 0x100 PUSH2 0x1388 DUP2 JUMP JUMPDEST PUSH2 0x139 PUSH2 0xF000 DUP2 JUMP JUMPDEST PUSH2 0x100 PUSH3 0x17318 DUP2 JUMP JUMPDEST PUSH2 0x139 PUSH2 0xF002 DUP2 JUMP JUMPDEST PUSH2 0x100 PUSH1 0x1 SLOAD DUP2 JUMP JUMPDEST PUSH2 0x100 PUSH11 0x84595161401484A000000 DUP2 JUMP JUMPDEST PUSH2 0x100 PUSH9 0x1BC16D674EC800000 DUP2 JUMP JUMPDEST PUSH2 0x1A9 PUSH1 0x33 DUP2 JUMP JUMPDEST PUSH1 0x40 MLOAD PUSH2 0xFFFF SWAP1 SWAP2 AND DUP2 MSTORE PUSH1 0x20 ADD PUSH2 0x10A JUMP JUMPDEST PUSH2 0x100 PUSH1 0x0 DUP2 JUMP JUMPDEST PUSH2 0x1CE PUSH3 0x15180 DUP2 JUMP JUMPDEST PUSH1 0x40 MLOAD PUSH8 0xFFFFFFFFFFFFFFFF SWAP1 SWAP2 AND DUP2 MSTORE PUSH1 0x20 ADD PUSH2 0x10A JUMP INVALID LOG2 PUSH5 0x6970667358 0x22 SLT KECCAK256 BASEFEE PUSH32 0x798772BDF6E770F5F3125757085172F8D711F613317897C04B94077007756473 PUSH16 0x6C634300081100330000000000000000 "
		},
		"gasEstimates": {
			"creation": {
				"codeDepositCost": "108200",
				"executionCost": "153",
				"totalCost": "108353"
			},
			"external": {
				"MaxValidators()": "226",
				"MinimalStakingCoin()": "251",
				"ProposalAddr()": "305",
				"PunishContractAddr()": "284",
				"StakingLockPeriod()": "270",
				"ValidatorContractAddr()": "261",
				"burnPartPercent()": "207",
				"burnStopAmount()": "229",
				"contractPartPercent()": "272",
				"initialized()": "2356",
				"minimumValidatorStaking()": "208",
				"stakerPartPercent()": "228",
				"totalBurnt()": "2307",
				"validatorPartPercent()": "251"
			}
		},
		"methodIdentifiers": {
			"MaxValidators()": "c967f90f",
			"MinimalStakingCoin()": "be645692",
			"ProposalAddr()": "6233be5d",
			"PunishContractAddr()": "1b5e358c",
			"StakingLockPeriod()": "db78dd28",
			"ValidatorContractAddr()": "3a061bd3",
			"burnPartPercent()": "37dbc8cc",
			"burnStopAmount()": "9d7714ce",
			"contractPartPercent()": "fca737c0",
			"initialized()": "158ef93e",
			"minimumValidatorStaking()": "0976c65d",
			"stakerPartPercent()": "cd779d21",
			"totalBurnt()": "966ff650",
			"validatorPartPercent()": "42127ee7"
		}
	},
	"abi": [
		{
			"inputs": [],
			"name": "MaxValidators",
			"outputs": [
				{
					"internalType": "uint16",
					"name": "",
					"type": "uint16"
				}
			],
			"stateMutability": "view",
			"type": "function"
		},
		{
			"inputs": [],
			"name": "MinimalStakingCoin",
			"outputs": [
				{
					"internalType": "uint256",
					"name": "",
					"type": "uint256"
				}
			],
			"stateMutability": "view",
			"type": "function"
		},
		{
			"inputs": [],
			"name": "ProposalAddr",
			"outputs": [
				{
					"internalType": "address",
					"name": "",
					"type": "address"
				}
			],
			"stateMutability": "view",
			"type": "function"
		},
		{
			"inputs": [],
			"name": "PunishContractAddr",
			"outputs": [
				{
					"internalType": "address",
					"name": "",
					"type": "address"
				}
			],
			"stateMutability": "view",
			"type": "function"
		},
		{
			"inputs": [],
			"name": "StakingLockPeriod",
			"outputs": [
				{
					"internalType": "uint64",
					"name": "",
					"type": "uint64"
				}
			],
			"stateMutability": "view",
			"type": "function"
		},
		{
			"inputs": [],
			"name": "ValidatorContractAddr",
			"outputs": [
				{
					"internalType": "address",
					"name": "",
					"type": "address"
				}
			],
			"stateMutability": "view",
			"type": "function"
		},
		{
			"inputs": [],
			"name": "burnPartPercent",
			"outputs": [
				{
					"internalType": "uint256",
					"name": "",
					"type": "uint256"
				}
			],
			"stateMutability": "view",
			"type": "function"
		},
		{
			"inputs": [],
			"name": "burnStopAmount",
			"outputs": [
				{
					"internalType": "uint256",
					"name": "",
					"type": "uint256"
				}
			],
			"stateMutability": "view",
			"type": "function"
		},
		{
			"inputs": [],
			"name": "contractPartPercent",
			"outputs": [
				{
					"internalType": "uint256",
					"name": "",
					"type": "uint256"
				}
			],
			"stateMutability": "view",
			"type": "function"
		},
		{
			"inputs": [],
			"name": "initialized",
			"outputs": [
				{
					"internalType": "bool",
					"name": "",
					"type": "bool"
				}
			],
			"stateMutability": "view",
			"type": "function"
		},
		{
			"inputs": [],
			"name": "minimumValidatorStaking",
			"outputs": [
				{
					"internalType": "uint256",
					"name": "",
					"type": "uint256"
				}
			],
			"stateMutability": "view",
			"type": "function"
		},
		{
			"inputs": [],
			"name": "stakerPartPercent",
			"outputs": [
				{
					"internalType": "uint256",
					"name": "",
					"type": "uint256"
				}
			],
			"stateMutability": "view",
			"type": "function"
		},
		{
			"inputs": [],
			"name": "totalBurnt",
			"outputs": [
				{
					"internalType": "uint256",
					"name": "",
					"type": "uint256"
				}
			],
			"stateMutability": "view",
			"type": "function"
		},
		{
			"inputs": [],
			"name": "validatorPartPercent",
			"outputs": [
				{
					"internalType": "uint256",
					"name": "",
					"type": "uint256"
				}
			],
			"stateMutability": "view",
			"type": "function"
		}
	]
}