{
	"data": {
		"bytecode": {
			"linkReferences": {},
			"object": "608060405234801561001057600080fd5b50614cab806100206000396000f3fe6080604052600436106102715760003560e01c806382bd3d921161014f578063afeea115116100c1578063c967f90f1161007a578063c967f90f146107c0578063cd779d21146107e8578063d571770c146107fd578063db78dd2814610833578063f2888dbb14610862578063fca737c0146107e857600080fd5b8063afeea11514610711578063b6c8851914610726578063bb1c031014610746578063bd10ba7614610759578063be64569214610779578063c253c3841461079657600080fd5b806398e3b6261161011357806398e3b6261461064c5780639d7714ce1461066c5780639de702581461068b578063a224cee7146106ad578063a406fcb7146106cd578063a43569b3146106e057600080fd5b806382bd3d92146105965780638a11d7c9146105b65780638b0e9f3f146105e857806392f2c437146105fe578063966ff6501461063657600080fd5b80633b5d441e116101e85780635dd09590116101ac5780635dd09590146104925780636233be5d146104b25780636846992a146104c85780636969a25c146104e857806372d30a70146105085780637f4f95fa1461052857600080fd5b80633b5d441e146103ec57806340550a1c1461041957806340a141ff1461043957806342127ee71461045b5780634b3d500b1461047257600080fd5b80631b5e358c1161023a5780631b5e358c1461033f578063222d3b051461036d578063264762041461038d57806337dbc8cc146103a05780633a061bd3146103b65780633ae898ca146103cc57600080fd5b8062362a771461027657806301aec704146102ab5780630976c65d146102f15780631303f7cf1461030f578063158ef93e14610325575b600080fd5b34801561028257600080fd5b50610296610291366004614294565b610882565b60405190151581526020015b60405180910390f35b3480156102b757600080fd5b506102e36102c63660046142b8565b600960209081526000928352604080842090915290825290205481565b6040519081526020016102a2565b3480156102fd57600080fd5b506102e369017b7883c0691660000081565b34801561031b57600080fd5b506102e360075481565b34801561033157600080fd5b506000546102969060ff1681565b34801561034b57600080fd5b5061035561f00181565b6040516001600160a01b0390911681526020016102a2565b34801561037957600080fd5b50610296610388366004614294565b610aa4565b61029661039b366004614294565b610cd3565b3480156103ac57600080fd5b506102e361138881565b3480156103c257600080fd5b5061035561f00081565b3480156103d857600080fd5b506102e36103e73660046142b8565b61112a565b3480156103f857600080fd5b506102e3610407366004614294565b600a6020526000908152604090205481565b34801561042557600080fd5b50610296610434366004614294565b61123a565b34801561044557600080fd5b50610459610454366004614294565b61129a565b005b34801561046757600080fd5b506102e36201731881565b34801561047e57600080fd5b5061035561048d3660046142f1565b611364565b34801561049e57600080fd5b506104596104ad366004614294565b61138e565b3480156104be57600080fd5b5061035561f00281565b3480156104d457600080fd5b506104596104e33660046143e7565b6113e2565b3480156104f457600080fd5b506103556105033660046142f1565b6115b3565b34801561051457600080fd5b50610296610523366004614294565b6115c3565b34801561053457600080fd5b5061057b6105433660046142b8565b6001600160a01b0391821660009081526003602090815260408083209390941682529190915220805460018201546002909201549092565b604080519384526020840192909252908201526060016102a2565b3480156105a257600080fd5b506102966105b1366004614294565b611773565b3480156105c257600080fd5b506105d66105d1366004614294565b6119b1565b6040516102a296959493929190614485565b3480156105f457600080fd5b506102e360065481565b34801561060a57600080fd5b506102e36106193660046144e9565b600b60209081526000928352604080842090915290825290205481565b34801561064257600080fd5b506102e360015481565b34801561065857600080fd5b50610296610667366004614294565b611dc3565b34801561067857600080fd5b506102e36a084595161401484a00000081565b34801561069757600080fd5b506106a0611e23565b6040516102a29190614515565b3480156106b957600080fd5b506104596106c8366004614528565b611e85565b6102966106db3660046145ef565b61228e565b3480156106ec57600080fd5b506107006106fb366004614294565b612805565b6040516102a295949392919061473b565b34801561071d57600080fd5b506106a0612c12565b34801561073257600080fd5b5061029661074136600461480b565b612c72565b6104596107543660046148dc565b612dfe565b34801561076557600080fd5b50610296610774366004614294565b6132ec565b34801561078557600080fd5b506102e36801bc16d674ec80000081565b3480156107a257600080fd5b506107ab613372565b604080519283526020830191909152016102a2565b3480156107cc57600080fd5b506107d5603381565b60405161ffff90911681526020016102a2565b3480156107f457600080fd5b506102e3600081565b34801561080957600080fd5b50610355610818366004614294565b6008602052600090815260409020546001600160a01b031681565b34801561083f57600080fd5b5061084a6201518081565b6040516001600160401b0390911681526020016102a2565b34801561086e57600080fd5b5061029661087d366004614294565b613387565b600032816001600160a01b038416600090815260026020526040902054600160a01b900460ff1660048111156108ba576108ba61442b565b036109025760405162461bcd60e51b815260206004820152601360248201527215985b1a59185d1bdc881b9bdd08195e1a5cdd606a1b60448201526064015b60405180910390fd5b6001600160a01b038381166000908152600260205260409020548116908216146109855760405162461bcd60e51b815260206004820152602e60248201527f596f7520617265206e6f742074686520666565207265636569766572206f662060448201526d3a3434b9903b30b634b230ba37b960911b60648201526084016108f9565b6001600160a01b038316600090815260026020526040902060070154806109ee5760405162461bcd60e51b815260206004820152601a60248201527f596f7520646f6e2774206861766520616e792070726f6669747300000000000060448201526064016108f9565b6001600160a01b0384166000908152600260205260408120600701558015610a48576040516001600160a01b0383169082156108fc029083906000818181858888f19350505050158015610a46573d6000803e3d6000fd5b505b610a51846115c3565b50604080518281524260208201526001600160a01b0380851692908716917f51a69b4502f660774c9339825c7b5adbf0b8622289134647e29728ec5d9b3bb9910160405180910390a35060019392505050565b3260008181526003602090815260408083206001600160a01b0386168452825280832060029092528220549192918390600160a01b900460ff166004811115610aef57610aef61442b565b03610b325760405162461bcd60e51b81526020600482015260136024820152721d985b1a59185d1bdc881b9bdd08195e1a5cdd606a1b60448201526064016108f9565b8060010154600003610b865760405162461bcd60e51b815260206004820152601960248201527f596f75206861766520746f20756e7374616b652066697273740000000000000060448201526064016108f9565b60018101544390610b9b9062015180906149ba565b1115610bf35760405162461bcd60e51b815260206004820152602160248201527f596f7572207374616b696e6720686176656e277420756e6c6f636b65642079656044820152601d60fa1b60648201526084016108f9565b8054610c3c5760405162461bcd60e51b8152602060048201526018602482015277596f7520646f6e2774206861766520616e79207374616b6560401b60448201526064016108f9565b80546000808355600183018190556040516001600160a01b0385169183156108fc02918491818181858888f19350505050158015610c7e573d6000803e3d6000fd5b50604080518281524260208201526001600160a01b0380881692908616917fa70cd94070cd852339a76b32cf2d95a3c8f2a322269163d276071c1c1495561991015b60405180910390a3506001949350505050565b6000805460ff16610cf65760405162461bcd60e51b81526004016108f9906149cd565b323460016001600160a01b038516600090815260026020526040902054600160a01b900460ff166004811115610d2e57610d2e61442b565b1480610d6d575060026001600160a01b038516600090815260026020526040902054600160a01b900460ff166004811115610d6b57610d6b61442b565b145b610dcf5760405162461bcd60e51b815260206004820152602d60248201527f43616e2774207374616b6520746f20612076616c696461746f7220696e20616260448201526c6e6f726d616c2073746174757360981b60648201526084016108f9565b6001600160a01b0380831660009081526003602090815260408083209388168352929052206001015415610e505760405162461bcd60e51b815260206004820152602260248201527f43616e2774207374616b65207768656e20796f752061726520756e7374616b696044820152616e6760f01b60648201526084016108f9565b6001600160a01b03808516600081815260026020526040902091841603610ed9576801bc16d674ec800000828260010154610e8b91906149ba565b1015610ed45760405162461bcd60e51b81526020600482015260186024820152770a6e8c2d6d2dcce40c6ded2dce640dcdee840cadcdeeaced60431b60448201526064016108f9565b610f2d565b6801bc16d674ec800000821015610f2d5760405162461bcd60e51b81526020600482015260186024820152770a6e8c2d6d2dcce40c6ded2dce640dcdee840cadcdeeaced60431b60448201526064016108f9565b6001600160a01b0380841660009081526003602090815260408083209389168352929052908120549003611014576009810180546001600160a01b038086166000818152600360209081526040808320948c1680845294825280832060020186905560018601875595825280822090940180546001600160a01b031916909217909155908152600a909152908120549003610fde576001600160a01b0385166000908152600a602052604090204290555b6001600160a01b038086166000818152600a6020908152604080832054948816835260098252808320938352929052205561101f565b61101d856115c3565b505b81816001015461102f91906149ba565b600182015560028154600160a01b900460ff1660048111156110535761105361442b565b1461106a57805460ff60a01b1916600160a11b1781555b611078858260010154613809565b6001600160a01b038084166000908152600360209081526040808320938916835292905220546110a99083906149ba565b6001600160a01b038085166000908152600360209081526040808320938a16835292905220556006546110dd9083906149ba565b600655604080518381524260208201526001600160a01b0380881692908616917fb9ba725934532316cffe10975da6eb25ad49c2d1c294d982c46c9f8d684ee0759101610cc0565b919050565b6001600160a01b03808316600090815260096020908152604080832093851683529290529081205415611230576001600160a01b038083166000818152600b60209081526040808320948816835260098252808320848452825280832054835284825280832054938352600a8252808320548352939052918220546111af91906149f3565b9050801561122e576001600160a01b038085166000908152600360209081526040808320938716835292815290829020825160608101845281548082526001830154938201939093526002909101549281019290925268056bc75e2d631000009061121b908490614a06565b6112259190614a33565b92505050611234565b505b5060005b92915050565b6000805b60045481101561123057826001600160a01b03166004828154811061126557611265614a47565b6000918252602090912001546001600160a01b0316036112885750600192915050565b8061129281614a5d565b91505061123e565b3361f001146112e25760405162461bcd60e51b815260206004820152601460248201527350756e69736820636f6e7472616374206f6e6c7960601b60448201526064016108f9565b6001600160a01b03811660009081526002602052604090206007015461130782613ad2565b600554600110156113605761131b82613bea565b604080518281524260208201526001600160a01b038416917fa26de7ab324eac08c596549f421e5c8741213d237d2e9a2c9c0ebde0a7a849fe91015b60405180910390a25b5050565b6005818154811061137457600080fd5b6000918252602090912001546001600160a01b0316905081565b3361f001146113d65760405162461bcd60e51b815260206004820152601460248201527350756e69736820636f6e7472616374206f6e6c7960601b60448201526064016108f9565b6113df81613ad2565b50565b33411461141e5760405162461bcd60e51b815260206004820152600a6024820152694d696e6572206f6e6c7960b01b60448201526064016108f9565b436000908152600d602090815260408083206001845290915290205460ff161561148a5760405162461bcd60e51b815260206004820152601a60248201527f56616c696461746f727320616c7265616479207570646174656400000000000060448201526064016108f9565b60005460ff166114ac5760405162461bcd60e51b81526004016108f9906149cd565b806114b78143614a76565b156114f75760405162461bcd60e51b815260206004820152601060248201526f426c6f636b2065706f6368206f6e6c7960801b60448201526064016108f9565b436000908152600d6020908152604080832060018085529252909120805460ff1916909117905582516115635760405162461bcd60e51b815260206004820152601460248201527356616c696461746f722073657420656d7074792160601b60448201526064016108f9565b8251611576906004906020860190614205565b507feacea8f3c22f06c0b18306bdb04d0a967255129e8ce0094debb0a0ff89d006b5836040516115a69190614515565b60405180910390a1505050565b6004818154811061137457600080fd5b3260009081526009602090815260408083206001600160a01b03851684529091528120546116245760405162461bcd60e51b815260206004820152600e60248201526d1b9bdd1a1a5b99c81cdd185ad95960921b60448201526064016108f9565b3260008181526003602090815260408083206001600160a01b038716808552908352818420600b845282852095855260098452828520828652845282852054855285845282852054918552600a84528285205485529490925282205461168a91906149f3565b90508015611769576001600160a01b0384166000818152600a60209081526040808320543284526009835281842094845293909152812091909155825468056bc75e2d63100000906116dd908490614a06565b6116e79190614a33565b604051909150329082156108fc029083906000818181858888f19350505050158015611717573d6000803e3d6000fd5b50604080513281526001600160a01b03871660208201529081018290524260608201527f7daf1212d032f2f66db6dbb919bbd591be3d954b5b6ee491709cbb5fbe4f51709060800160405180910390a1505b5060019392505050565b60003361f002146117bf5760405162461bcd60e51b815260206004820152601660248201527550726f706f73616c20636f6e7472616374206f6e6c7960501b60448201526064016108f9565b60005460ff166117e15760405162461bcd60e51b81526004016108f9906149cd565b60036001600160a01b038316600090815260026020526040902054600160a01b900460ff1660048111156118175761181761442b565b14158015611859575060046001600160a01b038316600090815260026020526040902054600160a01b900460ff1660048111156118565761185661442b565b14155b1561186657506001919050565b60046001600160a01b038316600090815260026020526040902054600160a01b900460ff16600481111561189c5761189c61442b565b0361194c57600c546040516363e1d45160e01b81526001600160a01b038481166004830152909116906363e1d451906024016020604051808303816000875af11580156118ed573d6000803e3d6000fd5b505050506040513d601f19601f820116820180604052508101906119119190614a8a565b61194c5760405162461bcd60e51b815260206004820152600c60248201526b18db19585b8819985a5b195960a21b60448201526064016108f9565b6001600160a01b038216600081815260026020908152604091829020805460ff60a01b1916600160a11b17905590514281527fd8b2c426ec1be69ca7583d26b1e893946e3227430d3ebc3bd64d9e1c469cb400910160405180910390a2506001919050565b6001600160a01b038181166000908152600260209081526040808320815160e0810190925280549485168252929384938493849384936060938593909190830190600160a01b900460ff166004811115611a0d57611a0d61442b565b6004811115611a1e57611a1e61442b565b815260200160018201548152602001600282016040518060a0016040529081600082018054611a4c90614aac565b80601f0160208091040260200160405190810160405280929190818152602001828054611a7890614aac565b8015611ac55780601f10611a9a57610100808354040283529160200191611ac5565b820191906000526020600020905b815481529060010190602001808311611aa857829003601f168201915b50505050508152602001600182018054611ade90614aac565b80601f0160208091040260200160405190810160405280929190818152602001828054611b0a90614aac565b8015611b575780601f10611b2c57610100808354040283529160200191611b57565b820191906000526020600020905b815481529060010190602001808311611b3a57829003601f168201915b50505050508152602001600282018054611b7090614aac565b80601f0160208091040260200160405190810160405280929190818152602001828054611b9c90614aac565b8015611be95780601f10611bbe57610100808354040283529160200191611be9565b820191906000526020600020905b815481529060010190602001808311611bcc57829003601f168201915b50505050508152602001600382018054611c0290614aac565b80601f0160208091040260200160405190810160405280929190818152602001828054611c2e90614aac565b8015611c7b5780601f10611c5057610100808354040283529160200191611c7b565b820191906000526020600020905b815481529060010190602001808311611c5e57829003601f168201915b50505050508152602001600482018054611c9490614aac565b80601f0160208091040260200160405190810160405280929190818152602001828054611cc090614aac565b8015611d0d5780601f10611ce257610100808354040283529160200191611d0d565b820191906000526020600020905b815481529060010190602001808311611cf057829003601f168201915b5050505050815250508152602001600782015481526020016008820154815260200160098201805480602002602001604051908101604052809291908181526020018280548015611d8757602002820191906000526020600020905b81546001600160a01b03168152600190910190602001808311611d69575b505050919092525050815160208301516040840151608085015160a086015160c090960151939e929d50909b5099509297509550909350505050565b6000805b60055481101561123057826001600160a01b031660058281548110611dee57611dee614a47565b6000918252602090912001546001600160a01b031603611e115750600192915050565b80611e1b81614a5d565b915050611dc7565b60606004805480602002602001604051908101604052809291908181526020018280548015611e7b57602002820191906000526020600020905b81546001600160a01b03168152600190910190602001808311611e5d575b5050505050905090565b60005460ff1615611ece5760405162461bcd60e51b8152602060048201526013602482015272105b1c9958591e481a5b9a5d1a585b1a5e9959606a1b60448201526064016108f9565b600c80546001600160a01b03191661f00117905560005b8181101561227c576000838383818110611f0157611f01614a47565b9050602002016020810190611f169190614294565b6001600160a01b031603611f6c5760405162461bcd60e51b815260206004820152601960248201527f496e76616c69642076616c696461746f7220616464726573730000000000000060448201526064016108f9565b42600a6000858585818110611f8357611f83614a47565b9050602002016020810190611f989190614294565b6001600160a01b03168152602081019190915260400160002055611fdc838383818110611fc757611fc7614a47565b90506020020160208101906104349190614294565b61203c576004838383818110611ff457611ff4614a47565b90506020020160208101906120099190614294565b81546001810183556000928352602090922090910180546001600160a01b0319166001600160a01b039092169190911790555b61206683838381811061205157612051614a47565b90506020020160208101906106679190614294565b6120c657600583838381811061207e5761207e614a47565b90506020020160208101906120939190614294565b81546001810183556000928352602090922090910180546001600160a01b0319166001600160a01b039092169190911790555b60006002818585858181106120dd576120dd614a47565b90506020020160208101906120f29190614294565b6001600160a01b03908116825260208201929092526040016000205416036121985782828281811061212657612126614a47565b905060200201602081019061213b9190614294565b6002600085858581811061215157612151614a47565b90506020020160208101906121669190614294565b6001600160a01b039081168252602082019290925260400160002080546001600160a01b031916929091169190911790555b6000600260008585858181106121b0576121b0614a47565b90506020020160208101906121c59190614294565b6001600160a01b03168152602081019190915260400160002054600160a01b900460ff1660048111156121fa576121fa61442b565b0361226a57600280600085858581811061221657612216614a47565b905060200201602081019061222b9190614294565b6001600160a01b031681526020810191909152604001600020805460ff60a01b1916600160a01b8360048111156122645761226461442b565b02179055505b8061227481614a5d565b915050611ee5565b50506000805460ff1916600117905550565b6000805460ff166122b15760405162461bcd60e51b81526004016108f9906149cd565b6001600160a01b038c166122fd5760405162461bcd60e51b8152602060048201526013602482015272496e76616c696420666565206164647265737360681b60448201526064016108f9565b61240c8b8b8080601f01602080910402602001604051908101604052809392919081815260200183838082843760009201919091525050604080516020601f8f018190048102820181019092528d815292508d91508c908190840183828082843760009201919091525050604080516020601f8e018190048102820181019092528c815292508c91508b908190840183828082843760009201919091525050604080516020601f8d018190048102820181019092528b815292508b91508a908190840183828082843760009201919091525050604080516020601f8c018190048102820181019092528a815292508a9150899081908401838280828437600092019190915250612c7292505050565b61244e5760405162461bcd60e51b815260206004820152601360248201527224b73b30b634b2103232b9b1b934b83a34b7b760691b60448201526064016108f9565b326000818152600260205260408120548190600160a01b900460ff16600481111561247b5761247b61442b565b036124b157506001600160a01b0381166000908152600260205260409020805460ff60a01b1916600160a01b17905560016124c2565b34156124c2576000925050506127f6565b6001600160a01b038281166000908152600260205260409020548116908f1614612534578d60026000846001600160a01b03166001600160a01b0316815260200190815260200160002060000160006101000a8154816001600160a01b0302191690836001600160a01b031602179055505b6040518060a001604052808e8e8080601f016020809104026020016040519081016040528093929190818152602001838380828437600092019190915250505090825250604080516020601f8f018190048102820181019092528d815291810191908e908e9081908401838280828437600092019190915250505090825250604080516020601f8d018190048102820181019092528b815291810191908c908c9081908401838280828437600092019190915250505090825250604080516020601f8b0181900481028201810190925289815291810191908a908a9081908401838280828437600092019190915250505090825250604080516020601f89018190048102820181019092528781529181019190889088908190840183828082843760009201829052509390945250506001600160a01b0385168152600260208190526040909120835191019150819061268d9082614b35565b50602082015160018201906126a29082614b35565b50604082015160028201906126b79082614b35565b50606082015160038201906126cc9082614b35565b50608082015160048201906126e19082614b35565b5090505080156127a15769017b7883c069166000003410156127455760405162461bcd60e51b815260206004820152601860248201527f496e76616c69642076616c696461746f7220616d6f756e74000000000000000060448201526064016108f9565b61274e82610cd3565b508d6001600160a01b0316826001600160a01b03167f887eec9d757b7247dd8e51198f9d1b8f27979bceb34bdcc1bffd4ec5ec736c224260405161279491815260200190565b60405180910390a36127ef565b8d6001600160a01b0316826001600160a01b03167fb8421f65501371f54d58de1937ff1e1ccdb76423ef6f84acea1814a0f6362ca0426040516127e691815260200190565b60405180910390a35b6001925050505b9b9a5050505050505050505050565b6001600160a01b038181166000908152600260209081526040808320815160e081019092528054948516825260609485948594859485949293909291830190600160a01b900460ff16600481111561285f5761285f61442b565b60048111156128705761287061442b565b815260200160018201548152602001600282016040518060a001604052908160008201805461289e90614aac565b80601f01602080910402602001604051908101604052809291908181526020018280546128ca90614aac565b80156129175780601f106128ec57610100808354040283529160200191612917565b820191906000526020600020905b8154815290600101906020018083116128fa57829003601f168201915b5050505050815260200160018201805461293090614aac565b80601f016020809104026020016040519081016040528092919081815260200182805461295c90614aac565b80156129a95780601f1061297e576101008083540402835291602001916129a9565b820191906000526020600020905b81548152906001019060200180831161298c57829003601f168201915b505050505081526020016002820180546129c290614aac565b80601f01602080910402602001604051908101604052809291908181526020018280546129ee90614aac565b8015612a3b5780601f10612a1057610100808354040283529160200191612a3b565b820191906000526020600020905b815481529060010190602001808311612a1e57829003601f168201915b50505050508152602001600382018054612a5490614aac565b80601f0160208091040260200160405190810160405280929190818152602001828054612a8090614aac565b8015612acd5780601f10612aa257610100808354040283529160200191612acd565b820191906000526020600020905b815481529060010190602001808311612ab057829003601f168201915b50505050508152602001600482018054612ae690614aac565b80601f0160208091040260200160405190810160405280929190818152602001828054612b1290614aac565b8015612b5f5780601f10612b3457610100808354040283529160200191612b5f565b820191906000526020600020905b815481529060010190602001808311612b4257829003601f168201915b5050505050815250508152602001600782015481526020016008820154815260200160098201805480602002602001604051908101604052809291908181526020018280548015612bd957602002820191906000526020600020905b81546001600160a01b03168152600190910190602001808311612bbb575b5050509190925250505060609081015180516020820151604083015193830151608090930151919b909a50929850909650945092505050565b60606005805480602002602001604051908101604052809291908181526020018280548015611e7b576020028201919060005260206000209081546001600160a01b03168152600190910190602001808311611e5d575050505050905090565b6000604686511115612cbf5760405162461bcd60e51b8152602060048201526016602482015275092dcecc2d8d2c840dadedcd2d6cae440d8cadccee8d60531b60448201526064016108f9565b610bb885511115612d125760405162461bcd60e51b815260206004820152601760248201527f496e76616c6964206964656e74697479206c656e67746800000000000000000060448201526064016108f9565b608c84511115612d5d5760405162461bcd60e51b8152602060048201526016602482015275092dcecc2d8d2c840eecac4e6d2e8ca40d8cadccee8d60531b60448201526064016108f9565b608c83511115612da65760405162461bcd60e51b8152602060048201526014602482015273092dcecc2d8d2c840cadac2d2d840d8cadccee8d60631b60448201526064016108f9565b61011882511115612df25760405162461bcd60e51b8152602060048201526016602482015275092dcecc2d8d2c840c8cae8c2d2d8e640d8cadccee8d60531b60448201526064016108f9565b50600195945050505050565b334114612e3a5760405162461bcd60e51b815260206004820152600a6024820152694d696e6572206f6e6c7960b01b60448201526064016108f9565b436000908152600d6020908152604080832083805290915290205460ff1615612ea55760405162461bcd60e51b815260206004820152601960248201527f426c6f636b20697320616c72656164792072657761726465640000000000000060448201526064016108f9565b60005460ff16612ec75760405162461bcd60e51b81526004016108f9906149cd565b436000908152600d602090815260408083208380529091528120805460ff19166001179055329034908190620186a0612f036201731884614a06565b612f0d9190614a33565b9050612f1981836149f3565b91506000620186a0612f2d61138886614a06565b612f379190614a33565b90506a084595161401484a00000081600154612f5391906149ba565b11612fb057612f6281846149f3565b92508060016000828254612f7691906149ba565b90915550508015612fb05760405160009082156108fc0290839083818181858288f19350505050158015612fae573d6000803e3d6000fd5b505b86511561315b576000620186a0612fc78287614a06565b612fd19190614a33565b9050612fdd81856149f3565b93506000885182612fee9190614a33565b905080156131585760005b89518110156131565760006001600160a01b03168a828151811061301f5761301f614a47565b60200260200101516001600160a01b031614158015613085575060006001600160a01b0316600860008c848151811061305a5761305a614a47565b6020908102919091018101516001600160a01b03908116835290820192909252604001600020541614155b80156130b3575060008982815181106130a0576130a0614a47565b60200260200101516001600160401b0316115b1561314457600860008b83815181106130ce576130ce614a47565b60200260200101516001600160a01b03166001600160a01b0316815260200190815260200160002060009054906101000a90046001600160a01b03166001600160a01b03166108fc839081150290604051600060405180830381858888f19350505050158015613142573d6000803e3d6000fd5b505b8061314e81614a5d565b915050612ff9565b505b50505b6001600160a01b0385166000818152600b60209081526040808320600a83528184208054855290835281842054948452429055600290915290206001015415613211576001600160a01b0386166000908152600260205260409020600101546131cd8568056bc75e2d63100000614a06565b6131d79190614a33565b6131e190826149ba565b6001600160a01b0387166000908152600b60209081526040808320600a835281842054845290915290205561324b565b6001600160a01b0386166000908152600b60209081526040808320600a8352818420548452909152902081905561324884846149ba565b92505b60006001600160a01b038716600090815260026020526040902054600160a01b900460ff1660048111156132815761328161442b565b03613290575050505050505050565b61329b836000613c5a565b856001600160a01b03167f1d6ce8f9f300ecd90371399ce90da8388bba45019701a1fd6d6ee08ea580077684428b8b6040516132da9493929190614bf4565b60405180910390a25050505050505050565b6001600160a01b03818116600090815260086020526040812054909116156133455760405162461bcd60e51b815260206004820152600c60248201526b1a5b9d985b1a590818d85b1b60a21b60448201526064016108f9565b506001600160a01b0316600090815260086020526040902080546001600160a01b03191632179055600190565b60008061337f6000613f8e565b915091509091565b6000805460ff166133aa5760405162461bcd60e51b81526004016108f9906149cd565b3260006001600160a01b038416600090815260026020526040902054600160a01b900460ff1660048111156133e1576133e161442b565b036134245760405162461bcd60e51b815260206004820152601360248201527215985b1a59185d1bdc881b9bdd08195e1a5cdd606a1b60448201526064016108f9565b6001600160a01b0380821660009081526003602090815260408083209387168352928152828220600290915291902081546001830154156134b35760405162461bcd60e51b815260206004820152602360248201527f596f752061726520616c726561647920696e20756e7374616b696e672073746160448201526274757360e81b60648201526084016108f9565b600081116134fe5760405162461bcd60e51b8152602060048201526018602482015277596f7520646f6e2774206861766520616e79207374616b6560401b60448201526064016108f9565b6005546001148015613514575061351486611dc3565b801561353757506801bc16d674ec80000081836001015461353591906149f3565b105b156135b85760405162461bcd60e51b815260206004820152604560248201527f596f752063616e277420756e7374616b652c2076616c696461746f72206c697360448201527f742077696c6c20626520656d7074792061667465722074686973206f7065726160648201526474696f6e2160d81b608482015260a4016108f9565b60098201546135c9906001906149f3565b8360020154146136b5576009820180546135e5906001906149f3565b815481106135f5576135f5614a47565b9060005260206000200160009054906101000a90046001600160a01b03168260090184600201548154811061362c5761362c614a47565b9060005260206000200160006101000a8154816001600160a01b0302191690836001600160a01b031602179055508260020154600360008460090186600201548154811061367c5761367c614a47565b60009182526020808320909101546001600160a01b0390811684528382019490945260409283018220938b168252929092529020600201555b816009018054806136c8576136c8614c5f565b600082815260209020810160001990810180546001600160a01b031916905501905560018201546136fa9082906149f3565b60018084019190915543908401556000600284015560065461371d9082906149f3565b60065560018201546801bc16d674ec800000118015613770575060046001600160a01b038716600090815260026020526040902054600160a01b900460ff16600481111561376d5761376d61442b565b14155b1561378f57815460ff60a01b1916600360a01b17825561378f866140a6565b613798866115c3565b506001600160a01b038481166000818152600960209081526040808320948b1680845294825280832092909255815185815242918101919091527f449002ae18e748d69a55f38514400d64f966492e593e32d6e9b8b24db98a0bc1910160405180910390a350600195945050505050565b60005b60055481101561386457826001600160a01b03166005828154811061383357613833614a47565b6000918252602090912001546001600160a01b03160361385257505050565b8061385c81614a5d565b91505061380c565b50600554603311156138ee57600580546001810182556000919091527f036b6384b5eca791c62761152d0c79bb0604c104a5fb6f4eb0703f3154bb3db00180546001600160a01b0319166001600160a01b0384169081179091556040514281527f1e3310ad6891b30e03874ec3d1422a6386c5da63d9faf595f5d99eeaf443b99a90602001611357565b600060026000600560008154811061390857613908614a47565b60009182526020808320909101546001600160a01b03168352820192909252604001812060019081015492505b6005548110156139dc5782600260006005848154811061395757613957614a47565b60009182526020808320909101546001600160a01b0316835282019290925260400190206001015410156139ca57600260006005838154811061399c5761399c614a47565b60009182526020808320909101546001600160a01b0316835282019290925260400190206001015492509050805b806139d481614a5d565b915050613935565b508183116139ea5750505050565b836001600160a01b03167f1e3310ad6891b30e03874ec3d1422a6386c5da63d9faf595f5d99eeaf443b99a42604051613a2591815260200190565b60405180910390a260058181548110613a4057613a40614a47565b600091825260209182902001546040514281526001600160a01b03909116917f7521e44559c870c316e84e60bc4785d9c034a8ab1d6acdce8134ac03f946c6ed910160405180910390a28360058281548110613a9e57613a9e614a47565b9060005260206000200160006101000a8154816001600160a01b0302191690836001600160a01b0316021790555050505050565b60006001600160a01b038216600090815260026020526040902054600160a01b900460ff166004811115613b0857613b0861442b565b1480613b175750600454600110155b15613b1f5750565b6001600160a01b0381166000908152600260205260409020600701548015613baa57613b4b8183613c5a565b80600754613b5991906149ba565b6007556001600160a01b038216600090815260026020526040902060080154613b839082906149ba565b6001600160a01b038316600090815260026020526040812060088101929092556007909101555b604080518281524260208201526001600160a01b038416917fe294e9d73f8eee23e21b2e1567960625a6b5d339cb127b55d0d09473a99512359101611357565b60006001600160a01b038216600090815260026020526040902054600160a01b900460ff166004811115613c2057613c2061442b565b03613c285750565b6001600160a01b0381166000908152600260205260409020805460ff60a01b1916600160a21b1790556113df816140a6565b81600003613c66575050565b600080613c7283613f8e565b90925090506000819003613c865750505050565b60008083600003613e0e576000613c9d8488614a33565b9050613ca98482614a06565b613cb390886149f3565b925060005b600454811015613da357600060048281548110613cd757613cd7614a47565b6000918252602090912001546001600160a01b0316905060046001600160a01b038216600090815260026020526040902054600160a01b900460ff166004811115613d2457613d2461442b565b14158015613d445750876001600160a01b0316816001600160a01b031614155b15613d90576001600160a01b038116600090815260026020526040902060070154613d709084906149ba565b6001600160a01b0382166000908152600260205260409020600701559250825b5080613d9b81614a5d565b915050613cb8565b50600083118015613dbc57506001600160a01b03821615155b15613e05576001600160a01b038216600090815260026020526040902060070154613de89084906149ba565b6001600160a01b0383166000908152600260205260409020600701555b50505050505050565b6000805b600454811015613f4057600060048281548110613e3157613e31614a47565b6000918252602090912001546001600160a01b0316905060046001600160a01b038216600090815260026020526040902054600160a01b900460ff166004811115613e7e57613e7e61442b565b14158015613e9e5750876001600160a01b0316816001600160a01b031614155b15613f2d576001600160a01b0381166000908152600260205260408120600101548890613ecb908c614a06565b613ed59190614a33565b9050613ee181856149ba565b6001600160a01b03831660009081526002602052604090206007015492955093508491613f0f9082906149ba565b6001600160a01b038316600090815260026020526040902060070155505b5080613f3881614a5d565b915050613e12565b50613f4b81886149f3565b9250600083118015613dbc57506001600160a01b03821615613e05576001600160a01b038216600090815260026020526040902060070154613de89084906149ba565b60008060005b6004548110156140a05760046002600060048481548110613fb757613fb7614a47565b60009182526020808320909101546001600160a01b0316835282019290925260400190205460ff600160a01b909104166004811115613ff857613ff861442b565b1415801561403057506004818154811061401457614014614a47565b6000918252602090912001546001600160a01b03858116911614155b1561408e57600260006004838154811061404c5761404c614a47565b60009182526020808320909101546001600160a01b0316835282019290925260400190206001015461407e90846149ba565b92508161408a81614a5d565b9250505b8061409881614a5d565b915050613f94565b50915091565b60005b600554811080156140bc57506005546001105b1561136057600581815481106140d4576140d4614a47565b6000918252602090912001546001600160a01b03908116908316036141f357600554614102906001906149f3565b81146141835760058054614118906001906149f3565b8154811061412857614128614a47565b600091825260209091200154600580546001600160a01b03909216918390811061415457614154614a47565b9060005260206000200160006101000a8154816001600160a01b0302191690836001600160a01b031602179055505b600580548061419457614194614c5f565b600082815260209020810160001990810180546001600160a01b03191690550190556040516001600160a01b038316907f7521e44559c870c316e84e60bc4785d9c034a8ab1d6acdce8134ac03f946c6ed906113579042815260200190565b806141fd81614a5d565b9150506140a9565b82805482825590600052602060002090810192821561425a579160200282015b8281111561425a57825182546001600160a01b0319166001600160a01b03909116178255602090920191600190910190614225565b5061426692915061426a565b5090565b5b80821115614266576000815560010161426b565b6001600160a01b03811681146113df57600080fd5b6000602082840312156142a657600080fd5b81356142b18161427f565b9392505050565b600080604083850312156142cb57600080fd5b82356142d68161427f565b915060208301356142e68161427f565b809150509250929050565b60006020828403121561430357600080fd5b5035919050565b634e487b7160e01b600052604160045260246000fd5b604051601f8201601f191681016001600160401b03811182821017156143485761434861430a565b604052919050565b60006001600160401b038211156143695761436961430a565b5060051b60200190565b600082601f83011261438457600080fd5b8135602061439961439483614350565b614320565b82815260059290921b840181019181810190868411156143b857600080fd5b8286015b848110156143dc5780356143cf8161427f565b83529183019183016143bc565b509695505050505050565b600080604083850312156143fa57600080fd5b82356001600160401b0381111561441057600080fd5b61441c85828601614373565b95602094909401359450505050565b634e487b7160e01b600052602160045260246000fd5b600081518084526020808501945080840160005b8381101561447a5781516001600160a01b031687529582019590820190600101614455565b509495945050505050565b6001600160a01b03871681526000600587106144b157634e487b7160e01b600052602160045260246000fd5b86602083015285604083015284606083015283608083015260c060a08301526144dd60c0830184614441565b98975050505050505050565b600080604083850312156144fc57600080fd5b82356145078161427f565b946020939093013593505050565b6020815260006142b16020830184614441565b6000806020838503121561453b57600080fd5b82356001600160401b038082111561455257600080fd5b818501915085601f83011261456657600080fd5b81358181111561457557600080fd5b8660208260051b850101111561458a57600080fd5b60209290920196919550909350505050565b80356111258161427f565b60008083601f8401126145b957600080fd5b5081356001600160401b038111156145d057600080fd5b6020830191508360208285010111156145e857600080fd5b9250929050565b600080600080600080600080600080600060c08c8e03121561461057600080fd5b6146198c61459c565b9a506001600160401b038060208e0135111561463457600080fd5b6146448e60208f01358f016145a7565b909b50995060408d013581101561465a57600080fd5b61466a8e60408f01358f016145a7565b909950975060608d013581101561468057600080fd5b6146908e60608f01358f016145a7565b909750955060808d01358110156146a657600080fd5b6146b68e60808f01358f016145a7565b909550935060a08d01358110156146cc57600080fd5b506146dd8d60a08e01358e016145a7565b81935080925050509295989b509295989b9093969950565b6000815180845260005b8181101561471b576020818501810151868301820152016146ff565b506000602082860101526020601f19601f83011685010191505092915050565b60a08152600061474e60a08301886146f5565b828103602084015261476081886146f5565b9050828103604084015261477481876146f5565b9050828103606084015261478881866146f5565b905082810360808401526144dd81856146f5565b600082601f8301126147ad57600080fd5b81356001600160401b038111156147c6576147c661430a565b6147d9601f8201601f1916602001614320565b8181528460208386010111156147ee57600080fd5b816020850160208301376000918101602001919091529392505050565b600080600080600060a0868803121561482357600080fd5b85356001600160401b038082111561483a57600080fd5b61484689838a0161479c565b9650602088013591508082111561485c57600080fd5b61486889838a0161479c565b9550604088013591508082111561487e57600080fd5b61488a89838a0161479c565b945060608801359150808211156148a057600080fd5b6148ac89838a0161479c565b935060808801359150808211156148c257600080fd5b506148cf8882890161479c565b9150509295509295909350565b600080604083850312156148ef57600080fd5b82356001600160401b038082111561490657600080fd5b61491286838701614373565b935060209150818501358181111561492957600080fd5b8501601f8101871361493a57600080fd5b803561494861439482614350565b81815260059190911b8201840190848101908983111561496757600080fd5b928501925b8284101561499457833585811681146149855760008081fd5b8252928501929085019061496c565b8096505050505050509250929050565b634e487b7160e01b600052601160045260246000fd5b80820180821115611234576112346149a4565b6020808252600c908201526b139bdd081a5b9a5d081e595d60a21b604082015260600190565b81810381811115611234576112346149a4565b8082028115828204841417611234576112346149a4565b634e487b7160e01b600052601260045260246000fd5b600082614a4257614a42614a1d565b500490565b634e487b7160e01b600052603260045260246000fd5b600060018201614a6f57614a6f6149a4565b5060010190565b600082614a8557614a85614a1d565b500690565b600060208284031215614a9c57600080fd5b815180151581146142b157600080fd5b600181811c90821680614ac057607f821691505b602082108103614ae057634e487b7160e01b600052602260045260246000fd5b50919050565b601f821115614b3057600081815260208120601f850160051c81016020861015614b0d5750805b601f850160051c820191505b81811015614b2c57828155600101614b19565b5050505b505050565b81516001600160401b03811115614b4e57614b4e61430a565b614b6281614b5c8454614aac565b84614ae6565b602080601f831160018114614b975760008415614b7f5750858301515b600019600386901b1c1916600185901b178555614b2c565b600085815260208120601f198616915b82811015614bc657888601518255948401946001909101908401614ba7565b5085821015614be45787850151600019600388901b60f8161c191681555b5050505050600190811b01905550565b84815260006020858184015260806040840152614c146080840186614441565b838103606085015284518082528286019183019060005b81811015614c505783516001600160401b031683529284019291840191600101614c2b565b50909998505050505050505050565b634e487b7160e01b600052603160045260246000fdfea264697066735822122012df8eb41c45f8a3a21b46e9126ab793b898a67c2037f7dfba811d170b7a2b9f64736f6c63430008110033",
			"opcodes": "PUSH1 0x80 PUSH1 0x40 MSTORE CALLVALUE DUP1 ISZERO PUSH2 0x10 JUMPI PUSH1 0x0 DUP1 REVERT JUMPDEST POP PUSH2 0x4CAB DUP1 PUSH2 0x20 PUSH1 0x0 CODECOPY PUSH1 0x0 RETURN INVALID PUSH1 0x80 PUSH1 0x40 MSTORE PUSH1 0x4 CALLDATASIZE LT PUSH2 0x271 JUMPI PUSH1 0x0 CALLDATALOAD PUSH1 0xE0 SHR DUP1 PUSH4 0x82BD3D92 GT PUSH2 0x14F JUMPI DUP1 PUSH4 0xAFEEA115 GT PUSH2 0xC1 JUMPI DUP1 PUSH4 0xC967F90F GT PUSH2 0x7A JUMPI DUP1 PUSH4 0xC967F90F EQ PUSH2 0x7C0 JUMPI DUP1 PUSH4 0xCD779D21 EQ PUSH2 0x7E8 JUMPI DUP1 PUSH4 0xD571770C EQ PUSH2 0x7FD JUMPI DUP1 PUSH4 0xDB78DD28 EQ PUSH2 0x833 JUMPI DUP1 PUSH4 0xF2888DBB EQ PUSH2 0x862 JUMPI DUP1 PUSH4 0xFCA737C0 EQ PUSH2 0x7E8 JUMPI PUSH1 0x0 DUP1 REVERT JUMPDEST DUP1 PUSH4 0xAFEEA115 EQ PUSH2 0x711 JUMPI DUP1 PUSH4 0xB6C88519 EQ PUSH2 0x726 JUMPI DUP1 PUSH4 0xBB1C0310 EQ PUSH2 0x746 JUMPI DUP1 PUSH4 0xBD10BA76 EQ PUSH2 0x759 JUMPI DUP1 PUSH4 0xBE645692 EQ PUSH2 0x779 JUMPI DUP1 PUSH4 0xC253C384 EQ PUSH2 0x796 JUMPI PUSH1 0x0 DUP1 REVERT JUMPDEST DUP1 PUSH4 0x98E3B626 GT PUSH2 0x113 JUMPI DUP1 PUSH4 0x98E3B626 EQ PUSH2 0x64C JUMPI DUP1 PUSH4 0x9D7714CE EQ PUSH2 0x66C JUMPI DUP1 PUSH4 0x9DE70258 EQ PUSH2 0x68B JUMPI DUP1 PUSH4 0xA224CEE7 EQ PUSH2 0x6AD JUMPI DUP1 PUSH4 0xA406FCB7 EQ PUSH2 0x6CD JUMPI DUP1 PUSH4 0xA43569B3 EQ PUSH2 0x6E0 JUMPI PUSH1 0x0 DUP1 REVERT JUMPDEST DUP1 PUSH4 0x82BD3D92 EQ PUSH2 0x596 JUMPI DUP1 PUSH4 0x8A11D7C9 EQ PUSH2 0x5B6 JUMPI DUP1 PUSH4 0x8B0E9F3F EQ PUSH2 0x5E8 JUMPI DUP1 PUSH4 0x92F2C437 EQ PUSH2 0x5FE JUMPI DUP1 PUSH4 0x966FF650 EQ PUSH2 0x636 JUMPI PUSH1 0x0 DUP1 REVERT JUMPDEST DUP1 PUSH4 0x3B5D441E GT PUSH2 0x1E8 JUMPI DUP1 PUSH4 0x5DD09590 GT PUSH2 0x1AC JUMPI DUP1 PUSH4 0x5DD09590 EQ PUSH2 0x492 JUMPI DUP1 PUSH4 0x6233BE5D EQ PUSH2 0x4B2 JUMPI DUP1 PUSH4 0x6846992A EQ PUSH2 0x4C8 JUMPI DUP1 PUSH4 0x6969A25C EQ PUSH2 0x4E8 JUMPI DUP1 PUSH4 0x72D30A70 EQ PUSH2 0x508 JUMPI DUP1 PUSH4 0x7F4F95FA EQ PUSH2 0x528 JUMPI PUSH1 0x0 DUP1 REVERT JUMPDEST DUP1 PUSH4 0x3B5D441E EQ PUSH2 0x3EC JUMPI DUP1 PUSH4 0x40550A1C EQ PUSH2 0x419 JUMPI DUP1 PUSH4 0x40A141FF EQ PUSH2 0x439 JUMPI DUP1 PUSH4 0x42127EE7 EQ PUSH2 0x45B JUMPI DUP1 PUSH4 0x4B3D500B EQ PUSH2 0x472 JUMPI PUSH1 0x0 DUP1 REVERT JUMPDEST DUP1 PUSH4 0x1B5E358C GT PUSH2 0x23A JUMPI DUP1 PUSH4 0x1B5E358C EQ PUSH2 0x33F JUMPI DUP1 PUSH4 0x222D3B05 EQ PUSH2 0x36D JUMPI DUP1 PUSH4 0x26476204 EQ PUSH2 0x38D JUMPI DUP1 PUSH4 0x37DBC8CC EQ PUSH2 0x3A0 JUMPI DUP1 PUSH4 0x3A061BD3 EQ PUSH2 0x3B6 JUMPI DUP1 PUSH4 0x3AE898CA EQ PUSH2 0x3CC JUMPI PUSH1 0x0 DUP1 REVERT JUMPDEST DUP1 PUSH3 0x362A77 EQ PUSH2 0x276 JUMPI DUP1 PUSH4 0x1AEC704 EQ PUSH2 0x2AB JUMPI DUP1 PUSH4 0x976C65D EQ PUSH2 0x2F1 JUMPI DUP1 PUSH4 0x1303F7CF EQ PUSH2 0x30F JUMPI DUP1 PUSH4 0x158EF93E EQ PUSH2 0x325 JUMPI JUMPDEST PUSH1 0x0 DUP1 REVERT JUMPDEST CALLVALUE DUP1 ISZERO PUSH2 0x282 JUMPI PUSH1 0x0 DUP1 REVERT JUMPDEST POP PUSH2 0x296 PUSH2 0x291 CALLDATASIZE PUSH1 0x4 PUSH2 0x4294 JUMP JUMPDEST PUSH2 0x882 JUMP JUMPDEST PUSH1 0x40 MLOAD SWAP1 ISZERO ISZERO DUP2 MSTORE PUSH1 0x20 ADD JUMPDEST PUSH1 0x40 MLOAD DUP1 SWAP2 SUB SWAP1 RETURN JUMPDEST CALLVALUE DUP1 ISZERO PUSH2 0x2B7 JUMPI PUSH1 0x0 DUP1 REVERT JUMPDEST POP PUSH2 0x2E3 PUSH2 0x2C6 CALLDATASIZE PUSH1 0x4 PUSH2 0x42B8 JUMP JUMPDEST PUSH1 0x9 PUSH1 0x20 SWAP1 DUP2 MSTORE PUSH1 0x0 SWAP3 DUP4 MSTORE PUSH1 0x40 DUP1 DUP5 KECCAK256 SWAP1 SWAP2 MSTORE SWAP1 DUP3 MSTORE SWAP1 KECCAK256 SLOAD DUP2 JUMP JUMPDEST PUSH1 0x40 MLOAD SWAP1 DUP2 MSTORE PUSH1 0x20 ADD PUSH2 0x2A2 JUMP JUMPDEST CALLVALUE DUP1 ISZERO PUSH2 0x2FD JUMPI PUSH1 0x0 DUP1 REVERT JUMPDEST POP PUSH2 0x2E3 PUSH10 0x17B7883C06916600000 DUP2 JUMP JUMPDEST CALLVALUE DUP1 ISZERO PUSH2 0x31B JUMPI PUSH1 0x0 DUP1 REVERT JUMPDEST POP PUSH2 0x2E3 PUSH1 0x7 SLOAD DUP2 JUMP JUMPDEST CALLVALUE DUP1 ISZERO PUSH2 0x331 JUMPI PUSH1 0x0 DUP1 REVERT JUMPDEST POP PUSH1 0x0 SLOAD PUSH2 0x296 SWAP1 PUSH1 0xFF AND DUP2 JUMP JUMPDEST CALLVALUE DUP1 ISZERO PUSH2 0x34B JUMPI PUSH1 0x0 DUP1 REVERT JUMPDEST POP PUSH2 0x355 PUSH2 0xF001 DUP2 JUMP JUMPDEST PUSH1 0x40 MLOAD PUSH1 0x1 PUSH1 0x1 PUSH1 0xA0 SHL SUB SWAP1 SWAP2 AND DUP2 MSTORE PUSH1 0x20 ADD PUSH2 0x2A2 JUMP JUMPDEST CALLVALUE DUP1 ISZERO PUSH2 0x379 JUMPI PUSH1 0x0 DUP1 REVERT JUMPDEST POP PUSH2 0x296 PUSH2 0x388 CALLDATASIZE PUSH1 0x4 PUSH2 0x4294 JUMP JUMPDEST PUSH2 0xAA4 JUMP JUMPDEST PUSH2 0x296 PUSH2 0x39B CALLDATASIZE PUSH1 0x4 PUSH2 0x4294 JUMP JUMPDEST PUSH2 0xCD3 JUMP JUMPDEST CALLVALUE DUP1 ISZERO PUSH2 0x3AC JUMPI PUSH1 0x0 DUP1 REVERT JUMPDEST POP PUSH2 0x2E3 PUSH2 0x1388 DUP2 JUMP JUMPDEST CALLVALUE DUP1 ISZERO PUSH2 0x3C2 JUMPI PUSH1 0x0 DUP1 REVERT JUMPDEST POP PUSH2 0x355 PUSH2 0xF000 DUP2 JUMP JUMPDEST CALLVALUE DUP1 ISZERO PUSH2 0x3D8 JUMPI PUSH1 0x0 DUP1 REVERT JUMPDEST POP PUSH2 0x2E3 PUSH2 0x3E7 CALLDATASIZE PUSH1 0x4 PUSH2 0x42B8 JUMP JUMPDEST PUSH2 0x112A JUMP JUMPDEST CALLVALUE DUP1 ISZERO PUSH2 0x3F8 JUMPI PUSH1 0x0 DUP1 REVERT JUMPDEST POP PUSH2 0x2E3 PUSH2 0x407 CALLDATASIZE PUSH1 0x4 PUSH2 0x4294 JUMP JUMPDEST PUSH1 0xA PUSH1 0x20 MSTORE PUSH1 0x0 SWAP1 DUP2 MSTORE PUSH1 0x40 SWAP1 KECCAK256 SLOAD DUP2 JUMP JUMPDEST CALLVALUE DUP1 ISZERO PUSH2 0x425 JUMPI PUSH1 0x0 DUP1 REVERT JUMPDEST POP PUSH2 0x296 PUSH2 0x434 CALLDATASIZE PUSH1 0x4 PUSH2 0x4294 JUMP JUMPDEST PUSH2 0x123A JUMP JUMPDEST CALLVALUE DUP1 ISZERO PUSH2 0x445 JUMPI PUSH1 0x0 DUP1 REVERT JUMPDEST POP PUSH2 0x459 PUSH2 0x454 CALLDATASIZE PUSH1 0x4 PUSH2 0x4294 JUMP JUMPDEST PUSH2 0x129A JUMP JUMPDEST STOP JUMPDEST CALLVALUE DUP1 ISZERO PUSH2 0x467 JUMPI PUSH1 0x0 DUP1 REVERT JUMPDEST POP PUSH2 0x2E3 PUSH3 0x17318 DUP2 JUMP JUMPDEST CALLVALUE DUP1 ISZERO PUSH2 0x47E JUMPI PUSH1 0x0 DUP1 REVERT JUMPDEST POP PUSH2 0x355 PUSH2 0x48D CALLDATASIZE PUSH1 0x4 PUSH2 0x42F1 JUMP JUMPDEST PUSH2 0x1364 JUMP JUMPDEST CALLVALUE DUP1 ISZERO PUSH2 0x49E JUMPI PUSH1 0x0 DUP1 REVERT JUMPDEST POP PUSH2 0x459 PUSH2 0x4AD CALLDATASIZE PUSH1 0x4 PUSH2 0x4294 JUMP JUMPDEST PUSH2 0x138E JUMP JUMPDEST CALLVALUE DUP1 ISZERO PUSH2 0x4BE JUMPI PUSH1 0x0 DUP1 REVERT JUMPDEST POP PUSH2 0x355 PUSH2 0xF002 DUP2 JUMP JUMPDEST CALLVALUE DUP1 ISZERO PUSH2 0x4D4 JUMPI PUSH1 0x0 DUP1 REVERT JUMPDEST POP PUSH2 0x459 PUSH2 0x4E3 CALLDATASIZE PUSH1 0x4 PUSH2 0x43E7 JUMP JUMPDEST PUSH2 0x13E2 JUMP JUMPDEST CALLVALUE DUP1 ISZERO PUSH2 0x4F4 JUMPI PUSH1 0x0 DUP1 REVERT JUMPDEST POP PUSH2 0x355 PUSH2 0x503 CALLDATASIZE PUSH1 0x4 PUSH2 0x42F1 JUMP JUMPDEST PUSH2 0x15B3 JUMP JUMPDEST CALLVALUE DUP1 ISZERO PUSH2 0x514 JUMPI PUSH1 0x0 DUP1 REVERT JUMPDEST POP PUSH2 0x296 PUSH2 0x523 CALLDATASIZE PUSH1 0x4 PUSH2 0x4294 JUMP JUMPDEST PUSH2 0x15C3 JUMP JUMPDEST CALLVALUE DUP1 ISZERO PUSH2 0x534 JUMPI PUSH1 0x0 DUP1 REVERT JUMPDEST POP PUSH2 0x57B PUSH2 0x543 CALLDATASIZE PUSH1 0x4 PUSH2 0x42B8 JUMP JUMPDEST PUSH1 0x1 PUSH1 0x1 PUSH1 0xA0 SHL SUB SWAP2 DUP3 AND PUSH1 0x0 SWAP1 DUP2 MSTORE PUSH1 0x3 PUSH1 0x20 SWAP1 DUP2 MSTORE PUSH1 0x40 DUP1 DUP4 KECCAK256 SWAP4 SWAP1 SWAP5 AND DUP3 MSTORE SWAP2 SWAP1 SWAP2 MSTORE KECCAK256 DUP1 SLOAD PUSH1 0x1 DUP3 ADD SLOAD PUSH1 0x2 SWAP1 SWAP3 ADD SLOAD SWAP1 SWAP3 JUMP JUMPDEST PUSH1 0x40 DUP1 MLOAD SWAP4 DUP5 MSTORE PUSH1 0x20 DUP5 ADD SWAP3 SWAP1 SWAP3 MSTORE SWAP1 DUP3 ADD MSTORE PUSH1 0x60 ADD PUSH2 0x2A2 JUMP JUMPDEST CALLVALUE DUP1 ISZERO PUSH2 0x5A2 JUMPI PUSH1 0x0 DUP1 REVERT JUMPDEST POP PUSH2 0x296 PUSH2 0x5B1 CALLDATASIZE PUSH1 0x4 PUSH2 0x4294 JUMP JUMPDEST PUSH2 0x1773 JUMP JUMPDEST CALLVALUE DUP1 ISZERO PUSH2 0x5C2 JUMPI PUSH1 0x0 DUP1 REVERT JUMPDEST POP PUSH2 0x5D6 PUSH2 0x5D1 CALLDATASIZE PUSH1 0x4 PUSH2 0x4294 JUMP JUMPDEST PUSH2 0x19B1 JUMP JUMPDEST PUSH1 0x40 MLOAD PUSH2 0x2A2 SWAP7 SWAP6 SWAP5 SWAP4 SWAP3 SWAP2 SWAP1 PUSH2 0x4485 JUMP JUMPDEST CALLVALUE DUP1 ISZERO PUSH2 0x5F4 JUMPI PUSH1 0x0 DUP1 REVERT JUMPDEST POP PUSH2 0x2E3 PUSH1 0x6 SLOAD DUP2 JUMP JUMPDEST CALLVALUE DUP1 ISZERO PUSH2 0x60A JUMPI PUSH1 0x0 DUP1 REVERT JUMPDEST POP PUSH2 0x2E3 PUSH2 0x619 CALLDATASIZE PUSH1 0x4 PUSH2 0x44E9 JUMP JUMPDEST PUSH1 0xB PUSH1 0x20 SWAP1 DUP2 MSTORE PUSH1 0x0 SWAP3 DUP4 MSTORE PUSH1 0x40 DUP1 DUP5 KECCAK256 SWAP1 SWAP2 MSTORE SWAP1 DUP3 MSTORE SWAP1 KECCAK256 SLOAD DUP2 JUMP JUMPDEST CALLVALUE DUP1 ISZERO PUSH2 0x642 JUMPI PUSH1 0x0 DUP1 REVERT JUMPDEST POP PUSH2 0x2E3 PUSH1 0x1 SLOAD DUP2 JUMP JUMPDEST CALLVALUE DUP1 ISZERO PUSH2 0x658 JUMPI PUSH1 0x0 DUP1 REVERT JUMPDEST POP PUSH2 0x296 PUSH2 0x667 CALLDATASIZE PUSH1 0x4 PUSH2 0x4294 JUMP JUMPDEST PUSH2 0x1DC3 JUMP JUMPDEST CALLVALUE DUP1 ISZERO PUSH2 0x678 JUMPI PUSH1 0x0 DUP1 REVERT JUMPDEST POP PUSH2 0x2E3 PUSH11 0x84595161401484A000000 DUP2 JUMP JUMPDEST CALLVALUE DUP1 ISZERO PUSH2 0x697 JUMPI PUSH1 0x0 DUP1 REVERT JUMPDEST POP PUSH2 0x6A0 PUSH2 0x1E23 JUMP JUMPDEST PUSH1 0x40 MLOAD PUSH2 0x2A2 SWAP2 SWAP1 PUSH2 0x4515 JUMP JUMPDEST CALLVALUE DUP1 ISZERO PUSH2 0x6B9 JUMPI PUSH1 0x0 DUP1 REVERT JUMPDEST POP PUSH2 0x459 PUSH2 0x6C8 CALLDATASIZE PUSH1 0x4 PUSH2 0x4528 JUMP JUMPDEST PUSH2 0x1E85 JUMP JUMPDEST PUSH2 0x296 PUSH2 0x6DB CALLDATASIZE PUSH1 0x4 PUSH2 0x45EF JUMP JUMPDEST PUSH2 0x228E JUMP JUMPDEST CALLVALUE DUP1 ISZERO PUSH2 0x6EC JUMPI PUSH1 0x0 DUP1 REVERT JUMPDEST POP PUSH2 0x700 PUSH2 0x6FB CALLDATASIZE PUSH1 0x4 PUSH2 0x4294 JUMP JUMPDEST PUSH2 0x2805 JUMP JUMPDEST PUSH1 0x40 MLOAD PUSH2 0x2A2 SWAP6 SWAP5 SWAP4 SWAP3 SWAP2 SWAP1 PUSH2 0x473B JUMP JUMPDEST CALLVALUE DUP1 ISZERO PUSH2 0x71D JUMPI PUSH1 0x0 DUP1 REVERT JUMPDEST POP PUSH2 0x6A0 PUSH2 0x2C12 JUMP JUMPDEST CALLVALUE DUP1 ISZERO PUSH2 0x732 JUMPI PUSH1 0x0 DUP1 REVERT JUMPDEST POP PUSH2 0x296 PUSH2 0x741 CALLDATASIZE PUSH1 0x4 PUSH2 0x480B JUMP JUMPDEST PUSH2 0x2C72 JUMP JUMPDEST PUSH2 0x459 PUSH2 0x754 CALLDATASIZE PUSH1 0x4 PUSH2 0x48DC JUMP JUMPDEST PUSH2 0x2DFE JUMP JUMPDEST CALLVALUE DUP1 ISZERO PUSH2 0x765 JUMPI PUSH1 0x0 DUP1 REVERT JUMPDEST POP PUSH2 0x296 PUSH2 0x774 CALLDATASIZE PUSH1 0x4 PUSH2 0x4294 JUMP JUMPDEST PUSH2 0x32EC JUMP JUMPDEST CALLVALUE DUP1 ISZERO PUSH2 0x785 JUMPI PUSH1 0x0 DUP1 REVERT JUMPDEST POP PUSH2 0x2E3 PUSH9 0x1BC16D674EC800000 DUP2 JUMP JUMPDEST CALLVALUE DUP1 ISZERO PUSH2 0x7A2 JUMPI PUSH1 0x0 DUP1 REVERT JUMPDEST POP PUSH2 0x7AB PUSH2 0x3372 JUMP JUMPDEST PUSH1 0x40 DUP1 MLOAD SWAP3 DUP4 MSTORE PUSH1 0x20 DUP4 ADD SWAP2 SWAP1 SWAP2 MSTORE ADD PUSH2 0x2A2 JUMP JUMPDEST CALLVALUE DUP1 ISZERO PUSH2 0x7CC JUMPI PUSH1 0x0 DUP1 REVERT JUMPDEST POP PUSH2 0x7D5 PUSH1 0x33 DUP2 JUMP JUMPDEST PUSH1 0x40 MLOAD PUSH2 0xFFFF SWAP1 SWAP2 AND DUP2 MSTORE PUSH1 0x20 ADD PUSH2 0x2A2 JUMP JUMPDEST CALLVALUE DUP1 ISZERO PUSH2 0x7F4 JUMPI PUSH1 0x0 DUP1 REVERT JUMPDEST POP PUSH2 0x2E3 PUSH1 0x0 DUP2 JUMP JUMPDEST CALLVALUE DUP1 ISZERO PUSH2 0x809 JUMPI PUSH1 0x0 DUP1 REVERT JUMPDEST POP PUSH2 0x355 PUSH2 0x818 CALLDATASIZE PUSH1 0x4 PUSH2 0x4294 JUMP JUMPDEST PUSH1 0x8 PUSH1 0x20 MSTORE PUSH1 0x0 SWAP1 DUP2 MSTORE PUSH1 0x40 SWAP1 KECCAK256 SLOAD PUSH1 0x1 PUSH1 0x1 PUSH1 0xA0 SHL SUB AND DUP2 JUMP JUMPDEST CALLVALUE DUP1 ISZERO PUSH2 0x83F JUMPI PUSH1 0x0 DUP1 REVERT JUMPDEST POP PUSH2 0x84A PUSH3 0x15180 DUP2 JUMP JUMPDEST PUSH1 0x40 MLOAD PUSH1 0x1 PUSH1 0x1 PUSH1 0x40 SHL SUB SWAP1 SWAP2 AND DUP2 MSTORE PUSH1 0x20 ADD PUSH2 0x2A2 JUMP JUMPDEST CALLVALUE DUP1 ISZERO PUSH2 0x86E JUMPI PUSH1 0x0 DUP1 REVERT JUMPDEST POP PUSH2 0x296 PUSH2 0x87D CALLDATASIZE PUSH1 0x4 PUSH2 0x4294 JUMP JUMPDEST PUSH2 0x3387 JUMP JUMPDEST PUSH1 0x0 ORIGIN DUP2 PUSH1 0x1 PUSH1 0x1 PUSH1 0xA0 SHL SUB DUP5 AND PUSH1 0x0 SWAP1 DUP2 MSTORE PUSH1 0x2 PUSH1 0x20 MSTORE PUSH1 0x40 SWAP1 KECCAK256 SLOAD PUSH1 0x1 PUSH1 0xA0 SHL SWAP1 DIV PUSH1 0xFF AND PUSH1 0x4 DUP2 GT ISZERO PUSH2 0x8BA JUMPI PUSH2 0x8BA PUSH2 0x442B JUMP JUMPDEST SUB PUSH2 0x902 JUMPI PUSH1 0x40 MLOAD PUSH3 0x461BCD PUSH1 0xE5 SHL DUP2 MSTORE PUSH1 0x20 PUSH1 0x4 DUP3 ADD MSTORE PUSH1 0x13 PUSH1 0x24 DUP3 ADD MSTORE PUSH19 0x15985B1A59185D1BDC881B9BDD08195E1A5CDD PUSH1 0x6A SHL PUSH1 0x44 DUP3 ADD MSTORE PUSH1 0x64 ADD JUMPDEST PUSH1 0x40 MLOAD DUP1 SWAP2 SUB SWAP1 REVERT JUMPDEST PUSH1 0x1 PUSH1 0x1 PUSH1 0xA0 SHL SUB DUP4 DUP2 AND PUSH1 0x0 SWAP1 DUP2 MSTORE PUSH1 0x2 PUSH1 0x20 MSTORE PUSH1 0x40 SWAP1 KECCAK256 SLOAD DUP2 AND SWAP1 DUP3 AND EQ PUSH2 0x985 JUMPI PUSH1 0x40 MLOAD PUSH3 0x461BCD PUSH1 0xE5 SHL DUP2 MSTORE PUSH1 0x20 PUSH1 0x4 DUP3 ADD MSTORE PUSH1 0x2E PUSH1 0x24 DUP3 ADD MSTORE PUSH32 0x596F7520617265206E6F742074686520666565207265636569766572206F6620 PUSH1 0x44 DUP3 ADD MSTORE PUSH14 0x3A3434B9903B30B634B230BA37B9 PUSH1 0x91 SHL PUSH1 0x64 DUP3 ADD MSTORE PUSH1 0x84 ADD PUSH2 0x8F9 JUMP JUMPDEST PUSH1 0x1 PUSH1 0x1 PUSH1 0xA0 SHL SUB DUP4 AND PUSH1 0x0 SWAP1 DUP2 MSTORE PUSH1 0x2 PUSH1 0x20 MSTORE PUSH1 0x40 SWAP1 KECCAK256 PUSH1 0x7 ADD SLOAD DUP1 PUSH2 0x9EE JUMPI PUSH1 0x40 MLOAD PUSH3 0x461BCD PUSH1 0xE5 SHL DUP2 MSTORE PUSH1 0x20 PUSH1 0x4 DUP3 ADD MSTORE PUSH1 0x1A PUSH1 0x24 DUP3 ADD MSTORE PUSH32 0x596F7520646F6E2774206861766520616E792070726F66697473000000000000 PUSH1 0x44 DUP3 ADD MSTORE PUSH1 0x64 ADD PUSH2 0x8F9 JUMP JUMPDEST PUSH1 0x1 PUSH1 0x1 PUSH1 0xA0 SHL SUB DUP5 AND PUSH1 0x0 SWAP1 DUP2 MSTORE PUSH1 0x2 PUSH1 0x20 MSTORE PUSH1 0x40 DUP2 KECCAK256 PUSH1 0x7 ADD SSTORE DUP1 ISZERO PUSH2 0xA48 JUMPI PUSH1 0x40 MLOAD PUSH1 0x1 PUSH1 0x1 PUSH1 0xA0 SHL SUB DUP4 AND SWAP1 DUP3 ISZERO PUSH2 0x8FC MUL SWAP1 DUP4 SWAP1 PUSH1 0x0 DUP2 DUP2 DUP2 DUP6 DUP9 DUP9 CALL SWAP4 POP POP POP POP ISZERO DUP1 ISZERO PUSH2 0xA46 JUMPI RETURNDATASIZE PUSH1 0x0 DUP1 RETURNDATACOPY RETURNDATASIZE PUSH1 0x0 REVERT JUMPDEST POP JUMPDEST PUSH2 0xA51 DUP5 PUSH2 0x15C3 JUMP JUMPDEST POP PUSH1 0x40 DUP1 MLOAD DUP3 DUP2 MSTORE TIMESTAMP PUSH1 0x20 DUP3 ADD MSTORE PUSH1 0x1 PUSH1 0x1 PUSH1 0xA0 SHL SUB DUP1 DUP6 AND SWAP3 SWAP1 DUP8 AND SWAP2 PUSH32 0x51A69B4502F660774C9339825C7B5ADBF0B8622289134647E29728EC5D9B3BB9 SWAP2 ADD PUSH1 0x40 MLOAD DUP1 SWAP2 SUB SWAP1 LOG3 POP PUSH1 0x1 SWAP4 SWAP3 POP POP POP JUMP JUMPDEST ORIGIN PUSH1 0x0 DUP2 DUP2 MSTORE PUSH1 0x3 PUSH1 0x20 SWAP1 DUP2 MSTORE PUSH1 0x40 DUP1 DUP4 KECCAK256 PUSH1 0x1 PUSH1 0x1 PUSH1 0xA0 SHL SUB DUP7 AND DUP5 MSTORE DUP3 MSTORE DUP1 DUP4 KECCAK256 PUSH1 0x2 SWAP1 SWAP3 MSTORE DUP3 KECCAK256 SLOAD SWAP2 SWAP3 SWAP2 DUP4 SWAP1 PUSH1 0x1 PUSH1 0xA0 SHL SWAP1 DIV PUSH1 0xFF AND PUSH1 0x4 DUP2 GT ISZERO PUSH2 0xAEF JUMPI PUSH2 0xAEF PUSH2 0x442B JUMP JUMPDEST SUB PUSH2 0xB32 JUMPI PUSH1 0x40 MLOAD PUSH3 0x461BCD PUSH1 0xE5 SHL DUP2 MSTORE PUSH1 0x20 PUSH1 0x4 DUP3 ADD MSTORE PUSH1 0x13 PUSH1 0x24 DUP3 ADD MSTORE PUSH19 0x1D985B1A59185D1BDC881B9BDD08195E1A5CDD PUSH1 0x6A SHL PUSH1 0x44 DUP3 ADD MSTORE PUSH1 0x64 ADD PUSH2 0x8F9 JUMP JUMPDEST DUP1 PUSH1 0x1 ADD SLOAD PUSH1 0x0 SUB PUSH2 0xB86 JUMPI PUSH1 0x40 MLOAD PUSH3 0x461BCD PUSH1 0xE5 SHL DUP2 MSTORE PUSH1 0x20 PUSH1 0x4 DUP3 ADD MSTORE PUSH1 0x19 PUSH1 0x24 DUP3 ADD MSTORE PUSH32 0x596F75206861766520746F20756E7374616B6520666972737400000000000000 PUSH1 0x44 DUP3 ADD MSTORE PUSH1 0x64 ADD PUSH2 0x8F9 JUMP JUMPDEST PUSH1 0x1 DUP2 ADD SLOAD NUMBER SWAP1 PUSH2 0xB9B SWAP1 PUSH3 0x15180 SWAP1 PUSH2 0x49BA JUMP JUMPDEST GT ISZERO PUSH2 0xBF3 JUMPI PUSH1 0x40 MLOAD PUSH3 0x461BCD PUSH1 0xE5 SHL DUP2 MSTORE PUSH1 0x20 PUSH1 0x4 DUP3 ADD MSTORE PUSH1 0x21 PUSH1 0x24 DUP3 ADD MSTORE PUSH32 0x596F7572207374616B696E6720686176656E277420756E6C6F636B6564207965 PUSH1 0x44 DUP3 ADD MSTORE PUSH1 0x1D PUSH1 0xFA SHL PUSH1 0x64 DUP3 ADD MSTORE PUSH1 0x84 ADD PUSH2 0x8F9 JUMP JUMPDEST DUP1 SLOAD PUSH2 0xC3C JUMPI PUSH1 0x40 MLOAD PUSH3 0x461BCD PUSH1 0xE5 SHL DUP2 MSTORE PUSH1 0x20 PUSH1 0x4 DUP3 ADD MSTORE PUSH1 0x18 PUSH1 0x24 DUP3 ADD MSTORE PUSH24 0x596F7520646F6E2774206861766520616E79207374616B65 PUSH1 0x40 SHL PUSH1 0x44 DUP3 ADD MSTORE PUSH1 0x64 ADD PUSH2 0x8F9 JUMP JUMPDEST DUP1 SLOAD PUSH1 0x0 DUP1 DUP4 SSTORE PUSH1 0x1 DUP4 ADD DUP2 SWAP1 SSTORE PUSH1 0x40 MLOAD PUSH1 0x1 PUSH1 0x1 PUSH1 0xA0 SHL SUB DUP6 AND SWAP2 DUP4 ISZERO PUSH2 0x8FC MUL SWAP2 DUP5 SWAP2 DUP2 DUP2 DUP2 DUP6 DUP9 DUP9 CALL SWAP4 POP POP POP POP ISZERO DUP1 ISZERO PUSH2 0xC7E JUMPI RETURNDATASIZE PUSH1 0x0 DUP1 RETURNDATACOPY RETURNDATASIZE PUSH1 0x0 REVERT JUMPDEST POP PUSH1 0x40 DUP1 MLOAD DUP3 DUP2 MSTORE TIMESTAMP PUSH1 0x20 DUP3 ADD MSTORE PUSH1 0x1 PUSH1 0x1 PUSH1 0xA0 SHL SUB DUP1 DUP9 AND SWAP3 SWAP1 DUP7 AND SWAP2 PUSH32 0xA70CD94070CD852339A76B32CF2D95A3C8F2A322269163D276071C1C14955619 SWAP2 ADD JUMPDEST PUSH1 0x40 MLOAD DUP1 SWAP2 SUB SWAP1 LOG3 POP PUSH1 0x1 SWAP5 SWAP4 POP POP POP POP JUMP JUMPDEST PUSH1 0x0 DUP1 SLOAD PUSH1 0xFF AND PUSH2 0xCF6 JUMPI PUSH1 0x40 MLOAD PUSH3 0x461BCD PUSH1 0xE5 SHL DUP2 MSTORE PUSH1 0x4 ADD PUSH2 0x8F9 SWAP1 PUSH2 0x49CD JUMP JUMPDEST ORIGIN CALLVALUE PUSH1 0x1 PUSH1 0x1 PUSH1 0x1 PUSH1 0xA0 SHL SUB DUP6 AND PUSH1 0x0 SWAP1 DUP2 MSTORE PUSH1 0x2 PUSH1 0x20 MSTORE PUSH1 0x40 SWAP1 KECCAK256 SLOAD PUSH1 0x1 PUSH1 0xA0 SHL SWAP1 DIV PUSH1 0xFF AND PUSH1 0x4 DUP2 GT ISZERO PUSH2 0xD2E JUMPI PUSH2 0xD2E PUSH2 0x442B JUMP JUMPDEST EQ DUP1 PUSH2 0xD6D JUMPI POP PUSH1 0x2 PUSH1 0x1 PUSH1 0x1 PUSH1 0xA0 SHL SUB DUP6 AND PUSH1 0x0 SWAP1 DUP2 MSTORE PUSH1 0x2 PUSH1 0x20 MSTORE PUSH1 0x40 SWAP1 KECCAK256 SLOAD PUSH1 0x1 PUSH1 0xA0 SHL SWAP1 DIV PUSH1 0xFF AND PUSH1 0x4 DUP2 GT ISZERO PUSH2 0xD6B JUMPI PUSH2 0xD6B PUSH2 0x442B JUMP JUMPDEST EQ JUMPDEST PUSH2 0xDCF JUMPI PUSH1 0x40 MLOAD PUSH3 0x461BCD PUSH1 0xE5 SHL DUP2 MSTORE PUSH1 0x20 PUSH1 0x4 DUP3 ADD MSTORE PUSH1 0x2D PUSH1 0x24 DUP3 ADD MSTORE PUSH32 0x43616E2774207374616B6520746F20612076616C696461746F7220696E206162 PUSH1 0x44 DUP3 ADD MSTORE PUSH13 0x6E6F726D616C20737461747573 PUSH1 0x98 SHL PUSH1 0x64 DUP3 ADD MSTORE PUSH1 0x84 ADD PUSH2 0x8F9 JUMP JUMPDEST PUSH1 0x1 PUSH1 0x1 PUSH1 0xA0 SHL SUB DUP1 DUP4 AND PUSH1 0x0 SWAP1 DUP2 MSTORE PUSH1 0x3 PUSH1 0x20 SWAP1 DUP2 MSTORE PUSH1 0x40 DUP1 DUP4 KECCAK256 SWAP4 DUP9 AND DUP4 MSTORE SWAP3 SWAP1 MSTORE KECCAK256 PUSH1 0x1 ADD SLOAD ISZERO PUSH2 0xE50 JUMPI PUSH1 0x40 MLOAD PUSH3 0x461BCD PUSH1 0xE5 SHL DUP2 MSTORE PUSH1 0x20 PUSH1 0x4 DUP3 ADD MSTORE PUSH1 0x22 PUSH1 0x24 DUP3 ADD MSTORE PUSH32 0x43616E2774207374616B65207768656E20796F752061726520756E7374616B69 PUSH1 0x44 DUP3 ADD MSTORE PUSH2 0x6E67 PUSH1 0xF0 SHL PUSH1 0x64 DUP3 ADD MSTORE PUSH1 0x84 ADD PUSH2 0x8F9 JUMP JUMPDEST PUSH1 0x1 PUSH1 0x1 PUSH1 0xA0 SHL SUB DUP1 DUP6 AND PUSH1 0x0 DUP2 DUP2 MSTORE PUSH1 0x2 PUSH1 0x20 MSTORE PUSH1 0x40 SWAP1 KECCAK256 SWAP2 DUP5 AND SUB PUSH2 0xED9 JUMPI PUSH9 0x1BC16D674EC800000 DUP3 DUP3 PUSH1 0x1 ADD SLOAD PUSH2 0xE8B SWAP2 SWAP1 PUSH2 0x49BA JUMP JUMPDEST LT ISZERO PUSH2 0xED4 JUMPI PUSH1 0x40 MLOAD PUSH3 0x461BCD PUSH1 0xE5 SHL DUP2 MSTORE PUSH1 0x20 PUSH1 0x4 DUP3 ADD MSTORE PUSH1 0x18 PUSH1 0x24 DUP3 ADD MSTORE PUSH24 0xA6E8C2D6D2DCCE40C6DED2DCE640DCDEE840CADCDEEACED PUSH1 0x43 SHL PUSH1 0x44 DUP3 ADD MSTORE PUSH1 0x64 ADD PUSH2 0x8F9 JUMP JUMPDEST PUSH2 0xF2D JUMP JUMPDEST PUSH9 0x1BC16D674EC800000 DUP3 LT ISZERO PUSH2 0xF2D JUMPI PUSH1 0x40 MLOAD PUSH3 0x461BCD PUSH1 0xE5 SHL DUP2 MSTORE PUSH1 0x20 PUSH1 0x4 DUP3 ADD MSTORE PUSH1 0x18 PUSH1 0x24 DUP3 ADD MSTORE PUSH24 0xA6E8C2D6D2DCCE40C6DED2DCE640DCDEE840CADCDEEACED PUSH1 0x43 SHL PUSH1 0x44 DUP3 ADD MSTORE PUSH1 0x64 ADD PUSH2 0x8F9 JUMP JUMPDEST PUSH1 0x1 PUSH1 0x1 PUSH1 0xA0 SHL SUB DUP1 DUP5 AND PUSH1 0x0 SWAP1 DUP2 MSTORE PUSH1 0x3 PUSH1 0x20 SWAP1 DUP2 MSTORE PUSH1 0x40 DUP1 DUP4 KECCAK256 SWAP4 DUP10 AND DUP4 MSTORE SWAP3 SWAP1 MSTORE SWAP1 DUP2 KECCAK256 SLOAD SWAP1 SUB PUSH2 0x1014 JUMPI PUSH1 0x9 DUP2 ADD DUP1 SLOAD PUSH1 0x1 PUSH1 0x1 PUSH1 0xA0 SHL SUB DUP1 DUP7 AND PUSH1 0x0 DUP2 DUP2 MSTORE PUSH1 0x3 PUSH1 0x20 SWAP1 DUP2 MSTORE PUSH1 0x40 DUP1 DUP4 KECCAK256 SWAP5 DUP13 AND DUP1 DUP5 MSTORE SWAP5 DUP3 MSTORE DUP1 DUP4 KECCAK256 PUSH1 0x2 ADD DUP7 SWAP1 SSTORE PUSH1 0x1 DUP7 ADD DUP8 SSTORE SWAP6 DUP3 MSTORE DUP1 DUP3 KECCAK256 SWAP1 SWAP5 ADD DUP1 SLOAD PUSH1 0x1 PUSH1 0x1 PUSH1 0xA0 SHL SUB NOT AND SWAP1 SWAP3 OR SWAP1 SWAP2 SSTORE SWAP1 DUP2 MSTORE PUSH1 0xA SWAP1 SWAP2 MSTORE SWAP1 DUP2 KECCAK256 SLOAD SWAP1 SUB PUSH2 0xFDE JUMPI PUSH1 0x1 PUSH1 0x1 PUSH1 0xA0 SHL SUB DUP6 AND PUSH1 0x0 SWAP1 DUP2 MSTORE PUSH1 0xA PUSH1 0x20 MSTORE PUSH1 0x40 SWAP1 KECCAK256 TIMESTAMP SWAP1 SSTORE JUMPDEST PUSH1 0x1 PUSH1 0x1 PUSH1 0xA0 SHL SUB DUP1 DUP7 AND PUSH1 0x0 DUP2 DUP2 MSTORE PUSH1 0xA PUSH1 0x20 SWAP1 DUP2 MSTORE PUSH1 0x40 DUP1 DUP4 KECCAK256 SLOAD SWAP5 DUP9 AND DUP4 MSTORE PUSH1 0x9 DUP3 MSTORE DUP1 DUP4 KECCAK256 SWAP4 DUP4 MSTORE SWAP3 SWAP1 MSTORE KECCAK256 SSTORE PUSH2 0x101F JUMP JUMPDEST PUSH2 0x101D DUP6 PUSH2 0x15C3 JUMP JUMPDEST POP JUMPDEST DUP2 DUP2 PUSH1 0x1 ADD SLOAD PUSH2 0x102F SWAP2 SWAP1 PUSH2 0x49BA JUMP JUMPDEST PUSH1 0x1 DUP3 ADD SSTORE PUSH1 0x2 DUP2 SLOAD PUSH1 0x1 PUSH1 0xA0 SHL SWAP1 DIV PUSH1 0xFF AND PUSH1 0x4 DUP2 GT ISZERO PUSH2 0x1053 JUMPI PUSH2 0x1053 PUSH2 0x442B JUMP JUMPDEST EQ PUSH2 0x106A JUMPI DUP1 SLOAD PUSH1 0xFF PUSH1 0xA0 SHL NOT AND PUSH1 0x1 PUSH1 0xA1 SHL OR DUP2 SSTORE JUMPDEST PUSH2 0x1078 DUP6 DUP3 PUSH1 0x1 ADD SLOAD PUSH2 0x3809 JUMP JUMPDEST PUSH1 0x1 PUSH1 0x1 PUSH1 0xA0 SHL SUB DUP1 DUP5 AND PUSH1 0x0 SWAP1 DUP2 MSTORE PUSH1 0x3 PUSH1 0x20 SWAP1 DUP2 MSTORE PUSH1 0x40 DUP1 DUP4 KECCAK256 SWAP4 DUP10 AND DUP4 MSTORE SWAP3 SWAP1 MSTORE KECCAK256 SLOAD PUSH2 0x10A9 SWAP1 DUP4 SWAP1 PUSH2 0x49BA JUMP JUMPDEST PUSH1 0x1 PUSH1 0x1 PUSH1 0xA0 SHL SUB DUP1 DUP6 AND PUSH1 0x0 SWAP1 DUP2 MSTORE PUSH1 0x3 PUSH1 0x20 SWAP1 DUP2 MSTORE PUSH1 0x40 DUP1 DUP4 KECCAK256 SWAP4 DUP11 AND DUP4 MSTORE SWAP3 SWAP1 MSTORE KECCAK256 SSTORE PUSH1 0x6 SLOAD PUSH2 0x10DD SWAP1 DUP4 SWAP1 PUSH2 0x49BA JUMP JUMPDEST PUSH1 0x6 SSTORE PUSH1 0x40 DUP1 MLOAD DUP4 DUP2 MSTORE TIMESTAMP PUSH1 0x20 DUP3 ADD MSTORE PUSH1 0x1 PUSH1 0x1 PUSH1 0xA0 SHL SUB DUP1 DUP9 AND SWAP3 SWAP1 DUP7 AND SWAP2 PUSH32 0xB9BA725934532316CFFE10975DA6EB25AD49C2D1C294D982C46C9F8D684EE075 SWAP2 ADD PUSH2 0xCC0 JUMP JUMPDEST SWAP2 SWAP1 POP JUMP JUMPDEST PUSH1 0x1 PUSH1 0x1 PUSH1 0xA0 SHL SUB DUP1 DUP4 AND PUSH1 0x0 SWAP1 DUP2 MSTORE PUSH1 0x9 PUSH1 0x20 SWAP1 DUP2 MSTORE PUSH1 0x40 DUP1 DUP4 KECCAK256 SWAP4 DUP6 AND DUP4 MSTORE SWAP3 SWAP1 MSTORE SWAP1 DUP2 KECCAK256 SLOAD ISZERO PUSH2 0x1230 JUMPI PUSH1 0x1 PUSH1 0x1 PUSH1 0xA0 SHL SUB DUP1 DUP4 AND PUSH1 0x0 DUP2 DUP2 MSTORE PUSH1 0xB PUSH1 0x20 SWAP1 DUP2 MSTORE PUSH1 0x40 DUP1 DUP4 KECCAK256 SWAP5 DUP9 AND DUP4 MSTORE PUSH1 0x9 DUP3 MSTORE DUP1 DUP4 KECCAK256 DUP5 DUP5 MSTORE DUP3 MSTORE DUP1 DUP4 KECCAK256 SLOAD DUP4 MSTORE DUP5 DUP3 MSTORE DUP1 DUP4 KECCAK256 SLOAD SWAP4 DUP4 MSTORE PUSH1 0xA DUP3 MSTORE DUP1 DUP4 KECCAK256 SLOAD DUP4 MSTORE SWAP4 SWAP1 MSTORE SWAP2 DUP3 KECCAK256 SLOAD PUSH2 0x11AF SWAP2 SWAP1 PUSH2 0x49F3 JUMP JUMPDEST SWAP1 POP DUP1 ISZERO PUSH2 0x122E JUMPI PUSH1 0x1 PUSH1 0x1 PUSH1 0xA0 SHL SUB DUP1 DUP6 AND PUSH1 0x0 SWAP1 DUP2 MSTORE PUSH1 0x3 PUSH1 0x20 SWAP1 DUP2 MSTORE PUSH1 0x40 DUP1 DUP4 KECCAK256 SWAP4 DUP8 AND DUP4 MSTORE SWAP3 DUP2 MSTORE SWAP1 DUP3 SWAP1 KECCAK256 DUP3 MLOAD PUSH1 0x60 DUP2 ADD DUP5 MSTORE DUP2 SLOAD DUP1 DUP3 MSTORE PUSH1 0x1 DUP4 ADD SLOAD SWAP4 DUP3 ADD SWAP4 SWAP1 SWAP4 MSTORE PUSH1 0x2 SWAP1 SWAP2 ADD SLOAD SWAP3 DUP2 ADD SWAP3 SWAP1 SWAP3 MSTORE PUSH9 0x56BC75E2D63100000 SWAP1 PUSH2 0x121B SWAP1 DUP5 SWAP1 PUSH2 0x4A06 JUMP JUMPDEST PUSH2 0x1225 SWAP2 SWAP1 PUSH2 0x4A33 JUMP JUMPDEST SWAP3 POP POP POP PUSH2 0x1234 JUMP JUMPDEST POP JUMPDEST POP PUSH1 0x0 JUMPDEST SWAP3 SWAP2 POP POP JUMP JUMPDEST PUSH1 0x0 DUP1 JUMPDEST PUSH1 0x4 SLOAD DUP2 LT ISZERO PUSH2 0x1230 JUMPI DUP3 PUSH1 0x1 PUSH1 0x1 PUSH1 0xA0 SHL SUB AND PUSH1 0x4 DUP3 DUP2 SLOAD DUP2 LT PUSH2 0x1265 JUMPI PUSH2 0x1265 PUSH2 0x4A47 JUMP JUMPDEST PUSH1 0x0 SWAP2 DUP3 MSTORE PUSH1 0x20 SWAP1 SWAP2 KECCAK256 ADD SLOAD PUSH1 0x1 PUSH1 0x1 PUSH1 0xA0 SHL SUB AND SUB PUSH2 0x1288 JUMPI POP PUSH1 0x1 SWAP3 SWAP2 POP POP JUMP JUMPDEST DUP1 PUSH2 0x1292 DUP2 PUSH2 0x4A5D JUMP JUMPDEST SWAP2 POP POP PUSH2 0x123E JUMP JUMPDEST CALLER PUSH2 0xF001 EQ PUSH2 0x12E2 JUMPI PUSH1 0x40 MLOAD PUSH3 0x461BCD PUSH1 0xE5 SHL DUP2 MSTORE PUSH1 0x20 PUSH1 0x4 DUP3 ADD MSTORE PUSH1 0x14 PUSH1 0x24 DUP3 ADD MSTORE PUSH20 0x50756E69736820636F6E7472616374206F6E6C79 PUSH1 0x60 SHL PUSH1 0x44 DUP3 ADD MSTORE PUSH1 0x64 ADD PUSH2 0x8F9 JUMP JUMPDEST PUSH1 0x1 PUSH1 0x1 PUSH1 0xA0 SHL SUB DUP2 AND PUSH1 0x0 SWAP1 DUP2 MSTORE PUSH1 0x2 PUSH1 0x20 MSTORE PUSH1 0x40 SWAP1 KECCAK256 PUSH1 0x7 ADD SLOAD PUSH2 0x1307 DUP3 PUSH2 0x3AD2 JUMP JUMPDEST PUSH1 0x5 SLOAD PUSH1 0x1 LT ISZERO PUSH2 0x1360 JUMPI PUSH2 0x131B DUP3 PUSH2 0x3BEA JUMP JUMPDEST PUSH1 0x40 DUP1 MLOAD DUP3 DUP2 MSTORE TIMESTAMP PUSH1 0x20 DUP3 ADD MSTORE PUSH1 0x1 PUSH1 0x1 PUSH1 0xA0 SHL SUB DUP5 AND SWAP2 PUSH32 0xA26DE7AB324EAC08C596549F421E5C8741213D237D2E9A2C9C0EBDE0A7A849FE SWAP2 ADD JUMPDEST PUSH1 0x40 MLOAD DUP1 SWAP2 SUB SWAP1 LOG2 JUMPDEST POP POP JUMP JUMPDEST PUSH1 0x5 DUP2 DUP2 SLOAD DUP2 LT PUSH2 0x1374 JUMPI PUSH1 0x0 DUP1 REVERT JUMPDEST PUSH1 0x0 SWAP2 DUP3 MSTORE PUSH1 0x20 SWAP1 SWAP2 KECCAK256 ADD SLOAD PUSH1 0x1 PUSH1 0x1 PUSH1 0xA0 SHL SUB AND SWAP1 POP DUP2 JUMP JUMPDEST CALLER PUSH2 0xF001 EQ PUSH2 0x13D6 JUMPI PUSH1 0x40 MLOAD PUSH3 0x461BCD PUSH1 0xE5 SHL DUP2 MSTORE PUSH1 0x20 PUSH1 0x4 DUP3 ADD MSTORE PUSH1 0x14 PUSH1 0x24 DUP3 ADD MSTORE PUSH20 0x50756E69736820636F6E7472616374206F6E6C79 PUSH1 0x60 SHL PUSH1 0x44 DUP3 ADD MSTORE PUSH1 0x64 ADD PUSH2 0x8F9 JUMP JUMPDEST PUSH2 0x13DF DUP2 PUSH2 0x3AD2 JUMP JUMPDEST POP JUMP JUMPDEST CALLER COINBASE EQ PUSH2 0x141E JUMPI PUSH1 0x40 MLOAD PUSH3 0x461BCD PUSH1 0xE5 SHL DUP2 MSTORE PUSH1 0x20 PUSH1 0x4 DUP3 ADD MSTORE PUSH1 0xA PUSH1 0x24 DUP3 ADD MSTORE PUSH10 0x4D696E6572206F6E6C79 PUSH1 0xB0 SHL PUSH1 0x44 DUP3 ADD MSTORE PUSH1 0x64 ADD PUSH2 0x8F9 JUMP JUMPDEST NUMBER PUSH1 0x0 SWAP1 DUP2 MSTORE PUSH1 0xD PUSH1 0x20 SWAP1 DUP2 MSTORE PUSH1 0x40 DUP1 DUP4 KECCAK256 PUSH1 0x1 DUP5 MSTORE SWAP1 SWAP2 MSTORE SWAP1 KECCAK256 SLOAD PUSH1 0xFF AND ISZERO PUSH2 0x148A JUMPI PUSH1 0x40 MLOAD PUSH3 0x461BCD PUSH1 0xE5 SHL DUP2 MSTORE PUSH1 0x20 PUSH1 0x4 DUP3 ADD MSTORE PUSH1 0x1A PUSH1 0x24 DUP3 ADD MSTORE PUSH32 0x56616C696461746F727320616C72656164792075706461746564000000000000 PUSH1 0x44 DUP3 ADD MSTORE PUSH1 0x64 ADD PUSH2 0x8F9 JUMP JUMPDEST PUSH1 0x0 SLOAD PUSH1 0xFF AND PUSH2 0x14AC JUMPI PUSH1 0x40 MLOAD PUSH3 0x461BCD PUSH1 0xE5 SHL DUP2 MSTORE PUSH1 0x4 ADD PUSH2 0x8F9 SWAP1 PUSH2 0x49CD JUMP JUMPDEST DUP1 PUSH2 0x14B7 DUP2 NUMBER PUSH2 0x4A76 JUMP JUMPDEST ISZERO PUSH2 0x14F7 JUMPI PUSH1 0x40 MLOAD PUSH3 0x461BCD PUSH1 0xE5 SHL DUP2 MSTORE PUSH1 0x20 PUSH1 0x4 DUP3 ADD MSTORE PUSH1 0x10 PUSH1 0x24 DUP3 ADD MSTORE PUSH16 0x426C6F636B2065706F6368206F6E6C79 PUSH1 0x80 SHL PUSH1 0x44 DUP3 ADD MSTORE PUSH1 0x64 ADD PUSH2 0x8F9 JUMP JUMPDEST NUMBER PUSH1 0x0 SWAP1 DUP2 MSTORE PUSH1 0xD PUSH1 0x20 SWAP1 DUP2 MSTORE PUSH1 0x40 DUP1 DUP4 KECCAK256 PUSH1 0x1 DUP1 DUP6 MSTORE SWAP3 MSTORE SWAP1 SWAP2 KECCAK256 DUP1 SLOAD PUSH1 0xFF NOT AND SWAP1 SWAP2 OR SWAP1 SSTORE DUP3 MLOAD PUSH2 0x1563 JUMPI PUSH1 0x40 MLOAD PUSH3 0x461BCD PUSH1 0xE5 SHL DUP2 MSTORE PUSH1 0x20 PUSH1 0x4 DUP3 ADD MSTORE PUSH1 0x14 PUSH1 0x24 DUP3 ADD MSTORE PUSH20 0x56616C696461746F722073657420656D70747921 PUSH1 0x60 SHL PUSH1 0x44 DUP3 ADD MSTORE PUSH1 0x64 ADD PUSH2 0x8F9 JUMP JUMPDEST DUP3 MLOAD PUSH2 0x1576 SWAP1 PUSH1 0x4 SWAP1 PUSH1 0x20 DUP7 ADD SWAP1 PUSH2 0x4205 JUMP JUMPDEST POP PUSH32 0xEACEA8F3C22F06C0B18306BDB04D0A967255129E8CE0094DEBB0A0FF89D006B5 DUP4 PUSH1 0x40 MLOAD PUSH2 0x15A6 SWAP2 SWAP1 PUSH2 0x4515 JUMP JUMPDEST PUSH1 0x40 MLOAD DUP1 SWAP2 SUB SWAP1 LOG1 POP POP POP JUMP JUMPDEST PUSH1 0x4 DUP2 DUP2 SLOAD DUP2 LT PUSH2 0x1374 JUMPI PUSH1 0x0 DUP1 REVERT JUMPDEST ORIGIN PUSH1 0x0 SWAP1 DUP2 MSTORE PUSH1 0x9 PUSH1 0x20 SWAP1 DUP2 MSTORE PUSH1 0x40 DUP1 DUP4 KECCAK256 PUSH1 0x1 PUSH1 0x1 PUSH1 0xA0 SHL SUB DUP6 AND DUP5 MSTORE SWAP1 SWAP2 MSTORE DUP2 KECCAK256 SLOAD PUSH2 0x1624 JUMPI PUSH1 0x40 MLOAD PUSH3 0x461BCD PUSH1 0xE5 SHL DUP2 MSTORE PUSH1 0x20 PUSH1 0x4 DUP3 ADD MSTORE PUSH1 0xE PUSH1 0x24 DUP3 ADD MSTORE PUSH14 0x1B9BDD1A1A5B99C81CDD185AD959 PUSH1 0x92 SHL PUSH1 0x44 DUP3 ADD MSTORE PUSH1 0x64 ADD PUSH2 0x8F9 JUMP JUMPDEST ORIGIN PUSH1 0x0 DUP2 DUP2 MSTORE PUSH1 0x3 PUSH1 0x20 SWAP1 DUP2 MSTORE PUSH1 0x40 DUP1 DUP4 KECCAK256 PUSH1 0x1 PUSH1 0x1 PUSH1 0xA0 SHL SUB DUP8 AND DUP1 DUP6 MSTORE SWAP1 DUP4 MSTORE DUP2 DUP5 KECCAK256 PUSH1 0xB DUP5 MSTORE DUP3 DUP6 KECCAK256 SWAP6 DUP6 MSTORE PUSH1 0x9 DUP5 MSTORE DUP3 DUP6 KECCAK256 DUP3 DUP7 MSTORE DUP5 MSTORE DUP3 DUP6 KECCAK256 SLOAD DUP6 MSTORE DUP6 DUP5 MSTORE DUP3 DUP6 KECCAK256 SLOAD SWAP2 DUP6 MSTORE PUSH1 0xA DUP5 MSTORE DUP3 DUP6 KECCAK256 SLOAD DUP6 MSTORE SWAP5 SWAP1 SWAP3 MSTORE DUP3 KECCAK256 SLOAD PUSH2 0x168A SWAP2 SWAP1 PUSH2 0x49F3 JUMP JUMPDEST SWAP1 POP DUP1 ISZERO PUSH2 0x1769 JUMPI PUSH1 0x1 PUSH1 0x1 PUSH1 0xA0 SHL SUB DUP5 AND PUSH1 0x0 DUP2 DUP2 MSTORE PUSH1 0xA PUSH1 0x20 SWAP1 DUP2 MSTORE PUSH1 0x40 DUP1 DUP4 KECCAK256 SLOAD ORIGIN DUP5 MSTORE PUSH1 0x9 DUP4 MSTORE DUP2 DUP5 KECCAK256 SWAP5 DUP5 MSTORE SWAP4 SWAP1 SWAP2 MSTORE DUP2 KECCAK256 SWAP2 SWAP1 SWAP2 SSTORE DUP3 SLOAD PUSH9 0x56BC75E2D63100000 SWAP1 PUSH2 0x16DD SWAP1 DUP5 SWAP1 PUSH2 0x4A06 JUMP JUMPDEST PUSH2 0x16E7 SWAP2 SWAP1 PUSH2 0x4A33 JUMP JUMPDEST PUSH1 0x40 MLOAD SWAP1 SWAP2 POP ORIGIN SWAP1 DUP3 ISZERO PUSH2 0x8FC MUL SWAP1 DUP4 SWAP1 PUSH1 0x0 DUP2 DUP2 DUP2 DUP6 DUP9 DUP9 CALL SWAP4 POP POP POP POP ISZERO DUP1 ISZERO PUSH2 0x1717 JUMPI RETURNDATASIZE PUSH1 0x0 DUP1 RETURNDATACOPY RETURNDATASIZE PUSH1 0x0 REVERT JUMPDEST POP PUSH1 0x40 DUP1 MLOAD ORIGIN DUP2 MSTORE PUSH1 0x1 PUSH1 0x1 PUSH1 0xA0 SHL SUB DUP8 AND PUSH1 0x20 DUP3 ADD MSTORE SWAP1 DUP2 ADD DUP3 SWAP1 MSTORE TIMESTAMP PUSH1 0x60 DUP3 ADD MSTORE PUSH32 0x7DAF1212D032F2F66DB6DBB919BBD591BE3D954B5B6EE491709CBB5FBE4F5170 SWAP1 PUSH1 0x80 ADD PUSH1 0x40 MLOAD DUP1 SWAP2 SUB SWAP1 LOG1 POP JUMPDEST POP PUSH1 0x1 SWAP4 SWAP3 POP POP POP JUMP JUMPDEST PUSH1 0x0 CALLER PUSH2 0xF002 EQ PUSH2 0x17BF JUMPI PUSH1 0x40 MLOAD PUSH3 0x461BCD PUSH1 0xE5 SHL DUP2 MSTORE PUSH1 0x20 PUSH1 0x4 DUP3 ADD MSTORE PUSH1 0x16 PUSH1 0x24 DUP3 ADD MSTORE PUSH22 0x50726F706F73616C20636F6E7472616374206F6E6C79 PUSH1 0x50 SHL PUSH1 0x44 DUP3 ADD MSTORE PUSH1 0x64 ADD PUSH2 0x8F9 JUMP JUMPDEST PUSH1 0x0 SLOAD PUSH1 0xFF AND PUSH2 0x17E1 JUMPI PUSH1 0x40 MLOAD PUSH3 0x461BCD PUSH1 0xE5 SHL DUP2 MSTORE PUSH1 0x4 ADD PUSH2 0x8F9 SWAP1 PUSH2 0x49CD JUMP JUMPDEST PUSH1 0x3 PUSH1 0x1 PUSH1 0x1 PUSH1 0xA0 SHL SUB DUP4 AND PUSH1 0x0 SWAP1 DUP2 MSTORE PUSH1 0x2 PUSH1 0x20 MSTORE PUSH1 0x40 SWAP1 KECCAK256 SLOAD PUSH1 0x1 PUSH1 0xA0 SHL SWAP1 DIV PUSH1 0xFF AND PUSH1 0x4 DUP2 GT ISZERO PUSH2 0x1817 JUMPI PUSH2 0x1817 PUSH2 0x442B JUMP JUMPDEST EQ ISZERO DUP1 ISZERO PUSH2 0x1859 JUMPI POP PUSH1 0x4 PUSH1 0x1 PUSH1 0x1 PUSH1 0xA0 SHL SUB DUP4 AND PUSH1 0x0 SWAP1 DUP2 MSTORE PUSH1 0x2 PUSH1 0x20 MSTORE PUSH1 0x40 SWAP1 KECCAK256 SLOAD PUSH1 0x1 PUSH1 0xA0 SHL SWAP1 DIV PUSH1 0xFF AND PUSH1 0x4 DUP2 GT ISZERO PUSH2 0x1856 JUMPI PUSH2 0x1856 PUSH2 0x442B JUMP JUMPDEST EQ ISZERO JUMPDEST ISZERO PUSH2 0x1866 JUMPI POP PUSH1 0x1 SWAP2 SWAP1 POP JUMP JUMPDEST PUSH1 0x4 PUSH1 0x1 PUSH1 0x1 PUSH1 0xA0 SHL SUB DUP4 AND PUSH1 0x0 SWAP1 DUP2 MSTORE PUSH1 0x2 PUSH1 0x20 MSTORE PUSH1 0x40 SWAP1 KECCAK256 SLOAD PUSH1 0x1 PUSH1 0xA0 SHL SWAP1 DIV PUSH1 0xFF AND PUSH1 0x4 DUP2 GT ISZERO PUSH2 0x189C JUMPI PUSH2 0x189C PUSH2 0x442B JUMP JUMPDEST SUB PUSH2 0x194C JUMPI PUSH1 0xC SLOAD PUSH1 0x40 MLOAD PUSH4 0x63E1D451 PUSH1 0xE0 SHL DUP2 MSTORE PUSH1 0x1 PUSH1 0x1 PUSH1 0xA0 SHL SUB DUP5 DUP2 AND PUSH1 0x4 DUP4 ADD MSTORE SWAP1 SWAP2 AND SWAP1 PUSH4 0x63E1D451 SWAP1 PUSH1 0x24 ADD PUSH1 0x20 PUSH1 0x40 MLOAD DUP1 DUP4 SUB DUP2 PUSH1 0x0 DUP8 GAS CALL ISZERO DUP1 ISZERO PUSH2 0x18ED JUMPI RETURNDATASIZE PUSH1 0x0 DUP1 RETURNDATACOPY RETURNDATASIZE PUSH1 0x0 REVERT JUMPDEST POP POP POP POP PUSH1 0x40 MLOAD RETURNDATASIZE PUSH1 0x1F NOT PUSH1 0x1F DUP3 ADD AND DUP3 ADD DUP1 PUSH1 0x40 MSTORE POP DUP2 ADD SWAP1 PUSH2 0x1911 SWAP2 SWAP1 PUSH2 0x4A8A JUMP JUMPDEST PUSH2 0x194C JUMPI PUSH1 0x40 MLOAD PUSH3 0x461BCD PUSH1 0xE5 SHL DUP2 MSTORE PUSH1 0x20 PUSH1 0x4 DUP3 ADD MSTORE PUSH1 0xC PUSH1 0x24 DUP3 ADD MSTORE PUSH12 0x18DB19585B8819985A5B1959 PUSH1 0xA2 SHL PUSH1 0x44 DUP3 ADD MSTORE PUSH1 0x64 ADD PUSH2 0x8F9 JUMP JUMPDEST PUSH1 0x1 PUSH1 0x1 PUSH1 0xA0 SHL SUB DUP3 AND PUSH1 0x0 DUP2 DUP2 MSTORE PUSH1 0x2 PUSH1 0x20 SWAP1 DUP2 MSTORE PUSH1 0x40 SWAP2 DUP3 SWAP1 KECCAK256 DUP1 SLOAD PUSH1 0xFF PUSH1 0xA0 SHL NOT AND PUSH1 0x1 PUSH1 0xA1 SHL OR SWAP1 SSTORE SWAP1 MLOAD TIMESTAMP DUP2 MSTORE PUSH32 0xD8B2C426EC1BE69CA7583D26B1E893946E3227430D3EBC3BD64D9E1C469CB400 SWAP2 ADD PUSH1 0x40 MLOAD DUP1 SWAP2 SUB SWAP1 LOG2 POP PUSH1 0x1 SWAP2 SWAP1 POP JUMP JUMPDEST PUSH1 0x1 PUSH1 0x1 PUSH1 0xA0 SHL SUB DUP2 DUP2 AND PUSH1 0x0 SWAP1 DUP2 MSTORE PUSH1 0x2 PUSH1 0x20 SWAP1 DUP2 MSTORE PUSH1 0x40 DUP1 DUP4 KECCAK256 DUP2 MLOAD PUSH1 0xE0 DUP2 ADD SWAP1 SWAP3 MSTORE DUP1 SLOAD SWAP5 DUP6 AND DUP3 MSTORE SWAP3 SWAP4 DUP5 SWAP4 DUP5 SWAP4 DUP5 SWAP4 DUP5 SWAP4 PUSH1 0x60 SWAP4 DUP6 SWAP4 SWAP1 SWAP2 SWAP1 DUP4 ADD SWAP1 PUSH1 0x1 PUSH1 0xA0 SHL SWAP1 DIV PUSH1 0xFF AND PUSH1 0x4 DUP2 GT ISZERO PUSH2 0x1A0D JUMPI PUSH2 0x1A0D PUSH2 0x442B JUMP JUMPDEST PUSH1 0x4 DUP2 GT ISZERO PUSH2 0x1A1E JUMPI PUSH2 0x1A1E PUSH2 0x442B JUMP JUMPDEST DUP2 MSTORE PUSH1 0x20 ADD PUSH1 0x1 DUP3 ADD SLOAD DUP2 MSTORE PUSH1 0x20 ADD PUSH1 0x2 DUP3 ADD PUSH1 0x40 MLOAD DUP1 PUSH1 0xA0 ADD PUSH1 0x40 MSTORE SWAP1 DUP2 PUSH1 0x0 DUP3 ADD DUP1 SLOAD PUSH2 0x1A4C SWAP1 PUSH2 0x4AAC JUMP JUMPDEST DUP1 PUSH1 0x1F ADD PUSH1 0x20 DUP1 SWAP2 DIV MUL PUSH1 0x20 ADD PUSH1 0x40 MLOAD SWAP1 DUP2 ADD PUSH1 0x40 MSTORE DUP1 SWAP3 SWAP2 SWAP1 DUP2 DUP2 MSTORE PUSH1 0x20 ADD DUP3 DUP1 SLOAD PUSH2 0x1A78 SWAP1 PUSH2 0x4AAC JUMP JUMPDEST DUP1 ISZERO PUSH2 0x1AC5 JUMPI DUP1 PUSH1 0x1F LT PUSH2 0x1A9A JUMPI PUSH2 0x100 DUP1 DUP4 SLOAD DIV MUL DUP4 MSTORE SWAP2 PUSH1 0x20 ADD SWAP2 PUSH2 0x1AC5 JUMP JUMPDEST DUP3 ADD SWAP2 SWAP1 PUSH1 0x0 MSTORE PUSH1 0x20 PUSH1 0x0 KECCAK256 SWAP1 JUMPDEST DUP2 SLOAD DUP2 MSTORE SWAP1 PUSH1 0x1 ADD SWAP1 PUSH1 0x20 ADD DUP1 DUP4 GT PUSH2 0x1AA8 JUMPI DUP3 SWAP1 SUB PUSH1 0x1F AND DUP3 ADD SWAP2 JUMPDEST POP POP POP POP POP DUP2 MSTORE PUSH1 0x20 ADD PUSH1 0x1 DUP3 ADD DUP1 SLOAD PUSH2 0x1ADE SWAP1 PUSH2 0x4AAC JUMP JUMPDEST DUP1 PUSH1 0x1F ADD PUSH1 0x20 DUP1 SWAP2 DIV MUL PUSH1 0x20 ADD PUSH1 0x40 MLOAD SWAP1 DUP2 ADD PUSH1 0x40 MSTORE DUP1 SWAP3 SWAP2 SWAP1 DUP2 DUP2 MSTORE PUSH1 0x20 ADD DUP3 DUP1 SLOAD PUSH2 0x1B0A SWAP1 PUSH2 0x4AAC JUMP JUMPDEST DUP1 ISZERO PUSH2 0x1B57 JUMPI DUP1 PUSH1 0x1F LT PUSH2 0x1B2C JUMPI PUSH2 0x100 DUP1 DUP4 SLOAD DIV MUL DUP4 MSTORE SWAP2 PUSH1 0x20 ADD SWAP2 PUSH2 0x1B57 JUMP JUMPDEST DUP3 ADD SWAP2 SWAP1 PUSH1 0x0 MSTORE PUSH1 0x20 PUSH1 0x0 KECCAK256 SWAP1 JUMPDEST DUP2 SLOAD DUP2 MSTORE SWAP1 PUSH1 0x1 ADD SWAP1 PUSH1 0x20 ADD DUP1 DUP4 GT PUSH2 0x1B3A JUMPI DUP3 SWAP1 SUB PUSH1 0x1F AND DUP3 ADD SWAP2 JUMPDEST POP POP POP POP POP DUP2 MSTORE PUSH1 0x20 ADD PUSH1 0x2 DUP3 ADD DUP1 SLOAD PUSH2 0x1B70 SWAP1 PUSH2 0x4AAC JUMP JUMPDEST DUP1 PUSH1 0x1F ADD PUSH1 0x20 DUP1 SWAP2 DIV MUL PUSH1 0x20 ADD PUSH1 0x40 MLOAD SWAP1 DUP2 ADD PUSH1 0x40 MSTORE DUP1 SWAP3 SWAP2 SWAP1 DUP2 DUP2 MSTORE PUSH1 0x20 ADD DUP3 DUP1 SLOAD PUSH2 0x1B9C SWAP1 PUSH2 0x4AAC JUMP JUMPDEST DUP1 ISZERO PUSH2 0x1BE9 JUMPI DUP1 PUSH1 0x1F LT PUSH2 0x1BBE JUMPI PUSH2 0x100 DUP1 DUP4 SLOAD DIV MUL DUP4 MSTORE SWAP2 PUSH1 0x20 ADD SWAP2 PUSH2 0x1BE9 JUMP JUMPDEST DUP3 ADD SWAP2 SWAP1 PUSH1 0x0 MSTORE PUSH1 0x20 PUSH1 0x0 KECCAK256 SWAP1 JUMPDEST DUP2 SLOAD DUP2 MSTORE SWAP1 PUSH1 0x1 ADD SWAP1 PUSH1 0x20 ADD DUP1 DUP4 GT PUSH2 0x1BCC JUMPI DUP3 SWAP1 SUB PUSH1 0x1F AND DUP3 ADD SWAP2 JUMPDEST POP POP POP POP POP DUP2 MSTORE PUSH1 0x20 ADD PUSH1 0x3 DUP3 ADD DUP1 SLOAD PUSH2 0x1C02 SWAP1 PUSH2 0x4AAC JUMP JUMPDEST DUP1 PUSH1 0x1F ADD PUSH1 0x20 DUP1 SWAP2 DIV MUL PUSH1 0x20 ADD PUSH1 0x40 MLOAD SWAP1 DUP2 ADD PUSH1 0x40 MSTORE DUP1 SWAP3 SWAP2 SWAP1 DUP2 DUP2 MSTORE PUSH1 0x20 ADD DUP3 DUP1 SLOAD PUSH2 0x1C2E SWAP1 PUSH2 0x4AAC JUMP JUMPDEST DUP1 ISZERO PUSH2 0x1C7B JUMPI DUP1 PUSH1 0x1F LT PUSH2 0x1C50 JUMPI PUSH2 0x100 DUP1 DUP4 SLOAD DIV MUL DUP4 MSTORE SWAP2 PUSH1 0x20 ADD SWAP2 PUSH2 0x1C7B JUMP JUMPDEST DUP3 ADD SWAP2 SWAP1 PUSH1 0x0 MSTORE PUSH1 0x20 PUSH1 0x0 KECCAK256 SWAP1 JUMPDEST DUP2 SLOAD DUP2 MSTORE SWAP1 PUSH1 0x1 ADD SWAP1 PUSH1 0x20 ADD DUP1 DUP4 GT PUSH2 0x1C5E JUMPI DUP3 SWAP1 SUB PUSH1 0x1F AND DUP3 ADD SWAP2 JUMPDEST POP POP POP POP POP DUP2 MSTORE PUSH1 0x20 ADD PUSH1 0x4 DUP3 ADD DUP1 SLOAD PUSH2 0x1C94 SWAP1 PUSH2 0x4AAC JUMP JUMPDEST DUP1 PUSH1 0x1F ADD PUSH1 0x20 DUP1 SWAP2 DIV MUL PUSH1 0x20 ADD PUSH1 0x40 MLOAD SWAP1 DUP2 ADD PUSH1 0x40 MSTORE DUP1 SWAP3 SWAP2 SWAP1 DUP2 DUP2 MSTORE PUSH1 0x20 ADD DUP3 DUP1 SLOAD PUSH2 0x1CC0 SWAP1 PUSH2 0x4AAC JUMP JUMPDEST DUP1 ISZERO PUSH2 0x1D0D JUMPI DUP1 PUSH1 0x1F LT PUSH2 0x1CE2 JUMPI PUSH2 0x100 DUP1 DUP4 SLOAD DIV MUL DUP4 MSTORE SWAP2 PUSH1 0x20 ADD SWAP2 PUSH2 0x1D0D JUMP JUMPDEST DUP3 ADD SWAP2 SWAP1 PUSH1 0x0 MSTORE PUSH1 0x20 PUSH1 0x0 KECCAK256 SWAP1 JUMPDEST DUP2 SLOAD DUP2 MSTORE SWAP1 PUSH1 0x1 ADD SWAP1 PUSH1 0x20 ADD DUP1 DUP4 GT PUSH2 0x1CF0 JUMPI DUP3 SWAP1 SUB PUSH1 0x1F AND DUP3 ADD SWAP2 JUMPDEST POP POP POP POP POP DUP2 MSTORE POP POP DUP2 MSTORE PUSH1 0x20 ADD PUSH1 0x7 DUP3 ADD SLOAD DUP2 MSTORE PUSH1 0x20 ADD PUSH1 0x8 DUP3 ADD SLOAD DUP2 MSTORE PUSH1 0x20 ADD PUSH1 0x9 DUP3 ADD DUP1 SLOAD DUP1 PUSH1 0x20 MUL PUSH1 0x20 ADD PUSH1 0x40 MLOAD SWAP1 DUP2 ADD PUSH1 0x40 MSTORE DUP1 SWAP3 SWAP2 SWAP1 DUP2 DUP2 MSTORE PUSH1 0x20 ADD DUP3 DUP1 SLOAD DUP1 ISZERO PUSH2 0x1D87 JUMPI PUSH1 0x20 MUL DUP3 ADD SWAP2 SWAP1 PUSH1 0x0 MSTORE PUSH1 0x20 PUSH1 0x0 KECCAK256 SWAP1 JUMPDEST DUP2 SLOAD PUSH1 0x1 PUSH1 0x1 PUSH1 0xA0 SHL SUB AND DUP2 MSTORE PUSH1 0x1 SWAP1 SWAP2 ADD SWAP1 PUSH1 0x20 ADD DUP1 DUP4 GT PUSH2 0x1D69 JUMPI JUMPDEST POP POP POP SWAP2 SWAP1 SWAP3 MSTORE POP POP DUP2 MLOAD PUSH1 0x20 DUP4 ADD MLOAD PUSH1 0x40 DUP5 ADD MLOAD PUSH1 0x80 DUP6 ADD MLOAD PUSH1 0xA0 DUP7 ADD MLOAD PUSH1 0xC0 SWAP1 SWAP7 ADD MLOAD SWAP4 SWAP15 SWAP3 SWAP14 POP SWAP1 SWAP12 POP SWAP10 POP SWAP3 SWAP8 POP SWAP6 POP SWAP1 SWAP4 POP POP POP POP JUMP JUMPDEST PUSH1 0x0 DUP1 JUMPDEST PUSH1 0x5 SLOAD DUP2 LT ISZERO PUSH2 0x1230 JUMPI DUP3 PUSH1 0x1 PUSH1 0x1 PUSH1 0xA0 SHL SUB AND PUSH1 0x5 DUP3 DUP2 SLOAD DUP2 LT PUSH2 0x1DEE JUMPI PUSH2 0x1DEE PUSH2 0x4A47 JUMP JUMPDEST PUSH1 0x0 SWAP2 DUP3 MSTORE PUSH1 0x20 SWAP1 SWAP2 KECCAK256 ADD SLOAD PUSH1 0x1 PUSH1 0x1 PUSH1 0xA0 SHL SUB AND SUB PUSH2 0x1E11 JUMPI POP PUSH1 0x1 SWAP3 SWAP2 POP POP JUMP JUMPDEST DUP1 PUSH2 0x1E1B DUP2 PUSH2 0x4A5D JUMP JUMPDEST SWAP2 POP POP PUSH2 0x1DC7 JUMP JUMPDEST PUSH1 0x60 PUSH1 0x4 DUP1 SLOAD DUP1 PUSH1 0x20 MUL PUSH1 0x20 ADD PUSH1 0x40 MLOAD SWAP1 DUP2 ADD PUSH1 0x40 MSTORE DUP1 SWAP3 SWAP2 SWAP1 DUP2 DUP2 MSTORE PUSH1 0x20 ADD DUP3 DUP1 SLOAD DUP1 ISZERO PUSH2 0x1E7B JUMPI PUSH1 0x20 MUL DUP3 ADD SWAP2 SWAP1 PUSH1 0x0 MSTORE PUSH1 0x20 PUSH1 0x0 KECCAK256 SWAP1 JUMPDEST DUP2 SLOAD PUSH1 0x1 PUSH1 0x1 PUSH1 0xA0 SHL SUB AND DUP2 MSTORE PUSH1 0x1 SWAP1 SWAP2 ADD SWAP1 PUSH1 0x20 ADD DUP1 DUP4 GT PUSH2 0x1E5D JUMPI JUMPDEST POP POP POP POP POP SWAP1 POP SWAP1 JUMP JUMPDEST PUSH1 0x0 SLOAD PUSH1 0xFF AND ISZERO PUSH2 0x1ECE JUMPI PUSH1 0x40 MLOAD PUSH3 0x461BCD PUSH1 0xE5 SHL DUP2 MSTORE PUSH1 0x20 PUSH1 0x4 DUP3 ADD MSTORE PUSH1 0x13 PUSH1 0x24 DUP3 ADD MSTORE PUSH19 0x105B1C9958591E481A5B9A5D1A585B1A5E9959 PUSH1 0x6A SHL PUSH1 0x44 DUP3 ADD MSTORE PUSH1 0x64 ADD PUSH2 0x8F9 JUMP JUMPDEST PUSH1 0xC DUP1 SLOAD PUSH1 0x1 PUSH1 0x1 PUSH1 0xA0 SHL SUB NOT AND PUSH2 0xF001 OR SWAP1 SSTORE PUSH1 0x0 JUMPDEST DUP2 DUP2 LT ISZERO PUSH2 0x227C JUMPI PUSH1 0x0 DUP4 DUP4 DUP4 DUP2 DUP2 LT PUSH2 0x1F01 JUMPI PUSH2 0x1F01 PUSH2 0x4A47 JUMP JUMPDEST SWAP1 POP PUSH1 0x20 MUL ADD PUSH1 0x20 DUP2 ADD SWAP1 PUSH2 0x1F16 SWAP2 SWAP1 PUSH2 0x4294 JUMP JUMPDEST PUSH1 0x1 PUSH1 0x1 PUSH1 0xA0 SHL SUB AND SUB PUSH2 0x1F6C JUMPI PUSH1 0x40 MLOAD PUSH3 0x461BCD PUSH1 0xE5 SHL DUP2 MSTORE PUSH1 0x20 PUSH1 0x4 DUP3 ADD MSTORE PUSH1 0x19 PUSH1 0x24 DUP3 ADD MSTORE PUSH32 0x496E76616C69642076616C696461746F72206164647265737300000000000000 PUSH1 0x44 DUP3 ADD MSTORE PUSH1 0x64 ADD PUSH2 0x8F9 JUMP JUMPDEST TIMESTAMP PUSH1 0xA PUSH1 0x0 DUP6 DUP6 DUP6 DUP2 DUP2 LT PUSH2 0x1F83 JUMPI PUSH2 0x1F83 PUSH2 0x4A47 JUMP JUMPDEST SWAP1 POP PUSH1 0x20 MUL ADD PUSH1 0x20 DUP2 ADD SWAP1 PUSH2 0x1F98 SWAP2 SWAP1 PUSH2 0x4294 JUMP JUMPDEST PUSH1 0x1 PUSH1 0x1 PUSH1 0xA0 SHL SUB AND DUP2 MSTORE PUSH1 0x20 DUP2 ADD SWAP2 SWAP1 SWAP2 MSTORE PUSH1 0x40 ADD PUSH1 0x0 KECCAK256 SSTORE PUSH2 0x1FDC DUP4 DUP4 DUP4 DUP2 DUP2 LT PUSH2 0x1FC7 JUMPI PUSH2 0x1FC7 PUSH2 0x4A47 JUMP JUMPDEST SWAP1 POP PUSH1 0x20 MUL ADD PUSH1 0x20 DUP2 ADD SWAP1 PUSH2 0x434 SWAP2 SWAP1 PUSH2 0x4294 JUMP JUMPDEST PUSH2 0x203C JUMPI PUSH1 0x4 DUP4 DUP4 DUP4 DUP2 DUP2 LT PUSH2 0x1FF4 JUMPI PUSH2 0x1FF4 PUSH2 0x4A47 JUMP JUMPDEST SWAP1 POP PUSH1 0x20 MUL ADD PUSH1 0x20 DUP2 ADD SWAP1 PUSH2 0x2009 SWAP2 SWAP1 PUSH2 0x4294 JUMP JUMPDEST DUP2 SLOAD PUSH1 0x1 DUP2 ADD DUP4 SSTORE PUSH1 0x0 SWAP3 DUP4 MSTORE PUSH1 0x20 SWAP1 SWAP3 KECCAK256 SWAP1 SWAP2 ADD DUP1 SLOAD PUSH1 0x1 PUSH1 0x1 PUSH1 0xA0 SHL SUB NOT AND PUSH1 0x1 PUSH1 0x1 PUSH1 0xA0 SHL SUB SWAP1 SWAP3 AND SWAP2 SWAP1 SWAP2 OR SWAP1 SSTORE JUMPDEST PUSH2 0x2066 DUP4 DUP4 DUP4 DUP2 DUP2 LT PUSH2 0x2051 JUMPI PUSH2 0x2051 PUSH2 0x4A47 JUMP JUMPDEST SWAP1 POP PUSH1 0x20 MUL ADD PUSH1 0x20 DUP2 ADD SWAP1 PUSH2 0x667 SWAP2 SWAP1 PUSH2 0x4294 JUMP JUMPDEST PUSH2 0x20C6 JUMPI PUSH1 0x5 DUP4 DUP4 DUP4 DUP2 DUP2 LT PUSH2 0x207E JUMPI PUSH2 0x207E PUSH2 0x4A47 JUMP JUMPDEST SWAP1 POP PUSH1 0x20 MUL ADD PUSH1 0x20 DUP2 ADD SWAP1 PUSH2 0x2093 SWAP2 SWAP1 PUSH2 0x4294 JUMP JUMPDEST DUP2 SLOAD PUSH1 0x1 DUP2 ADD DUP4 SSTORE PUSH1 0x0 SWAP3 DUP4 MSTORE PUSH1 0x20 SWAP1 SWAP3 KECCAK256 SWAP1 SWAP2 ADD DUP1 SLOAD PUSH1 0x1 PUSH1 0x1 PUSH1 0xA0 SHL SUB NOT AND PUSH1 0x1 PUSH1 0x1 PUSH1 0xA0 SHL SUB SWAP1 SWAP3 AND SWAP2 SWAP1 SWAP2 OR SWAP1 SSTORE JUMPDEST PUSH1 0x0 PUSH1 0x2 DUP2 DUP6 DUP6 DUP6 DUP2 DUP2 LT PUSH2 0x20DD JUMPI PUSH2 0x20DD PUSH2 0x4A47 JUMP JUMPDEST SWAP1 POP PUSH1 0x20 MUL ADD PUSH1 0x20 DUP2 ADD SWAP1 PUSH2 0x20F2 SWAP2 SWAP1 PUSH2 0x4294 JUMP JUMPDEST PUSH1 0x1 PUSH1 0x1 PUSH1 0xA0 SHL SUB SWAP1 DUP2 AND DUP3 MSTORE PUSH1 0x20 DUP3 ADD SWAP3 SWAP1 SWAP3 MSTORE PUSH1 0x40 ADD PUSH1 0x0 KECCAK256 SLOAD AND SUB PUSH2 0x2198 JUMPI DUP3 DUP3 DUP3 DUP2 DUP2 LT PUSH2 0x2126 JUMPI PUSH2 0x2126 PUSH2 0x4A47 JUMP JUMPDEST SWAP1 POP PUSH1 0x20 MUL ADD PUSH1 0x20 DUP2 ADD SWAP1 PUSH2 0x213B SWAP2 SWAP1 PUSH2 0x4294 JUMP JUMPDEST PUSH1 0x2 PUSH1 0x0 DUP6 DUP6 DUP6 DUP2 DUP2 LT PUSH2 0x2151 JUMPI PUSH2 0x2151 PUSH2 0x4A47 JUMP JUMPDEST SWAP1 POP PUSH1 0x20 MUL ADD PUSH1 0x20 DUP2 ADD SWAP1 PUSH2 0x2166 SWAP2 SWAP1 PUSH2 0x4294 JUMP JUMPDEST PUSH1 0x1 PUSH1 0x1 PUSH1 0xA0 SHL SUB SWAP1 DUP2 AND DUP3 MSTORE PUSH1 0x20 DUP3 ADD SWAP3 SWAP1 SWAP3 MSTORE PUSH1 0x40 ADD PUSH1 0x0 KECCAK256 DUP1 SLOAD PUSH1 0x1 PUSH1 0x1 PUSH1 0xA0 SHL SUB NOT AND SWAP3 SWAP1 SWAP2 AND SWAP2 SWAP1 SWAP2 OR SWAP1 SSTORE JUMPDEST PUSH1 0x0 PUSH1 0x2 PUSH1 0x0 DUP6 DUP6 DUP6 DUP2 DUP2 LT PUSH2 0x21B0 JUMPI PUSH2 0x21B0 PUSH2 0x4A47 JUMP JUMPDEST SWAP1 POP PUSH1 0x20 MUL ADD PUSH1 0x20 DUP2 ADD SWAP1 PUSH2 0x21C5 SWAP2 SWAP1 PUSH2 0x4294 JUMP JUMPDEST PUSH1 0x1 PUSH1 0x1 PUSH1 0xA0 SHL SUB AND DUP2 MSTORE PUSH1 0x20 DUP2 ADD SWAP2 SWAP1 SWAP2 MSTORE PUSH1 0x40 ADD PUSH1 0x0 KECCAK256 SLOAD PUSH1 0x1 PUSH1 0xA0 SHL SWAP1 DIV PUSH1 0xFF AND PUSH1 0x4 DUP2 GT ISZERO PUSH2 0x21FA JUMPI PUSH2 0x21FA PUSH2 0x442B JUMP JUMPDEST SUB PUSH2 0x226A JUMPI PUSH1 0x2 DUP1 PUSH1 0x0 DUP6 DUP6 DUP6 DUP2 DUP2 LT PUSH2 0x2216 JUMPI PUSH2 0x2216 PUSH2 0x4A47 JUMP JUMPDEST SWAP1 POP PUSH1 0x20 MUL ADD PUSH1 0x20 DUP2 ADD SWAP1 PUSH2 0x222B SWAP2 SWAP1 PUSH2 0x4294 JUMP JUMPDEST PUSH1 0x1 PUSH1 0x1 PUSH1 0xA0 SHL SUB AND DUP2 MSTORE PUSH1 0x20 DUP2 ADD SWAP2 SWAP1 SWAP2 MSTORE PUSH1 0x40 ADD PUSH1 0x0 KECCAK256 DUP1 SLOAD PUSH1 0xFF PUSH1 0xA0 SHL NOT AND PUSH1 0x1 PUSH1 0xA0 SHL DUP4 PUSH1 0x4 DUP2 GT ISZERO PUSH2 0x2264 JUMPI PUSH2 0x2264 PUSH2 0x442B JUMP JUMPDEST MUL OR SWAP1 SSTORE POP JUMPDEST DUP1 PUSH2 0x2274 DUP2 PUSH2 0x4A5D JUMP JUMPDEST SWAP2 POP POP PUSH2 0x1EE5 JUMP JUMPDEST POP POP PUSH1 0x0 DUP1 SLOAD PUSH1 0xFF NOT AND PUSH1 0x1 OR SWAP1 SSTORE POP JUMP JUMPDEST PUSH1 0x0 DUP1 SLOAD PUSH1 0xFF AND PUSH2 0x22B1 JUMPI PUSH1 0x40 MLOAD PUSH3 0x461BCD PUSH1 0xE5 SHL DUP2 MSTORE PUSH1 0x4 ADD PUSH2 0x8F9 SWAP1 PUSH2 0x49CD JUMP JUMPDEST PUSH1 0x1 PUSH1 0x1 PUSH1 0xA0 SHL SUB DUP13 AND PUSH2 0x22FD JUMPI PUSH1 0x40 MLOAD PUSH3 0x461BCD PUSH1 0xE5 SHL DUP2 MSTORE PUSH1 0x20 PUSH1 0x4 DUP3 ADD MSTORE PUSH1 0x13 PUSH1 0x24 DUP3 ADD MSTORE PUSH19 0x496E76616C6964206665652061646472657373 PUSH1 0x68 SHL PUSH1 0x44 DUP3 ADD MSTORE PUSH1 0x64 ADD PUSH2 0x8F9 JUMP JUMPDEST PUSH2 0x240C DUP12 DUP12 DUP1 DUP1 PUSH1 0x1F ADD PUSH1 0x20 DUP1 SWAP2 DIV MUL PUSH1 0x20 ADD PUSH1 0x40 MLOAD SWAP1 DUP2 ADD PUSH1 0x40 MSTORE DUP1 SWAP4 SWAP3 SWAP2 SWAP1 DUP2 DUP2 MSTORE PUSH1 0x20 ADD DUP4 DUP4 DUP1 DUP3 DUP5 CALLDATACOPY PUSH1 0x0 SWAP3 ADD SWAP2 SWAP1 SWAP2 MSTORE POP POP PUSH1 0x40 DUP1 MLOAD PUSH1 0x20 PUSH1 0x1F DUP16 ADD DUP2 SWAP1 DIV DUP2 MUL DUP3 ADD DUP2 ADD SWAP1 SWAP3 MSTORE DUP14 DUP2 MSTORE SWAP3 POP DUP14 SWAP2 POP DUP13 SWAP1 DUP2 SWAP1 DUP5 ADD DUP4 DUP3 DUP1 DUP3 DUP5 CALLDATACOPY PUSH1 0x0 SWAP3 ADD SWAP2 SWAP1 SWAP2 MSTORE POP POP PUSH1 0x40 DUP1 MLOAD PUSH1 0x20 PUSH1 0x1F DUP15 ADD DUP2 SWAP1 DIV DUP2 MUL DUP3 ADD DUP2 ADD SWAP1 SWAP3 MSTORE DUP13 DUP2 MSTORE SWAP3 POP DUP13 SWAP2 POP DUP12 SWAP1 DUP2 SWAP1 DUP5 ADD DUP4 DUP3 DUP1 DUP3 DUP5 CALLDATACOPY PUSH1 0x0 SWAP3 ADD SWAP2 SWAP1 SWAP2 MSTORE POP POP PUSH1 0x40 DUP1 MLOAD PUSH1 0x20 PUSH1 0x1F DUP14 ADD DUP2 SWAP1 DIV DUP2 MUL DUP3 ADD DUP2 ADD SWAP1 SWAP3 MSTORE DUP12 DUP2 MSTORE SWAP3 POP DUP12 SWAP2 POP DUP11 SWAP1 DUP2 SWAP1 DUP5 ADD DUP4 DUP3 DUP1 DUP3 DUP5 CALLDATACOPY PUSH1 0x0 SWAP3 ADD SWAP2 SWAP1 SWAP2 MSTORE POP POP PUSH1 0x40 DUP1 MLOAD PUSH1 0x20 PUSH1 0x1F DUP13 ADD DUP2 SWAP1 DIV DUP2 MUL DUP3 ADD DUP2 ADD SWAP1 SWAP3 MSTORE DUP11 DUP2 MSTORE SWAP3 POP DUP11 SWAP2 POP DUP10 SWAP1 DUP2 SWAP1 DUP5 ADD DUP4 DUP3 DUP1 DUP3 DUP5 CALLDATACOPY PUSH1 0x0 SWAP3 ADD SWAP2 SWAP1 SWAP2 MSTORE POP PUSH2 0x2C72 SWAP3 POP POP POP JUMP JUMPDEST PUSH2 0x244E JUMPI PUSH1 0x40 MLOAD PUSH3 0x461BCD PUSH1 0xE5 SHL DUP2 MSTORE PUSH1 0x20 PUSH1 0x4 DUP3 ADD MSTORE PUSH1 0x13 PUSH1 0x24 DUP3 ADD MSTORE PUSH19 0x24B73B30B634B2103232B9B1B934B83A34B7B7 PUSH1 0x69 SHL PUSH1 0x44 DUP3 ADD MSTORE PUSH1 0x64 ADD PUSH2 0x8F9 JUMP JUMPDEST ORIGIN PUSH1 0x0 DUP2 DUP2 MSTORE PUSH1 0x2 PUSH1 0x20 MSTORE PUSH1 0x40 DUP2 KECCAK256 SLOAD DUP2 SWAP1 PUSH1 0x1 PUSH1 0xA0 SHL SWAP1 DIV PUSH1 0xFF AND PUSH1 0x4 DUP2 GT ISZERO PUSH2 0x247B JUMPI PUSH2 0x247B PUSH2 0x442B JUMP JUMPDEST SUB PUSH2 0x24B1 JUMPI POP PUSH1 0x1 PUSH1 0x1 PUSH1 0xA0 SHL SUB DUP2 AND PUSH1 0x0 SWAP1 DUP2 MSTORE PUSH1 0x2 PUSH1 0x20 MSTORE PUSH1 0x40 SWAP1 KECCAK256 DUP1 SLOAD PUSH1 0xFF PUSH1 0xA0 SHL NOT AND PUSH1 0x1 PUSH1 0xA0 SHL OR SWAP1 SSTORE PUSH1 0x1 PUSH2 0x24C2 JUMP JUMPDEST CALLVALUE ISZERO PUSH2 0x24C2 JUMPI PUSH1 0x0 SWAP3 POP POP POP PUSH2 0x27F6 JUMP JUMPDEST PUSH1 0x1 PUSH1 0x1 PUSH1 0xA0 SHL SUB DUP3 DUP2 AND PUSH1 0x0 SWAP1 DUP2 MSTORE PUSH1 0x2 PUSH1 0x20 MSTORE PUSH1 0x40 SWAP1 KECCAK256 SLOAD DUP2 AND SWAP1 DUP16 AND EQ PUSH2 0x2534 JUMPI DUP14 PUSH1 0x2 PUSH1 0x0 DUP5 PUSH1 0x1 PUSH1 0x1 PUSH1 0xA0 SHL SUB AND PUSH1 0x1 PUSH1 0x1 PUSH1 0xA0 SHL SUB AND DUP2 MSTORE PUSH1 0x20 ADD SWAP1 DUP2 MSTORE PUSH1 0x20 ADD PUSH1 0x0 KECCAK256 PUSH1 0x0 ADD PUSH1 0x0 PUSH2 0x100 EXP DUP2 SLOAD DUP2 PUSH1 0x1 PUSH1 0x1 PUSH1 0xA0 SHL SUB MUL NOT AND SWAP1 DUP4 PUSH1 0x1 PUSH1 0x1 PUSH1 0xA0 SHL SUB AND MUL OR SWAP1 SSTORE POP JUMPDEST PUSH1 0x40 MLOAD DUP1 PUSH1 0xA0 ADD PUSH1 0x40 MSTORE DUP1 DUP15 DUP15 DUP1 DUP1 PUSH1 0x1F ADD PUSH1 0x20 DUP1 SWAP2 DIV MUL PUSH1 0x20 ADD PUSH1 0x40 MLOAD SWAP1 DUP2 ADD PUSH1 0x40 MSTORE DUP1 SWAP4 SWAP3 SWAP2 SWAP1 DUP2 DUP2 MSTORE PUSH1 0x20 ADD DUP4 DUP4 DUP1 DUP3 DUP5 CALLDATACOPY PUSH1 0x0 SWAP3 ADD SWAP2 SWAP1 SWAP2 MSTORE POP POP POP SWAP1 DUP3 MSTORE POP PUSH1 0x40 DUP1 MLOAD PUSH1 0x20 PUSH1 0x1F DUP16 ADD DUP2 SWAP1 DIV DUP2 MUL DUP3 ADD DUP2 ADD SWAP1 SWAP3 MSTORE DUP14 DUP2 MSTORE SWAP2 DUP2 ADD SWAP2 SWAP1 DUP15 SWAP1 DUP15 SWAP1 DUP2 SWAP1 DUP5 ADD DUP4 DUP3 DUP1 DUP3 DUP5 CALLDATACOPY PUSH1 0x0 SWAP3 ADD SWAP2 SWAP1 SWAP2 MSTORE POP POP POP SWAP1 DUP3 MSTORE POP PUSH1 0x40 DUP1 MLOAD PUSH1 0x20 PUSH1 0x1F DUP14 ADD DUP2 SWAP1 DIV DUP2 MUL DUP3 ADD DUP2 ADD SWAP1 SWAP3 MSTORE DUP12 DUP2 MSTORE SWAP2 DUP2 ADD SWAP2 SWAP1 DUP13 SWAP1 DUP13 SWAP1 DUP2 SWAP1 DUP5 ADD DUP4 DUP3 DUP1 DUP3 DUP5 CALLDATACOPY PUSH1 0x0 SWAP3 ADD SWAP2 SWAP1 SWAP2 MSTORE POP POP POP SWAP1 DUP3 MSTORE POP PUSH1 0x40 DUP1 MLOAD PUSH1 0x20 PUSH1 0x1F DUP12 ADD DUP2 SWAP1 DIV DUP2 MUL DUP3 ADD DUP2 ADD SWAP1 SWAP3 MSTORE DUP10 DUP2 MSTORE SWAP2 DUP2 ADD SWAP2 SWAP1 DUP11 SWAP1 DUP11 SWAP1 DUP2 SWAP1 DUP5 ADD DUP4 DUP3 DUP1 DUP3 DUP5 CALLDATACOPY PUSH1 0x0 SWAP3 ADD SWAP2 SWAP1 SWAP2 MSTORE POP POP POP SWAP1 DUP3 MSTORE POP PUSH1 0x40 DUP1 MLOAD PUSH1 0x20 PUSH1 0x1F DUP10 ADD DUP2 SWAP1 DIV DUP2 MUL DUP3 ADD DUP2 ADD SWAP1 SWAP3 MSTORE DUP8 DUP2 MSTORE SWAP2 DUP2 ADD SWAP2 SWAP1 DUP9 SWAP1 DUP9 SWAP1 DUP2 SWAP1 DUP5 ADD DUP4 DUP3 DUP1 DUP3 DUP5 CALLDATACOPY PUSH1 0x0 SWAP3 ADD DUP3 SWAP1 MSTORE POP SWAP4 SWAP1 SWAP5 MSTORE POP POP PUSH1 0x1 PUSH1 0x1 PUSH1 0xA0 SHL SUB DUP6 AND DUP2 MSTORE PUSH1 0x2 PUSH1 0x20 DUP2 SWAP1 MSTORE PUSH1 0x40 SWAP1 SWAP2 KECCAK256 DUP4 MLOAD SWAP2 ADD SWAP2 POP DUP2 SWAP1 PUSH2 0x268D SWAP1 DUP3 PUSH2 0x4B35 JUMP JUMPDEST POP PUSH1 0x20 DUP3 ADD MLOAD PUSH1 0x1 DUP3 ADD SWAP1 PUSH2 0x26A2 SWAP1 DUP3 PUSH2 0x4B35 JUMP JUMPDEST POP PUSH1 0x40 DUP3 ADD MLOAD PUSH1 0x2 DUP3 ADD SWAP1 PUSH2 0x26B7 SWAP1 DUP3 PUSH2 0x4B35 JUMP JUMPDEST POP PUSH1 0x60 DUP3 ADD MLOAD PUSH1 0x3 DUP3 ADD SWAP1 PUSH2 0x26CC SWAP1 DUP3 PUSH2 0x4B35 JUMP JUMPDEST POP PUSH1 0x80 DUP3 ADD MLOAD PUSH1 0x4 DUP3 ADD SWAP1 PUSH2 0x26E1 SWAP1 DUP3 PUSH2 0x4B35 JUMP JUMPDEST POP SWAP1 POP POP DUP1 ISZERO PUSH2 0x27A1 JUMPI PUSH10 0x17B7883C06916600000 CALLVALUE LT ISZERO PUSH2 0x2745 JUMPI PUSH1 0x40 MLOAD PUSH3 0x461BCD PUSH1 0xE5 SHL DUP2 MSTORE PUSH1 0x20 PUSH1 0x4 DUP3 ADD MSTORE PUSH1 0x18 PUSH1 0x24 DUP3 ADD MSTORE PUSH32 0x496E76616C69642076616C696461746F7220616D6F756E740000000000000000 PUSH1 0x44 DUP3 ADD MSTORE PUSH1 0x64 ADD PUSH2 0x8F9 JUMP JUMPDEST PUSH2 0x274E DUP3 PUSH2 0xCD3 JUMP JUMPDEST POP DUP14 PUSH1 0x1 PUSH1 0x1 PUSH1 0xA0 SHL SUB AND DUP3 PUSH1 0x1 PUSH1 0x1 PUSH1 0xA0 SHL SUB AND PUSH32 0x887EEC9D757B7247DD8E51198F9D1B8F27979BCEB34BDCC1BFFD4EC5EC736C22 TIMESTAMP PUSH1 0x40 MLOAD PUSH2 0x2794 SWAP2 DUP2 MSTORE PUSH1 0x20 ADD SWAP1 JUMP JUMPDEST PUSH1 0x40 MLOAD DUP1 SWAP2 SUB SWAP1 LOG3 PUSH2 0x27EF JUMP JUMPDEST DUP14 PUSH1 0x1 PUSH1 0x1 PUSH1 0xA0 SHL SUB AND DUP3 PUSH1 0x1 PUSH1 0x1 PUSH1 0xA0 SHL SUB AND PUSH32 0xB8421F65501371F54D58DE1937FF1E1CCDB76423EF6F84ACEA1814A0F6362CA0 TIMESTAMP PUSH1 0x40 MLOAD PUSH2 0x27E6 SWAP2 DUP2 MSTORE PUSH1 0x20 ADD SWAP1 JUMP JUMPDEST PUSH1 0x40 MLOAD DUP1 SWAP2 SUB SWAP1 LOG3 JUMPDEST PUSH1 0x1 SWAP3 POP POP POP JUMPDEST SWAP12 SWAP11 POP POP POP POP POP POP POP POP POP POP POP JUMP JUMPDEST PUSH1 0x1 PUSH1 0x1 PUSH1 0xA0 SHL SUB DUP2 DUP2 AND PUSH1 0x0 SWAP1 DUP2 MSTORE PUSH1 0x2 PUSH1 0x20 SWAP1 DUP2 MSTORE PUSH1 0x40 DUP1 DUP4 KECCAK256 DUP2 MLOAD PUSH1 0xE0 DUP2 ADD SWAP1 SWAP3 MSTORE DUP1 SLOAD SWAP5 DUP6 AND DUP3 MSTORE PUSH1 0x60 SWAP5 DUP6 SWAP5 DUP6 SWAP5 DUP6 SWAP5 DUP6 SWAP5 SWAP3 SWAP4 SWAP1 SWAP3 SWAP2 DUP4 ADD SWAP1 PUSH1 0x1 PUSH1 0xA0 SHL SWAP1 DIV PUSH1 0xFF AND PUSH1 0x4 DUP2 GT ISZERO PUSH2 0x285F JUMPI PUSH2 0x285F PUSH2 0x442B JUMP JUMPDEST PUSH1 0x4 DUP2 GT ISZERO PUSH2 0x2870 JUMPI PUSH2 0x2870 PUSH2 0x442B JUMP JUMPDEST DUP2 MSTORE PUSH1 0x20 ADD PUSH1 0x1 DUP3 ADD SLOAD DUP2 MSTORE PUSH1 0x20 ADD PUSH1 0x2 DUP3 ADD PUSH1 0x40 MLOAD DUP1 PUSH1 0xA0 ADD PUSH1 0x40 MSTORE SWAP1 DUP2 PUSH1 0x0 DUP3 ADD DUP1 SLOAD PUSH2 0x289E SWAP1 PUSH2 0x4AAC JUMP JUMPDEST DUP1 PUSH1 0x1F ADD PUSH1 0x20 DUP1 SWAP2 DIV MUL PUSH1 0x20 ADD PUSH1 0x40 MLOAD SWAP1 DUP2 ADD PUSH1 0x40 MSTORE DUP1 SWAP3 SWAP2 SWAP1 DUP2 DUP2 MSTORE PUSH1 0x20 ADD DUP3 DUP1 SLOAD PUSH2 0x28CA SWAP1 PUSH2 0x4AAC JUMP JUMPDEST DUP1 ISZERO PUSH2 0x2917 JUMPI DUP1 PUSH1 0x1F LT PUSH2 0x28EC JUMPI PUSH2 0x100 DUP1 DUP4 SLOAD DIV MUL DUP4 MSTORE SWAP2 PUSH1 0x20 ADD SWAP2 PUSH2 0x2917 JUMP JUMPDEST DUP3 ADD SWAP2 SWAP1 PUSH1 0x0 MSTORE PUSH1 0x20 PUSH1 0x0 KECCAK256 SWAP1 JUMPDEST DUP2 SLOAD DUP2 MSTORE SWAP1 PUSH1 0x1 ADD SWAP1 PUSH1 0x20 ADD DUP1 DUP4 GT PUSH2 0x28FA JUMPI DUP3 SWAP1 SUB PUSH1 0x1F AND DUP3 ADD SWAP2 JUMPDEST POP POP POP POP POP DUP2 MSTORE PUSH1 0x20 ADD PUSH1 0x1 DUP3 ADD DUP1 SLOAD PUSH2 0x2930 SWAP1 PUSH2 0x4AAC JUMP JUMPDEST DUP1 PUSH1 0x1F ADD PUSH1 0x20 DUP1 SWAP2 DIV MUL PUSH1 0x20 ADD PUSH1 0x40 MLOAD SWAP1 DUP2 ADD PUSH1 0x40 MSTORE DUP1 SWAP3 SWAP2 SWAP1 DUP2 DUP2 MSTORE PUSH1 0x20 ADD DUP3 DUP1 SLOAD PUSH2 0x295C SWAP1 PUSH2 0x4AAC JUMP JUMPDEST DUP1 ISZERO PUSH2 0x29A9 JUMPI DUP1 PUSH1 0x1F LT PUSH2 0x297E JUMPI PUSH2 0x100 DUP1 DUP4 SLOAD DIV MUL DUP4 MSTORE SWAP2 PUSH1 0x20 ADD SWAP2 PUSH2 0x29A9 JUMP JUMPDEST DUP3 ADD SWAP2 SWAP1 PUSH1 0x0 MSTORE PUSH1 0x20 PUSH1 0x0 KECCAK256 SWAP1 JUMPDEST DUP2 SLOAD DUP2 MSTORE SWAP1 PUSH1 0x1 ADD SWAP1 PUSH1 0x20 ADD DUP1 DUP4 GT PUSH2 0x298C JUMPI DUP3 SWAP1 SUB PUSH1 0x1F AND DUP3 ADD SWAP2 JUMPDEST POP POP POP POP POP DUP2 MSTORE PUSH1 0x20 ADD PUSH1 0x2 DUP3 ADD DUP1 SLOAD PUSH2 0x29C2 SWAP1 PUSH2 0x4AAC JUMP JUMPDEST DUP1 PUSH1 0x1F ADD PUSH1 0x20 DUP1 SWAP2 DIV MUL PUSH1 0x20 ADD PUSH1 0x40 MLOAD SWAP1 DUP2 ADD PUSH1 0x40 MSTORE DUP1 SWAP3 SWAP2 SWAP1 DUP2 DUP2 MSTORE PUSH1 0x20 ADD DUP3 DUP1 SLOAD PUSH2 0x29EE SWAP1 PUSH2 0x4AAC JUMP JUMPDEST DUP1 ISZERO PUSH2 0x2A3B JUMPI DUP1 PUSH1 0x1F LT PUSH2 0x2A10 JUMPI PUSH2 0x100 DUP1 DUP4 SLOAD DIV MUL DUP4 MSTORE SWAP2 PUSH1 0x20 ADD SWAP2 PUSH2 0x2A3B JUMP JUMPDEST DUP3 ADD SWAP2 SWAP1 PUSH1 0x0 MSTORE PUSH1 0x20 PUSH1 0x0 KECCAK256 SWAP1 JUMPDEST DUP2 SLOAD DUP2 MSTORE SWAP1 PUSH1 0x1 ADD SWAP1 PUSH1 0x20 ADD DUP1 DUP4 GT PUSH2 0x2A1E JUMPI DUP3 SWAP1 SUB PUSH1 0x1F AND DUP3 ADD SWAP2 JUMPDEST POP POP POP POP POP DUP2 MSTORE PUSH1 0x20 ADD PUSH1 0x3 DUP3 ADD DUP1 SLOAD PUSH2 0x2A54 SWAP1 PUSH2 0x4AAC JUMP JUMPDEST DUP1 PUSH1 0x1F ADD PUSH1 0x20 DUP1 SWAP2 DIV MUL PUSH1 0x20 ADD PUSH1 0x40 MLOAD SWAP1 DUP2 ADD PUSH1 0x40 MSTORE DUP1 SWAP3 SWAP2 SWAP1 DUP2 DUP2 MSTORE PUSH1 0x20 ADD DUP3 DUP1 SLOAD PUSH2 0x2A80 SWAP1 PUSH2 0x4AAC JUMP JUMPDEST DUP1 ISZERO PUSH2 0x2ACD JUMPI DUP1 PUSH1 0x1F LT PUSH2 0x2AA2 JUMPI PUSH2 0x100 DUP1 DUP4 SLOAD DIV MUL DUP4 MSTORE SWAP2 PUSH1 0x20 ADD SWAP2 PUSH2 0x2ACD JUMP JUMPDEST DUP3 ADD SWAP2 SWAP1 PUSH1 0x0 MSTORE PUSH1 0x20 PUSH1 0x0 KECCAK256 SWAP1 JUMPDEST DUP2 SLOAD DUP2 MSTORE SWAP1 PUSH1 0x1 ADD SWAP1 PUSH1 0x20 ADD DUP1 DUP4 GT PUSH2 0x2AB0 JUMPI DUP3 SWAP1 SUB PUSH1 0x1F AND DUP3 ADD SWAP2 JUMPDEST POP POP POP POP POP DUP2 MSTORE PUSH1 0x20 ADD PUSH1 0x4 DUP3 ADD DUP1 SLOAD PUSH2 0x2AE6 SWAP1 PUSH2 0x4AAC JUMP JUMPDEST DUP1 PUSH1 0x1F ADD PUSH1 0x20 DUP1 SWAP2 DIV MUL PUSH1 0x20 ADD PUSH1 0x40 MLOAD SWAP1 DUP2 ADD PUSH1 0x40 MSTORE DUP1 SWAP3 SWAP2 SWAP1 DUP2 DUP2 MSTORE PUSH1 0x20 ADD DUP3 DUP1 SLOAD PUSH2 0x2B12 SWAP1 PUSH2 0x4AAC JUMP JUMPDEST DUP1 ISZERO PUSH2 0x2B5F JUMPI DUP1 PUSH1 0x1F LT PUSH2 0x2B34 JUMPI PUSH2 0x100 DUP1 DUP4 SLOAD DIV MUL DUP4 MSTORE SWAP2 PUSH1 0x20 ADD SWAP2 PUSH2 0x2B5F JUMP JUMPDEST DUP3 ADD SWAP2 SWAP1 PUSH1 0x0 MSTORE PUSH1 0x20 PUSH1 0x0 KECCAK256 SWAP1 JUMPDEST DUP2 SLOAD DUP2 MSTORE SWAP1 PUSH1 0x1 ADD SWAP1 PUSH1 0x20 ADD DUP1 DUP4 GT PUSH2 0x2B42 JUMPI DUP3 SWAP1 SUB PUSH1 0x1F AND DUP3 ADD SWAP2 JUMPDEST POP POP POP POP POP DUP2 MSTORE POP POP DUP2 MSTORE PUSH1 0x20 ADD PUSH1 0x7 DUP3 ADD SLOAD DUP2 MSTORE PUSH1 0x20 ADD PUSH1 0x8 DUP3 ADD SLOAD DUP2 MSTORE PUSH1 0x20 ADD PUSH1 0x9 DUP3 ADD DUP1 SLOAD DUP1 PUSH1 0x20 MUL PUSH1 0x20 ADD PUSH1 0x40 MLOAD SWAP1 DUP2 ADD PUSH1 0x40 MSTORE DUP1 SWAP3 SWAP2 SWAP1 DUP2 DUP2 MSTORE PUSH1 0x20 ADD DUP3 DUP1 SLOAD DUP1 ISZERO PUSH2 0x2BD9 JUMPI PUSH1 0x20 MUL DUP3 ADD SWAP2 SWAP1 PUSH1 0x0 MSTORE PUSH1 0x20 PUSH1 0x0 KECCAK256 SWAP1 JUMPDEST DUP2 SLOAD PUSH1 0x1 PUSH1 0x1 PUSH1 0xA0 SHL SUB AND DUP2 MSTORE PUSH1 0x1 SWAP1 SWAP2 ADD SWAP1 PUSH1 0x20 ADD DUP1 DUP4 GT PUSH2 0x2BBB JUMPI JUMPDEST POP POP POP SWAP2 SWAP1 SWAP3 MSTORE POP POP POP PUSH1 0x60 SWAP1 DUP2 ADD MLOAD DUP1 MLOAD PUSH1 0x20 DUP3 ADD MLOAD PUSH1 0x40 DUP4 ADD MLOAD SWAP4 DUP4 ADD MLOAD PUSH1 0x80 SWAP1 SWAP4 ADD MLOAD SWAP2 SWAP12 SWAP1 SWAP11 POP SWAP3 SWAP9 POP SWAP1 SWAP7 POP SWAP5 POP SWAP3 POP POP POP JUMP JUMPDEST PUSH1 0x60 PUSH1 0x5 DUP1 SLOAD DUP1 PUSH1 0x20 MUL PUSH1 0x20 ADD PUSH1 0x40 MLOAD SWAP1 DUP2 ADD PUSH1 0x40 MSTORE DUP1 SWAP3 SWAP2 SWAP1 DUP2 DUP2 MSTORE PUSH1 0x20 ADD DUP3 DUP1 SLOAD DUP1 ISZERO PUSH2 0x1E7B JUMPI PUSH1 0x20 MUL DUP3 ADD SWAP2 SWAP1 PUSH1 0x0 MSTORE PUSH1 0x20 PUSH1 0x0 KECCAK256 SWAP1 DUP2 SLOAD PUSH1 0x1 PUSH1 0x1 PUSH1 0xA0 SHL SUB AND DUP2 MSTORE PUSH1 0x1 SWAP1 SWAP2 ADD SWAP1 PUSH1 0x20 ADD DUP1 DUP4 GT PUSH2 0x1E5D JUMPI POP POP POP POP POP SWAP1 POP SWAP1 JUMP JUMPDEST PUSH1 0x0 PUSH1 0x46 DUP7 MLOAD GT ISZERO PUSH2 0x2CBF JUMPI PUSH1 0x40 MLOAD PUSH3 0x461BCD PUSH1 0xE5 SHL DUP2 MSTORE PUSH1 0x20 PUSH1 0x4 DUP3 ADD MSTORE PUSH1 0x16 PUSH1 0x24 DUP3 ADD MSTORE PUSH22 0x92DCECC2D8D2C840DADEDCD2D6CAE440D8CADCCEE8D PUSH1 0x53 SHL PUSH1 0x44 DUP3 ADD MSTORE PUSH1 0x64 ADD PUSH2 0x8F9 JUMP JUMPDEST PUSH2 0xBB8 DUP6 MLOAD GT ISZERO PUSH2 0x2D12 JUMPI PUSH1 0x40 MLOAD PUSH3 0x461BCD PUSH1 0xE5 SHL DUP2 MSTORE PUSH1 0x20 PUSH1 0x4 DUP3 ADD MSTORE PUSH1 0x17 PUSH1 0x24 DUP3 ADD MSTORE PUSH32 0x496E76616C6964206964656E74697479206C656E677468000000000000000000 PUSH1 0x44 DUP3 ADD MSTORE PUSH1 0x64 ADD PUSH2 0x8F9 JUMP JUMPDEST PUSH1 0x8C DUP5 MLOAD GT ISZERO PUSH2 0x2D5D JUMPI PUSH1 0x40 MLOAD PUSH3 0x461BCD PUSH1 0xE5 SHL DUP2 MSTORE PUSH1 0x20 PUSH1 0x4 DUP3 ADD MSTORE PUSH1 0x16 PUSH1 0x24 DUP3 ADD MSTORE PUSH22 0x92DCECC2D8D2C840EECAC4E6D2E8CA40D8CADCCEE8D PUSH1 0x53 SHL PUSH1 0x44 DUP3 ADD MSTORE PUSH1 0x64 ADD PUSH2 0x8F9 JUMP JUMPDEST PUSH1 0x8C DUP4 MLOAD GT ISZERO PUSH2 0x2DA6 JUMPI PUSH1 0x40 MLOAD PUSH3 0x461BCD PUSH1 0xE5 SHL DUP2 MSTORE PUSH1 0x20 PUSH1 0x4 DUP3 ADD MSTORE PUSH1 0x14 PUSH1 0x24 DUP3 ADD MSTORE PUSH20 0x92DCECC2D8D2C840CADAC2D2D840D8CADCCEE8D PUSH1 0x63 SHL PUSH1 0x44 DUP3 ADD MSTORE PUSH1 0x64 ADD PUSH2 0x8F9 JUMP JUMPDEST PUSH2 0x118 DUP3 MLOAD GT ISZERO PUSH2 0x2DF2 JUMPI PUSH1 0x40 MLOAD PUSH3 0x461BCD PUSH1 0xE5 SHL DUP2 MSTORE PUSH1 0x20 PUSH1 0x4 DUP3 ADD MSTORE PUSH1 0x16 PUSH1 0x24 DUP3 ADD MSTORE PUSH22 0x92DCECC2D8D2C840C8CAE8C2D2D8E640D8CADCCEE8D PUSH1 0x53 SHL PUSH1 0x44 DUP3 ADD MSTORE PUSH1 0x64 ADD PUSH2 0x8F9 JUMP JUMPDEST POP PUSH1 0x1 SWAP6 SWAP5 POP POP POP POP POP JUMP JUMPDEST CALLER COINBASE EQ PUSH2 0x2E3A JUMPI PUSH1 0x40 MLOAD PUSH3 0x461BCD PUSH1 0xE5 SHL DUP2 MSTORE PUSH1 0x20 PUSH1 0x4 DUP3 ADD MSTORE PUSH1 0xA PUSH1 0x24 DUP3 ADD MSTORE PUSH10 0x4D696E6572206F6E6C79 PUSH1 0xB0 SHL PUSH1 0x44 DUP3 ADD MSTORE PUSH1 0x64 ADD PUSH2 0x8F9 JUMP JUMPDEST NUMBER PUSH1 0x0 SWAP1 DUP2 MSTORE PUSH1 0xD PUSH1 0x20 SWAP1 DUP2 MSTORE PUSH1 0x40 DUP1 DUP4 KECCAK256 DUP4 DUP1 MSTORE SWAP1 SWAP2 MSTORE SWAP1 KECCAK256 SLOAD PUSH1 0xFF AND ISZERO PUSH2 0x2EA5 JUMPI PUSH1 0x40 MLOAD PUSH3 0x461BCD PUSH1 0xE5 SHL DUP2 MSTORE PUSH1 0x20 PUSH1 0x4 DUP3 ADD MSTORE PUSH1 0x19 PUSH1 0x24 DUP3 ADD MSTORE PUSH32 0x426C6F636B20697320616C726561647920726577617264656400000000000000 PUSH1 0x44 DUP3 ADD MSTORE PUSH1 0x64 ADD PUSH2 0x8F9 JUMP JUMPDEST PUSH1 0x0 SLOAD PUSH1 0xFF AND PUSH2 0x2EC7 JUMPI PUSH1 0x40 MLOAD PUSH3 0x461BCD PUSH1 0xE5 SHL DUP2 MSTORE PUSH1 0x4 ADD PUSH2 0x8F9 SWAP1 PUSH2 0x49CD JUMP JUMPDEST NUMBER PUSH1 0x0 SWAP1 DUP2 MSTORE PUSH1 0xD PUSH1 0x20 SWAP1 DUP2 MSTORE PUSH1 0x40 DUP1 DUP4 KECCAK256 DUP4 DUP1 MSTORE SWAP1 SWAP2 MSTORE DUP2 KECCAK256 DUP1 SLOAD PUSH1 0xFF NOT AND PUSH1 0x1 OR SWAP1 SSTORE ORIGIN SWAP1 CALLVALUE SWAP1 DUP2 SWAP1 PUSH3 0x186A0 PUSH2 0x2F03 PUSH3 0x17318 DUP5 PUSH2 0x4A06 JUMP JUMPDEST PUSH2 0x2F0D SWAP2 SWAP1 PUSH2 0x4A33 JUMP JUMPDEST SWAP1 POP PUSH2 0x2F19 DUP2 DUP4 PUSH2 0x49F3 JUMP JUMPDEST SWAP2 POP PUSH1 0x0 PUSH3 0x186A0 PUSH2 0x2F2D PUSH2 0x1388 DUP7 PUSH2 0x4A06 JUMP JUMPDEST PUSH2 0x2F37 SWAP2 SWAP1 PUSH2 0x4A33 JUMP JUMPDEST SWAP1 POP PUSH11 0x84595161401484A000000 DUP2 PUSH1 0x1 SLOAD PUSH2 0x2F53 SWAP2 SWAP1 PUSH2 0x49BA JUMP JUMPDEST GT PUSH2 0x2FB0 JUMPI PUSH2 0x2F62 DUP2 DUP5 PUSH2 0x49F3 JUMP JUMPDEST SWAP3 POP DUP1 PUSH1 0x1 PUSH1 0x0 DUP3 DUP3 SLOAD PUSH2 0x2F76 SWAP2 SWAP1 PUSH2 0x49BA JUMP JUMPDEST SWAP1 SWAP2 SSTORE POP POP DUP1 ISZERO PUSH2 0x2FB0 JUMPI PUSH1 0x40 MLOAD PUSH1 0x0 SWAP1 DUP3 ISZERO PUSH2 0x8FC MUL SWAP1 DUP4 SWAP1 DUP4 DUP2 DUP2 DUP2 DUP6 DUP3 DUP9 CALL SWAP4 POP POP POP POP ISZERO DUP1 ISZERO PUSH2 0x2FAE JUMPI RETURNDATASIZE PUSH1 0x0 DUP1 RETURNDATACOPY RETURNDATASIZE PUSH1 0x0 REVERT JUMPDEST POP JUMPDEST DUP7 MLOAD ISZERO PUSH2 0x315B JUMPI PUSH1 0x0 PUSH3 0x186A0 PUSH2 0x2FC7 DUP3 DUP8 PUSH2 0x4A06 JUMP JUMPDEST PUSH2 0x2FD1 SWAP2 SWAP1 PUSH2 0x4A33 JUMP JUMPDEST SWAP1 POP PUSH2 0x2FDD DUP2 DUP6 PUSH2 0x49F3 JUMP JUMPDEST SWAP4 POP PUSH1 0x0 DUP9 MLOAD DUP3 PUSH2 0x2FEE SWAP2 SWAP1 PUSH2 0x4A33 JUMP JUMPDEST SWAP1 POP DUP1 ISZERO PUSH2 0x3158 JUMPI PUSH1 0x0 JUMPDEST DUP10 MLOAD DUP2 LT ISZERO PUSH2 0x3156 JUMPI PUSH1 0x0 PUSH1 0x1 PUSH1 0x1 PUSH1 0xA0 SHL SUB AND DUP11 DUP3 DUP2 MLOAD DUP2 LT PUSH2 0x301F JUMPI PUSH2 0x301F PUSH2 0x4A47 JUMP JUMPDEST PUSH1 0x20 MUL PUSH1 0x20 ADD ADD MLOAD PUSH1 0x1 PUSH1 0x1 PUSH1 0xA0 SHL SUB AND EQ ISZERO DUP1 ISZERO PUSH2 0x3085 JUMPI POP PUSH1 0x0 PUSH1 0x1 PUSH1 0x1 PUSH1 0xA0 SHL SUB AND PUSH1 0x8 PUSH1 0x0 DUP13 DUP5 DUP2 MLOAD DUP2 LT PUSH2 0x305A JUMPI PUSH2 0x305A PUSH2 0x4A47 JUMP JUMPDEST PUSH1 0x20 SWAP1 DUP2 MUL SWAP2 SWAP1 SWAP2 ADD DUP2 ADD MLOAD PUSH1 0x1 PUSH1 0x1 PUSH1 0xA0 SHL SUB SWAP1 DUP2 AND DUP4 MSTORE SWAP1 DUP3 ADD SWAP3 SWAP1 SWAP3 MSTORE PUSH1 0x40 ADD PUSH1 0x0 KECCAK256 SLOAD AND EQ ISZERO JUMPDEST DUP1 ISZERO PUSH2 0x30B3 JUMPI POP PUSH1 0x0 DUP10 DUP3 DUP2 MLOAD DUP2 LT PUSH2 0x30A0 JUMPI PUSH2 0x30A0 PUSH2 0x4A47 JUMP JUMPDEST PUSH1 0x20 MUL PUSH1 0x20 ADD ADD MLOAD PUSH1 0x1 PUSH1 0x1 PUSH1 0x40 SHL SUB AND GT JUMPDEST ISZERO PUSH2 0x3144 JUMPI PUSH1 0x8 PUSH1 0x0 DUP12 DUP4 DUP2 MLOAD DUP2 LT PUSH2 0x30CE JUMPI PUSH2 0x30CE PUSH2 0x4A47 JUMP JUMPDEST PUSH1 0x20 MUL PUSH1 0x20 ADD ADD MLOAD PUSH1 0x1 PUSH1 0x1 PUSH1 0xA0 SHL SUB AND PUSH1 0x1 PUSH1 0x1 PUSH1 0xA0 SHL SUB AND DUP2 MSTORE PUSH1 0x20 ADD SWAP1 DUP2 MSTORE PUSH1 0x20 ADD PUSH1 0x0 KECCAK256 PUSH1 0x0 SWAP1 SLOAD SWAP1 PUSH2 0x100 EXP SWAP1 DIV PUSH1 0x1 PUSH1 0x1 PUSH1 0xA0 SHL SUB AND PUSH1 0x1 PUSH1 0x1 PUSH1 0xA0 SHL SUB AND PUSH2 0x8FC DUP4 SWAP1 DUP2 ISZERO MUL SWAP1 PUSH1 0x40 MLOAD PUSH1 0x0 PUSH1 0x40 MLOAD DUP1 DUP4 SUB DUP2 DUP6 DUP9 DUP9 CALL SWAP4 POP POP POP POP ISZERO DUP1 ISZERO PUSH2 0x3142 JUMPI RETURNDATASIZE PUSH1 0x0 DUP1 RETURNDATACOPY RETURNDATASIZE PUSH1 0x0 REVERT JUMPDEST POP JUMPDEST DUP1 PUSH2 0x314E DUP2 PUSH2 0x4A5D JUMP JUMPDEST SWAP2 POP POP PUSH2 0x2FF9 JUMP JUMPDEST POP JUMPDEST POP POP JUMPDEST PUSH1 0x1 PUSH1 0x1 PUSH1 0xA0 SHL SUB DUP6 AND PUSH1 0x0 DUP2 DUP2 MSTORE PUSH1 0xB PUSH1 0x20 SWAP1 DUP2 MSTORE PUSH1 0x40 DUP1 DUP4 KECCAK256 PUSH1 0xA DUP4 MSTORE DUP2 DUP5 KECCAK256 DUP1 SLOAD DUP6 MSTORE SWAP1 DUP4 MSTORE DUP2 DUP5 KECCAK256 SLOAD SWAP5 DUP5 MSTORE TIMESTAMP SWAP1 SSTORE PUSH1 0x2 SWAP1 SWAP2 MSTORE SWAP1 KECCAK256 PUSH1 0x1 ADD SLOAD ISZERO PUSH2 0x3211 JUMPI PUSH1 0x1 PUSH1 0x1 PUSH1 0xA0 SHL SUB DUP7 AND PUSH1 0x0 SWAP1 DUP2 MSTORE PUSH1 0x2 PUSH1 0x20 MSTORE PUSH1 0x40 SWAP1 KECCAK256 PUSH1 0x1 ADD SLOAD PUSH2 0x31CD DUP6 PUSH9 0x56BC75E2D63100000 PUSH2 0x4A06 JUMP JUMPDEST PUSH2 0x31D7 SWAP2 SWAP1 PUSH2 0x4A33 JUMP JUMPDEST PUSH2 0x31E1 SWAP1 DUP3 PUSH2 0x49BA JUMP JUMPDEST PUSH1 0x1 PUSH1 0x1 PUSH1 0xA0 SHL SUB DUP8 AND PUSH1 0x0 SWAP1 DUP2 MSTORE PUSH1 0xB PUSH1 0x20 SWAP1 DUP2 MSTORE PUSH1 0x40 DUP1 DUP4 KECCAK256 PUSH1 0xA DUP4 MSTORE DUP2 DUP5 KECCAK256 SLOAD DUP5 MSTORE SWAP1 SWAP2 MSTORE SWAP1 KECCAK256 SSTORE PUSH2 0x324B JUMP JUMPDEST PUSH1 0x1 PUSH1 0x1 PUSH1 0xA0 SHL SUB DUP7 AND PUSH1 0x0 SWAP1 DUP2 MSTORE PUSH1 0xB PUSH1 0x20 SWAP1 DUP2 MSTORE PUSH1 0x40 DUP1 DUP4 KECCAK256 PUSH1 0xA DUP4 MSTORE DUP2 DUP5 KECCAK256 SLOAD DUP5 MSTORE SWAP1 SWAP2 MSTORE SWAP1 KECCAK256 DUP2 SWAP1 SSTORE PUSH2 0x3248 DUP5 DUP5 PUSH2 0x49BA JUMP JUMPDEST SWAP3 POP JUMPDEST PUSH1 0x0 PUSH1 0x1 PUSH1 0x1 PUSH1 0xA0 SHL SUB DUP8 AND PUSH1 0x0 SWAP1 DUP2 MSTORE PUSH1 0x2 PUSH1 0x20 MSTORE PUSH1 0x40 SWAP1 KECCAK256 SLOAD PUSH1 0x1 PUSH1 0xA0 SHL SWAP1 DIV PUSH1 0xFF AND PUSH1 0x4 DUP2 GT ISZERO PUSH2 0x3281 JUMPI PUSH2 0x3281 PUSH2 0x442B JUMP JUMPDEST SUB PUSH2 0x3290 JUMPI POP POP POP POP POP POP POP POP JUMP JUMPDEST PUSH2 0x329B DUP4 PUSH1 0x0 PUSH2 0x3C5A JUMP JUMPDEST DUP6 PUSH1 0x1 PUSH1 0x1 PUSH1 0xA0 SHL SUB AND PUSH32 0x1D6CE8F9F300ECD90371399CE90DA8388BBA45019701A1FD6D6EE08EA5800776 DUP5 TIMESTAMP DUP12 DUP12 PUSH1 0x40 MLOAD PUSH2 0x32DA SWAP5 SWAP4 SWAP3 SWAP2 SWAP1 PUSH2 0x4BF4 JUMP JUMPDEST PUSH1 0x40 MLOAD DUP1 SWAP2 SUB SWAP1 LOG2 POP POP POP POP POP POP POP POP JUMP JUMPDEST PUSH1 0x1 PUSH1 0x1 PUSH1 0xA0 SHL SUB DUP2 DUP2 AND PUSH1 0x0 SWAP1 DUP2 MSTORE PUSH1 0x8 PUSH1 0x20 MSTORE PUSH1 0x40 DUP2 KECCAK256 SLOAD SWAP1 SWAP2 AND ISZERO PUSH2 0x3345 JUMPI PUSH1 0x40 MLOAD PUSH3 0x461BCD PUSH1 0xE5 SHL DUP2 MSTORE PUSH1 0x20 PUSH1 0x4 DUP3 ADD MSTORE PUSH1 0xC PUSH1 0x24 DUP3 ADD MSTORE PUSH12 0x1A5B9D985B1A590818D85B1B PUSH1 0xA2 SHL PUSH1 0x44 DUP3 ADD MSTORE PUSH1 0x64 ADD PUSH2 0x8F9 JUMP JUMPDEST POP PUSH1 0x1 PUSH1 0x1 PUSH1 0xA0 SHL SUB AND PUSH1 0x0 SWAP1 DUP2 MSTORE PUSH1 0x8 PUSH1 0x20 MSTORE PUSH1 0x40 SWAP1 KECCAK256 DUP1 SLOAD PUSH1 0x1 PUSH1 0x1 PUSH1 0xA0 SHL SUB NOT AND ORIGIN OR SWAP1 SSTORE PUSH1 0x1 SWAP1 JUMP JUMPDEST PUSH1 0x0 DUP1 PUSH2 0x337F PUSH1 0x0 PUSH2 0x3F8E JUMP JUMPDEST SWAP2 POP SWAP2 POP SWAP1 SWAP2 JUMP JUMPDEST PUSH1 0x0 DUP1 SLOAD PUSH1 0xFF AND PUSH2 0x33AA JUMPI PUSH1 0x40 MLOAD PUSH3 0x461BCD PUSH1 0xE5 SHL DUP2 MSTORE PUSH1 0x4 ADD PUSH2 0x8F9 SWAP1 PUSH2 0x49CD JUMP JUMPDEST ORIGIN PUSH1 0x0 PUSH1 0x1 PUSH1 0x1 PUSH1 0xA0 SHL SUB DUP5 AND PUSH1 0x0 SWAP1 DUP2 MSTORE PUSH1 0x2 PUSH1 0x20 MSTORE PUSH1 0x40 SWAP1 KECCAK256 SLOAD PUSH1 0x1 PUSH1 0xA0 SHL SWAP1 DIV PUSH1 0xFF AND PUSH1 0x4 DUP2 GT ISZERO PUSH2 0x33E1 JUMPI PUSH2 0x33E1 PUSH2 0x442B JUMP JUMPDEST SUB PUSH2 0x3424 JUMPI PUSH1 0x40 MLOAD PUSH3 0x461BCD PUSH1 0xE5 SHL DUP2 MSTORE PUSH1 0x20 PUSH1 0x4 DUP3 ADD MSTORE PUSH1 0x13 PUSH1 0x24 DUP3 ADD MSTORE PUSH19 0x15985B1A59185D1BDC881B9BDD08195E1A5CDD PUSH1 0x6A SHL PUSH1 0x44 DUP3 ADD MSTORE PUSH1 0x64 ADD PUSH2 0x8F9 JUMP JUMPDEST PUSH1 0x1 PUSH1 0x1 PUSH1 0xA0 SHL SUB DUP1 DUP3 AND PUSH1 0x0 SWAP1 DUP2 MSTORE PUSH1 0x3 PUSH1 0x20 SWAP1 DUP2 MSTORE PUSH1 0x40 DUP1 DUP4 KECCAK256 SWAP4 DUP8 AND DUP4 MSTORE SWAP3 DUP2 MSTORE DUP3 DUP3 KECCAK256 PUSH1 0x2 SWAP1 SWAP2 MSTORE SWAP2 SWAP1 KECCAK256 DUP2 SLOAD PUSH1 0x1 DUP4 ADD SLOAD ISZERO PUSH2 0x34B3 JUMPI PUSH1 0x40 MLOAD PUSH3 0x461BCD PUSH1 0xE5 SHL DUP2 MSTORE PUSH1 0x20 PUSH1 0x4 DUP3 ADD MSTORE PUSH1 0x23 PUSH1 0x24 DUP3 ADD MSTORE PUSH32 0x596F752061726520616C726561647920696E20756E7374616B696E6720737461 PUSH1 0x44 DUP3 ADD MSTORE PUSH3 0x747573 PUSH1 0xE8 SHL PUSH1 0x64 DUP3 ADD MSTORE PUSH1 0x84 ADD PUSH2 0x8F9 JUMP JUMPDEST PUSH1 0x0 DUP2 GT PUSH2 0x34FE JUMPI PUSH1 0x40 MLOAD PUSH3 0x461BCD PUSH1 0xE5 SHL DUP2 MSTORE PUSH1 0x20 PUSH1 0x4 DUP3 ADD MSTORE PUSH1 0x18 PUSH1 0x24 DUP3 ADD MSTORE PUSH24 0x596F7520646F6E2774206861766520616E79207374616B65 PUSH1 0x40 SHL PUSH1 0x44 DUP3 ADD MSTORE PUSH1 0x64 ADD PUSH2 0x8F9 JUMP JUMPDEST PUSH1 0x5 SLOAD PUSH1 0x1 EQ DUP1 ISZERO PUSH2 0x3514 JUMPI POP PUSH2 0x3514 DUP7 PUSH2 0x1DC3 JUMP JUMPDEST DUP1 ISZERO PUSH2 0x3537 JUMPI POP PUSH9 0x1BC16D674EC800000 DUP2 DUP4 PUSH1 0x1 ADD SLOAD PUSH2 0x3535 SWAP2 SWAP1 PUSH2 0x49F3 JUMP JUMPDEST LT JUMPDEST ISZERO PUSH2 0x35B8 JUMPI PUSH1 0x40 MLOAD PUSH3 0x461BCD PUSH1 0xE5 SHL DUP2 MSTORE PUSH1 0x20 PUSH1 0x4 DUP3 ADD MSTORE PUSH1 0x45 PUSH1 0x24 DUP3 ADD MSTORE PUSH32 0x596F752063616E277420756E7374616B652C2076616C696461746F72206C6973 PUSH1 0x44 DUP3 ADD MSTORE PUSH32 0x742077696C6C20626520656D7074792061667465722074686973206F70657261 PUSH1 0x64 DUP3 ADD MSTORE PUSH5 0x74696F6E21 PUSH1 0xD8 SHL PUSH1 0x84 DUP3 ADD MSTORE PUSH1 0xA4 ADD PUSH2 0x8F9 JUMP JUMPDEST PUSH1 0x9 DUP3 ADD SLOAD PUSH2 0x35C9 SWAP1 PUSH1 0x1 SWAP1 PUSH2 0x49F3 JUMP JUMPDEST DUP4 PUSH1 0x2 ADD SLOAD EQ PUSH2 0x36B5 JUMPI PUSH1 0x9 DUP3 ADD DUP1 SLOAD PUSH2 0x35E5 SWAP1 PUSH1 0x1 SWAP1 PUSH2 0x49F3 JUMP JUMPDEST DUP2 SLOAD DUP2 LT PUSH2 0x35F5 JUMPI PUSH2 0x35F5 PUSH2 0x4A47 JUMP JUMPDEST SWAP1 PUSH1 0x0 MSTORE PUSH1 0x20 PUSH1 0x0 KECCAK256 ADD PUSH1 0x0 SWAP1 SLOAD SWAP1 PUSH2 0x100 EXP SWAP1 DIV PUSH1 0x1 PUSH1 0x1 PUSH1 0xA0 SHL SUB AND DUP3 PUSH1 0x9 ADD DUP5 PUSH1 0x2 ADD SLOAD DUP2 SLOAD DUP2 LT PUSH2 0x362C JUMPI PUSH2 0x362C PUSH2 0x4A47 JUMP JUMPDEST SWAP1 PUSH1 0x0 MSTORE PUSH1 0x20 PUSH1 0x0 KECCAK256 ADD PUSH1 0x0 PUSH2 0x100 EXP DUP2 SLOAD DUP2 PUSH1 0x1 PUSH1 0x1 PUSH1 0xA0 SHL SUB MUL NOT AND SWAP1 DUP4 PUSH1 0x1 PUSH1 0x1 PUSH1 0xA0 SHL SUB AND MUL OR SWAP1 SSTORE POP DUP3 PUSH1 0x2 ADD SLOAD PUSH1 0x3 PUSH1 0x0 DUP5 PUSH1 0x9 ADD DUP7 PUSH1 0x2 ADD SLOAD DUP2 SLOAD DUP2 LT PUSH2 0x367C JUMPI PUSH2 0x367C PUSH2 0x4A47 JUMP JUMPDEST PUSH1 0x0 SWAP2 DUP3 MSTORE PUSH1 0x20 DUP1 DUP4 KECCAK256 SWAP1 SWAP2 ADD SLOAD PUSH1 0x1 PUSH1 0x1 PUSH1 0xA0 SHL SUB SWAP1 DUP2 AND DUP5 MSTORE DUP4 DUP3 ADD SWAP5 SWAP1 SWAP5 MSTORE PUSH1 0x40 SWAP3 DUP4 ADD DUP3 KECCAK256 SWAP4 DUP12 AND DUP3 MSTORE SWAP3 SWAP1 SWAP3 MSTORE SWAP1 KECCAK256 PUSH1 0x2 ADD SSTORE JUMPDEST DUP2 PUSH1 0x9 ADD DUP1 SLOAD DUP1 PUSH2 0x36C8 JUMPI PUSH2 0x36C8 PUSH2 0x4C5F JUMP JUMPDEST PUSH1 0x0 DUP3 DUP2 MSTORE PUSH1 0x20 SWAP1 KECCAK256 DUP2 ADD PUSH1 0x0 NOT SWAP1 DUP2 ADD DUP1 SLOAD PUSH1 0x1 PUSH1 0x1 PUSH1 0xA0 SHL SUB NOT AND SWAP1 SSTORE ADD SWAP1 SSTORE PUSH1 0x1 DUP3 ADD SLOAD PUSH2 0x36FA SWAP1 DUP3 SWAP1 PUSH2 0x49F3 JUMP JUMPDEST PUSH1 0x1 DUP1 DUP5 ADD SWAP2 SWAP1 SWAP2 SSTORE NUMBER SWAP1 DUP5 ADD SSTORE PUSH1 0x0 PUSH1 0x2 DUP5 ADD SSTORE PUSH1 0x6 SLOAD PUSH2 0x371D SWAP1 DUP3 SWAP1 PUSH2 0x49F3 JUMP JUMPDEST PUSH1 0x6 SSTORE PUSH1 0x1 DUP3 ADD SLOAD PUSH9 0x1BC16D674EC800000 GT DUP1 ISZERO PUSH2 0x3770 JUMPI POP PUSH1 0x4 PUSH1 0x1 PUSH1 0x1 PUSH1 0xA0 SHL SUB DUP8 AND PUSH1 0x0 SWAP1 DUP2 MSTORE PUSH1 0x2 PUSH1 0x20 MSTORE PUSH1 0x40 SWAP1 KECCAK256 SLOAD PUSH1 0x1 PUSH1 0xA0 SHL SWAP1 DIV PUSH1 0xFF AND PUSH1 0x4 DUP2 GT ISZERO PUSH2 0x376D JUMPI PUSH2 0x376D PUSH2 0x442B JUMP JUMPDEST EQ ISZERO JUMPDEST ISZERO PUSH2 0x378F JUMPI DUP2 SLOAD PUSH1 0xFF PUSH1 0xA0 SHL NOT AND PUSH1 0x3 PUSH1 0xA0 SHL OR DUP3 SSTORE PUSH2 0x378F DUP7 PUSH2 0x40A6 JUMP JUMPDEST PUSH2 0x3798 DUP7 PUSH2 0x15C3 JUMP JUMPDEST POP PUSH1 0x1 PUSH1 0x1 PUSH1 0xA0 SHL SUB DUP5 DUP2 AND PUSH1 0x0 DUP2 DUP2 MSTORE PUSH1 0x9 PUSH1 0x20 SWAP1 DUP2 MSTORE PUSH1 0x40 DUP1 DUP4 KECCAK256 SWAP5 DUP12 AND DUP1 DUP5 MSTORE SWAP5 DUP3 MSTORE DUP1 DUP4 KECCAK256 SWAP3 SWAP1 SWAP3 SSTORE DUP2 MLOAD DUP6 DUP2 MSTORE TIMESTAMP SWAP2 DUP2 ADD SWAP2 SWAP1 SWAP2 MSTORE PUSH32 0x449002AE18E748D69A55F38514400D64F966492E593E32D6E9B8B24DB98A0BC1 SWAP2 ADD PUSH1 0x40 MLOAD DUP1 SWAP2 SUB SWAP1 LOG3 POP PUSH1 0x1 SWAP6 SWAP5 POP POP POP POP POP JUMP JUMPDEST PUSH1 0x0 JUMPDEST PUSH1 0x5 SLOAD DUP2 LT ISZERO PUSH2 0x3864 JUMPI DUP3 PUSH1 0x1 PUSH1 0x1 PUSH1 0xA0 SHL SUB AND PUSH1 0x5 DUP3 DUP2 SLOAD DUP2 LT PUSH2 0x3833 JUMPI PUSH2 0x3833 PUSH2 0x4A47 JUMP JUMPDEST PUSH1 0x0 SWAP2 DUP3 MSTORE PUSH1 0x20 SWAP1 SWAP2 KECCAK256 ADD SLOAD PUSH1 0x1 PUSH1 0x1 PUSH1 0xA0 SHL SUB AND SUB PUSH2 0x3852 JUMPI POP POP POP JUMP JUMPDEST DUP1 PUSH2 0x385C DUP2 PUSH2 0x4A5D JUMP JUMPDEST SWAP2 POP POP PUSH2 0x380C JUMP JUMPDEST POP PUSH1 0x5 SLOAD PUSH1 0x33 GT ISZERO PUSH2 0x38EE JUMPI PUSH1 0x5 DUP1 SLOAD PUSH1 0x1 DUP2 ADD DUP3 SSTORE PUSH1 0x0 SWAP2 SWAP1 SWAP2 MSTORE PUSH32 0x36B6384B5ECA791C62761152D0C79BB0604C104A5FB6F4EB0703F3154BB3DB0 ADD DUP1 SLOAD PUSH1 0x1 PUSH1 0x1 PUSH1 0xA0 SHL SUB NOT AND PUSH1 0x1 PUSH1 0x1 PUSH1 0xA0 SHL SUB DUP5 AND SWAP1 DUP2 OR SWAP1 SWAP2 SSTORE PUSH1 0x40 MLOAD TIMESTAMP DUP2 MSTORE PUSH32 0x1E3310AD6891B30E03874EC3D1422A6386C5DA63D9FAF595F5D99EEAF443B99A SWAP1 PUSH1 0x20 ADD PUSH2 0x1357 JUMP JUMPDEST PUSH1 0x0 PUSH1 0x2 PUSH1 0x0 PUSH1 0x5 PUSH1 0x0 DUP2 SLOAD DUP2 LT PUSH2 0x3908 JUMPI PUSH2 0x3908 PUSH2 0x4A47 JUMP JUMPDEST PUSH1 0x0 SWAP2 DUP3 MSTORE PUSH1 0x20 DUP1 DUP4 KECCAK256 SWAP1 SWAP2 ADD SLOAD PUSH1 0x1 PUSH1 0x1 PUSH1 0xA0 SHL SUB AND DUP4 MSTORE DUP3 ADD SWAP3 SWAP1 SWAP3 MSTORE PUSH1 0x40 ADD DUP2 KECCAK256 PUSH1 0x1 SWAP1 DUP2 ADD SLOAD SWAP3 POP JUMPDEST PUSH1 0x5 SLOAD DUP2 LT ISZERO PUSH2 0x39DC JUMPI DUP3 PUSH1 0x2 PUSH1 0x0 PUSH1 0x5 DUP5 DUP2 SLOAD DUP2 LT PUSH2 0x3957 JUMPI PUSH2 0x3957 PUSH2 0x4A47 JUMP JUMPDEST PUSH1 0x0 SWAP2 DUP3 MSTORE PUSH1 0x20 DUP1 DUP4 KECCAK256 SWAP1 SWAP2 ADD SLOAD PUSH1 0x1 PUSH1 0x1 PUSH1 0xA0 SHL SUB AND DUP4 MSTORE DUP3 ADD SWAP3 SWAP1 SWAP3 MSTORE PUSH1 0x40 ADD SWAP1 KECCAK256 PUSH1 0x1 ADD SLOAD LT ISZERO PUSH2 0x39CA JUMPI PUSH1 0x2 PUSH1 0x0 PUSH1 0x5 DUP4 DUP2 SLOAD DUP2 LT PUSH2 0x399C JUMPI PUSH2 0x399C PUSH2 0x4A47 JUMP JUMPDEST PUSH1 0x0 SWAP2 DUP3 MSTORE PUSH1 0x20 DUP1 DUP4 KECCAK256 SWAP1 SWAP2 ADD SLOAD PUSH1 0x1 PUSH1 0x1 PUSH1 0xA0 SHL SUB AND DUP4 MSTORE DUP3 ADD SWAP3 SWAP1 SWAP3 MSTORE PUSH1 0x40 ADD SWAP1 KECCAK256 PUSH1 0x1 ADD SLOAD SWAP3 POP SWAP1 POP DUP1 JUMPDEST DUP1 PUSH2 0x39D4 DUP2 PUSH2 0x4A5D JUMP JUMPDEST SWAP2 POP POP PUSH2 0x3935 JUMP JUMPDEST POP DUP2 DUP4 GT PUSH2 0x39EA JUMPI POP POP POP POP JUMP JUMPDEST DUP4 PUSH1 0x1 PUSH1 0x1 PUSH1 0xA0 SHL SUB AND PUSH32 0x1E3310AD6891B30E03874EC3D1422A6386C5DA63D9FAF595F5D99EEAF443B99A TIMESTAMP PUSH1 0x40 MLOAD PUSH2 0x3A25 SWAP2 DUP2 MSTORE PUSH1 0x20 ADD SWAP1 JUMP JUMPDEST PUSH1 0x40 MLOAD DUP1 SWAP2 SUB SWAP1 LOG2 PUSH1 0x5 DUP2 DUP2 SLOAD DUP2 LT PUSH2 0x3A40 JUMPI PUSH2 0x3A40 PUSH2 0x4A47 JUMP JUMPDEST PUSH1 0x0 SWAP2 DUP3 MSTORE PUSH1 0x20 SWAP2 DUP3 SWAP1 KECCAK256 ADD SLOAD PUSH1 0x40 MLOAD TIMESTAMP DUP2 MSTORE PUSH1 0x1 PUSH1 0x1 PUSH1 0xA0 SHL SUB SWAP1 SWAP2 AND SWAP2 PUSH32 0x7521E44559C870C316E84E60BC4785D9C034A8AB1D6ACDCE8134AC03F946C6ED SWAP2 ADD PUSH1 0x40 MLOAD DUP1 SWAP2 SUB SWAP1 LOG2 DUP4 PUSH1 0x5 DUP3 DUP2 SLOAD DUP2 LT PUSH2 0x3A9E JUMPI PUSH2 0x3A9E PUSH2 0x4A47 JUMP JUMPDEST SWAP1 PUSH1 0x0 MSTORE PUSH1 0x20 PUSH1 0x0 KECCAK256 ADD PUSH1 0x0 PUSH2 0x100 EXP DUP2 SLOAD DUP2 PUSH1 0x1 PUSH1 0x1 PUSH1 0xA0 SHL SUB MUL NOT AND SWAP1 DUP4 PUSH1 0x1 PUSH1 0x1 PUSH1 0xA0 SHL SUB AND MUL OR SWAP1 SSTORE POP POP POP POP POP JUMP JUMPDEST PUSH1 0x0 PUSH1 0x1 PUSH1 0x1 PUSH1 0xA0 SHL SUB DUP3 AND PUSH1 0x0 SWAP1 DUP2 MSTORE PUSH1 0x2 PUSH1 0x20 MSTORE PUSH1 0x40 SWAP1 KECCAK256 SLOAD PUSH1 0x1 PUSH1 0xA0 SHL SWAP1 DIV PUSH1 0xFF AND PUSH1 0x4 DUP2 GT ISZERO PUSH2 0x3B08 JUMPI PUSH2 0x3B08 PUSH2 0x442B JUMP JUMPDEST EQ DUP1 PUSH2 0x3B17 JUMPI POP PUSH1 0x4 SLOAD PUSH1 0x1 LT ISZERO JUMPDEST ISZERO PUSH2 0x3B1F JUMPI POP JUMP JUMPDEST PUSH1 0x1 PUSH1 0x1 PUSH1 0xA0 SHL SUB DUP2 AND PUSH1 0x0 SWAP1 DUP2 MSTORE PUSH1 0x2 PUSH1 0x20 MSTORE PUSH1 0x40 SWAP1 KECCAK256 PUSH1 0x7 ADD SLOAD DUP1 ISZERO PUSH2 0x3BAA JUMPI PUSH2 0x3B4B DUP2 DUP4 PUSH2 0x3C5A JUMP JUMPDEST DUP1 PUSH1 0x7 SLOAD PUSH2 0x3B59 SWAP2 SWAP1 PUSH2 0x49BA JUMP JUMPDEST PUSH1 0x7 SSTORE PUSH1 0x1 PUSH1 0x1 PUSH1 0xA0 SHL SUB DUP3 AND PUSH1 0x0 SWAP1 DUP2 MSTORE PUSH1 0x2 PUSH1 0x20 MSTORE PUSH1 0x40 SWAP1 KECCAK256 PUSH1 0x8 ADD SLOAD PUSH2 0x3B83 SWAP1 DUP3 SWAP1 PUSH2 0x49BA JUMP JUMPDEST PUSH1 0x1 PUSH1 0x1 PUSH1 0xA0 SHL SUB DUP4 AND PUSH1 0x0 SWAP1 DUP2 MSTORE PUSH1 0x2 PUSH1 0x20 MSTORE PUSH1 0x40 DUP2 KECCAK256 PUSH1 0x8 DUP2 ADD SWAP3 SWAP1 SWAP3 SSTORE PUSH1 0x7 SWAP1 SWAP2 ADD SSTORE JUMPDEST PUSH1 0x40 DUP1 MLOAD DUP3 DUP2 MSTORE TIMESTAMP PUSH1 0x20 DUP3 ADD MSTORE PUSH1 0x1 PUSH1 0x1 PUSH1 0xA0 SHL SUB DUP5 AND SWAP2 PUSH32 0xE294E9D73F8EEE23E21B2E1567960625A6B5D339CB127B55D0D09473A9951235 SWAP2 ADD PUSH2 0x1357 JUMP JUMPDEST PUSH1 0x0 PUSH1 0x1 PUSH1 0x1 PUSH1 0xA0 SHL SUB DUP3 AND PUSH1 0x0 SWAP1 DUP2 MSTORE PUSH1 0x2 PUSH1 0x20 MSTORE PUSH1 0x40 SWAP1 KECCAK256 SLOAD PUSH1 0x1 PUSH1 0xA0 SHL SWAP1 DIV PUSH1 0xFF AND PUSH1 0x4 DUP2 GT ISZERO PUSH2 0x3C20 JUMPI PUSH2 0x3C20 PUSH2 0x442B JUMP JUMPDEST SUB PUSH2 0x3C28 JUMPI POP JUMP JUMPDEST PUSH1 0x1 PUSH1 0x1 PUSH1 0xA0 SHL SUB DUP2 AND PUSH1 0x0 SWAP1 DUP2 MSTORE PUSH1 0x2 PUSH1 0x20 MSTORE PUSH1 0x40 SWAP1 KECCAK256 DUP1 SLOAD PUSH1 0xFF PUSH1 0xA0 SHL NOT AND PUSH1 0x1 PUSH1 0xA2 SHL OR SWAP1 SSTORE PUSH2 0x13DF DUP2 PUSH2 0x40A6 JUMP JUMPDEST DUP2 PUSH1 0x0 SUB PUSH2 0x3C66 JUMPI POP POP JUMP JUMPDEST PUSH1 0x0 DUP1 PUSH2 0x3C72 DUP4 PUSH2 0x3F8E JUMP JUMPDEST SWAP1 SWAP3 POP SWAP1 POP PUSH1 0x0 DUP2 SWAP1 SUB PUSH2 0x3C86 JUMPI POP POP POP POP JUMP JUMPDEST PUSH1 0x0 DUP1 DUP4 PUSH1 0x0 SUB PUSH2 0x3E0E JUMPI PUSH1 0x0 PUSH2 0x3C9D DUP5 DUP9 PUSH2 0x4A33 JUMP JUMPDEST SWAP1 POP PUSH2 0x3CA9 DUP5 DUP3 PUSH2 0x4A06 JUMP JUMPDEST PUSH2 0x3CB3 SWAP1 DUP9 PUSH2 0x49F3 JUMP JUMPDEST SWAP3 POP PUSH1 0x0 JUMPDEST PUSH1 0x4 SLOAD DUP2 LT ISZERO PUSH2 0x3DA3 JUMPI PUSH1 0x0 PUSH1 0x4 DUP3 DUP2 SLOAD DUP2 LT PUSH2 0x3CD7 JUMPI PUSH2 0x3CD7 PUSH2 0x4A47 JUMP JUMPDEST PUSH1 0x0 SWAP2 DUP3 MSTORE PUSH1 0x20 SWAP1 SWAP2 KECCAK256 ADD SLOAD PUSH1 0x1 PUSH1 0x1 PUSH1 0xA0 SHL SUB AND SWAP1 POP PUSH1 0x4 PUSH1 0x1 PUSH1 0x1 PUSH1 0xA0 SHL SUB DUP3 AND PUSH1 0x0 SWAP1 DUP2 MSTORE PUSH1 0x2 PUSH1 0x20 MSTORE PUSH1 0x40 SWAP1 KECCAK256 SLOAD PUSH1 0x1 PUSH1 0xA0 SHL SWAP1 DIV PUSH1 0xFF AND PUSH1 0x4 DUP2 GT ISZERO PUSH2 0x3D24 JUMPI PUSH2 0x3D24 PUSH2 0x442B JUMP JUMPDEST EQ ISZERO DUP1 ISZERO PUSH2 0x3D44 JUMPI POP DUP8 PUSH1 0x1 PUSH1 0x1 PUSH1 0xA0 SHL SUB AND DUP2 PUSH1 0x1 PUSH1 0x1 PUSH1 0xA0 SHL SUB AND EQ ISZERO JUMPDEST ISZERO PUSH2 0x3D90 JUMPI PUSH1 0x1 PUSH1 0x1 PUSH1 0xA0 SHL SUB DUP2 AND PUSH1 0x0 SWAP1 DUP2 MSTORE PUSH1 0x2 PUSH1 0x20 MSTORE PUSH1 0x40 SWAP1 KECCAK256 PUSH1 0x7 ADD SLOAD PUSH2 0x3D70 SWAP1 DUP5 SWAP1 PUSH2 0x49BA JUMP JUMPDEST PUSH1 0x1 PUSH1 0x1 PUSH1 0xA0 SHL SUB DUP3 AND PUSH1 0x0 SWAP1 DUP2 MSTORE PUSH1 0x2 PUSH1 0x20 MSTORE PUSH1 0x40 SWAP1 KECCAK256 PUSH1 0x7 ADD SSTORE SWAP3 POP DUP3 JUMPDEST POP DUP1 PUSH2 0x3D9B DUP2 PUSH2 0x4A5D JUMP JUMPDEST SWAP2 POP POP PUSH2 0x3CB8 JUMP JUMPDEST POP PUSH1 0x0 DUP4 GT DUP1 ISZERO PUSH2 0x3DBC JUMPI POP PUSH1 0x1 PUSH1 0x1 PUSH1 0xA0 SHL SUB DUP3 AND ISZERO ISZERO JUMPDEST ISZERO PUSH2 0x3E05 JUMPI PUSH1 0x1 PUSH1 0x1 PUSH1 0xA0 SHL SUB DUP3 AND PUSH1 0x0 SWAP1 DUP2 MSTORE PUSH1 0x2 PUSH1 0x20 MSTORE PUSH1 0x40 SWAP1 KECCAK256 PUSH1 0x7 ADD SLOAD PUSH2 0x3DE8 SWAP1 DUP5 SWAP1 PUSH2 0x49BA JUMP JUMPDEST PUSH1 0x1 PUSH1 0x1 PUSH1 0xA0 SHL SUB DUP4 AND PUSH1 0x0 SWAP1 DUP2 MSTORE PUSH1 0x2 PUSH1 0x20 MSTORE PUSH1 0x40 SWAP1 KECCAK256 PUSH1 0x7 ADD SSTORE JUMPDEST POP POP POP POP POP POP POP JUMP JUMPDEST PUSH1 0x0 DUP1 JUMPDEST PUSH1 0x4 SLOAD DUP2 LT ISZERO PUSH2 0x3F40 JUMPI PUSH1 0x0 PUSH1 0x4 DUP3 DUP2 SLOAD DUP2 LT PUSH2 0x3E31 JUMPI PUSH2 0x3E31 PUSH2 0x4A47 JUMP JUMPDEST PUSH1 0x0 SWAP2 DUP3 MSTORE PUSH1 0x20 SWAP1 SWAP2 KECCAK256 ADD SLOAD PUSH1 0x1 PUSH1 0x1 PUSH1 0xA0 SHL SUB AND SWAP1 POP PUSH1 0x4 PUSH1 0x1 PUSH1 0x1 PUSH1 0xA0 SHL SUB DUP3 AND PUSH1 0x0 SWAP1 DUP2 MSTORE PUSH1 0x2 PUSH1 0x20 MSTORE PUSH1 0x40 SWAP1 KECCAK256 SLOAD PUSH1 0x1 PUSH1 0xA0 SHL SWAP1 DIV PUSH1 0xFF AND PUSH1 0x4 DUP2 GT ISZERO PUSH2 0x3E7E JUMPI PUSH2 0x3E7E PUSH2 0x442B JUMP JUMPDEST EQ ISZERO DUP1 ISZERO PUSH2 0x3E9E JUMPI POP DUP8 PUSH1 0x1 PUSH1 0x1 PUSH1 0xA0 SHL SUB AND DUP2 PUSH1 0x1 PUSH1 0x1 PUSH1 0xA0 SHL SUB AND EQ ISZERO JUMPDEST ISZERO PUSH2 0x3F2D JUMPI PUSH1 0x1 PUSH1 0x1 PUSH1 0xA0 SHL SUB DUP2 AND PUSH1 0x0 SWAP1 DUP2 MSTORE PUSH1 0x2 PUSH1 0x20 MSTORE PUSH1 0x40 DUP2 KECCAK256 PUSH1 0x1 ADD SLOAD DUP9 SWAP1 PUSH2 0x3ECB SWAP1 DUP13 PUSH2 0x4A06 JUMP JUMPDEST PUSH2 0x3ED5 SWAP2 SWAP1 PUSH2 0x4A33 JUMP JUMPDEST SWAP1 POP PUSH2 0x3EE1 DUP2 DUP6 PUSH2 0x49BA JUMP JUMPDEST PUSH1 0x1 PUSH1 0x1 PUSH1 0xA0 SHL SUB DUP4 AND PUSH1 0x0 SWAP1 DUP2 MSTORE PUSH1 0x2 PUSH1 0x20 MSTORE PUSH1 0x40 SWAP1 KECCAK256 PUSH1 0x7 ADD SLOAD SWAP3 SWAP6 POP SWAP4 POP DUP5 SWAP2 PUSH2 0x3F0F SWAP1 DUP3 SWAP1 PUSH2 0x49BA JUMP JUMPDEST PUSH1 0x1 PUSH1 0x1 PUSH1 0xA0 SHL SUB DUP4 AND PUSH1 0x0 SWAP1 DUP2 MSTORE PUSH1 0x2 PUSH1 0x20 MSTORE PUSH1 0x40 SWAP1 KECCAK256 PUSH1 0x7 ADD SSTORE POP JUMPDEST POP DUP1 PUSH2 0x3F38 DUP2 PUSH2 0x4A5D JUMP JUMPDEST SWAP2 POP POP PUSH2 0x3E12 JUMP JUMPDEST POP PUSH2 0x3F4B DUP2 DUP9 PUSH2 0x49F3 JUMP JUMPDEST SWAP3 POP PUSH1 0x0 DUP4 GT DUP1 ISZERO PUSH2 0x3DBC JUMPI POP PUSH1 0x1 PUSH1 0x1 PUSH1 0xA0 SHL SUB DUP3 AND ISZERO PUSH2 0x3E05 JUMPI PUSH1 0x1 PUSH1 0x1 PUSH1 0xA0 SHL SUB DUP3 AND PUSH1 0x0 SWAP1 DUP2 MSTORE PUSH1 0x2 PUSH1 0x20 MSTORE PUSH1 0x40 SWAP1 KECCAK256 PUSH1 0x7 ADD SLOAD PUSH2 0x3DE8 SWAP1 DUP5 SWAP1 PUSH2 0x49BA JUMP JUMPDEST PUSH1 0x0 DUP1 PUSH1 0x0 JUMPDEST PUSH1 0x4 SLOAD DUP2 LT ISZERO PUSH2 0x40A0 JUMPI PUSH1 0x4 PUSH1 0x2 PUSH1 0x0 PUSH1 0x4 DUP5 DUP2 SLOAD DUP2 LT PUSH2 0x3FB7 JUMPI PUSH2 0x3FB7 PUSH2 0x4A47 JUMP JUMPDEST PUSH1 0x0 SWAP2 DUP3 MSTORE PUSH1 0x20 DUP1 DUP4 KECCAK256 SWAP1 SWAP2 ADD SLOAD PUSH1 0x1 PUSH1 0x1 PUSH1 0xA0 SHL SUB AND DUP4 MSTORE DUP3 ADD SWAP3 SWAP1 SWAP3 MSTORE PUSH1 0x40 ADD SWAP1 KECCAK256 SLOAD PUSH1 0xFF PUSH1 0x1 PUSH1 0xA0 SHL SWAP1 SWAP2 DIV AND PUSH1 0x4 DUP2 GT ISZERO PUSH2 0x3FF8 JUMPI PUSH2 0x3FF8 PUSH2 0x442B JUMP JUMPDEST EQ ISZERO DUP1 ISZERO PUSH2 0x4030 JUMPI POP PUSH1 0x4 DUP2 DUP2 SLOAD DUP2 LT PUSH2 0x4014 JUMPI PUSH2 0x4014 PUSH2 0x4A47 JUMP JUMPDEST PUSH1 0x0 SWAP2 DUP3 MSTORE PUSH1 0x20 SWAP1 SWAP2 KECCAK256 ADD SLOAD PUSH1 0x1 PUSH1 0x1 PUSH1 0xA0 SHL SUB DUP6 DUP2 AND SWAP2 AND EQ ISZERO JUMPDEST ISZERO PUSH2 0x408E JUMPI PUSH1 0x2 PUSH1 0x0 PUSH1 0x4 DUP4 DUP2 SLOAD DUP2 LT PUSH2 0x404C JUMPI PUSH2 0x404C PUSH2 0x4A47 JUMP JUMPDEST PUSH1 0x0 SWAP2 DUP3 MSTORE PUSH1 0x20 DUP1 DUP4 KECCAK256 SWAP1 SWAP2 ADD SLOAD PUSH1 0x1 PUSH1 0x1 PUSH1 0xA0 SHL SUB AND DUP4 MSTORE DUP3 ADD SWAP3 SWAP1 SWAP3 MSTORE PUSH1 0x40 ADD SWAP1 KECCAK256 PUSH1 0x1 ADD SLOAD PUSH2 0x407E SWAP1 DUP5 PUSH2 0x49BA JUMP JUMPDEST SWAP3 POP DUP2 PUSH2 0x408A DUP2 PUSH2 0x4A5D JUMP JUMPDEST SWAP3 POP POP JUMPDEST DUP1 PUSH2 0x4098 DUP2 PUSH2 0x4A5D JUMP JUMPDEST SWAP2 POP POP PUSH2 0x3F94 JUMP JUMPDEST POP SWAP2 POP SWAP2 JUMP JUMPDEST PUSH1 0x0 JUMPDEST PUSH1 0x5 SLOAD DUP2 LT DUP1 ISZERO PUSH2 0x40BC JUMPI POP PUSH1 0x5 SLOAD PUSH1 0x1 LT JUMPDEST ISZERO PUSH2 0x1360 JUMPI PUSH1 0x5 DUP2 DUP2 SLOAD DUP2 LT PUSH2 0x40D4 JUMPI PUSH2 0x40D4 PUSH2 0x4A47 JUMP JUMPDEST PUSH1 0x0 SWAP2 DUP3 MSTORE PUSH1 0x20 SWAP1 SWAP2 KECCAK256 ADD SLOAD PUSH1 0x1 PUSH1 0x1 PUSH1 0xA0 SHL SUB SWAP1 DUP2 AND SWAP1 DUP4 AND SUB PUSH2 0x41F3 JUMPI PUSH1 0x5 SLOAD PUSH2 0x4102 SWAP1 PUSH1 0x1 SWAP1 PUSH2 0x49F3 JUMP JUMPDEST DUP2 EQ PUSH2 0x4183 JUMPI PUSH1 0x5 DUP1 SLOAD PUSH2 0x4118 SWAP1 PUSH1 0x1 SWAP1 PUSH2 0x49F3 JUMP JUMPDEST DUP2 SLOAD DUP2 LT PUSH2 0x4128 JUMPI PUSH2 0x4128 PUSH2 0x4A47 JUMP JUMPDEST PUSH1 0x0 SWAP2 DUP3 MSTORE PUSH1 0x20 SWAP1 SWAP2 KECCAK256 ADD SLOAD PUSH1 0x5 DUP1 SLOAD PUSH1 0x1 PUSH1 0x1 PUSH1 0xA0 SHL SUB SWAP1 SWAP3 AND SWAP2 DUP4 SWAP1 DUP2 LT PUSH2 0x4154 JUMPI PUSH2 0x4154 PUSH2 0x4A47 JUMP JUMPDEST SWAP1 PUSH1 0x0 MSTORE PUSH1 0x20 PUSH1 0x0 KECCAK256 ADD PUSH1 0x0 PUSH2 0x100 EXP DUP2 SLOAD DUP2 PUSH1 0x1 PUSH1 0x1 PUSH1 0xA0 SHL SUB MUL NOT AND SWAP1 DUP4 PUSH1 0x1 PUSH1 0x1 PUSH1 0xA0 SHL SUB AND MUL OR SWAP1 SSTORE POP JUMPDEST PUSH1 0x5 DUP1 SLOAD DUP1 PUSH2 0x4194 JUMPI PUSH2 0x4194 PUSH2 0x4C5F JUMP JUMPDEST PUSH1 0x0 DUP3 DUP2 MSTORE PUSH1 0x20 SWAP1 KECCAK256 DUP2 ADD PUSH1 0x0 NOT SWAP1 DUP2 ADD DUP1 SLOAD PUSH1 0x1 PUSH1 0x1 PUSH1 0xA0 SHL SUB NOT AND SWAP1 SSTORE ADD SWAP1 SSTORE PUSH1 0x40 MLOAD PUSH1 0x1 PUSH1 0x1 PUSH1 0xA0 SHL SUB DUP4 AND SWAP1 PUSH32 0x7521E44559C870C316E84E60BC4785D9C034A8AB1D6ACDCE8134AC03F946C6ED SWAP1 PUSH2 0x1357 SWAP1 TIMESTAMP DUP2 MSTORE PUSH1 0x20 ADD SWAP1 JUMP JUMPDEST DUP1 PUSH2 0x41FD DUP2 PUSH2 0x4A5D JUMP JUMPDEST SWAP2 POP POP PUSH2 0x40A9 JUMP JUMPDEST DUP3 DUP1 SLOAD DUP3 DUP3 SSTORE SWAP1 PUSH1 0x0 MSTORE PUSH1 0x20 PUSH1 0x0 KECCAK256 SWAP1 DUP2 ADD SWAP3 DUP3 ISZERO PUSH2 0x425A JUMPI SWAP2 PUSH1 0x20 MUL DUP3 ADD JUMPDEST DUP3 DUP2 GT ISZERO PUSH2 0x425A JUMPI DUP3 MLOAD DUP3 SLOAD PUSH1 0x1 PUSH1 0x1 PUSH1 0xA0 SHL SUB NOT AND PUSH1 0x1 PUSH1 0x1 PUSH1 0xA0 SHL SUB SWAP1 SWAP2 AND OR DUP3 SSTORE PUSH1 0x20 SWAP1 SWAP3 ADD SWAP2 PUSH1 0x1 SWAP1 SWAP2 ADD SWAP1 PUSH2 0x4225 JUMP JUMPDEST POP PUSH2 0x4266 SWAP3 SWAP2 POP PUSH2 0x426A JUMP JUMPDEST POP SWAP1 JUMP JUMPDEST JUMPDEST DUP1 DUP3 GT ISZERO PUSH2 0x4266 JUMPI PUSH1 0x0 DUP2 SSTORE PUSH1 0x1 ADD PUSH2 0x426B JUMP JUMPDEST PUSH1 0x1 PUSH1 0x1 PUSH1 0xA0 SHL SUB DUP2 AND DUP2 EQ PUSH2 0x13DF JUMPI PUSH1 0x0 DUP1 REVERT JUMPDEST PUSH1 0x0 PUSH1 0x20 DUP3 DUP5 SUB SLT ISZERO PUSH2 0x42A6 JUMPI PUSH1 0x0 DUP1 REVERT JUMPDEST DUP2 CALLDATALOAD PUSH2 0x42B1 DUP2 PUSH2 0x427F JUMP JUMPDEST SWAP4 SWAP3 POP POP POP JUMP JUMPDEST PUSH1 0x0 DUP1 PUSH1 0x40 DUP4 DUP6 SUB SLT ISZERO PUSH2 0x42CB JUMPI PUSH1 0x0 DUP1 REVERT JUMPDEST DUP3 CALLDATALOAD PUSH2 0x42D6 DUP2 PUSH2 0x427F JUMP JUMPDEST SWAP2 POP PUSH1 0x20 DUP4 ADD CALLDATALOAD PUSH2 0x42E6 DUP2 PUSH2 0x427F JUMP JUMPDEST DUP1 SWAP2 POP POP SWAP3 POP SWAP3 SWAP1 POP JUMP JUMPDEST PUSH1 0x0 PUSH1 0x20 DUP3 DUP5 SUB SLT ISZERO PUSH2 0x4303 JUMPI PUSH1 0x0 DUP1 REVERT JUMPDEST POP CALLDATALOAD SWAP2 SWAP1 POP JUMP JUMPDEST PUSH4 0x4E487B71 PUSH1 0xE0 SHL PUSH1 0x0 MSTORE PUSH1 0x41 PUSH1 0x4 MSTORE PUSH1 0x24 PUSH1 0x0 REVERT JUMPDEST PUSH1 0x40 MLOAD PUSH1 0x1F DUP3 ADD PUSH1 0x1F NOT AND DUP2 ADD PUSH1 0x1 PUSH1 0x1 PUSH1 0x40 SHL SUB DUP2 GT DUP3 DUP3 LT OR ISZERO PUSH2 0x4348 JUMPI PUSH2 0x4348 PUSH2 0x430A JUMP JUMPDEST PUSH1 0x40 MSTORE SWAP2 SWAP1 POP JUMP JUMPDEST PUSH1 0x0 PUSH1 0x1 PUSH1 0x1 PUSH1 0x40 SHL SUB DUP3 GT ISZERO PUSH2 0x4369 JUMPI PUSH2 0x4369 PUSH2 0x430A JUMP JUMPDEST POP PUSH1 0x5 SHL PUSH1 0x20 ADD SWAP1 JUMP JUMPDEST PUSH1 0x0 DUP3 PUSH1 0x1F DUP4 ADD SLT PUSH2 0x4384 JUMPI PUSH1 0x0 DUP1 REVERT JUMPDEST DUP2 CALLDATALOAD PUSH1 0x20 PUSH2 0x4399 PUSH2 0x4394 DUP4 PUSH2 0x4350 JUMP JUMPDEST PUSH2 0x4320 JUMP JUMPDEST DUP3 DUP2 MSTORE PUSH1 0x5 SWAP3 SWAP1 SWAP3 SHL DUP5 ADD DUP2 ADD SWAP2 DUP2 DUP2 ADD SWAP1 DUP7 DUP5 GT ISZERO PUSH2 0x43B8 JUMPI PUSH1 0x0 DUP1 REVERT JUMPDEST DUP3 DUP7 ADD JUMPDEST DUP5 DUP2 LT ISZERO PUSH2 0x43DC JUMPI DUP1 CALLDATALOAD PUSH2 0x43CF DUP2 PUSH2 0x427F JUMP JUMPDEST DUP4 MSTORE SWAP2 DUP4 ADD SWAP2 DUP4 ADD PUSH2 0x43BC JUMP JUMPDEST POP SWAP7 SWAP6 POP POP POP POP POP POP JUMP JUMPDEST PUSH1 0x0 DUP1 PUSH1 0x40 DUP4 DUP6 SUB SLT ISZERO PUSH2 0x43FA JUMPI PUSH1 0x0 DUP1 REVERT JUMPDEST DUP3 CALLDATALOAD PUSH1 0x1 PUSH1 0x1 PUSH1 0x40 SHL SUB DUP2 GT ISZERO PUSH2 0x4410 JUMPI PUSH1 0x0 DUP1 REVERT JUMPDEST PUSH2 0x441C DUP6 DUP3 DUP7 ADD PUSH2 0x4373 JUMP JUMPDEST SWAP6 PUSH1 0x20 SWAP5 SWAP1 SWAP5 ADD CALLDATALOAD SWAP5 POP POP POP POP JUMP JUMPDEST PUSH4 0x4E487B71 PUSH1 0xE0 SHL PUSH1 0x0 MSTORE PUSH1 0x21 PUSH1 0x4 MSTORE PUSH1 0x24 PUSH1 0x0 REVERT JUMPDEST PUSH1 0x0 DUP2 MLOAD DUP1 DUP5 MSTORE PUSH1 0x20 DUP1 DUP6 ADD SWAP5 POP DUP1 DUP5 ADD PUSH1 0x0 JUMPDEST DUP4 DUP2 LT ISZERO PUSH2 0x447A JUMPI DUP2 MLOAD PUSH1 0x1 PUSH1 0x1 PUSH1 0xA0 SHL SUB AND DUP8 MSTORE SWAP6 DUP3 ADD SWAP6 SWAP1 DUP3 ADD SWAP1 PUSH1 0x1 ADD PUSH2 0x4455 JUMP JUMPDEST POP SWAP5 SWAP6 SWAP5 POP POP POP POP POP JUMP JUMPDEST PUSH1 0x1 PUSH1 0x1 PUSH1 0xA0 SHL SUB DUP8 AND DUP2 MSTORE PUSH1 0x0 PUSH1 0x5 DUP8 LT PUSH2 0x44B1 JUMPI PUSH4 0x4E487B71 PUSH1 0xE0 SHL PUSH1 0x0 MSTORE PUSH1 0x21 PUSH1 0x4 MSTORE PUSH1 0x24 PUSH1 0x0 REVERT JUMPDEST DUP7 PUSH1 0x20 DUP4 ADD MSTORE DUP6 PUSH1 0x40 DUP4 ADD MSTORE DUP5 PUSH1 0x60 DUP4 ADD MSTORE DUP4 PUSH1 0x80 DUP4 ADD MSTORE PUSH1 0xC0 PUSH1 0xA0 DUP4 ADD MSTORE PUSH2 0x44DD PUSH1 0xC0 DUP4 ADD DUP5 PUSH2 0x4441 JUMP JUMPDEST SWAP9 SWAP8 POP POP POP POP POP POP POP POP JUMP JUMPDEST PUSH1 0x0 DUP1 PUSH1 0x40 DUP4 DUP6 SUB SLT ISZERO PUSH2 0x44FC JUMPI PUSH1 0x0 DUP1 REVERT JUMPDEST DUP3 CALLDATALOAD PUSH2 0x4507 DUP2 PUSH2 0x427F JUMP JUMPDEST SWAP5 PUSH1 0x20 SWAP4 SWAP1 SWAP4 ADD CALLDATALOAD SWAP4 POP POP POP JUMP JUMPDEST PUSH1 0x20 DUP2 MSTORE PUSH1 0x0 PUSH2 0x42B1 PUSH1 0x20 DUP4 ADD DUP5 PUSH2 0x4441 JUMP JUMPDEST PUSH1 0x0 DUP1 PUSH1 0x20 DUP4 DUP6 SUB SLT ISZERO PUSH2 0x453B JUMPI PUSH1 0x0 DUP1 REVERT JUMPDEST DUP3 CALLDATALOAD PUSH1 0x1 PUSH1 0x1 PUSH1 0x40 SHL SUB DUP1 DUP3 GT ISZERO PUSH2 0x4552 JUMPI PUSH1 0x0 DUP1 REVERT JUMPDEST DUP2 DUP6 ADD SWAP2 POP DUP6 PUSH1 0x1F DUP4 ADD SLT PUSH2 0x4566 JUMPI PUSH1 0x0 DUP1 REVERT JUMPDEST DUP2 CALLDATALOAD DUP2 DUP2 GT ISZERO PUSH2 0x4575 JUMPI PUSH1 0x0 DUP1 REVERT JUMPDEST DUP7 PUSH1 0x20 DUP3 PUSH1 0x5 SHL DUP6 ADD ADD GT ISZERO PUSH2 0x458A JUMPI PUSH1 0x0 DUP1 REVERT JUMPDEST PUSH1 0x20 SWAP3 SWAP1 SWAP3 ADD SWAP7 SWAP2 SWAP6 POP SWAP1 SWAP4 POP POP POP POP JUMP JUMPDEST DUP1 CALLDATALOAD PUSH2 0x1125 DUP2 PUSH2 0x427F JUMP JUMPDEST PUSH1 0x0 DUP1 DUP4 PUSH1 0x1F DUP5 ADD SLT PUSH2 0x45B9 JUMPI PUSH1 0x0 DUP1 REVERT JUMPDEST POP DUP2 CALLDATALOAD PUSH1 0x1 PUSH1 0x1 PUSH1 0x40 SHL SUB DUP2 GT ISZERO PUSH2 0x45D0 JUMPI PUSH1 0x0 DUP1 REVERT JUMPDEST PUSH1 0x20 DUP4 ADD SWAP2 POP DUP4 PUSH1 0x20 DUP3 DUP6 ADD ADD GT ISZERO PUSH2 0x45E8 JUMPI PUSH1 0x0 DUP1 REVERT JUMPDEST SWAP3 POP SWAP3 SWAP1 POP JUMP JUMPDEST PUSH1 0x0 DUP1 PUSH1 0x0 DUP1 PUSH1 0x0 DUP1 PUSH1 0x0 DUP1 PUSH1 0x0 DUP1 PUSH1 0x0 PUSH1 0xC0 DUP13 DUP15 SUB SLT ISZERO PUSH2 0x4610 JUMPI PUSH1 0x0 DUP1 REVERT JUMPDEST PUSH2 0x4619 DUP13 PUSH2 0x459C JUMP JUMPDEST SWAP11 POP PUSH1 0x1 PUSH1 0x1 PUSH1 0x40 SHL SUB DUP1 PUSH1 0x20 DUP15 ADD CALLDATALOAD GT ISZERO PUSH2 0x4634 JUMPI PUSH1 0x0 DUP1 REVERT JUMPDEST PUSH2 0x4644 DUP15 PUSH1 0x20 DUP16 ADD CALLDATALOAD DUP16 ADD PUSH2 0x45A7 JUMP JUMPDEST SWAP1 SWAP12 POP SWAP10 POP PUSH1 0x40 DUP14 ADD CALLDATALOAD DUP2 LT ISZERO PUSH2 0x465A JUMPI PUSH1 0x0 DUP1 REVERT JUMPDEST PUSH2 0x466A DUP15 PUSH1 0x40 DUP16 ADD CALLDATALOAD DUP16 ADD PUSH2 0x45A7 JUMP JUMPDEST SWAP1 SWAP10 POP SWAP8 POP PUSH1 0x60 DUP14 ADD CALLDATALOAD DUP2 LT ISZERO PUSH2 0x4680 JUMPI PUSH1 0x0 DUP1 REVERT JUMPDEST PUSH2 0x4690 DUP15 PUSH1 0x60 DUP16 ADD CALLDATALOAD DUP16 ADD PUSH2 0x45A7 JUMP JUMPDEST SWAP1 SWAP8 POP SWAP6 POP PUSH1 0x80 DUP14 ADD CALLDATALOAD DUP2 LT ISZERO PUSH2 0x46A6 JUMPI PUSH1 0x0 DUP1 REVERT JUMPDEST PUSH2 0x46B6 DUP15 PUSH1 0x80 DUP16 ADD CALLDATALOAD DUP16 ADD PUSH2 0x45A7 JUMP JUMPDEST SWAP1 SWAP6 POP SWAP4 POP PUSH1 0xA0 DUP14 ADD CALLDATALOAD DUP2 LT ISZERO PUSH2 0x46CC JUMPI PUSH1 0x0 DUP1 REVERT JUMPDEST POP PUSH2 0x46DD DUP14 PUSH1 0xA0 DUP15 ADD CALLDATALOAD DUP15 ADD PUSH2 0x45A7 JUMP JUMPDEST DUP2 SWAP4 POP DUP1 SWAP3 POP POP POP SWAP3 SWAP6 SWAP9 SWAP12 POP SWAP3 SWAP6 SWAP9 SWAP12 SWAP1 SWAP4 SWAP7 SWAP10 POP JUMP JUMPDEST PUSH1 0x0 DUP2 MLOAD DUP1 DUP5 MSTORE PUSH1 0x0 JUMPDEST DUP2 DUP2 LT ISZERO PUSH2 0x471B JUMPI PUSH1 0x20 DUP2 DUP6 ADD DUP2 ADD MLOAD DUP7 DUP4 ADD DUP3 ADD MSTORE ADD PUSH2 0x46FF JUMP JUMPDEST POP PUSH1 0x0 PUSH1 0x20 DUP3 DUP7 ADD ADD MSTORE PUSH1 0x20 PUSH1 0x1F NOT PUSH1 0x1F DUP4 ADD AND DUP6 ADD ADD SWAP2 POP POP SWAP3 SWAP2 POP POP JUMP JUMPDEST PUSH1 0xA0 DUP2 MSTORE PUSH1 0x0 PUSH2 0x474E PUSH1 0xA0 DUP4 ADD DUP9 PUSH2 0x46F5 JUMP JUMPDEST DUP3 DUP2 SUB PUSH1 0x20 DUP5 ADD MSTORE PUSH2 0x4760 DUP2 DUP9 PUSH2 0x46F5 JUMP JUMPDEST SWAP1 POP DUP3 DUP2 SUB PUSH1 0x40 DUP5 ADD MSTORE PUSH2 0x4774 DUP2 DUP8 PUSH2 0x46F5 JUMP JUMPDEST SWAP1 POP DUP3 DUP2 SUB PUSH1 0x60 DUP5 ADD MSTORE PUSH2 0x4788 DUP2 DUP7 PUSH2 0x46F5 JUMP JUMPDEST SWAP1 POP DUP3 DUP2 SUB PUSH1 0x80 DUP5 ADD MSTORE PUSH2 0x44DD DUP2 DUP6 PUSH2 0x46F5 JUMP JUMPDEST PUSH1 0x0 DUP3 PUSH1 0x1F DUP4 ADD SLT PUSH2 0x47AD JUMPI PUSH1 0x0 DUP1 REVERT JUMPDEST DUP2 CALLDATALOAD PUSH1 0x1 PUSH1 0x1 PUSH1 0x40 SHL SUB DUP2 GT ISZERO PUSH2 0x47C6 JUMPI PUSH2 0x47C6 PUSH2 0x430A JUMP JUMPDEST PUSH2 0x47D9 PUSH1 0x1F DUP3 ADD PUSH1 0x1F NOT AND PUSH1 0x20 ADD PUSH2 0x4320 JUMP JUMPDEST DUP2 DUP2 MSTORE DUP5 PUSH1 0x20 DUP4 DUP7 ADD ADD GT ISZERO PUSH2 0x47EE JUMPI PUSH1 0x0 DUP1 REVERT JUMPDEST DUP2 PUSH1 0x20 DUP6 ADD PUSH1 0x20 DUP4 ADD CALLDATACOPY PUSH1 0x0 SWAP2 DUP2 ADD PUSH1 0x20 ADD SWAP2 SWAP1 SWAP2 MSTORE SWAP4 SWAP3 POP POP POP JUMP JUMPDEST PUSH1 0x0 DUP1 PUSH1 0x0 DUP1 PUSH1 0x0 PUSH1 0xA0 DUP7 DUP9 SUB SLT ISZERO PUSH2 0x4823 JUMPI PUSH1 0x0 DUP1 REVERT JUMPDEST DUP6 CALLDATALOAD PUSH1 0x1 PUSH1 0x1 PUSH1 0x40 SHL SUB DUP1 DUP3 GT ISZERO PUSH2 0x483A JUMPI PUSH1 0x0 DUP1 REVERT JUMPDEST PUSH2 0x4846 DUP10 DUP4 DUP11 ADD PUSH2 0x479C JUMP JUMPDEST SWAP7 POP PUSH1 0x20 DUP9 ADD CALLDATALOAD SWAP2 POP DUP1 DUP3 GT ISZERO PUSH2 0x485C JUMPI PUSH1 0x0 DUP1 REVERT JUMPDEST PUSH2 0x4868 DUP10 DUP4 DUP11 ADD PUSH2 0x479C JUMP JUMPDEST SWAP6 POP PUSH1 0x40 DUP9 ADD CALLDATALOAD SWAP2 POP DUP1 DUP3 GT ISZERO PUSH2 0x487E JUMPI PUSH1 0x0 DUP1 REVERT JUMPDEST PUSH2 0x488A DUP10 DUP4 DUP11 ADD PUSH2 0x479C JUMP JUMPDEST SWAP5 POP PUSH1 0x60 DUP9 ADD CALLDATALOAD SWAP2 POP DUP1 DUP3 GT ISZERO PUSH2 0x48A0 JUMPI PUSH1 0x0 DUP1 REVERT JUMPDEST PUSH2 0x48AC DUP10 DUP4 DUP11 ADD PUSH2 0x479C JUMP JUMPDEST SWAP4 POP PUSH1 0x80 DUP9 ADD CALLDATALOAD SWAP2 POP DUP1 DUP3 GT ISZERO PUSH2 0x48C2 JUMPI PUSH1 0x0 DUP1 REVERT JUMPDEST POP PUSH2 0x48CF DUP9 DUP3 DUP10 ADD PUSH2 0x479C JUMP JUMPDEST SWAP2 POP POP SWAP3 SWAP6 POP SWAP3 SWAP6 SWAP1 SWAP4 POP JUMP JUMPDEST PUSH1 0x0 DUP1 PUSH1 0x40 DUP4 DUP6 SUB SLT ISZERO PUSH2 0x48EF JUMPI PUSH1 0x0 DUP1 REVERT JUMPDEST DUP3 CALLDATALOAD PUSH1 0x1 PUSH1 0x1 PUSH1 0x40 SHL SUB DUP1 DUP3 GT ISZERO PUSH2 0x4906 JUMPI PUSH1 0x0 DUP1 REVERT JUMPDEST PUSH2 0x4912 DUP7 DUP4 DUP8 ADD PUSH2 0x4373 JUMP JUMPDEST SWAP4 POP PUSH1 0x20 SWAP2 POP DUP2 DUP6 ADD CALLDATALOAD DUP2 DUP2 GT ISZERO PUSH2 0x4929 JUMPI PUSH1 0x0 DUP1 REVERT JUMPDEST DUP6 ADD PUSH1 0x1F DUP2 ADD DUP8 SGT PUSH2 0x493A JUMPI PUSH1 0x0 DUP1 REVERT JUMPDEST DUP1 CALLDATALOAD PUSH2 0x4948 PUSH2 0x4394 DUP3 PUSH2 0x4350 JUMP JUMPDEST DUP2 DUP2 MSTORE PUSH1 0x5 SWAP2 SWAP1 SWAP2 SHL DUP3 ADD DUP5 ADD SWAP1 DUP5 DUP2 ADD SWAP1 DUP10 DUP4 GT ISZERO PUSH2 0x4967 JUMPI PUSH1 0x0 DUP1 REVERT JUMPDEST SWAP3 DUP6 ADD SWAP3 JUMPDEST DUP3 DUP5 LT ISZERO PUSH2 0x4994 JUMPI DUP4 CALLDATALOAD DUP6 DUP2 AND DUP2 EQ PUSH2 0x4985 JUMPI PUSH1 0x0 DUP1 DUP2 REVERT JUMPDEST DUP3 MSTORE SWAP3 DUP6 ADD SWAP3 SWAP1 DUP6 ADD SWAP1 PUSH2 0x496C JUMP JUMPDEST DUP1 SWAP7 POP POP POP POP POP POP POP SWAP3 POP SWAP3 SWAP1 POP JUMP JUMPDEST PUSH4 0x4E487B71 PUSH1 0xE0 SHL PUSH1 0x0 MSTORE PUSH1 0x11 PUSH1 0x4 MSTORE PUSH1 0x24 PUSH1 0x0 REVERT JUMPDEST DUP1 DUP3 ADD DUP1 DUP3 GT ISZERO PUSH2 0x1234 JUMPI PUSH2 0x1234 PUSH2 0x49A4 JUMP JUMPDEST PUSH1 0x20 DUP1 DUP3 MSTORE PUSH1 0xC SWAP1 DUP3 ADD MSTORE PUSH12 0x139BDD081A5B9A5D081E595D PUSH1 0xA2 SHL PUSH1 0x40 DUP3 ADD MSTORE PUSH1 0x60 ADD SWAP1 JUMP JUMPDEST DUP2 DUP2 SUB DUP2 DUP2 GT ISZERO PUSH2 0x1234 JUMPI PUSH2 0x1234 PUSH2 0x49A4 JUMP JUMPDEST DUP1 DUP3 MUL DUP2 ISZERO DUP3 DUP3 DIV DUP5 EQ OR PUSH2 0x1234 JUMPI PUSH2 0x1234 PUSH2 0x49A4 JUMP JUMPDEST PUSH4 0x4E487B71 PUSH1 0xE0 SHL PUSH1 0x0 MSTORE PUSH1 0x12 PUSH1 0x4 MSTORE PUSH1 0x24 PUSH1 0x0 REVERT JUMPDEST PUSH1 0x0 DUP3 PUSH2 0x4A42 JUMPI PUSH2 0x4A42 PUSH2 0x4A1D JUMP JUMPDEST POP DIV SWAP1 JUMP JUMPDEST PUSH4 0x4E487B71 PUSH1 0xE0 SHL PUSH1 0x0 MSTORE PUSH1 0x32 PUSH1 0x4 MSTORE PUSH1 0x24 PUSH1 0x0 REVERT JUMPDEST PUSH1 0x0 PUSH1 0x1 DUP3 ADD PUSH2 0x4A6F JUMPI PUSH2 0x4A6F PUSH2 0x49A4 JUMP JUMPDEST POP PUSH1 0x1 ADD SWAP1 JUMP JUMPDEST PUSH1 0x0 DUP3 PUSH2 0x4A85 JUMPI PUSH2 0x4A85 PUSH2 0x4A1D JUMP JUMPDEST POP MOD SWAP1 JUMP JUMPDEST PUSH1 0x0 PUSH1 0x20 DUP3 DUP5 SUB SLT ISZERO PUSH2 0x4A9C JUMPI PUSH1 0x0 DUP1 REVERT JUMPDEST DUP2 MLOAD DUP1 ISZERO ISZERO DUP2 EQ PUSH2 0x42B1 JUMPI PUSH1 0x0 DUP1 REVERT JUMPDEST PUSH1 0x1 DUP2 DUP2 SHR SWAP1 DUP3 AND DUP1 PUSH2 0x4AC0 JUMPI PUSH1 0x7F DUP3 AND SWAP2 POP JUMPDEST PUSH1 0x20 DUP3 LT DUP2 SUB PUSH2 0x4AE0 JUMPI PUSH4 0x4E487B71 PUSH1 0xE0 SHL PUSH1 0x0 MSTORE PUSH1 0x22 PUSH1 0x4 MSTORE PUSH1 0x24 PUSH1 0x0 REVERT JUMPDEST POP SWAP2 SWAP1 POP JUMP JUMPDEST PUSH1 0x1F DUP3 GT ISZERO PUSH2 0x4B30 JUMPI PUSH1 0x0 DUP2 DUP2 MSTORE PUSH1 0x20 DUP2 KECCAK256 PUSH1 0x1F DUP6 ADD PUSH1 0x5 SHR DUP2 ADD PUSH1 0x20 DUP7 LT ISZERO PUSH2 0x4B0D JUMPI POP DUP1 JUMPDEST PUSH1 0x1F DUP6 ADD PUSH1 0x5 SHR DUP3 ADD SWAP2 POP JUMPDEST DUP2 DUP2 LT ISZERO PUSH2 0x4B2C JUMPI DUP3 DUP2 SSTORE PUSH1 0x1 ADD PUSH2 0x4B19 JUMP JUMPDEST POP POP POP JUMPDEST POP POP POP JUMP JUMPDEST DUP2 MLOAD PUSH1 0x1 PUSH1 0x1 PUSH1 0x40 SHL SUB DUP2 GT ISZERO PUSH2 0x4B4E JUMPI PUSH2 0x4B4E PUSH2 0x430A JUMP JUMPDEST PUSH2 0x4B62 DUP2 PUSH2 0x4B5C DUP5 SLOAD PUSH2 0x4AAC JUMP JUMPDEST DUP5 PUSH2 0x4AE6 JUMP JUMPDEST PUSH1 0x20 DUP1 PUSH1 0x1F DUP4 GT PUSH1 0x1 DUP2 EQ PUSH2 0x4B97 JUMPI PUSH1 0x0 DUP5 ISZERO PUSH2 0x4B7F JUMPI POP DUP6 DUP4 ADD MLOAD JUMPDEST PUSH1 0x0 NOT PUSH1 0x3 DUP7 SWAP1 SHL SHR NOT AND PUSH1 0x1 DUP6 SWAP1 SHL OR DUP6 SSTORE PUSH2 0x4B2C JUMP JUMPDEST PUSH1 0x0 DUP6 DUP2 MSTORE PUSH1 0x20 DUP2 KECCAK256 PUSH1 0x1F NOT DUP7 AND SWAP2 JUMPDEST DUP3 DUP2 LT ISZERO PUSH2 0x4BC6 JUMPI DUP9 DUP7 ADD MLOAD DUP3 SSTORE SWAP5 DUP5 ADD SWAP5 PUSH1 0x1 SWAP1 SWAP2 ADD SWAP1 DUP5 ADD PUSH2 0x4BA7 JUMP JUMPDEST POP DUP6 DUP3 LT ISZERO PUSH2 0x4BE4 JUMPI DUP8 DUP6 ADD MLOAD PUSH1 0x0 NOT PUSH1 0x3 DUP9 SWAP1 SHL PUSH1 0xF8 AND SHR NOT AND DUP2 SSTORE JUMPDEST POP POP POP POP POP PUSH1 0x1 SWAP1 DUP2 SHL ADD SWAP1 SSTORE POP JUMP JUMPDEST DUP5 DUP2 MSTORE PUSH1 0x0 PUSH1 0x20 DUP6 DUP2 DUP5 ADD MSTORE PUSH1 0x80 PUSH1 0x40 DUP5 ADD MSTORE PUSH2 0x4C14 PUSH1 0x80 DUP5 ADD DUP7 PUSH2 0x4441 JUMP JUMPDEST DUP4 DUP2 SUB PUSH1 0x60 DUP6 ADD MSTORE DUP5 MLOAD DUP1 DUP3 MSTORE DUP3 DUP7 ADD SWAP2 DUP4 ADD SWAP1 PUSH1 0x0 JUMPDEST DUP2 DUP2 LT ISZERO PUSH2 0x4C50 JUMPI DUP4 MLOAD PUSH1 0x1 PUSH1 0x1 PUSH1 0x40 SHL SUB AND DUP4 MSTORE SWAP3 DUP5 ADD SWAP3 SWAP2 DUP5 ADD SWAP2 PUSH1 0x1 ADD PUSH2 0x4C2B JUMP JUMPDEST POP SWAP1 SWAP10 SWAP9 POP POP POP POP POP POP POP POP POP JUMP JUMPDEST PUSH4 0x4E487B71 PUSH1 0xE0 SHL PUSH1 0x0 MSTORE PUSH1 0x31 PUSH1 0x4 MSTORE PUSH1 0x24 PUSH1 0x0 REVERT INVALID LOG2 PUSH5 0x6970667358 0x22 SLT KECCAK256 SLT 0xDF DUP15 0xB4 SHR GASLIMIT 0xF8 LOG3 LOG2 SHL CHAINID 0xE9 SLT PUSH11 0xB793B898A67C2037F7DFBA DUP2 SAR OR SIGNEXTEND PUSH27 0x2B9F64736F6C634300081100330000000000000000000000000000 "
		},
		"gasEstimates": {
			"creation": {
				"codeDepositCost": "3925400",
				"executionCost": "4471",
				"totalCost": "3929871"
			},
			"external": {
				"MaxValidators()": "248",
				"MinimalStakingCoin()": "328",
				"ProposalAddr()": "283",
				"PunishContractAddr()": "262",
				"StakingLockPeriod()": "326",
				"ValidatorContractAddr()": "350",
				"burnPartPercent()": "307",
				"burnStopAmount()": "262",
				"contractCreator(address)": "2640",
				"contractPartPercent()": "349",
				"createOrEditValidator(address,string,string,string,string,string)": "infinite",
				"currentValidatorSet(uint256)": "4725",
				"distributeBlockReward(address[],uint64[])": "infinite",
				"getActiveValidators()": "infinite",
				"getStakingInfo(address,address)": "infinite",
				"getTopValidators()": "infinite",
				"getTotalStakeOfActiveValidators()": "infinite",
				"getValidatorDescription(address)": "infinite",
				"getValidatorInfo(address)": "infinite",
				"highestValidatorsSet(uint256)": "4748",
				"initialize(address[])": "infinite",
				"initialized()": "2434",
				"isActiveValidator(address)": "infinite",
				"isTopValidator(address)": "infinite",
				"lastRewardTime(address)": "2559",
				"minimumValidatorStaking()": "286",
				"reflectionPercentSum(address,uint256)": "2718",
				"removeValidator(address)": "infinite",
				"removeValidatorIncoming(address)": "infinite",
				"setContractCreator(address)": "27005",
				"stake(address)": "infinite",
				"stakeTime(address,address)": "infinite",
				"stakerPartPercent()": "261",
				"totalBurnt()": "2429",
				"totalJailedHB()": "2408",
				"totalStake()": "2385",
				"tryReactive(address)": "infinite",
				"unstake(address)": "infinite",
				"updateActiveValidatorSet(address[],uint256)": "infinite",
				"validateDescription(string,string,string,string,string)": "infinite",
				"validatorPartPercent()": "307",
				"viewStakeReward(address,address)": "infinite",
				"withdrawProfits(address)": "infinite",
				"withdrawStaking(address)": "infinite",
				"withdrawStakingReward(address)": "infinite"
			},
			"internal": {
				"addProfitsToActiveValidatorsByStakePercentExcept(uint256,address)": "infinite",
				"getTotalStakeOfActiveValidatorsExcept(address)": "infinite",
				"tryAddValidatorToHighestSet(address,uint256)": "infinite",
				"tryJailValidator(address)": "infinite",
				"tryRemoveValidatorInHighestSet(address)": "infinite",
				"tryRemoveValidatorIncoming(address)": "infinite"
			}
		},
		"methodIdentifiers": {
			"MaxValidators()": "c967f90f",
			"MinimalStakingCoin()": "be645692",
			"ProposalAddr()": "6233be5d",
			"PunishContractAddr()": "1b5e358c",
			"StakingLockPeriod()": "db78dd28",
			"ValidatorContractAddr()": "3a061bd3",
			"burnPartPercent()": "37dbc8cc",
			"burnStopAmount()": "9d7714ce",
			"contractCreator(address)": "d571770c",
			"contractPartPercent()": "fca737c0",
			"createOrEditValidator(address,string,string,string,string,string)": "a406fcb7",
			"currentValidatorSet(uint256)": "6969a25c",
			"distributeBlockReward(address[],uint64[])": "bb1c0310",
			"getActiveValidators()": "9de70258",
			"getStakingInfo(address,address)": "7f4f95fa",
			"getTopValidators()": "afeea115",
			"getTotalStakeOfActiveValidators()": "c253c384",
			"getValidatorDescription(address)": "a43569b3",
			"getValidatorInfo(address)": "8a11d7c9",
			"highestValidatorsSet(uint256)": "4b3d500b",
			"initialize(address[])": "a224cee7",
			"initialized()": "158ef93e",
			"isActiveValidator(address)": "40550a1c",
			"isTopValidator(address)": "98e3b626",
			"lastRewardTime(address)": "3b5d441e",
			"minimumValidatorStaking()": "0976c65d",
			"reflectionPercentSum(address,uint256)": "92f2c437",
			"removeValidator(address)": "40a141ff",
			"removeValidatorIncoming(address)": "5dd09590",
			"setContractCreator(address)": "bd10ba76",
			"stake(address)": "26476204",
			"stakeTime(address,address)": "01aec704",
			"stakerPartPercent()": "cd779d21",
			"totalBurnt()": "966ff650",
			"totalJailedHB()": "1303f7cf",
			"totalStake()": "8b0e9f3f",
			"tryReactive(address)": "82bd3d92",
			"unstake(address)": "f2888dbb",
			"updateActiveValidatorSet(address[],uint256)": "6846992a",
			"validateDescription(string,string,string,string,string)": "b6c88519",
			"validatorPartPercent()": "42127ee7",
			"viewStakeReward(address,address)": "3ae898ca",
			"withdrawProfits(address)": "00362a77",
			"withdrawStaking(address)": "222d3b05",
			"withdrawStakingReward(address)": "72d30a70"
		}
	},
	"abi": [
		{
			"anonymous": false,
			"inputs": [
				{
					"indexed": true,
					"internalType": "address",
					"name": "val",
					"type": "address"
				},
				{
					"indexed": false,
					"internalType": "uint256",
					"name": "time",
					"type": "uint256"
				}
			],
			"name": "LogAddToTopValidators",
			"type": "event"
		},
		{
			"anonymous": false,
			"inputs": [
				{
					"indexed": true,
					"internalType": "address",
					"name": "val",
					"type": "address"
				},
				{
					"indexed": true,
					"internalType": "address",
					"name": "fee",
					"type": "address"
				},
				{
					"indexed": false,
					"internalType": "uint256",
					"name": "time",
					"type": "uint256"
				}
			],
			"name": "LogCreateValidator",
			"type": "event"
		},
		{
			"anonymous": false,
			"inputs": [
				{
					"indexed": true,
					"internalType": "address",
					"name": "coinbase",
					"type": "address"
				},
				{
					"indexed": false,
					"internalType": "uint256",
					"name": "blockReward",
					"type": "uint256"
				},
				{
					"indexed": false,
					"internalType": "uint256",
					"name": "time",
					"type": "uint256"
				},
				{
					"indexed": false,
					"internalType": "address[]",
					"name": "To",
					"type": "address[]"
				},
				{
					"indexed": false,
					"internalType": "uint64[]",
					"name": "Gass",
					"type": "uint64[]"
				}
			],
			"name": "LogDistributeBlockReward",
			"type": "event"
		},
		{
			"anonymous": false,
			"inputs": [
				{
					"indexed": true,
					"internalType": "address",
					"name": "val",
					"type": "address"
				},
				{
					"indexed": true,
					"internalType": "address",
					"name": "fee",
					"type": "address"
				},
				{
					"indexed": false,
					"internalType": "uint256",
					"name": "time",
					"type": "uint256"
				}
			],
			"name": "LogEditValidator",
			"type": "event"
		},
		{
			"anonymous": false,
			"inputs": [
				{
					"indexed": true,
					"internalType": "address",
					"name": "val",
					"type": "address"
				},
				{
					"indexed": false,
					"internalType": "uint256",
					"name": "time",
					"type": "uint256"
				}
			],
			"name": "LogReactive",
			"type": "event"
		},
		{
			"anonymous": false,
			"inputs": [
				{
					"indexed": true,
					"internalType": "address",
					"name": "val",
					"type": "address"
				},
				{
					"indexed": false,
					"internalType": "uint256",
					"name": "time",
					"type": "uint256"
				}
			],
			"name": "LogRemoveFromTopValidators",
			"type": "event"
		},
		{
			"anonymous": false,
			"inputs": [
				{
					"indexed": true,
					"internalType": "address",
					"name": "val",
					"type": "address"
				},
				{
					"indexed": false,
					"internalType": "uint256",
					"name": "hb",
					"type": "uint256"
				},
				{
					"indexed": false,
					"internalType": "uint256",
					"name": "time",
					"type": "uint256"
				}
			],
			"name": "LogRemoveValidator",
			"type": "event"
		},
		{
			"anonymous": false,
			"inputs": [
				{
					"indexed": true,
					"internalType": "address",
					"name": "val",
					"type": "address"
				},
				{
					"indexed": false,
					"internalType": "uint256",
					"name": "hb",
					"type": "uint256"
				},
				{
					"indexed": false,
					"internalType": "uint256",
					"name": "time",
					"type": "uint256"
				}
			],
			"name": "LogRemoveValidatorIncoming",
			"type": "event"
		},
		{
			"anonymous": false,
			"inputs": [
				{
					"indexed": true,
					"internalType": "address",
					"name": "staker",
					"type": "address"
				},
				{
					"indexed": true,
					"internalType": "address",
					"name": "val",
					"type": "address"
				},
				{
					"indexed": false,
					"internalType": "uint256",
					"name": "staking",
					"type": "uint256"
				},
				{
					"indexed": false,
					"internalType": "uint256",
					"name": "time",
					"type": "uint256"
				}
			],
			"name": "LogStake",
			"type": "event"
		},
		{
			"anonymous": false,
			"inputs": [
				{
					"indexed": true,
					"internalType": "address",
					"name": "staker",
					"type": "address"
				},
				{
					"indexed": true,
					"internalType": "address",
					"name": "val",
					"type": "address"
				},
				{
					"indexed": false,
					"internalType": "uint256",
					"name": "amount",
					"type": "uint256"
				},
				{
					"indexed": false,
					"internalType": "uint256",
					"name": "time",
					"type": "uint256"
				}
			],
			"name": "LogUnstake",
			"type": "event"
		},
		{
			"anonymous": false,
			"inputs": [
				{
					"indexed": false,
					"internalType": "address[]",
					"name": "newSet",
					"type": "address[]"
				}
			],
			"name": "LogUpdateValidator",
			"type": "event"
		},
		{
			"anonymous": false,
			"inputs": [
				{
					"indexed": true,
					"internalType": "address",
					"name": "val",
					"type": "address"
				},
				{
					"indexed": true,
					"internalType": "address",
					"name": "fee",
					"type": "address"
				},
				{
					"indexed": false,
					"internalType": "uint256",
					"name": "hb",
					"type": "uint256"
				},
				{
					"indexed": false,
					"internalType": "uint256",
					"name": "time",
					"type": "uint256"
				}
			],
			"name": "LogWithdrawProfits",
			"type": "event"
		},
		{
			"anonymous": false,
			"inputs": [
				{
					"indexed": true,
					"internalType": "address",
					"name": "staker",
					"type": "address"
				},
				{
					"indexed": true,
					"internalType": "address",
					"name": "val",
					"type": "address"
				},
				{
					"indexed": false,
					"internalType": "uint256",
					"name": "amount",
					"type": "uint256"
				},
				{
					"indexed": false,
					"internalType": "uint256",
					"name": "time",
					"type": "uint256"
				}
			],
			"name": "LogWithdrawStaking",
			"type": "event"
		},
		{
			"anonymous": false,
			"inputs": [
				{
					"indexed": false,
					"internalType": "address",
					"name": "user",
					"type": "address"
				},
				{
					"indexed": false,
					"internalType": "address",
					"name": "validator",
					"type": "address"
				},
				{
					"indexed": false,
					"internalType": "uint256",
					"name": "reward",
					"type": "uint256"
				},
				{
					"indexed": false,
					"internalType": "uint256",
					"name": "timeStamp",
					"type": "uint256"
				}
			],
			"name": "withdrawStakingRewardEv",
			"type": "event"
		},
		{
			"inputs": [],
			"name": "MaxValidators",
			"outputs": [
				{
					"internalType": "uint16",
					"name": "",
					"type": "uint16"
				}
			],
			"stateMutability": "view",
			"type": "function"
		},
		{
			"inputs": [],
			"name": "MinimalStakingCoin",
			"outputs": [
				{
					"internalType": "uint256",
					"name": "",
					"type": "uint256"
				}
			],
			"stateMutability": "view",
			"type": "function"
		},
		{
			"inputs": [],
			"name": "ProposalAddr",
			"outputs": [
				{
					"internalType": "address",
					"name": "",
					"type": "address"
				}
			],
			"stateMutability": "view",
			"type": "function"
		},
		{
			"inputs": [],
			"name": "PunishContractAddr",
			"outputs": [
				{
					"internalType": "address",
					"name": "",
					"type": "address"
				}
			],
			"stateMutability": "view",
			"type": "function"
		},
		{
			"inputs": [],
			"name": "StakingLockPeriod",
			"outputs": [
				{
					"internalType": "uint64",
					"name": "",
					"type": "uint64"
				}
			],
			"stateMutability": "view",
			"type": "function"
		},
		{
			"inputs": [],
			"name": "ValidatorContractAddr",
			"outputs": [
				{
					"internalType": "address",
					"name": "",
					"type": "address"
				}
			],
			"stateMutability": "view",
			"type": "function"
		},
		{
			"inputs": [],
			"name": "burnPartPercent",
			"outputs": [
				{
					"internalType": "uint256",
					"name": "",
					"type": "uint256"
				}
			],
			"stateMutability": "view",
			"type": "function"
		},
		{
			"inputs": [],
			"name": "burnStopAmount",
			"outputs": [
				{
					"internalType": "uint256",
					"name": "",
					"type": "uint256"
				}
			],
			"stateMutability": "view",
			"type": "function"
		},
		{
			"inputs": [
				{
					"internalType": "address",
					"name": "",
					"type": "address"
				}
			],
			"name": "contractCreator",
			"outputs": [
				{
					"internalType": "address",
					"name": "",
					"type": "address"
				}
			],
			"stateMutability": "view",
			"type": "function"
		},
		{
			"inputs": [],
			"name": "contractPartPercent",
			"outputs": [
				{
					"internalType": "uint256",
					"name": "",
					"type": "uint256"
				}
			],
			"stateMutability": "view",
			"type": "function"
		},
		{
			"inputs": [
				{
					"internalType": "address payable",
					"name": "feeAddr",
					"type": "address"
				},
				{
					"internalType": "string",
					"name": "moniker",
					"type": "string"
				},
				{
					"internalType": "string",
					"name": "identity",
					"type": "string"
				},
				{
					"internalType": "string",
					"name": "website",
					"type": "string"
				},
				{
					"internalType": "string",
					"name": "email",
					"type": "string"
				},
				{
					"internalType": "string",
					"name": "details",
					"type": "string"
				}
			],
			"name": "createOrEditValidator",
			"outputs": [
				{
					"internalType": "bool",
					"name": "",
					"type": "bool"
				}
			],
			"stateMutability": "payable",
			"type": "function"
		},
		{
			"inputs": [
				{
					"internalType": "uint256",
					"name": "",
					"type": "uint256"
				}
			],
			"name": "currentValidatorSet",
			"outputs": [
				{
					"internalType": "address",
					"name": "",
					"type": "address"
				}
			],
			"stateMutability": "view",
			"type": "function"
		},
		{
			"inputs": [
				{
					"internalType": "address[]",
					"name": "_to",
					"type": "address[]"
				},
				{
					"internalType": "uint64[]",
					"name": "_gass",
					"type": "uint64[]"
				}
			],
			"name": "distributeBlockReward",
			"outputs": [],
			"stateMutability": "payable",
			"type": "function"
		},
		{
			"inputs": [],
			"name": "getActiveValidators",
			"outputs": [
				{
					"internalType": "address[]",
					"name": "",
					"type": "address[]"
				}
			],
			"stateMutability": "view",
			"type": "function"
		},
		{
			"inputs": [
				{
					"internalType": "address",
					"name": "staker",
					"type": "address"
				},
				{
					"internalType": "address",
					"name": "val",
					"type": "address"
				}
			],
			"name": "getStakingInfo",
			"outputs": [
				{
					"internalType": "uint256",
					"name": "",
					"type": "uint256"
				},
				{
					"internalType": "uint256",
					"name": "",
					"type": "uint256"
				},
				{
					"internalType": "uint256",
					"name": "",
					"type": "uint256"
				}
			],
			"stateMutability": "view",
			"type": "function"
		},
		{
			"inputs": [],
			"name": "getTopValidators",
			"outputs": [
				{
					"internalType": "address[]",
					"name": "",
					"type": "address[]"
				}
			],
			"stateMutability": "view",
			"type": "function"
		},
		{
			"inputs": [],
			"name": "getTotalStakeOfActiveValidators",
			"outputs": [
				{
					"internalType": "uint256",
					"name": "total",
					"type": "uint256"
				},
				{
					"internalType": "uint256",
					"name": "len",
					"type": "uint256"
				}
			],
			"stateMutability": "view",
			"type": "function"
		},
		{
			"inputs": [
				{
					"internalType": "address",
					"name": "val",
					"type": "address"
				}
			],
			"name": "getValidatorDescription",
			"outputs": [
				{
					"internalType": "string",
					"name": "",
					"type": "string"
				},
				{
					"internalType": "string",
					"name": "",
					"type": "string"
				},
				{
					"internalType": "string",
					"name": "",
					"type": "string"
				},
				{
					"internalType": "string",
					"name": "",
					"type": "string"
				},
				{
					"internalType": "string",
					"name": "",
					"type": "string"
				}
			],
			"stateMutability": "view",
			"type": "function"
		},
		{
			"inputs": [
				{
					"internalType": "address",
					"name": "val",
					"type": "address"
				}
			],
			"name": "getValidatorInfo",
			"outputs": [
				{
					"internalType": "address payable",
					"name": "",
					"type": "address"
				},
				{
					"internalType": "enum Validators.Status",
					"name": "",
					"type": "uint8"
				},
				{
					"internalType": "uint256",
					"name": "",
					"type": "uint256"
				},
				{
					"internalType": "uint256",
					"name": "",
					"type": "uint256"
				},
				{
					"internalType": "uint256",
					"name": "",
					"type": "uint256"
				},
				{
					"internalType": "address[]",
					"name": "",
					"type": "address[]"
				}
			],
			"stateMutability": "view",
			"type": "function"
		},
		{
			"inputs": [
				{
					"internalType": "uint256",
					"name": "",
					"type": "uint256"
				}
			],
			"name": "highestValidatorsSet",
			"outputs": [
				{
					"internalType": "address",
					"name": "",
					"type": "address"
				}
			],
			"stateMutability": "view",
			"type": "function"
		},
		{
			"inputs": [
				{
					"internalType": "address[]",
					"name": "vals",
					"type": "address[]"
				}
			],
			"name": "initialize",
			"outputs": [],
			"stateMutability": "nonpayable",
			"type": "function"
		},
		{
			"inputs": [],
			"name": "initialized",
			"outputs": [
				{
					"internalType": "bool",
					"name": "",
					"type": "bool"
				}
			],
			"stateMutability": "view",
			"type": "function"
		},
		{
			"inputs": [
				{
					"internalType": "address",
					"name": "who",
					"type": "address"
				}
			],
			"name": "isActiveValidator",
			"outputs": [
				{
					"internalType": "bool",
					"name": "",
					"type": "bool"
				}
			],
			"stateMutability": "view",
			"type": "function"
		},
		{
			"inputs": [
				{
					"internalType": "address",
					"name": "who",
					"type": "address"
				}
			],
			"name": "isTopValidator",
			"outputs": [
				{
					"internalType": "bool",
					"name": "",
					"type": "bool"
				}
			],
			"stateMutability": "view",
			"type": "function"
		},
		{
			"inputs": [
				{
					"internalType": "address",
					"name": "",
					"type": "address"
				}
			],
			"name": "lastRewardTime",
			"outputs": [
				{
					"internalType": "uint256",
					"name": "",
					"type": "uint256"
				}
			],
			"stateMutability": "view",
			"type": "function"
		},
		{
			"inputs": [],
			"name": "minimumValidatorStaking",
			"outputs": [
				{
					"internalType": "uint256",
					"name": "",
					"type": "uint256"
				}
			],
			"stateMutability": "view",
			"type": "function"
		},
		{
			"inputs": [
				{
					"internalType": "address",
					"name": "",
					"type": "address"
				},
				{
					"internalType": "uint256",
					"name": "",
					"type": "uint256"
				}
			],
			"name": "reflectionPercentSum",
			"outputs": [
				{
					"internalType": "uint256",
					"name": "",
					"type": "uint256"
				}
			],
			"stateMutability": "view",
			"type": "function"
		},
		{
			"inputs": [
				{
					"internalType": "address",
					"name": "val",
					"type": "address"
				}
			],
			"name": "removeValidator",
			"outputs": [],
			"stateMutability": "nonpayable",
			"type": "function"
		},
		{
			"inputs": [
				{
					"internalType": "address",
					"name": "val",
					"type": "address"
				}
			],
			"name": "removeValidatorIncoming",
			"outputs": [],
			"stateMutability": "nonpayable",
			"type": "function"
		},
		{
			"inputs": [
				{
					"internalType": "address",
					"name": "_contract",
					"type": "address"
				}
			],
			"name": "setContractCreator",
			"outputs": [
				{
					"internalType": "bool",
					"name": "",
					"type": "bool"
				}
			],
			"stateMutability": "nonpayable",
			"type": "function"
		},
		{
			"inputs": [
				{
					"internalType": "address",
					"name": "validator",
					"type": "address"
				}
			],
			"name": "stake",
			"outputs": [
				{
					"internalType": "bool",
					"name": "",
					"type": "bool"
				}
			],
			"stateMutability": "payable",
			"type": "function"
		},
		{
			"inputs": [
				{
					"internalType": "address",
					"name": "",
					"type": "address"
				},
				{
					"internalType": "address",
					"name": "",
					"type": "address"
				}
			],
			"name": "stakeTime",
			"outputs": [
				{
					"internalType": "uint256",
					"name": "",
					"type": "uint256"
				}
			],
			"stateMutability": "view",
			"type": "function"
		},
		{
			"inputs": [],
			"name": "stakerPartPercent",
			"outputs": [
				{
					"internalType": "uint256",
					"name": "",
					"type": "uint256"
				}
			],
			"stateMutability": "view",
			"type": "function"
		},
		{
			"inputs": [],
			"name": "totalBurnt",
			"outputs": [
				{
					"internalType": "uint256",
					"name": "",
					"type": "uint256"
				}
			],
			"stateMutability": "view",
			"type": "function"
		},
		{
			"inputs": [],
			"name": "totalJailedHB",
			"outputs": [
				{
					"internalType": "uint256",
					"name": "",
					"type": "uint256"
				}
			],
			"stateMutability": "view",
			"type": "function"
		},
		{
			"inputs": [],
			"name": "totalStake",
			"outputs": [
				{
					"internalType": "uint256",
					"name": "",
					"type": "uint256"
				}
			],
			"stateMutability": "view",
			"type": "function"
		},
		{
			"inputs": [
				{
					"internalType": "address",
					"name": "validator",
					"type": "address"
				}
			],
			"name": "tryReactive",
			"outputs": [
				{
					"internalType": "bool",
					"name": "",
					"type": "bool"
				}
			],
			"stateMutability": "nonpayable",
			"type": "function"
		},
		{
			"inputs": [
				{
					"internalType": "address",
					"name": "validator",
					"type": "address"
				}
			],
			"name": "unstake",
			"outputs": [
				{
					"internalType": "bool",
					"name": "",
					"type": "bool"
				}
			],
			"stateMutability": "nonpayable",
			"type": "function"
		},
		{
			"inputs": [
				{
					"internalType": "address[]",
					"name": "newSet",
					"type": "address[]"
				},
				{
					"internalType": "uint256",
					"name": "epoch",
					"type": "uint256"
				}
			],
			"name": "updateActiveValidatorSet",
			"outputs": [],
			"stateMutability": "nonpayable",
			"type": "function"
		},
		{
			"inputs": [
				{
					"internalType": "string",
					"name": "moniker",
					"type": "string"
				},
				{
					"internalType": "string",
					"name": "identity",
					"type": "string"
				},
				{
					"internalType": "string",
					"name": "website",
					"type": "string"
				},
				{
					"internalType": "string",
					"name": "email",
					"type": "string"
				},
				{
					"internalType": "string",
					"name": "details",
					"type": "string"
				}
			],
			"name": "validateDescription",
			"outputs": [
				{
					"internalType": "bool",
					"name": "",
					"type": "bool"
				}
			],
			"stateMutability": "pure",
			"type": "function"
		},
		{
			"inputs": [],
			"name": "validatorPartPercent",
			"outputs": [
				{
					"internalType": "uint256",
					"name": "",
					"type": "uint256"
				}
			],
			"stateMutability": "view",
			"type": "function"
		},
		{
			"inputs": [
				{
					"internalType": "address",
					"name": "_staker",
					"type": "address"
				},
				{
					"internalType": "address",
					"name": "_validator",
					"type": "address"
				}
			],
			"name": "viewStakeReward",
			"outputs": [
				{
					"internalType": "uint256",
					"name": "",
					"type": "uint256"
				}
			],
			"stateMutability": "view",
			"type": "function"
		},
		{
			"inputs": [
				{
					"internalType": "address",
					"name": "validator",
					"type": "address"
				}
			],
			"name": "withdrawProfits",
			"outputs": [
				{
					"internalType": "bool",
					"name": "",
					"type": "bool"
				}
			],
			"stateMutability": "nonpayable",
			"type": "function"
		},
		{
			"inputs": [
				{
					"internalType": "address",
					"name": "validator",
					"type": "address"
				}
			],
			"name": "withdrawStaking",
			"outputs": [
				{
					"internalType": "bool",
					"name": "",
					"type": "bool"
				}
			],
			"stateMutability": "nonpayable",
			"type": "function"
		},
		{
			"inputs": [
				{
					"internalType": "address",
					"name": "validator",
					"type": "address"
				}
			],
			"name": "withdrawStakingReward",
			"outputs": [
				{
					"internalType": "bool",
					"name": "",
					"type": "bool"
				}
			],
			"stateMutability": "nonpayable",
			"type": "function"
		}
	]
}